{
  "address": "0x022e471e222502d59cd0817D19CA2C62F6715082",
  "abi": [
    {
      "inputs": [
        {
          "internalType": "uint256",
          "name": "_startTime",
          "type": "uint256"
        }
      ],
      "stateMutability": "nonpayable",
      "type": "constructor"
    },
    {
      "inputs": [],
      "name": "DrakeConcertContract_addrCannotBeZeroAddress",
      "type": "error"
    },
    {
      "inputs": [],
      "name": "DrakeConcertContract_inAccuratePrice",
      "type": "error"
    },
    {
      "inputs": [],
      "name": "DrakeConcertContract_notWhiteListed",
      "type": "error"
    },
    {
      "inputs": [],
      "name": "DrakeConcertContract_saleHasNotEnded",
      "type": "error"
    },
    {
      "inputs": [],
      "name": "DrakeConcertContract_saleHasNotStarted",
      "type": "error"
    },
    {
      "inputs": [],
      "name": "DrakeConcertContract_salesHasEnded",
      "type": "error"
    },
    {
      "anonymous": false,
      "inputs": [
        {
          "indexed": true,
          "internalType": "address",
          "name": "owner",
          "type": "address"
        },
        {
          "indexed": true,
          "internalType": "address",
          "name": "approved",
          "type": "address"
        },
        {
          "indexed": true,
          "internalType": "uint256",
          "name": "tokenId",
          "type": "uint256"
        }
      ],
      "name": "Approval",
      "type": "event"
    },
    {
      "anonymous": false,
      "inputs": [
        {
          "indexed": true,
          "internalType": "address",
          "name": "owner",
          "type": "address"
        },
        {
          "indexed": true,
          "internalType": "address",
          "name": "operator",
          "type": "address"
        },
        {
          "indexed": false,
          "internalType": "bool",
          "name": "approved",
          "type": "bool"
        }
      ],
      "name": "ApprovalForAll",
      "type": "event"
    },
    {
      "anonymous": false,
      "inputs": [
        {
          "indexed": true,
          "internalType": "address",
          "name": "previousOwner",
          "type": "address"
        },
        {
          "indexed": true,
          "internalType": "address",
          "name": "newOwner",
          "type": "address"
        }
      ],
      "name": "OwnershipTransferred",
      "type": "event"
    },
    {
      "anonymous": false,
      "inputs": [
        {
          "indexed": true,
          "internalType": "address",
          "name": "buyersAddress",
          "type": "address"
        },
        {
          "indexed": true,
          "internalType": "uint256",
          "name": "ticketId",
          "type": "uint256"
        }
      ],
      "name": "SoulboundTicket",
      "type": "event"
    },
    {
      "anonymous": false,
      "inputs": [
        {
          "indexed": true,
          "internalType": "address",
          "name": "buyersAddress",
          "type": "address"
        },
        {
          "indexed": true,
          "internalType": "uint256",
          "name": "ticketId",
          "type": "uint256"
        }
      ],
      "name": "TicketBought",
      "type": "event"
    },
    {
      "anonymous": false,
      "inputs": [
        {
          "indexed": true,
          "internalType": "address",
          "name": "from",
          "type": "address"
        },
        {
          "indexed": true,
          "internalType": "address",
          "name": "to",
          "type": "address"
        },
        {
          "indexed": true,
          "internalType": "uint256",
          "name": "tokenId",
          "type": "uint256"
        }
      ],
      "name": "Transfer",
      "type": "event"
    },
    {
      "inputs": [
        {
          "internalType": "address",
          "name": "to",
          "type": "address"
        },
        {
          "internalType": "uint256",
          "name": "tokenId",
          "type": "uint256"
        }
      ],
      "name": "approve",
      "outputs": [],
      "stateMutability": "nonpayable",
      "type": "function"
    },
    {
      "inputs": [
        {
          "internalType": "address",
          "name": "owner",
          "type": "address"
        }
      ],
      "name": "balanceOf",
      "outputs": [
        {
          "internalType": "uint256",
          "name": "",
          "type": "uint256"
        }
      ],
      "stateMutability": "view",
      "type": "function"
    },
    {
      "inputs": [],
      "name": "buyTicket",
      "outputs": [],
      "stateMutability": "payable",
      "type": "function"
    },
    {
      "inputs": [
        {
          "internalType": "uint256",
          "name": "tokenId",
          "type": "uint256"
        }
      ],
      "name": "getApproved",
      "outputs": [
        {
          "internalType": "address",
          "name": "",
          "type": "address"
        }
      ],
      "stateMutability": "view",
      "type": "function"
    },
    {
      "inputs": [],
      "name": "getEndTime",
      "outputs": [
        {
          "internalType": "uint256",
          "name": "",
          "type": "uint256"
        }
      ],
      "stateMutability": "view",
      "type": "function"
    },
    {
      "inputs": [],
      "name": "getMaxSoulNBoundCounter",
      "outputs": [
        {
          "internalType": "uint16",
          "name": "",
          "type": "uint16"
        }
      ],
      "stateMutability": "view",
      "type": "function"
    },
    {
      "inputs": [],
      "name": "getMaxSoulNBoundTicket",
      "outputs": [
        {
          "internalType": "uint16",
          "name": "",
          "type": "uint16"
        }
      ],
      "stateMutability": "view",
      "type": "function"
    },
    {
      "inputs": [],
      "name": "getMaxTicketAmount",
      "outputs": [
        {
          "internalType": "uint32",
          "name": "",
          "type": "uint32"
        }
      ],
      "stateMutability": "view",
      "type": "function"
    },
    {
      "inputs": [],
      "name": "getPreSaleCounter",
      "outputs": [
        {
          "internalType": "uint16",
          "name": "",
          "type": "uint16"
        }
      ],
      "stateMutability": "view",
      "type": "function"
    },
    {
      "inputs": [],
      "name": "getPresaleMaxAmount",
      "outputs": [
        {
          "internalType": "uint16",
          "name": "",
          "type": "uint16"
        }
      ],
      "stateMutability": "view",
      "type": "function"
    },
    {
      "inputs": [],
      "name": "getTicketPrice",
      "outputs": [
        {
          "internalType": "uint256",
          "name": "",
          "type": "uint256"
        }
      ],
      "stateMutability": "view",
      "type": "function"
    },
    {
      "inputs": [],
      "name": "getWhiteListedCount",
      "outputs": [
        {
          "internalType": "uint8",
          "name": "",
          "type": "uint8"
        }
      ],
      "stateMutability": "view",
      "type": "function"
    },
    {
      "inputs": [
        {
          "internalType": "address",
          "name": "owner",
          "type": "address"
        }
      ],
      "name": "hasSoulBoundToken",
      "outputs": [
        {
          "internalType": "bool",
          "name": "",
          "type": "bool"
        }
      ],
      "stateMutability": "view",
      "type": "function"
    },
    {
      "inputs": [
        {
          "internalType": "address",
          "name": "owner",
          "type": "address"
        },
        {
          "internalType": "address",
          "name": "operator",
          "type": "address"
        }
      ],
      "name": "isApprovedForAll",
      "outputs": [
        {
          "internalType": "bool",
          "name": "",
          "type": "bool"
        }
      ],
      "stateMutability": "view",
      "type": "function"
    },
    {
      "inputs": [
        {
          "internalType": "address",
          "name": "_address",
          "type": "address"
        }
      ],
      "name": "isWhiteListed",
      "outputs": [
        {
          "internalType": "bool",
          "name": "",
          "type": "bool"
        }
      ],
      "stateMutability": "view",
      "type": "function"
    },
    {
      "inputs": [],
      "name": "killContract",
      "outputs": [],
      "stateMutability": "nonpayable",
      "type": "function"
    },
    {
      "inputs": [],
      "name": "name",
      "outputs": [
        {
          "internalType": "string",
          "name": "",
          "type": "string"
        }
      ],
      "stateMutability": "view",
      "type": "function"
    },
    {
      "inputs": [],
      "name": "owner",
      "outputs": [
        {
          "internalType": "address",
          "name": "",
          "type": "address"
        }
      ],
      "stateMutability": "view",
      "type": "function"
    },
    {
      "inputs": [
        {
          "internalType": "uint256",
          "name": "tokenId",
          "type": "uint256"
        }
      ],
      "name": "ownerOf",
      "outputs": [
        {
          "internalType": "address",
          "name": "",
          "type": "address"
        }
      ],
      "stateMutability": "view",
      "type": "function"
    },
    {
      "inputs": [
        {
          "internalType": "address[]",
          "name": "addresses",
          "type": "address[]"
        }
      ],
      "name": "removeWhiteListedAddress",
      "outputs": [],
      "stateMutability": "nonpayable",
      "type": "function"
    },
    {
      "inputs": [],
      "name": "renounceOwnership",
      "outputs": [],
      "stateMutability": "nonpayable",
      "type": "function"
    },
    {
      "inputs": [
        {
          "internalType": "address",
          "name": "from",
          "type": "address"
        },
        {
          "internalType": "address",
          "name": "to",
          "type": "address"
        },
        {
          "internalType": "uint256",
          "name": "tokenId",
          "type": "uint256"
        }
      ],
      "name": "safeTransferFrom",
      "outputs": [],
      "stateMutability": "nonpayable",
      "type": "function"
    },
    {
      "inputs": [
        {
          "internalType": "address",
          "name": "from",
          "type": "address"
        },
        {
          "internalType": "address",
          "name": "to",
          "type": "address"
        },
        {
          "internalType": "uint256",
          "name": "tokenId",
          "type": "uint256"
        },
        {
          "internalType": "bytes",
          "name": "data",
          "type": "bytes"
        }
      ],
      "name": "safeTransferFrom",
      "outputs": [],
      "stateMutability": "nonpayable",
      "type": "function"
    },
    {
      "inputs": [
        {
          "internalType": "address",
          "name": "operator",
          "type": "address"
        },
        {
          "internalType": "bool",
          "name": "approved",
          "type": "bool"
        }
      ],
      "name": "setApprovalForAll",
      "outputs": [],
      "stateMutability": "nonpayable",
      "type": "function"
    },
    {
      "inputs": [
        {
          "internalType": "bytes4",
          "name": "interfaceId",
          "type": "bytes4"
        }
      ],
      "name": "supportsInterface",
      "outputs": [
        {
          "internalType": "bool",
          "name": "",
          "type": "bool"
        }
      ],
      "stateMutability": "view",
      "type": "function"
    },
    {
      "inputs": [],
      "name": "symbol",
      "outputs": [
        {
          "internalType": "string",
          "name": "",
          "type": "string"
        }
      ],
      "stateMutability": "view",
      "type": "function"
    },
    {
      "inputs": [
        {
          "internalType": "uint256",
          "name": "index",
          "type": "uint256"
        }
      ],
      "name": "tokenByIndex",
      "outputs": [
        {
          "internalType": "uint256",
          "name": "",
          "type": "uint256"
        }
      ],
      "stateMutability": "view",
      "type": "function"
    },
    {
      "inputs": [
        {
          "internalType": "address",
          "name": "owner",
          "type": "address"
        },
        {
          "internalType": "uint256",
          "name": "index",
          "type": "uint256"
        }
      ],
      "name": "tokenOfOwnerByIndex",
      "outputs": [
        {
          "internalType": "uint256",
          "name": "",
          "type": "uint256"
        }
      ],
      "stateMutability": "view",
      "type": "function"
    },
    {
      "inputs": [
        {
          "internalType": "uint256",
          "name": "tokenId",
          "type": "uint256"
        }
      ],
      "name": "tokenURI",
      "outputs": [
        {
          "internalType": "string",
          "name": "",
          "type": "string"
        }
      ],
      "stateMutability": "view",
      "type": "function"
    },
    {
      "inputs": [],
      "name": "totalSupply",
      "outputs": [
        {
          "internalType": "uint256",
          "name": "",
          "type": "uint256"
        }
      ],
      "stateMutability": "view",
      "type": "function"
    },
    {
      "inputs": [
        {
          "internalType": "address",
          "name": "from",
          "type": "address"
        },
        {
          "internalType": "address",
          "name": "to",
          "type": "address"
        },
        {
          "internalType": "uint256",
          "name": "tokenId",
          "type": "uint256"
        }
      ],
      "name": "transferFrom",
      "outputs": [],
      "stateMutability": "nonpayable",
      "type": "function"
    },
    {
      "inputs": [
        {
          "internalType": "address",
          "name": "newOwner",
          "type": "address"
        }
      ],
      "name": "transferOwnership",
      "outputs": [],
      "stateMutability": "nonpayable",
      "type": "function"
    },
    {
      "inputs": [
        {
          "internalType": "address[]",
          "name": "addresses",
          "type": "address[]"
        }
      ],
      "name": "whiteListAddress",
      "outputs": [],
      "stateMutability": "nonpayable",
      "type": "function"
    },
    {
      "inputs": [],
      "name": "whiteListedCounter",
      "outputs": [
        {
          "internalType": "uint8",
          "name": "",
          "type": "uint8"
        }
      ],
      "stateMutability": "view",
      "type": "function"
    }
  ],
  "transactionHash": "0x735a9a0c87b2b29c8612918faf383fbb5fc1b468bd43be741804fdbceef73440",
  "args": [
    1683962008
  ],
  "numDeployments": 3,
  "solcInputHash": "05f5f3dd0239e655350485b87e0503f4",
  "bytecode": "0x60806040523480156200001157600080fd5b5060405162006f9538038062006f95833981810160405281019062000037919062000296565b6040518060400160405280601481526020017f4472616b65436f6e63657274436f6e74726163740000000000000000000000008152506040518060400160405280600481526020017f24444343000000000000000000000000000000000000000000000000000000008152508160009081620000b4919062000538565b508060019081620000c6919062000538565b505050620000e9620000dd6200017a60201b60201c565b6200018260201b60201c565b604051620000f79062000248565b604051809103906000f08015801562000114573d6000803e3d6000fd5b50600d60056101000a81548173ffffffffffffffffffffffffffffffffffffffff021916908373ffffffffffffffffffffffffffffffffffffffff16021790555080600b81905550620d2f00816200016d91906200064e565b600c819055505062000689565b600033905090565b6000600a60009054906101000a900473ffffffffffffffffffffffffffffffffffffffff16905081600a60006101000a81548173ffffffffffffffffffffffffffffffffffffffff021916908373ffffffffffffffffffffffffffffffffffffffff1602179055508173ffffffffffffffffffffffffffffffffffffffff168173ffffffffffffffffffffffffffffffffffffffff167f8be0079c531659141344cd1fd0a4f28419497f9722a3daafe3b4186f6b6457e060405160405180910390a35050565b61266c806200492983390190565b600080fd5b6000819050919050565b62000270816200025b565b81146200027c57600080fd5b50565b600081519050620002908162000265565b92915050565b600060208284031215620002af57620002ae62000256565b5b6000620002bf848285016200027f565b91505092915050565b600081519050919050565b7f4e487b7100000000000000000000000000000000000000000000000000000000600052604160045260246000fd5b7f4e487b7100000000000000000000000000000000000000000000000000000000600052602260045260246000fd5b600060028204905060018216806200034a57607f821691505b60208210810362000360576200035f62000302565b5b50919050565b60008190508160005260206000209050919050565b60006020601f8301049050919050565b600082821b905092915050565b600060088302620003ca7fffffffffffffffffffffffffffffffffffffffffffffffffffffffffffffffff826200038b565b620003d686836200038b565b95508019841693508086168417925050509392505050565b6000819050919050565b600062000419620004136200040d846200025b565b620003ee565b6200025b565b9050919050565b6000819050919050565b6200043583620003f8565b6200044d620004448262000420565b84845462000398565b825550505050565b600090565b6200046462000455565b620004718184846200042a565b505050565b5b8181101562000499576200048d6000826200045a565b60018101905062000477565b5050565b601f821115620004e857620004b28162000366565b620004bd846200037b565b81016020851015620004cd578190505b620004e5620004dc856200037b565b83018262000476565b50505b505050565b600082821c905092915050565b60006200050d60001984600802620004ed565b1980831691505092915050565b6000620005288383620004fa565b9150826002028217905092915050565b6200054382620002c8565b67ffffffffffffffff8111156200055f576200055e620002d3565b5b6200056b825462000331565b620005788282856200049d565b600060209050601f831160018114620005b057600084156200059b578287015190505b620005a785826200051a565b86555062000617565b601f198416620005c08662000366565b60005b82811015620005ea57848901518255600182019150602085019450602081019050620005c3565b868310156200060a578489015162000606601f891682620004fa565b8355505b6001600288020188555050505b505050505050565b7f4e487b7100000000000000000000000000000000000000000000000000000000600052601160045260246000fd5b60006200065b826200025b565b915062000668836200025b565b92508282019050808211156200068357620006826200061f565b5b92915050565b61429080620006996000396000f3fe6080604052600436106101f95760003560e01c806370a082311161010d578063c08c096b116100a0578063e985e9c51161006f578063e985e9c514610749578063edca914c14610786578063f1a489e214610790578063f2fde38b146107bb578063f64cf50d146107e4576101f9565b8063c08c096b1461068d578063c3389687146106b8578063c87b56dd146106e3578063ce05bd0b14610720576101f9565b806395d89b41116100dc57806395d89b41146105d3578063a22cb465146105fe578063a557d3bc14610627578063b88d4fde14610664576101f9565b806370a0823114610529578063715018a61461056657806387bb7ae01461057d5780638da5cb5b146105a8576101f9565b80632f745c59116101905780634e41cfdb1161015f5780634e41cfdb1461041e5780634f6ccce7146104475780636352211e14610484578063635a881c146104c15780636f9170f6146104ec576101f9565b80632f745c5914610362578063409eb08e1461039f57806342842e0e146103ca578063439f5ac2146103f3576101f9565b8063095ea7b3116101cc578063095ea7b3146102ce57806318160ddd146102f75780631c02708d1461032257806323b872dd14610339576101f9565b806301ffc9a7146101fe57806306fdde031461023b5780630743f96714610266578063081812fc14610291575b600080fd5b34801561020a57600080fd5b5061022560048036038101906102209190612e16565b61080f565b6040516102329190612e5e565b60405180910390f35b34801561024757600080fd5b50610250610889565b60405161025d9190612f09565b60405180910390f35b34801561027257600080fd5b5061027b61091b565b6040516102889190612f48565b60405180910390f35b34801561029d57600080fd5b506102b860048036038101906102b39190612f99565b610933565b6040516102c59190613007565b60405180910390f35b3480156102da57600080fd5b506102f560048036038101906102f0919061304e565b610979565b005b34801561030357600080fd5b5061030c610a90565b604051610319919061309d565b60405180910390f35b34801561032e57600080fd5b50610337610a9d565b005b34801561034557600080fd5b50610360600480360381019061035b91906130b8565b610b1b565b005b34801561036e57600080fd5b506103896004803603810190610384919061304e565b610b7b565b604051610396919061309d565b60405180910390f35b3480156103ab57600080fd5b506103b4610c20565b6040516103c19190612f48565b60405180910390f35b3480156103d657600080fd5b506103f160048036038101906103ec91906130b8565b610c38565b005b3480156103ff57600080fd5b50610408610c58565b604051610415919061309d565b60405180910390f35b34801561042a57600080fd5b5061044560048036038101906104409190613253565b610c62565b005b34801561045357600080fd5b5061046e60048036038101906104699190612f99565b610dcb565b60405161047b919061309d565b60405180910390f35b34801561049057600080fd5b506104ab60048036038101906104a69190612f99565b610e3c565b6040516104b89190613007565b60405180910390f35b3480156104cd57600080fd5b506104d6610ec2565b6040516104e391906132bb565b60405180910390f35b3480156104f857600080fd5b50610513600480360381019061050e91906132d6565b610ecc565b6040516105209190612e5e565b60405180910390f35b34801561053557600080fd5b50610550600480360381019061054b91906132d6565b610f22565b60405161055d919061309d565b60405180910390f35b34801561057257600080fd5b5061057b610fd9565b005b34801561058957600080fd5b50610592610fed565b60405161059f919061309d565b60405180910390f35b3480156105b457600080fd5b506105bd610ffd565b6040516105ca9190613007565b60405180910390f35b3480156105df57600080fd5b506105e8611027565b6040516105f59190612f09565b60405180910390f35b34801561060a57600080fd5b506106256004803603810190610620919061332f565b6110b9565b005b34801561063357600080fd5b5061064e600480360381019061064991906132d6565b6110cf565b60405161065b9190612e5e565b60405180910390f35b34801561067057600080fd5b5061068b60048036038101906106869190613424565b611174565b005b34801561069957600080fd5b506106a26111d6565b6040516106af91906134c3565b60405180910390f35b3480156106c457600080fd5b506106cd6111ed565b6040516106da9190612f48565b60405180910390f35b3480156106ef57600080fd5b5061070a60048036038101906107059190612f99565b6111f6565b6040516107179190612f09565b60405180910390f35b34801561072c57600080fd5b5061074760048036038101906107429190613253565b61125e565b005b34801561075557600080fd5b50610770600480360381019061076b91906134de565b6113ff565b60405161077d9190612e5e565b60405180910390f35b61078e611493565b005b34801561079c57600080fd5b506107a56118b3565b6040516107b29190612f48565b60405180910390f35b3480156107c757600080fd5b506107e260048036038101906107dd91906132d6565b6118bc565b005b3480156107f057600080fd5b506107f961193f565b60405161080691906134c3565b60405180910390f35b60007f780e9d63000000000000000000000000000000000000000000000000000000007bffffffffffffffffffffffffffffffffffffffffffffffffffffffff1916827bffffffffffffffffffffffffffffffffffffffffffffffffffffffff19161480610882575061088182611952565b5b9050919050565b6060600080546108989061354d565b80601f01602080910402602001604051908101604052809291908181526020018280546108c49061354d565b80156109115780601f106108e657610100808354040283529160200191610911565b820191906000526020600020905b8154815290600101906020018083116108f457829003601f168201915b5050505050905090565b6000600d60029054906101000a900461ffff16905090565b600061093e82611a34565b6004600083815260200190815260200160002060009054906101000a900473ffffffffffffffffffffffffffffffffffffffff169050919050565b600061098482610e3c565b90508073ffffffffffffffffffffffffffffffffffffffff168373ffffffffffffffffffffffffffffffffffffffff16036109f4576040517f08c379a00000000000000000000000000000000000000000000000000000000081526004016109eb906135f0565b60405180910390fd5b8073ffffffffffffffffffffffffffffffffffffffff16610a13611a7f565b73ffffffffffffffffffffffffffffffffffffffff161480610a425750610a4181610a3c611a7f565b6113ff565b5b610a81576040517f08c379a0000000000000000000000000000000000000000000000000000000008152600401610a7890613682565b60405180910390fd5b610a8b8383611a87565b505050565b6000600880549050905090565b610aa5611b40565b600c5442108015610ac457506103e863ffffffff16610ac2610a90565b105b15610afb576040517fb1d45db000000000000000000000000000000000000000000000000000000000815260040160405180910390fd5b610b03610ffd565b73ffffffffffffffffffffffffffffffffffffffff16ff5b610b2c610b26611a7f565b82611bbe565b610b6b576040517f08c379a0000000000000000000000000000000000000000000000000000000008152600401610b6290613714565b60405180910390fd5b610b76838383611c53565b505050565b6000610b8683610f22565b8210610bc7576040517f08c379a0000000000000000000000000000000000000000000000000000000008152600401610bbe906137a6565b60405180910390fd5b600660008473ffffffffffffffffffffffffffffffffffffffff1673ffffffffffffffffffffffffffffffffffffffff168152602001908152602001600020600083815260200190815260200160002054905092915050565b6000600d60009054906101000a900461ffff16905090565b610c5383838360405180602001604052806000815250611174565b505050565b6000600c54905090565b610c6a611b40565b600081519050600561ffff1681600d60049054906101000a900460ff16610c9191906137f5565b60ff161115610cd5576040517f08c379a0000000000000000000000000000000000000000000000000000000008152600401610ccc90613876565b60405180910390fd5b60005b8251811015610dc657610d04838281518110610cf757610cf6613896565b5b6020026020010151610ecc565b610db3576001600e6000858481518110610d2157610d20613896565b5b602002602001015173ffffffffffffffffffffffffffffffffffffffff1673ffffffffffffffffffffffffffffffffffffffff16815260200190815260200160002060006101000a81548160ff021916908315150217905550600d600481819054906101000a900460ff1680929190610d99906138c5565b91906101000a81548160ff021916908360ff160217905550505b8080610dbe906138ee565b915050610cd8565b505050565b6000610dd5610a90565b8210610e16576040517f08c379a0000000000000000000000000000000000000000000000000000000008152600401610e0d906139a8565b60405180910390fd5b60088281548110610e2a57610e29613896565b5b90600052602060002001549050919050565b600080610e4883611f4c565b9050600073ffffffffffffffffffffffffffffffffffffffff168173ffffffffffffffffffffffffffffffffffffffff1603610eb9576040517f08c379a0000000000000000000000000000000000000000000000000000000008152600401610eb090613a14565b60405180910390fd5b80915050919050565b60006103e8905090565b6000600e60008373ffffffffffffffffffffffffffffffffffffffff1673ffffffffffffffffffffffffffffffffffffffff16815260200190815260200160002060009054906101000a900460ff169050919050565b60008073ffffffffffffffffffffffffffffffffffffffff168273ffffffffffffffffffffffffffffffffffffffff1603610f92576040517f08c379a0000000000000000000000000000000000000000000000000000000008152600401610f8990613aa6565b60405180910390fd5b600360008373ffffffffffffffffffffffffffffffffffffffff1673ffffffffffffffffffffffffffffffffffffffff168152602001908152602001600020549050919050565b610fe1611b40565b610feb6000611f89565b565b6000670de0b6b3a7640000905090565b6000600a60009054906101000a900473ffffffffffffffffffffffffffffffffffffffff16905090565b6060600180546110369061354d565b80601f01602080910402602001604051908101604052809291908181526020018280546110629061354d565b80156110af5780601f10611084576101008083540402835291602001916110af565b820191906000526020600020905b81548152906001019060200180831161109257829003601f168201915b5050505050905090565b6110cb6110c4611a7f565b838361204f565b5050565b6000600d60059054906101000a900473ffffffffffffffffffffffffffffffffffffffff1673ffffffffffffffffffffffffffffffffffffffff16634ada8fcc836040518263ffffffff1660e01b815260040161112c9190613007565b602060405180830381865afa158015611149573d6000803e3d6000fd5b505050506040513d601f19601f8201168201806040525081019061116d9190613adb565b9050919050565b61118561117f611a7f565b83611bbe565b6111c4576040517f08c379a00000000000000000000000000000000000000000000000000000000081526004016111bb90613714565b60405180910390fd5b6111d0848484846121bb565b50505050565b6000600d60049054906101000a900460ff16905090565b60006005905090565b606061120182611a34565b600061120b612217565b9050600081511161122b5760405180602001604052806000815250611256565b806112358461222e565b604051602001611246929190613b44565b6040516020818303038152906040525b915050919050565b611266611b40565b600081519050600d60049054906101000a900460ff1660ff168160ff1611156112c4576040517f08c379a00000000000000000000000000000000000000000000000000000000081526004016112bb90613bb4565b60405180910390fd5b60005b82518110156113fa57600e60008483815181106112e7576112e6613896565b5b602002602001015173ffffffffffffffffffffffffffffffffffffffff1673ffffffffffffffffffffffffffffffffffffffff16815260200190815260200160002060009054906101000a900460ff16156113e7576000600e600085848151811061135557611354613896565b5b602002602001015173ffffffffffffffffffffffffffffffffffffffff1673ffffffffffffffffffffffffffffffffffffffff16815260200190815260200160002060006101000a81548160ff021916908315150217905550600d600481819054906101000a900460ff16809291906113cd90613bd4565b91906101000a81548160ff021916908360ff160217905550505b80806113f2906138ee565b9150506112c7565b505050565b6000600560008473ffffffffffffffffffffffffffffffffffffffff1673ffffffffffffffffffffffffffffffffffffffff16815260200190815260200160002060008373ffffffffffffffffffffffffffffffffffffffff1673ffffffffffffffffffffffffffffffffffffffff16815260200190815260200160002060009054906101000a900460ff16905092915050565b600073ffffffffffffffffffffffffffffffffffffffff163373ffffffffffffffffffffffffffffffffffffffff16036114f9576040517f0623993300000000000000000000000000000000000000000000000000000000815260040160405180910390fd5b670de0b6b3a7640000341461153a576040517f64bf7c6400000000000000000000000000000000000000000000000000000000815260040160405180910390fd5b600c544210611575576040517fa4d6e94500000000000000000000000000000000000000000000000000000000815260040160405180910390fd5b6103e863ffffffff16611586610a90565b036115bd576040517ff8a94fc000000000000000000000000000000000000000000000000000000000815260040160405180910390fd5b600561ffff16600d60009054906101000a900461ffff1661ffff16101561169d57600e60003373ffffffffffffffffffffffffffffffffffffffff1673ffffffffffffffffffffffffffffffffffffffff16815260200190815260200160002060009054906101000a900460ff16611661576040517f336382e000000000000000000000000000000000000000000000000000000000815260040160405180910390fd5b600d600081819054906101000a900461ffff168092919061168190613bfd565b91906101000a81548161ffff021916908361ffff160217905550505b600361ffff16600d60029054906101000a900461ffff1661ffff161080156116d05750600361ffff166116ce610a90565b105b1561183d57600d600281819054906101000a900461ffff16809291906116f590613bfd565b91906101000a81548161ffff021916908361ffff16021790555050600d60059054906101000a900473ffffffffffffffffffffffffffffffffffffffff1673ffffffffffffffffffffffffffffffffffffffff1663e077a038336040518263ffffffff1660e01b815260040161176b9190613007565b6020604051808303816000875af115801561178a573d6000803e3d6000fd5b505050506040513d601f19601f820116820180604052508101906117ae9190613adb565b50600d60059054906101000a900473ffffffffffffffffffffffffffffffffffffffff1673ffffffffffffffffffffffffffffffffffffffff166340d097c3336040518263ffffffff1660e01b815260040161180a9190613007565b600060405180830381600087803b15801561182457600080fd5b505af1158015611838573d6000803e3d6000fd5b505050505b61185a33600161184b610a90565b6118559190613c27565b6122fc565b6001611864610a90565b61186e9190613c27565b3373ffffffffffffffffffffffffffffffffffffffff167f985d112c54c7518a49841fc37640d9ded60112ea7370ca9129c8ed33c3607bc760405160405180910390a3565b60006003905090565b6118c4611b40565b600073ffffffffffffffffffffffffffffffffffffffff168173ffffffffffffffffffffffffffffffffffffffff1603611933576040517f08c379a000000000000000000000000000000000000000000000000000000000815260040161192a90613ccd565b60405180910390fd5b61193c81611f89565b50565b600d60049054906101000a900460ff1681565b60007f80ac58cd000000000000000000000000000000000000000000000000000000007bffffffffffffffffffffffffffffffffffffffffffffffffffffffff1916827bffffffffffffffffffffffffffffffffffffffffffffffffffffffff19161480611a1d57507f5b5e139f000000000000000000000000000000000000000000000000000000007bffffffffffffffffffffffffffffffffffffffffffffffffffffffff1916827bffffffffffffffffffffffffffffffffffffffffffffffffffffffff1916145b80611a2d5750611a2c8261231a565b5b9050919050565b611a3d81612384565b611a7c576040517f08c379a0000000000000000000000000000000000000000000000000000000008152600401611a7390613a14565b60405180910390fd5b50565b600033905090565b816004600083815260200190815260200160002060006101000a81548173ffffffffffffffffffffffffffffffffffffffff021916908373ffffffffffffffffffffffffffffffffffffffff160217905550808273ffffffffffffffffffffffffffffffffffffffff16611afa83610e3c565b73ffffffffffffffffffffffffffffffffffffffff167f8c5be1e5ebec7d5bd14f71427d1e84f3dd0314c0f7b2291e5b200ac8c7c3b92560405160405180910390a45050565b611b48611a7f565b73ffffffffffffffffffffffffffffffffffffffff16611b66610ffd565b73ffffffffffffffffffffffffffffffffffffffff1614611bbc576040517f08c379a0000000000000000000000000000000000000000000000000000000008152600401611bb390613d39565b60405180910390fd5b565b600080611bca83610e3c565b90508073ffffffffffffffffffffffffffffffffffffffff168473ffffffffffffffffffffffffffffffffffffffff161480611c0c5750611c0b81856113ff565b5b80611c4a57508373ffffffffffffffffffffffffffffffffffffffff16611c3284610933565b73ffffffffffffffffffffffffffffffffffffffff16145b91505092915050565b8273ffffffffffffffffffffffffffffffffffffffff16611c7382610e3c565b73ffffffffffffffffffffffffffffffffffffffff1614611cc9576040517f08c379a0000000000000000000000000000000000000000000000000000000008152600401611cc090613dcb565b60405180910390fd5b600073ffffffffffffffffffffffffffffffffffffffff168273ffffffffffffffffffffffffffffffffffffffff1603611d38576040517f08c379a0000000000000000000000000000000000000000000000000000000008152600401611d2f90613e5d565b60405180910390fd5b611d4583838360016123c5565b8273ffffffffffffffffffffffffffffffffffffffff16611d6582610e3c565b73ffffffffffffffffffffffffffffffffffffffff1614611dbb576040517f08c379a0000000000000000000000000000000000000000000000000000000008152600401611db290613dcb565b60405180910390fd5b6004600082815260200190815260200160002060006101000a81549073ffffffffffffffffffffffffffffffffffffffff02191690556001600360008573ffffffffffffffffffffffffffffffffffffffff1673ffffffffffffffffffffffffffffffffffffffff168152602001908152602001600020600082825403925050819055506001600360008473ffffffffffffffffffffffffffffffffffffffff1673ffffffffffffffffffffffffffffffffffffffff16815260200190815260200160002060008282540192505081905550816002600083815260200190815260200160002060006101000a81548173ffffffffffffffffffffffffffffffffffffffff021916908373ffffffffffffffffffffffffffffffffffffffff160217905550808273ffffffffffffffffffffffffffffffffffffffff168473ffffffffffffffffffffffffffffffffffffffff167fddf252ad1be2c89b69c2b068fc378daa952ba7f163c4a11628f55a4df523b3ef60405160405180910390a4611f478383836001612523565b505050565b60006002600083815260200190815260200160002060009054906101000a900473ffffffffffffffffffffffffffffffffffffffff169050919050565b6000600a60009054906101000a900473ffffffffffffffffffffffffffffffffffffffff16905081600a60006101000a81548173ffffffffffffffffffffffffffffffffffffffff021916908373ffffffffffffffffffffffffffffffffffffffff1602179055508173ffffffffffffffffffffffffffffffffffffffff168173ffffffffffffffffffffffffffffffffffffffff167f8be0079c531659141344cd1fd0a4f28419497f9722a3daafe3b4186f6b6457e060405160405180910390a35050565b8173ffffffffffffffffffffffffffffffffffffffff168373ffffffffffffffffffffffffffffffffffffffff16036120bd576040517f08c379a00000000000000000000000000000000000000000000000000000000081526004016120b490613ec9565b60405180910390fd5b80600560008573ffffffffffffffffffffffffffffffffffffffff1673ffffffffffffffffffffffffffffffffffffffff16815260200190815260200160002060008473ffffffffffffffffffffffffffffffffffffffff1673ffffffffffffffffffffffffffffffffffffffff16815260200190815260200160002060006101000a81548160ff0219169083151502179055508173ffffffffffffffffffffffffffffffffffffffff168373ffffffffffffffffffffffffffffffffffffffff167f17307eab39ab6107e8899845ad3d59bd9653f200f220920489ca2b5937696c31836040516121ae9190612e5e565b60405180910390a3505050565b6121c6848484611c53565b6121d284848484612529565b612211576040517f08c379a000000000000000000000000000000000000000000000000000000000815260040161220890613f5b565b60405180910390fd5b50505050565b606060405180602001604052806000815250905090565b60606000600161223d846126b0565b01905060008167ffffffffffffffff81111561225c5761225b613110565b5b6040519080825280601f01601f19166020018201604052801561228e5781602001600182028036833780820191505090505b509050600082602001820190505b6001156122f1578080600190039150507f3031323334353637383961626364656600000000000000000000000000000000600a86061a8153600a85816122e5576122e4613f7b565b5b0494506000850361229c575b819350505050919050565b612316828260405180602001604052806000815250612803565b5050565b60007f01ffc9a7000000000000000000000000000000000000000000000000000000007bffffffffffffffffffffffffffffffffffffffffffffffffffffffff1916827bffffffffffffffffffffffffffffffffffffffffffffffffffffffff1916149050919050565b60008073ffffffffffffffffffffffffffffffffffffffff166123a683611f4c565b73ffffffffffffffffffffffffffffffffffffffff1614159050919050565b6123d18484848461285e565b6001811115612415576040517f08c379a000000000000000000000000000000000000000000000000000000000815260040161240c9061401c565b60405180910390fd5b6000829050600073ffffffffffffffffffffffffffffffffffffffff168573ffffffffffffffffffffffffffffffffffffffff160361245c5761245781612864565b61249b565b8373ffffffffffffffffffffffffffffffffffffffff168573ffffffffffffffffffffffffffffffffffffffff161461249a5761249985826128ad565b5b5b600073ffffffffffffffffffffffffffffffffffffffff168473ffffffffffffffffffffffffffffffffffffffff16036124dd576124d881612a1a565b61251c565b8473ffffffffffffffffffffffffffffffffffffffff168473ffffffffffffffffffffffffffffffffffffffff161461251b5761251a8482612aeb565b5b5b5050505050565b50505050565b600061254a8473ffffffffffffffffffffffffffffffffffffffff16612b6a565b156126a3578373ffffffffffffffffffffffffffffffffffffffff1663150b7a02612573611a7f565b8786866040518563ffffffff1660e01b81526004016125959493929190614091565b6020604051808303816000875af19250505080156125d157506040513d601f19601f820116820180604052508101906125ce91906140f2565b60015b612653573d8060008114612601576040519150601f19603f3d011682016040523d82523d6000602084013e612606565b606091505b50600081510361264b576040517f08c379a000000000000000000000000000000000000000000000000000000000815260040161264290613f5b565b60405180910390fd5b805181602001fd5b63150b7a0260e01b7bffffffffffffffffffffffffffffffffffffffffffffffffffffffff1916817bffffffffffffffffffffffffffffffffffffffffffffffffffffffff1916149150506126a8565b600190505b949350505050565b600080600090507a184f03e93ff9f4daa797ed6e38ed64bf6a1f010000000000000000831061270e577a184f03e93ff9f4daa797ed6e38ed64bf6a1f010000000000000000838161270457612703613f7b565b5b0492506040810190505b6d04ee2d6d415b85acef8100000000831061274b576d04ee2d6d415b85acef8100000000838161274157612740613f7b565b5b0492506020810190505b662386f26fc10000831061277a57662386f26fc1000083816127705761276f613f7b565b5b0492506010810190505b6305f5e10083106127a3576305f5e100838161279957612798613f7b565b5b0492506008810190505b61271083106127c85761271083816127be576127bd613f7b565b5b0492506004810190505b606483106127eb57606483816127e1576127e0613f7b565b5b0492506002810190505b600a83106127fa576001810190505b80915050919050565b61280d8383612b8d565b61281a6000848484612529565b612859576040517f08c379a000000000000000000000000000000000000000000000000000000000815260040161285090613f5b565b60405180910390fd5b505050565b50505050565b6008805490506009600083815260200190815260200160002081905550600881908060018154018082558091505060019003906000526020600020016000909190919091505550565b600060016128ba84610f22565b6128c4919061411f565b90506000600760008481526020019081526020016000205490508181146129a9576000600660008673ffffffffffffffffffffffffffffffffffffffff1673ffffffffffffffffffffffffffffffffffffffff168152602001908152602001600020600084815260200190815260200160002054905080600660008773ffffffffffffffffffffffffffffffffffffffff1673ffffffffffffffffffffffffffffffffffffffff168152602001908152602001600020600084815260200190815260200160002081905550816007600083815260200190815260200160002081905550505b6007600084815260200190815260200160002060009055600660008573ffffffffffffffffffffffffffffffffffffffff1673ffffffffffffffffffffffffffffffffffffffff16815260200190815260200160002060008381526020019081526020016000206000905550505050565b60006001600880549050612a2e919061411f565b9050600060096000848152602001908152602001600020549050600060088381548110612a5e57612a5d613896565b5b906000526020600020015490508060088381548110612a8057612a7f613896565b5b906000526020600020018190555081600960008381526020019081526020016000208190555060096000858152602001908152602001600020600090556008805480612acf57612ace614153565b5b6001900381819060005260206000200160009055905550505050565b6000612af683610f22565b905081600660008573ffffffffffffffffffffffffffffffffffffffff1673ffffffffffffffffffffffffffffffffffffffff168152602001908152602001600020600083815260200190815260200160002081905550806007600084815260200190815260200160002081905550505050565b6000808273ffffffffffffffffffffffffffffffffffffffff163b119050919050565b600073ffffffffffffffffffffffffffffffffffffffff168273ffffffffffffffffffffffffffffffffffffffff1603612bfc576040517f08c379a0000000000000000000000000000000000000000000000000000000008152600401612bf3906141ce565b60405180910390fd5b612c0581612384565b15612c45576040517f08c379a0000000000000000000000000000000000000000000000000000000008152600401612c3c9061423a565b60405180910390fd5b612c536000838360016123c5565b612c5c81612384565b15612c9c576040517f08c379a0000000000000000000000000000000000000000000000000000000008152600401612c939061423a565b60405180910390fd5b6001600360008473ffffffffffffffffffffffffffffffffffffffff1673ffffffffffffffffffffffffffffffffffffffff16815260200190815260200160002060008282540192505081905550816002600083815260200190815260200160002060006101000a81548173ffffffffffffffffffffffffffffffffffffffff021916908373ffffffffffffffffffffffffffffffffffffffff160217905550808273ffffffffffffffffffffffffffffffffffffffff16600073ffffffffffffffffffffffffffffffffffffffff167fddf252ad1be2c89b69c2b068fc378daa952ba7f163c4a11628f55a4df523b3ef60405160405180910390a4612da6600083836001612523565b5050565b6000604051905090565b600080fd5b600080fd5b60007fffffffff0000000000000000000000000000000000000000000000000000000082169050919050565b612df381612dbe565b8114612dfe57600080fd5b50565b600081359050612e1081612dea565b92915050565b600060208284031215612e2c57612e2b612db4565b5b6000612e3a84828501612e01565b91505092915050565b60008115159050919050565b612e5881612e43565b82525050565b6000602082019050612e736000830184612e4f565b92915050565b600081519050919050565b600082825260208201905092915050565b60005b83811015612eb3578082015181840152602081019050612e98565b60008484015250505050565b6000601f19601f8301169050919050565b6000612edb82612e79565b612ee58185612e84565b9350612ef5818560208601612e95565b612efe81612ebf565b840191505092915050565b60006020820190508181036000830152612f238184612ed0565b905092915050565b600061ffff82169050919050565b612f4281612f2b565b82525050565b6000602082019050612f5d6000830184612f39565b92915050565b6000819050919050565b612f7681612f63565b8114612f8157600080fd5b50565b600081359050612f9381612f6d565b92915050565b600060208284031215612faf57612fae612db4565b5b6000612fbd84828501612f84565b91505092915050565b600073ffffffffffffffffffffffffffffffffffffffff82169050919050565b6000612ff182612fc6565b9050919050565b61300181612fe6565b82525050565b600060208201905061301c6000830184612ff8565b92915050565b61302b81612fe6565b811461303657600080fd5b50565b60008135905061304881613022565b92915050565b6000806040838503121561306557613064612db4565b5b600061307385828601613039565b925050602061308485828601612f84565b9150509250929050565b61309781612f63565b82525050565b60006020820190506130b2600083018461308e565b92915050565b6000806000606084860312156130d1576130d0612db4565b5b60006130df86828701613039565b93505060206130f086828701613039565b925050604061310186828701612f84565b9150509250925092565b600080fd5b7f4e487b7100000000000000000000000000000000000000000000000000000000600052604160045260246000fd5b61314882612ebf565b810181811067ffffffffffffffff8211171561316757613166613110565b5b80604052505050565b600061317a612daa565b9050613186828261313f565b919050565b600067ffffffffffffffff8211156131a6576131a5613110565b5b602082029050602081019050919050565b600080fd5b60006131cf6131ca8461318b565b613170565b905080838252602082019050602084028301858111156131f2576131f16131b7565b5b835b8181101561321b57806132078882613039565b8452602084019350506020810190506131f4565b5050509392505050565b600082601f83011261323a5761323961310b565b5b813561324a8482602086016131bc565b91505092915050565b60006020828403121561326957613268612db4565b5b600082013567ffffffffffffffff81111561328757613286612db9565b5b61329384828501613225565b91505092915050565b600063ffffffff82169050919050565b6132b58161329c565b82525050565b60006020820190506132d060008301846132ac565b92915050565b6000602082840312156132ec576132eb612db4565b5b60006132fa84828501613039565b91505092915050565b61330c81612e43565b811461331757600080fd5b50565b60008135905061332981613303565b92915050565b6000806040838503121561334657613345612db4565b5b600061335485828601613039565b92505060206133658582860161331a565b9150509250929050565b600080fd5b600067ffffffffffffffff82111561338f5761338e613110565b5b61339882612ebf565b9050602081019050919050565b82818337600083830152505050565b60006133c76133c284613374565b613170565b9050828152602081018484840111156133e3576133e261336f565b5b6133ee8482856133a5565b509392505050565b600082601f83011261340b5761340a61310b565b5b813561341b8482602086016133b4565b91505092915050565b6000806000806080858703121561343e5761343d612db4565b5b600061344c87828801613039565b945050602061345d87828801613039565b935050604061346e87828801612f84565b925050606085013567ffffffffffffffff81111561348f5761348e612db9565b5b61349b878288016133f6565b91505092959194509250565b600060ff82169050919050565b6134bd816134a7565b82525050565b60006020820190506134d860008301846134b4565b92915050565b600080604083850312156134f5576134f4612db4565b5b600061350385828601613039565b925050602061351485828601613039565b9150509250929050565b7f4e487b7100000000000000000000000000000000000000000000000000000000600052602260045260246000fd5b6000600282049050600182168061356557607f821691505b6020821081036135785761357761351e565b5b50919050565b7f4552433732313a20617070726f76616c20746f2063757272656e74206f776e6560008201527f7200000000000000000000000000000000000000000000000000000000000000602082015250565b60006135da602183612e84565b91506135e58261357e565b604082019050919050565b60006020820190508181036000830152613609816135cd565b9050919050565b7f4552433732313a20617070726f76652063616c6c6572206973206e6f7420746f60008201527f6b656e206f776e6572206f7220617070726f76656420666f7220616c6c000000602082015250565b600061366c603d83612e84565b915061367782613610565b604082019050919050565b6000602082019050818103600083015261369b8161365f565b9050919050565b7f4552433732313a2063616c6c6572206973206e6f7420746f6b656e206f776e6560008201527f72206f7220617070726f76656400000000000000000000000000000000000000602082015250565b60006136fe602d83612e84565b9150613709826136a2565b604082019050919050565b6000602082019050818103600083015261372d816136f1565b9050919050565b7f455243373231456e756d657261626c653a206f776e657220696e646578206f7560008201527f74206f6620626f756e6473000000000000000000000000000000000000000000602082015250565b6000613790602b83612e84565b915061379b82613734565b604082019050919050565b600060208201905081810360008301526137bf81613783565b9050919050565b7f4e487b7100000000000000000000000000000000000000000000000000000000600052601160045260246000fd5b6000613800826134a7565b915061380b836134a7565b9250828201905060ff811115613824576138236137c6565b5b92915050565b7f57686974656c69737465642048617320526561636820697473206d6178000000600082015250565b6000613860601d83612e84565b915061386b8261382a565b602082019050919050565b6000602082019050818103600083015261388f81613853565b9050919050565b7f4e487b7100000000000000000000000000000000000000000000000000000000600052603260045260246000fd5b60006138d0826134a7565b915060ff82036138e3576138e26137c6565b5b600182019050919050565b60006138f982612f63565b91507fffffffffffffffffffffffffffffffffffffffffffffffffffffffffffffffff820361392b5761392a6137c6565b5b600182019050919050565b7f455243373231456e756d657261626c653a20676c6f62616c20696e646578206f60008201527f7574206f6620626f756e64730000000000000000000000000000000000000000602082015250565b6000613992602c83612e84565b915061399d82613936565b604082019050919050565b600060208201905081810360008301526139c181613985565b9050919050565b7f4552433732313a20696e76616c696420746f6b656e2049440000000000000000600082015250565b60006139fe601883612e84565b9150613a09826139c8565b602082019050919050565b60006020820190508181036000830152613a2d816139f1565b9050919050565b7f4552433732313a2061646472657373207a65726f206973206e6f74206120766160008201527f6c6964206f776e65720000000000000000000000000000000000000000000000602082015250565b6000613a90602983612e84565b9150613a9b82613a34565b604082019050919050565b60006020820190508181036000830152613abf81613a83565b9050919050565b600081519050613ad581613303565b92915050565b600060208284031215613af157613af0612db4565b5b6000613aff84828501613ac6565b91505092915050565b600081905092915050565b6000613b1e82612e79565b613b288185613b08565b9350613b38818560208601612e95565b80840191505092915050565b6000613b508285613b13565b9150613b5c8284613b13565b91508190509392505050565b7f63616e206f6e6c792072656d6f76652032302061646472657373000000000000600082015250565b6000613b9e601a83612e84565b9150613ba982613b68565b602082019050919050565b60006020820190508181036000830152613bcd81613b91565b9050919050565b6000613bdf826134a7565b915060008203613bf257613bf16137c6565b5b600182039050919050565b6000613c0882612f2b565b915061ffff8203613c1c57613c1b6137c6565b5b600182019050919050565b6000613c3282612f63565b9150613c3d83612f63565b9250828201905080821115613c5557613c546137c6565b5b92915050565b7f4f776e61626c653a206e6577206f776e657220697320746865207a65726f206160008201527f6464726573730000000000000000000000000000000000000000000000000000602082015250565b6000613cb7602683612e84565b9150613cc282613c5b565b604082019050919050565b60006020820190508181036000830152613ce681613caa565b9050919050565b7f4f776e61626c653a2063616c6c6572206973206e6f7420746865206f776e6572600082015250565b6000613d23602083612e84565b9150613d2e82613ced565b602082019050919050565b60006020820190508181036000830152613d5281613d16565b9050919050565b7f4552433732313a207472616e736665722066726f6d20696e636f72726563742060008201527f6f776e6572000000000000000000000000000000000000000000000000000000602082015250565b6000613db5602583612e84565b9150613dc082613d59565b604082019050919050565b60006020820190508181036000830152613de481613da8565b9050919050565b7f4552433732313a207472616e7366657220746f20746865207a65726f2061646460008201527f7265737300000000000000000000000000000000000000000000000000000000602082015250565b6000613e47602483612e84565b9150613e5282613deb565b604082019050919050565b60006020820190508181036000830152613e7681613e3a565b9050919050565b7f4552433732313a20617070726f766520746f2063616c6c657200000000000000600082015250565b6000613eb3601983612e84565b9150613ebe82613e7d565b602082019050919050565b60006020820190508181036000830152613ee281613ea6565b9050919050565b7f4552433732313a207472616e7366657220746f206e6f6e20455243373231526560008201527f63656976657220696d706c656d656e7465720000000000000000000000000000602082015250565b6000613f45603283612e84565b9150613f5082613ee9565b604082019050919050565b60006020820190508181036000830152613f7481613f38565b9050919050565b7f4e487b7100000000000000000000000000000000000000000000000000000000600052601260045260246000fd5b7f455243373231456e756d657261626c653a20636f6e736563757469766520747260008201527f616e7366657273206e6f7420737570706f727465640000000000000000000000602082015250565b6000614006603583612e84565b915061401182613faa565b604082019050919050565b6000602082019050818103600083015261403581613ff9565b9050919050565b600081519050919050565b600082825260208201905092915050565b60006140638261403c565b61406d8185614047565b935061407d818560208601612e95565b61408681612ebf565b840191505092915050565b60006080820190506140a66000830187612ff8565b6140b36020830186612ff8565b6140c0604083018561308e565b81810360608301526140d28184614058565b905095945050505050565b6000815190506140ec81612dea565b92915050565b60006020828403121561410857614107612db4565b5b6000614116848285016140dd565b91505092915050565b600061412a82612f63565b915061413583612f63565b925082820390508181111561414d5761414c6137c6565b5b92915050565b7f4e487b7100000000000000000000000000000000000000000000000000000000600052603160045260246000fd5b7f4552433732313a206d696e7420746f20746865207a65726f2061646472657373600082015250565b60006141b8602083612e84565b91506141c382614182565b602082019050919050565b600060208201905081810360008301526141e7816141ab565b9050919050565b7f4552433732313a20746f6b656e20616c7265616479206d696e74656400000000600082015250565b6000614224601c83612e84565b915061422f826141ee565b602082019050919050565b6000602082019050818103600083015261425381614217565b905091905056fea264697066735822122032bbf67f94aebbe79712030b641b89ed533303119ca6c3e7074b6a0bdf37fd0764736f6c6343000812003360806040523480156200001157600080fd5b506040518060400160405280601181526020017f444343536f756c626f756e64546f6b656e0000000000000000000000000000008152506040518060400160405280600481526020017f244453540000000000000000000000000000000000000000000000000000000081525081600090816200008f919062000412565b508060019081620000a1919062000412565b505050620000c4620000b8620000ca60201b60201c565b620000d260201b60201c565b620004f9565b600033905090565b6000600660009054906101000a900473ffffffffffffffffffffffffffffffffffffffff16905081600660006101000a81548173ffffffffffffffffffffffffffffffffffffffff021916908373ffffffffffffffffffffffffffffffffffffffff1602179055508173ffffffffffffffffffffffffffffffffffffffff168173ffffffffffffffffffffffffffffffffffffffff167f8be0079c531659141344cd1fd0a4f28419497f9722a3daafe3b4186f6b6457e060405160405180910390a35050565b600081519050919050565b7f4e487b7100000000000000000000000000000000000000000000000000000000600052604160045260246000fd5b7f4e487b7100000000000000000000000000000000000000000000000000000000600052602260045260246000fd5b600060028204905060018216806200021a57607f821691505b60208210810362000230576200022f620001d2565b5b50919050565b60008190508160005260206000209050919050565b60006020601f8301049050919050565b600082821b905092915050565b6000600883026200029a7fffffffffffffffffffffffffffffffffffffffffffffffffffffffffffffffff826200025b565b620002a686836200025b565b95508019841693508086168417925050509392505050565b6000819050919050565b6000819050919050565b6000620002f3620002ed620002e784620002be565b620002c8565b620002be565b9050919050565b6000819050919050565b6200030f83620002d2565b620003276200031e82620002fa565b84845462000268565b825550505050565b600090565b6200033e6200032f565b6200034b81848462000304565b505050565b5b8181101562000373576200036760008262000334565b60018101905062000351565b5050565b601f821115620003c2576200038c8162000236565b62000397846200024b565b81016020851015620003a7578190505b620003bf620003b6856200024b565b83018262000350565b50505b505050565b600082821c905092915050565b6000620003e760001984600802620003c7565b1980831691505092915050565b6000620004028383620003d4565b9150826002028217905092915050565b6200041d8262000198565b67ffffffffffffffff811115620004395762000438620001a3565b5b62000445825462000201565b6200045282828562000377565b600060209050601f8311600181146200048a576000841562000475578287015190505b620004818582620003f4565b865550620004f1565b601f1984166200049a8662000236565b60005b82811015620004c4578489015182556001820191506020850194506020810190506200049d565b86831015620004e45784890151620004e0601f891682620003d4565b8355505b6001600288020188555050505b505050505050565b61216380620005096000396000f3fe608060405234801561001057600080fd5b50600436106101215760003560e01c806370a08231116100ad578063b88d4fde11610071578063b88d4fde14610306578063c87b56dd14610322578063e077a03814610352578063e985e9c514610382578063f2fde38b146103b257610121565b806370a0823114610274578063715018a6146102a45780638da5cb5b146102ae57806395d89b41146102cc578063a22cb465146102ea57610121565b806323b872dd116100f457806323b872dd146101c057806340d097c3146101dc57806342842e0e146101f85780634ada8fcc146102145780636352211e1461024457610121565b806301ffc9a71461012657806306fdde0314610156578063081812fc14610174578063095ea7b3146101a4575b600080fd5b610140600480360381019061013b919061156a565b6103ce565b60405161014d91906115b2565b60405180910390f35b61015e6104b0565b60405161016b919061165d565b60405180910390f35b61018e600480360381019061018991906116b5565b610542565b60405161019b9190611723565b60405180910390f35b6101be60048036038101906101b9919061176a565b610588565b005b6101da60048036038101906101d591906117aa565b61058c565b005b6101f660048036038101906101f191906117fd565b610591565b005b610212600480360381019061020d91906117aa565b6107aa565b005b61022e600480360381019061022991906117fd565b6107af565b60405161023b91906115b2565b60405180910390f35b61025e600480360381019061025991906116b5565b610805565b60405161026b9190611723565b60405180910390f35b61028e600480360381019061028991906117fd565b61088b565b60405161029b9190611839565b60405180910390f35b6102ac610942565b005b6102b6610956565b6040516102c39190611723565b60405180910390f35b6102d4610980565b6040516102e1919061165d565b60405180910390f35b61030460048036038101906102ff9190611880565b610a12565b005b610320600480360381019061031b91906119f5565b610a16565b005b61033c600480360381019061033791906116b5565b610a1c565b604051610349919061165d565b60405180910390f35b61036c600480360381019061036791906117fd565b610a84565b60405161037991906115b2565b60405180910390f35b61039c60048036038101906103979190611a78565b610ae4565b6040516103a991906115b2565b60405180910390f35b6103cc60048036038101906103c791906117fd565b610b78565b005b60007f80ac58cd000000000000000000000000000000000000000000000000000000007bffffffffffffffffffffffffffffffffffffffffffffffffffffffff1916827bffffffffffffffffffffffffffffffffffffffffffffffffffffffff1916148061049957507f5b5e139f000000000000000000000000000000000000000000000000000000007bffffffffffffffffffffffffffffffffffffffffffffffffffffffff1916827bffffffffffffffffffffffffffffffffffffffffffffffffffffffff1916145b806104a957506104a882610bfb565b5b9050919050565b6060600080546104bf90611ae7565b80601f01602080910402602001604051908101604052809291908181526020018280546104eb90611ae7565b80156105385780601f1061050d57610100808354040283529160200191610538565b820191906000526020600020905b81548152906001019060200180831161051b57829003601f168201915b5050505050905090565b600061054d82610c65565b6004600083815260200190815260200160002060009054906101000a900473ffffffffffffffffffffffffffffffffffffffff169050919050565b5050565b505050565b610599610cb0565b600073ffffffffffffffffffffffffffffffffffffffff168173ffffffffffffffffffffffffffffffffffffffff16036105d257600080fd5b600860008273ffffffffffffffffffffffffffffffffffffffff1673ffffffffffffffffffffffffffffffffffffffff16815260200190815260200160002060009054906101000a900460ff1661065e576040517f08c379a000000000000000000000000000000000000000000000000000000000815260040161065590611b64565b60405180910390fd5b60006106698261088b565b1180156106bb57508073ffffffffffffffffffffffffffffffffffffffff166106a3600660149054906101000a900460ff1660ff16610805565b73ffffffffffffffffffffffffffffffffffffffff16145b156106fb576040517f08c379a00000000000000000000000000000000000000000000000000000000081526004016106f290611bd0565b60405180910390fd5b6006601481819054906101000a900460ff168092919061071a90611c2c565b91906101000a81548160ff021916908360ff160217905550506001600760008373ffffffffffffffffffffffffffffffffffffffff1673ffffffffffffffffffffffffffffffffffffffff16815260200190815260200160002060006101000a81548160ff0219169083151502179055506107a781600660149054906101000a900460ff1660ff16610d2e565b50565b505050565b6000600760008373ffffffffffffffffffffffffffffffffffffffff1673ffffffffffffffffffffffffffffffffffffffff16815260200190815260200160002060009054906101000a900460ff169050919050565b60008061081183610d4c565b9050600073ffffffffffffffffffffffffffffffffffffffff168173ffffffffffffffffffffffffffffffffffffffff1603610882576040517f08c379a000000000000000000000000000000000000000000000000000000000815260040161087990611ca1565b60405180910390fd5b80915050919050565b60008073ffffffffffffffffffffffffffffffffffffffff168273ffffffffffffffffffffffffffffffffffffffff16036108fb576040517f08c379a00000000000000000000000000000000000000000000000000000000081526004016108f290611d33565b60405180910390fd5b600360008373ffffffffffffffffffffffffffffffffffffffff1673ffffffffffffffffffffffffffffffffffffffff168152602001908152602001600020549050919050565b61094a610cb0565b6109546000610d89565b565b6000600660009054906101000a900473ffffffffffffffffffffffffffffffffffffffff16905090565b60606001805461098f90611ae7565b80601f01602080910402602001604051908101604052809291908181526020018280546109bb90611ae7565b8015610a085780601f106109dd57610100808354040283529160200191610a08565b820191906000526020600020905b8154815290600101906020018083116109eb57829003601f168201915b5050505050905090565b5050565b50505050565b6060610a2782610c65565b6000610a31610e4f565b90506000815111610a515760405180602001604052806000815250610a7c565b80610a5b84610e66565b604051602001610a6c929190611d8f565b6040516020818303038152906040525b915050919050565b60006001600860008473ffffffffffffffffffffffffffffffffffffffff1673ffffffffffffffffffffffffffffffffffffffff16815260200190815260200160002060006101000a81548160ff02191690831515021790559050919050565b6000600560008473ffffffffffffffffffffffffffffffffffffffff1673ffffffffffffffffffffffffffffffffffffffff16815260200190815260200160002060008373ffffffffffffffffffffffffffffffffffffffff1673ffffffffffffffffffffffffffffffffffffffff16815260200190815260200160002060009054906101000a900460ff16905092915050565b610b80610cb0565b600073ffffffffffffffffffffffffffffffffffffffff168173ffffffffffffffffffffffffffffffffffffffff1603610bef576040517f08c379a0000000000000000000000000000000000000000000000000000000008152600401610be690611e25565b60405180910390fd5b610bf881610d89565b50565b60007f01ffc9a7000000000000000000000000000000000000000000000000000000007bffffffffffffffffffffffffffffffffffffffffffffffffffffffff1916827bffffffffffffffffffffffffffffffffffffffffffffffffffffffff1916149050919050565b610c6e81610f34565b610cad576040517f08c379a0000000000000000000000000000000000000000000000000000000008152600401610ca490611ca1565b60405180910390fd5b50565b610cb8610f75565b73ffffffffffffffffffffffffffffffffffffffff16610cd6610956565b73ffffffffffffffffffffffffffffffffffffffff1614610d2c576040517f08c379a0000000000000000000000000000000000000000000000000000000008152600401610d2390611e91565b60405180910390fd5b565b610d48828260405180602001604052806000815250610f7d565b5050565b60006002600083815260200190815260200160002060009054906101000a900473ffffffffffffffffffffffffffffffffffffffff169050919050565b6000600660009054906101000a900473ffffffffffffffffffffffffffffffffffffffff16905081600660006101000a81548173ffffffffffffffffffffffffffffffffffffffff021916908373ffffffffffffffffffffffffffffffffffffffff1602179055508173ffffffffffffffffffffffffffffffffffffffff168173ffffffffffffffffffffffffffffffffffffffff167f8be0079c531659141344cd1fd0a4f28419497f9722a3daafe3b4186f6b6457e060405160405180910390a35050565b606060405180602001604052806000815250905090565b606060006001610e7584610fd8565b01905060008167ffffffffffffffff811115610e9457610e936118ca565b5b6040519080825280601f01601f191660200182016040528015610ec65781602001600182028036833780820191505090505b509050600082602001820190505b600115610f29578080600190039150507f3031323334353637383961626364656600000000000000000000000000000000600a86061a8153600a8581610f1d57610f1c611eb1565b5b04945060008503610ed4575b819350505050919050565b60008073ffffffffffffffffffffffffffffffffffffffff16610f5683610d4c565b73ffffffffffffffffffffffffffffffffffffffff1614159050919050565b600033905090565b610f87838361112b565b610f946000848484611348565b610fd3576040517f08c379a0000000000000000000000000000000000000000000000000000000008152600401610fca90611f52565b60405180910390fd5b505050565b600080600090507a184f03e93ff9f4daa797ed6e38ed64bf6a1f0100000000000000008310611036577a184f03e93ff9f4daa797ed6e38ed64bf6a1f010000000000000000838161102c5761102b611eb1565b5b0492506040810190505b6d04ee2d6d415b85acef81000000008310611073576d04ee2d6d415b85acef8100000000838161106957611068611eb1565b5b0492506020810190505b662386f26fc1000083106110a257662386f26fc10000838161109857611097611eb1565b5b0492506010810190505b6305f5e10083106110cb576305f5e10083816110c1576110c0611eb1565b5b0492506008810190505b61271083106110f05761271083816110e6576110e5611eb1565b5b0492506004810190505b60648310611113576064838161110957611108611eb1565b5b0492506002810190505b600a8310611122576001810190505b80915050919050565b600073ffffffffffffffffffffffffffffffffffffffff168273ffffffffffffffffffffffffffffffffffffffff160361119a576040517f08c379a000000000000000000000000000000000000000000000000000000000815260040161119190611fbe565b60405180910390fd5b6111a381610f34565b156111e3576040517f08c379a00000000000000000000000000000000000000000000000000000000081526004016111da9061202a565b60405180910390fd5b6111f16000838360016114cf565b6111fa81610f34565b1561123a576040517f08c379a00000000000000000000000000000000000000000000000000000000081526004016112319061202a565b60405180910390fd5b6001600360008473ffffffffffffffffffffffffffffffffffffffff1673ffffffffffffffffffffffffffffffffffffffff16815260200190815260200160002060008282540192505081905550816002600083815260200190815260200160002060006101000a81548173ffffffffffffffffffffffffffffffffffffffff021916908373ffffffffffffffffffffffffffffffffffffffff160217905550808273ffffffffffffffffffffffffffffffffffffffff16600073ffffffffffffffffffffffffffffffffffffffff167fddf252ad1be2c89b69c2b068fc378daa952ba7f163c4a11628f55a4df523b3ef60405160405180910390a46113446000838360016114d5565b5050565b60006113698473ffffffffffffffffffffffffffffffffffffffff166114db565b156114c2578373ffffffffffffffffffffffffffffffffffffffff1663150b7a02611392610f75565b8786866040518563ffffffff1660e01b81526004016113b4949392919061209f565b6020604051808303816000875af19250505080156113f057506040513d601f19601f820116820180604052508101906113ed9190612100565b60015b611472573d8060008114611420576040519150601f19603f3d011682016040523d82523d6000602084013e611425565b606091505b50600081510361146a576040517f08c379a000000000000000000000000000000000000000000000000000000000815260040161146190611f52565b60405180910390fd5b805181602001fd5b63150b7a0260e01b7bffffffffffffffffffffffffffffffffffffffffffffffffffffffff1916817bffffffffffffffffffffffffffffffffffffffffffffffffffffffff1916149150506114c7565b600190505b949350505050565b50505050565b50505050565b6000808273ffffffffffffffffffffffffffffffffffffffff163b119050919050565b6000604051905090565b600080fd5b600080fd5b60007fffffffff0000000000000000000000000000000000000000000000000000000082169050919050565b61154781611512565b811461155257600080fd5b50565b6000813590506115648161153e565b92915050565b6000602082840312156115805761157f611508565b5b600061158e84828501611555565b91505092915050565b60008115159050919050565b6115ac81611597565b82525050565b60006020820190506115c760008301846115a3565b92915050565b600081519050919050565b600082825260208201905092915050565b60005b838110156116075780820151818401526020810190506115ec565b60008484015250505050565b6000601f19601f8301169050919050565b600061162f826115cd565b61163981856115d8565b93506116498185602086016115e9565b61165281611613565b840191505092915050565b600060208201905081810360008301526116778184611624565b905092915050565b6000819050919050565b6116928161167f565b811461169d57600080fd5b50565b6000813590506116af81611689565b92915050565b6000602082840312156116cb576116ca611508565b5b60006116d9848285016116a0565b91505092915050565b600073ffffffffffffffffffffffffffffffffffffffff82169050919050565b600061170d826116e2565b9050919050565b61171d81611702565b82525050565b60006020820190506117386000830184611714565b92915050565b61174781611702565b811461175257600080fd5b50565b6000813590506117648161173e565b92915050565b6000806040838503121561178157611780611508565b5b600061178f85828601611755565b92505060206117a0858286016116a0565b9150509250929050565b6000806000606084860312156117c3576117c2611508565b5b60006117d186828701611755565b93505060206117e286828701611755565b92505060406117f3868287016116a0565b9150509250925092565b60006020828403121561181357611812611508565b5b600061182184828501611755565b91505092915050565b6118338161167f565b82525050565b600060208201905061184e600083018461182a565b92915050565b61185d81611597565b811461186857600080fd5b50565b60008135905061187a81611854565b92915050565b6000806040838503121561189757611896611508565b5b60006118a585828601611755565b92505060206118b68582860161186b565b9150509250929050565b600080fd5b600080fd5b7f4e487b7100000000000000000000000000000000000000000000000000000000600052604160045260246000fd5b61190282611613565b810181811067ffffffffffffffff82111715611921576119206118ca565b5b80604052505050565b60006119346114fe565b905061194082826118f9565b919050565b600067ffffffffffffffff8211156119605761195f6118ca565b5b61196982611613565b9050602081019050919050565b82818337600083830152505050565b600061199861199384611945565b61192a565b9050828152602081018484840111156119b4576119b36118c5565b5b6119bf848285611976565b509392505050565b600082601f8301126119dc576119db6118c0565b5b81356119ec848260208601611985565b91505092915050565b60008060008060808587031215611a0f57611a0e611508565b5b6000611a1d87828801611755565b9450506020611a2e87828801611755565b9350506040611a3f878288016116a0565b925050606085013567ffffffffffffffff811115611a6057611a5f61150d565b5b611a6c878288016119c7565b91505092959194509250565b60008060408385031215611a8f57611a8e611508565b5b6000611a9d85828601611755565b9250506020611aae85828601611755565b9150509250929050565b7f4e487b7100000000000000000000000000000000000000000000000000000000600052602260045260246000fd5b60006002820490506001821680611aff57607f821691505b602082108103611b1257611b11611ab8565b5b50919050565b7f4163636573732044656e69656400000000000000000000000000000000000000600082015250565b6000611b4e600d836115d8565b9150611b5982611b18565b602082019050919050565b60006020820190508181036000830152611b7d81611b41565b9050919050565b7f546f6b656e2063616e6e6f74206265206d696e74656420616761696e00000000600082015250565b6000611bba601c836115d8565b9150611bc582611b84565b602082019050919050565b60006020820190508181036000830152611be981611bad565b9050919050565b7f4e487b7100000000000000000000000000000000000000000000000000000000600052601160045260246000fd5b600060ff82169050919050565b6000611c3782611c1f565b915060ff8203611c4a57611c49611bf0565b5b600182019050919050565b7f4552433732313a20696e76616c696420746f6b656e2049440000000000000000600082015250565b6000611c8b6018836115d8565b9150611c9682611c55565b602082019050919050565b60006020820190508181036000830152611cba81611c7e565b9050919050565b7f4552433732313a2061646472657373207a65726f206973206e6f74206120766160008201527f6c6964206f776e65720000000000000000000000000000000000000000000000602082015250565b6000611d1d6029836115d8565b9150611d2882611cc1565b604082019050919050565b60006020820190508181036000830152611d4c81611d10565b9050919050565b600081905092915050565b6000611d69826115cd565b611d738185611d53565b9350611d838185602086016115e9565b80840191505092915050565b6000611d9b8285611d5e565b9150611da78284611d5e565b91508190509392505050565b7f4f776e61626c653a206e6577206f776e657220697320746865207a65726f206160008201527f6464726573730000000000000000000000000000000000000000000000000000602082015250565b6000611e0f6026836115d8565b9150611e1a82611db3565b604082019050919050565b60006020820190508181036000830152611e3e81611e02565b9050919050565b7f4f776e61626c653a2063616c6c6572206973206e6f7420746865206f776e6572600082015250565b6000611e7b6020836115d8565b9150611e8682611e45565b602082019050919050565b60006020820190508181036000830152611eaa81611e6e565b9050919050565b7f4e487b7100000000000000000000000000000000000000000000000000000000600052601260045260246000fd5b7f4552433732313a207472616e7366657220746f206e6f6e20455243373231526560008201527f63656976657220696d706c656d656e7465720000000000000000000000000000602082015250565b6000611f3c6032836115d8565b9150611f4782611ee0565b604082019050919050565b60006020820190508181036000830152611f6b81611f2f565b9050919050565b7f4552433732313a206d696e7420746f20746865207a65726f2061646472657373600082015250565b6000611fa86020836115d8565b9150611fb382611f72565b602082019050919050565b60006020820190508181036000830152611fd781611f9b565b9050919050565b7f4552433732313a20746f6b656e20616c7265616479206d696e74656400000000600082015250565b6000612014601c836115d8565b915061201f82611fde565b602082019050919050565b6000602082019050818103600083015261204381612007565b9050919050565b600081519050919050565b600082825260208201905092915050565b60006120718261204a565b61207b8185612055565b935061208b8185602086016115e9565b61209481611613565b840191505092915050565b60006080820190506120b46000830187611714565b6120c16020830186611714565b6120ce604083018561182a565b81810360608301526120e08184612066565b905095945050505050565b6000815190506120fa8161153e565b92915050565b60006020828403121561211657612115611508565b5b6000612124848285016120eb565b9150509291505056fea2646970667358221220852cd6f54c9a76e8624d9c2a674f7f04a8cb532053f12c55ecb7bac39fb6eaef64736f6c63430008120033",
  "devdoc": {
    "events": {
      "Approval(address,address,uint256)": {
        "details": "Emitted when `owner` enables `approved` to manage the `tokenId` token."
      },
      "ApprovalForAll(address,address,bool)": {
        "details": "Emitted when `owner` enables or disables (`approved`) `operator` to manage all of its assets."
      },
      "Transfer(address,address,uint256)": {
        "details": "Emitted when `tokenId` token is transferred from `from` to `to`."
      }
    },
    "kind": "dev",
    "methods": {
      "approve(address,uint256)": {
        "details": "See {IERC721-approve}."
      },
      "balanceOf(address)": {
        "details": "See {IERC721-balanceOf}."
      },
      "buyTicket()": {
        "details": "This function is used to buy tickets for a Drake concert "
      },
      "constructor": {
        "params": {
          "_startTime": "set the start time of the ticket sale "
        }
      },
      "getApproved(uint256)": {
        "details": "See {IERC721-getApproved}."
      },
      "getEndTime()": {
        "details": "returns the end time of purchase"
      },
      "getMaxSoulNBoundTicket()": {
        "details": "returns the count of each presale acquired"
      },
      "getMaxTicketAmount()": {
        "details": "returns the maximum amount of ticket that can be purchased"
      },
      "getPreSaleCounter()": {
        "details": "returns the count of each presale acquired"
      },
      "getPresaleMaxAmount()": {
        "details": "returns the maximum presale ticket sale"
      },
      "getWhiteListedCount()": {
        "details": "returns all whitelisted addresses"
      },
      "isApprovedForAll(address,address)": {
        "details": "See {IERC721-isApprovedForAll}."
      },
      "isWhiteListed(address)": {
        "details": "checks if an address is whitelisted or not",
        "params": {
          "_address": "address to be checked"
        }
      },
      "killContract()": {
        "details": "kills the contract purchase are done, and transfer the remaining balance to the contract owner"
      },
      "name()": {
        "details": "See {IERC721Metadata-name}."
      },
      "owner()": {
        "details": "Returns the address of the current owner."
      },
      "ownerOf(uint256)": {
        "details": "See {IERC721-ownerOf}."
      },
      "removeWhiteListedAddress(address[])": {
        "details": "Removes Whitelisted Addresses",
        "params": {
          "addresses": "Addresses to be removed from the whitelist"
        }
      },
      "renounceOwnership()": {
        "details": "Leaves the contract without owner. It will not be possible to call `onlyOwner` functions anymore. Can only be called by the current owner. NOTE: Renouncing ownership will leave the contract without an owner, thereby removing any functionality that is only available to the owner."
      },
      "safeTransferFrom(address,address,uint256)": {
        "details": "See {IERC721-safeTransferFrom}."
      },
      "safeTransferFrom(address,address,uint256,bytes)": {
        "details": "See {IERC721-safeTransferFrom}."
      },
      "setApprovalForAll(address,bool)": {
        "details": "See {IERC721-setApprovalForAll}."
      },
      "supportsInterface(bytes4)": {
        "details": "See {IERC165-supportsInterface}."
      },
      "symbol()": {
        "details": "See {IERC721Metadata-symbol}."
      },
      "tokenByIndex(uint256)": {
        "details": "See {IERC721Enumerable-tokenByIndex}."
      },
      "tokenOfOwnerByIndex(address,uint256)": {
        "details": "See {IERC721Enumerable-tokenOfOwnerByIndex}."
      },
      "tokenURI(uint256)": {
        "details": "See {IERC721Metadata-tokenURI}."
      },
      "totalSupply()": {
        "details": "See {IERC721Enumerable-totalSupply}."
      },
      "transferFrom(address,address,uint256)": {
        "details": "See {IERC721-transferFrom}."
      },
      "transferOwnership(address)": {
        "details": "Transfers ownership of the contract to a new account (`newOwner`). Can only be called by the current owner."
      },
      "whiteListAddress(address[])": {
        "details": "Whitelist Addresses for presale",
        "params": {
          "addresses": "Addresses to be whitelisted for Pre-sale"
        }
      }
    },
    "version": 1
  },
  "userdoc": {
    "kind": "user",
    "methods": {},
    "version": 1
  },
  "storageLayout": {
    "storage": [
      {
        "astId": 138,
        "contract": "contracts/DrakeConcertContract.sol:DrakeConcertContract",
        "label": "_name",
        "offset": 0,
        "slot": "0",
        "type": "t_string_storage"
      },
      {
        "astId": 140,
        "contract": "contracts/DrakeConcertContract.sol:DrakeConcertContract",
        "label": "_symbol",
        "offset": 0,
        "slot": "1",
        "type": "t_string_storage"
      },
      {
        "astId": 144,
        "contract": "contracts/DrakeConcertContract.sol:DrakeConcertContract",
        "label": "_owners",
        "offset": 0,
        "slot": "2",
        "type": "t_mapping(t_uint256,t_address)"
      },
      {
        "astId": 148,
        "contract": "contracts/DrakeConcertContract.sol:DrakeConcertContract",
        "label": "_balances",
        "offset": 0,
        "slot": "3",
        "type": "t_mapping(t_address,t_uint256)"
      },
      {
        "astId": 152,
        "contract": "contracts/DrakeConcertContract.sol:DrakeConcertContract",
        "label": "_tokenApprovals",
        "offset": 0,
        "slot": "4",
        "type": "t_mapping(t_uint256,t_address)"
      },
      {
        "astId": 158,
        "contract": "contracts/DrakeConcertContract.sol:DrakeConcertContract",
        "label": "_operatorApprovals",
        "offset": 0,
        "slot": "5",
        "type": "t_mapping(t_address,t_mapping(t_address,t_bool))"
      },
      {
        "astId": 1188,
        "contract": "contracts/DrakeConcertContract.sol:DrakeConcertContract",
        "label": "_ownedTokens",
        "offset": 0,
        "slot": "6",
        "type": "t_mapping(t_address,t_mapping(t_uint256,t_uint256))"
      },
      {
        "astId": 1192,
        "contract": "contracts/DrakeConcertContract.sol:DrakeConcertContract",
        "label": "_ownedTokensIndex",
        "offset": 0,
        "slot": "7",
        "type": "t_mapping(t_uint256,t_uint256)"
      },
      {
        "astId": 1195,
        "contract": "contracts/DrakeConcertContract.sol:DrakeConcertContract",
        "label": "_allTokens",
        "offset": 0,
        "slot": "8",
        "type": "t_array(t_uint256)dyn_storage"
      },
      {
        "astId": 1199,
        "contract": "contracts/DrakeConcertContract.sol:DrakeConcertContract",
        "label": "_allTokensIndex",
        "offset": 0,
        "slot": "9",
        "type": "t_mapping(t_uint256,t_uint256)"
      },
      {
        "astId": 7,
        "contract": "contracts/DrakeConcertContract.sol:DrakeConcertContract",
        "label": "_owner",
        "offset": 0,
        "slot": "10",
        "type": "t_address"
      },
      {
        "astId": 3040,
        "contract": "contracts/DrakeConcertContract.sol:DrakeConcertContract",
        "label": "startTime",
        "offset": 0,
        "slot": "11",
        "type": "t_uint256"
      },
      {
        "astId": 3042,
        "contract": "contracts/DrakeConcertContract.sol:DrakeConcertContract",
        "label": "endTime",
        "offset": 0,
        "slot": "12",
        "type": "t_uint256"
      },
      {
        "astId": 3050,
        "contract": "contracts/DrakeConcertContract.sol:DrakeConcertContract",
        "label": "preSaleCount",
        "offset": 0,
        "slot": "13",
        "type": "t_uint16"
      },
      {
        "astId": 3055,
        "contract": "contracts/DrakeConcertContract.sol:DrakeConcertContract",
        "label": "soulboundCount",
        "offset": 2,
        "slot": "13",
        "type": "t_uint16"
      },
      {
        "astId": 3060,
        "contract": "contracts/DrakeConcertContract.sol:DrakeConcertContract",
        "label": "whiteListedCounter",
        "offset": 4,
        "slot": "13",
        "type": "t_uint8"
      },
      {
        "astId": 3063,
        "contract": "contracts/DrakeConcertContract.sol:DrakeConcertContract",
        "label": "sContract",
        "offset": 5,
        "slot": "13",
        "type": "t_contract(SoulboundToken)3616"
      },
      {
        "astId": 3067,
        "contract": "contracts/DrakeConcertContract.sol:DrakeConcertContract",
        "label": "whiteListed",
        "offset": 0,
        "slot": "14",
        "type": "t_mapping(t_address,t_bool)"
      }
    ],
    "types": {
      "t_address": {
        "encoding": "inplace",
        "label": "address",
        "numberOfBytes": "20"
      },
      "t_array(t_uint256)dyn_storage": {
        "base": "t_uint256",
        "encoding": "dynamic_array",
        "label": "uint256[]",
        "numberOfBytes": "32"
      },
      "t_bool": {
        "encoding": "inplace",
        "label": "bool",
        "numberOfBytes": "1"
      },
      "t_contract(SoulboundToken)3616": {
        "encoding": "inplace",
        "label": "contract SoulboundToken",
        "numberOfBytes": "20"
      },
      "t_mapping(t_address,t_bool)": {
        "encoding": "mapping",
        "key": "t_address",
        "label": "mapping(address => bool)",
        "numberOfBytes": "32",
        "value": "t_bool"
      },
      "t_mapping(t_address,t_mapping(t_address,t_bool))": {
        "encoding": "mapping",
        "key": "t_address",
        "label": "mapping(address => mapping(address => bool))",
        "numberOfBytes": "32",
        "value": "t_mapping(t_address,t_bool)"
      },
      "t_mapping(t_address,t_mapping(t_uint256,t_uint256))": {
        "encoding": "mapping",
        "key": "t_address",
        "label": "mapping(address => mapping(uint256 => uint256))",
        "numberOfBytes": "32",
        "value": "t_mapping(t_uint256,t_uint256)"
      },
      "t_mapping(t_address,t_uint256)": {
        "encoding": "mapping",
        "key": "t_address",
        "label": "mapping(address => uint256)",
        "numberOfBytes": "32",
        "value": "t_uint256"
      },
      "t_mapping(t_uint256,t_address)": {
        "encoding": "mapping",
        "key": "t_uint256",
        "label": "mapping(uint256 => address)",
        "numberOfBytes": "32",
        "value": "t_address"
      },
      "t_mapping(t_uint256,t_uint256)": {
        "encoding": "mapping",
        "key": "t_uint256",
        "label": "mapping(uint256 => uint256)",
        "numberOfBytes": "32",
        "value": "t_uint256"
      },
      "t_string_storage": {
        "encoding": "bytes",
        "label": "string",
        "numberOfBytes": "32"
      },
      "t_uint16": {
        "encoding": "inplace",
        "label": "uint16",
        "numberOfBytes": "2"
      },
      "t_uint256": {
        "encoding": "inplace",
        "label": "uint256",
        "numberOfBytes": "32"
      },
      "t_uint8": {
        "encoding": "inplace",
        "label": "uint8",
        "numberOfBytes": "1"
      }
    }
  }
}