{
  "address": "0x446c925eFE2709153c7fa83438DD33e82e897642",
  "abi": [
    {
      "inputs": [
        {
          "internalType": "uint256",
          "name": "_startTime",
          "type": "uint256"
        }
      ],
      "stateMutability": "nonpayable",
      "type": "constructor"
    },
    {
      "inputs": [],
      "name": "DrakeConcertContract_AlreadyWhiteListed",
      "type": "error"
    },
    {
      "inputs": [],
      "name": "DrakeConcertContract_WhiteListMax",
      "type": "error"
    },
    {
      "inputs": [],
      "name": "DrakeConcertContract_addrCannotBeZeroAddress",
      "type": "error"
    },
    {
      "inputs": [],
      "name": "DrakeConcertContract_inAccuratePrice",
      "type": "error"
    },
    {
      "inputs": [],
      "name": "DrakeConcertContract_notWhiteListed",
      "type": "error"
    },
    {
      "inputs": [],
      "name": "DrakeConcertContract_saleHasNotEnded",
      "type": "error"
    },
    {
      "inputs": [],
      "name": "DrakeConcertContract_saleHasNotStarted",
      "type": "error"
    },
    {
      "inputs": [],
      "name": "DrakeConcertContract_salesHasEnded",
      "type": "error"
    },
    {
      "anonymous": false,
      "inputs": [
        {
          "indexed": true,
          "internalType": "address",
          "name": "owner",
          "type": "address"
        },
        {
          "indexed": true,
          "internalType": "address",
          "name": "approved",
          "type": "address"
        },
        {
          "indexed": true,
          "internalType": "uint256",
          "name": "tokenId",
          "type": "uint256"
        }
      ],
      "name": "Approval",
      "type": "event"
    },
    {
      "anonymous": false,
      "inputs": [
        {
          "indexed": true,
          "internalType": "address",
          "name": "owner",
          "type": "address"
        },
        {
          "indexed": true,
          "internalType": "address",
          "name": "operator",
          "type": "address"
        },
        {
          "indexed": false,
          "internalType": "bool",
          "name": "approved",
          "type": "bool"
        }
      ],
      "name": "ApprovalForAll",
      "type": "event"
    },
    {
      "anonymous": false,
      "inputs": [
        {
          "indexed": true,
          "internalType": "address",
          "name": "previousOwner",
          "type": "address"
        },
        {
          "indexed": true,
          "internalType": "address",
          "name": "newOwner",
          "type": "address"
        }
      ],
      "name": "OwnershipTransferred",
      "type": "event"
    },
    {
      "anonymous": false,
      "inputs": [
        {
          "indexed": true,
          "internalType": "address",
          "name": "buyersAddress",
          "type": "address"
        },
        {
          "indexed": true,
          "internalType": "uint256",
          "name": "ticketId",
          "type": "uint256"
        }
      ],
      "name": "SoulboundTicket",
      "type": "event"
    },
    {
      "anonymous": false,
      "inputs": [
        {
          "indexed": true,
          "internalType": "address",
          "name": "buyersAddress",
          "type": "address"
        },
        {
          "indexed": true,
          "internalType": "uint256",
          "name": "ticketId",
          "type": "uint256"
        }
      ],
      "name": "TicketBought",
      "type": "event"
    },
    {
      "anonymous": false,
      "inputs": [
        {
          "indexed": true,
          "internalType": "address",
          "name": "from",
          "type": "address"
        },
        {
          "indexed": true,
          "internalType": "address",
          "name": "to",
          "type": "address"
        },
        {
          "indexed": true,
          "internalType": "uint256",
          "name": "tokenId",
          "type": "uint256"
        }
      ],
      "name": "Transfer",
      "type": "event"
    },
    {
      "inputs": [
        {
          "internalType": "address",
          "name": "to",
          "type": "address"
        },
        {
          "internalType": "uint256",
          "name": "tokenId",
          "type": "uint256"
        }
      ],
      "name": "approve",
      "outputs": [],
      "stateMutability": "nonpayable",
      "type": "function"
    },
    {
      "inputs": [
        {
          "internalType": "address",
          "name": "owner",
          "type": "address"
        }
      ],
      "name": "balanceOf",
      "outputs": [
        {
          "internalType": "uint256",
          "name": "",
          "type": "uint256"
        }
      ],
      "stateMutability": "view",
      "type": "function"
    },
    {
      "inputs": [],
      "name": "buyTicket",
      "outputs": [],
      "stateMutability": "payable",
      "type": "function"
    },
    {
      "inputs": [
        {
          "internalType": "uint256",
          "name": "tokenId",
          "type": "uint256"
        }
      ],
      "name": "getApproved",
      "outputs": [
        {
          "internalType": "address",
          "name": "",
          "type": "address"
        }
      ],
      "stateMutability": "view",
      "type": "function"
    },
    {
      "inputs": [],
      "name": "getEndTime",
      "outputs": [
        {
          "internalType": "uint256",
          "name": "",
          "type": "uint256"
        }
      ],
      "stateMutability": "view",
      "type": "function"
    },
    {
      "inputs": [],
      "name": "getWhiteListedAddress",
      "outputs": [
        {
          "internalType": "address[]",
          "name": "",
          "type": "address[]"
        }
      ],
      "stateMutability": "view",
      "type": "function"
    },
    {
      "inputs": [
        {
          "internalType": "address",
          "name": "owner",
          "type": "address"
        },
        {
          "internalType": "address",
          "name": "operator",
          "type": "address"
        }
      ],
      "name": "isApprovedForAll",
      "outputs": [
        {
          "internalType": "bool",
          "name": "",
          "type": "bool"
        }
      ],
      "stateMutability": "view",
      "type": "function"
    },
    {
      "inputs": [
        {
          "internalType": "address",
          "name": "_address",
          "type": "address"
        }
      ],
      "name": "isWhiteListed",
      "outputs": [
        {
          "internalType": "bool",
          "name": "",
          "type": "bool"
        }
      ],
      "stateMutability": "view",
      "type": "function"
    },
    {
      "inputs": [],
      "name": "killContract",
      "outputs": [],
      "stateMutability": "nonpayable",
      "type": "function"
    },
    {
      "inputs": [],
      "name": "name",
      "outputs": [
        {
          "internalType": "string",
          "name": "",
          "type": "string"
        }
      ],
      "stateMutability": "view",
      "type": "function"
    },
    {
      "inputs": [],
      "name": "owner",
      "outputs": [
        {
          "internalType": "address",
          "name": "",
          "type": "address"
        }
      ],
      "stateMutability": "view",
      "type": "function"
    },
    {
      "inputs": [
        {
          "internalType": "uint256",
          "name": "tokenId",
          "type": "uint256"
        }
      ],
      "name": "ownerOf",
      "outputs": [
        {
          "internalType": "address",
          "name": "",
          "type": "address"
        }
      ],
      "stateMutability": "view",
      "type": "function"
    },
    {
      "inputs": [
        {
          "internalType": "address[]",
          "name": "addresses",
          "type": "address[]"
        }
      ],
      "name": "removeWhiteListedAddress",
      "outputs": [],
      "stateMutability": "nonpayable",
      "type": "function"
    },
    {
      "inputs": [],
      "name": "renounceOwnership",
      "outputs": [],
      "stateMutability": "nonpayable",
      "type": "function"
    },
    {
      "inputs": [
        {
          "internalType": "address",
          "name": "from",
          "type": "address"
        },
        {
          "internalType": "address",
          "name": "to",
          "type": "address"
        },
        {
          "internalType": "uint256",
          "name": "tokenId",
          "type": "uint256"
        }
      ],
      "name": "safeTransferFrom",
      "outputs": [],
      "stateMutability": "nonpayable",
      "type": "function"
    },
    {
      "inputs": [
        {
          "internalType": "address",
          "name": "from",
          "type": "address"
        },
        {
          "internalType": "address",
          "name": "to",
          "type": "address"
        },
        {
          "internalType": "uint256",
          "name": "tokenId",
          "type": "uint256"
        },
        {
          "internalType": "bytes",
          "name": "data",
          "type": "bytes"
        }
      ],
      "name": "safeTransferFrom",
      "outputs": [],
      "stateMutability": "nonpayable",
      "type": "function"
    },
    {
      "inputs": [
        {
          "internalType": "address",
          "name": "operator",
          "type": "address"
        },
        {
          "internalType": "bool",
          "name": "approved",
          "type": "bool"
        }
      ],
      "name": "setApprovalForAll",
      "outputs": [],
      "stateMutability": "nonpayable",
      "type": "function"
    },
    {
      "inputs": [
        {
          "internalType": "bytes4",
          "name": "interfaceId",
          "type": "bytes4"
        }
      ],
      "name": "supportsInterface",
      "outputs": [
        {
          "internalType": "bool",
          "name": "",
          "type": "bool"
        }
      ],
      "stateMutability": "view",
      "type": "function"
    },
    {
      "inputs": [],
      "name": "symbol",
      "outputs": [
        {
          "internalType": "string",
          "name": "",
          "type": "string"
        }
      ],
      "stateMutability": "view",
      "type": "function"
    },
    {
      "inputs": [
        {
          "internalType": "uint256",
          "name": "index",
          "type": "uint256"
        }
      ],
      "name": "tokenByIndex",
      "outputs": [
        {
          "internalType": "uint256",
          "name": "",
          "type": "uint256"
        }
      ],
      "stateMutability": "view",
      "type": "function"
    },
    {
      "inputs": [
        {
          "internalType": "address",
          "name": "owner",
          "type": "address"
        },
        {
          "internalType": "uint256",
          "name": "index",
          "type": "uint256"
        }
      ],
      "name": "tokenOfOwnerByIndex",
      "outputs": [
        {
          "internalType": "uint256",
          "name": "",
          "type": "uint256"
        }
      ],
      "stateMutability": "view",
      "type": "function"
    },
    {
      "inputs": [
        {
          "internalType": "uint256",
          "name": "tokenId",
          "type": "uint256"
        }
      ],
      "name": "tokenURI",
      "outputs": [
        {
          "internalType": "string",
          "name": "",
          "type": "string"
        }
      ],
      "stateMutability": "view",
      "type": "function"
    },
    {
      "inputs": [],
      "name": "totalSupply",
      "outputs": [
        {
          "internalType": "uint256",
          "name": "",
          "type": "uint256"
        }
      ],
      "stateMutability": "view",
      "type": "function"
    },
    {
      "inputs": [
        {
          "internalType": "address",
          "name": "from",
          "type": "address"
        },
        {
          "internalType": "address",
          "name": "to",
          "type": "address"
        },
        {
          "internalType": "uint256",
          "name": "tokenId",
          "type": "uint256"
        }
      ],
      "name": "transferFrom",
      "outputs": [],
      "stateMutability": "nonpayable",
      "type": "function"
    },
    {
      "inputs": [
        {
          "internalType": "address",
          "name": "newOwner",
          "type": "address"
        }
      ],
      "name": "transferOwnership",
      "outputs": [],
      "stateMutability": "nonpayable",
      "type": "function"
    },
    {
      "inputs": [
        {
          "internalType": "address[]",
          "name": "addresses",
          "type": "address[]"
        }
      ],
      "name": "whiteListAddress",
      "outputs": [],
      "stateMutability": "nonpayable",
      "type": "function"
    }
  ],
  "transactionHash": "0x358ba0d5690d013cd74170f6bbba84284ad13c62513a0bd34dc500a689fce8ef",
  "args": [
    1682862953
  ],
  "numDeployments": 2,
  "solcInputHash": "8831e09f39b0eacbd08970984b92ce58",
  "bytecode": "0x60806040523480156200001157600080fd5b50604051620046013803806200460183398181016040528101906200003791906200021c565b6040518060400160405280601481526020017f4472616b65436f6e63657274436f6e74726163740000000000000000000000008152506040518060400160405280600481526020017f24444343000000000000000000000000000000000000000000000000000000008152508160009081620000b49190620004be565b508060019081620000c69190620004be565b505050620000e9620000dd6200010e60201b60201c565b6200011660201b60201c565b80600b81905550620d2f0081620001019190620005d4565b600c81905550506200060f565b600033905090565b6000600a60009054906101000a900473ffffffffffffffffffffffffffffffffffffffff16905081600a60006101000a81548173ffffffffffffffffffffffffffffffffffffffff021916908373ffffffffffffffffffffffffffffffffffffffff1602179055508173ffffffffffffffffffffffffffffffffffffffff168173ffffffffffffffffffffffffffffffffffffffff167f8be0079c531659141344cd1fd0a4f28419497f9722a3daafe3b4186f6b6457e060405160405180910390a35050565b600080fd5b6000819050919050565b620001f681620001e1565b81146200020257600080fd5b50565b6000815190506200021681620001eb565b92915050565b600060208284031215620002355762000234620001dc565b5b6000620002458482850162000205565b91505092915050565b600081519050919050565b7f4e487b7100000000000000000000000000000000000000000000000000000000600052604160045260246000fd5b7f4e487b7100000000000000000000000000000000000000000000000000000000600052602260045260246000fd5b60006002820490506001821680620002d057607f821691505b602082108103620002e657620002e562000288565b5b50919050565b60008190508160005260206000209050919050565b60006020601f8301049050919050565b600082821b905092915050565b600060088302620003507fffffffffffffffffffffffffffffffffffffffffffffffffffffffffffffffff8262000311565b6200035c868362000311565b95508019841693508086168417925050509392505050565b6000819050919050565b60006200039f620003996200039384620001e1565b62000374565b620001e1565b9050919050565b6000819050919050565b620003bb836200037e565b620003d3620003ca82620003a6565b8484546200031e565b825550505050565b600090565b620003ea620003db565b620003f7818484620003b0565b505050565b5b818110156200041f5762000413600082620003e0565b600181019050620003fd565b5050565b601f8211156200046e576200043881620002ec565b620004438462000301565b8101602085101562000453578190505b6200046b620004628562000301565b830182620003fc565b50505b505050565b600082821c905092915050565b6000620004936000198460080262000473565b1980831691505092915050565b6000620004ae838362000480565b9150826002028217905092915050565b620004c9826200024e565b67ffffffffffffffff811115620004e557620004e462000259565b5b620004f18254620002b7565b620004fe82828562000423565b600060209050601f83116001811462000536576000841562000521578287015190505b6200052d8582620004a0565b8655506200059d565b601f1984166200054686620002ec565b60005b82811015620005705784890151825560018201915060208501945060208101905062000549565b868310156200059057848901516200058c601f89168262000480565b8355505b6001600288020188555050505b505050505050565b7f4e487b7100000000000000000000000000000000000000000000000000000000600052601160045260246000fd5b6000620005e182620001e1565b9150620005ee83620001e1565b9250828201905080821115620006095762000608620005a5565b5b92915050565b613fe2806200061f6000396000f3fe6080604052600436106101815760003560e01c80636f9170f6116100d1578063a22cb4651161008a578063ce05bd0b11610064578063ce05bd0b14610594578063e985e9c5146105bd578063edca914c146105fa578063f2fde38b1461060457610181565b8063a22cb46514610505578063b88d4fde1461052e578063c87b56dd1461055757610181565b80636f9170f6146103f357806370a0823114610430578063715018a61461046d5780638385ccb5146104845780638da5cb5b146104af57806395d89b41146104da57610181565b806323b872dd1161013e578063439f5ac211610118578063439f5ac2146103255780634e41cfdb146103505780634f6ccce7146103795780636352211e146103b657610181565b806323b872dd146102965780632f745c59146102bf57806342842e0e146102fc57610181565b806301ffc9a71461018657806306fdde03146101c3578063081812fc146101ee578063095ea7b31461022b57806318160ddd146102545780631c02708d1461027f575b600080fd5b34801561019257600080fd5b506101ad60048036038101906101a89190612c88565b61062d565b6040516101ba9190612cd0565b60405180910390f35b3480156101cf57600080fd5b506101d86106a7565b6040516101e59190612d7b565b60405180910390f35b3480156101fa57600080fd5b5061021560048036038101906102109190612dd3565b610739565b6040516102229190612e41565b60405180910390f35b34801561023757600080fd5b50610252600480360381019061024d9190612e88565b61077f565b005b34801561026057600080fd5b50610269610896565b6040516102769190612ed7565b60405180910390f35b34801561028b57600080fd5b506102946108a3565b005b3480156102a257600080fd5b506102bd60048036038101906102b89190612ef2565b610921565b005b3480156102cb57600080fd5b506102e660048036038101906102e19190612e88565b610981565b6040516102f39190612ed7565b60405180910390f35b34801561030857600080fd5b50610323600480360381019061031e9190612ef2565b610a26565b005b34801561033157600080fd5b5061033a610a46565b6040516103479190612ed7565b60405180910390f35b34801561035c57600080fd5b506103776004803603810190610372919061308d565b610a50565b005b34801561038557600080fd5b506103a0600480360381019061039b9190612dd3565b610c07565b6040516103ad9190612ed7565b60405180910390f35b3480156103c257600080fd5b506103dd60048036038101906103d89190612dd3565b610c78565b6040516103ea9190612e41565b60405180910390f35b3480156103ff57600080fd5b5061041a600480360381019061041591906130d6565b610cfe565b6040516104279190612cd0565b60405180910390f35b34801561043c57600080fd5b50610457600480360381019061045291906130d6565b610d54565b6040516104649190612ed7565b60405180910390f35b34801561047957600080fd5b50610482610e0b565b005b34801561049057600080fd5b50610499610e1f565b6040516104a691906131c1565b60405180910390f35b3480156104bb57600080fd5b506104c4610eb5565b6040516104d19190612e41565b60405180910390f35b3480156104e657600080fd5b506104ef610edf565b6040516104fc9190612d7b565b60405180910390f35b34801561051157600080fd5b5061052c6004803603810190610527919061320f565b610f71565b005b34801561053a57600080fd5b5061055560048036038101906105509190613304565b610f87565b005b34801561056357600080fd5b5061057e60048036038101906105799190612dd3565b610fe9565b60405161058b9190612d7b565b60405180910390f35b3480156105a057600080fd5b506105bb60048036038101906105b6919061308d565b611051565b005b3480156105c957600080fd5b506105e460048036038101906105df9190613387565b611335565b6040516105f19190612cd0565b60405180910390f35b6106026113c9565b005b34801561061057600080fd5b5061062b600480360381019061062691906130d6565b611741565b005b60007f780e9d63000000000000000000000000000000000000000000000000000000007bffffffffffffffffffffffffffffffffffffffffffffffffffffffff1916827bffffffffffffffffffffffffffffffffffffffffffffffffffffffff191614806106a0575061069f826117c4565b5b9050919050565b6060600080546106b6906133f6565b80601f01602080910402602001604051908101604052809291908181526020018280546106e2906133f6565b801561072f5780601f106107045761010080835404028352916020019161072f565b820191906000526020600020905b81548152906001019060200180831161071257829003601f168201915b5050505050905090565b6000610744826118a6565b6004600083815260200190815260200160002060009054906101000a900473ffffffffffffffffffffffffffffffffffffffff169050919050565b600061078a82610c78565b90508073ffffffffffffffffffffffffffffffffffffffff168373ffffffffffffffffffffffffffffffffffffffff16036107fa576040517f08c379a00000000000000000000000000000000000000000000000000000000081526004016107f190613499565b60405180910390fd5b8073ffffffffffffffffffffffffffffffffffffffff166108196118f1565b73ffffffffffffffffffffffffffffffffffffffff1614806108485750610847816108426118f1565b611335565b5b610887576040517f08c379a000000000000000000000000000000000000000000000000000000000815260040161087e9061352b565b60405180910390fd5b61089183836118f9565b505050565b6000600880549050905090565b6108ab6119b2565b600c54421080156108ca57506103e863ffffffff166108c8610896565b105b15610901576040517fb1d45db000000000000000000000000000000000000000000000000000000000815260040160405180910390fd5b610909610eb5565b73ffffffffffffffffffffffffffffffffffffffff16ff5b61093261092c6118f1565b82611a30565b610971576040517f08c379a0000000000000000000000000000000000000000000000000000000008152600401610968906135bd565b60405180910390fd5b61097c838383611ac5565b505050565b600061098c83610d54565b82106109cd576040517f08c379a00000000000000000000000000000000000000000000000000000000081526004016109c49061364f565b60405180910390fd5b600660008473ffffffffffffffffffffffffffffffffffffffff1673ffffffffffffffffffffffffffffffffffffffff168152602001908152602001600020600083815260200190815260200160002054905092915050565b610a4183838360405180602001604052806000815250610f87565b505050565b6000600c54905090565b610a586119b2565b60c861ffff16600e8054905010610a9b576040517f3180973700000000000000000000000000000000000000000000000000000000815260040160405180910390fd5b60005b8151811015610c0357610aca828281518110610abd57610abc61366f565b5b6020026020010151610cfe565b15610b01576040517f3214ccf000000000000000000000000000000000000000000000000000000000815260040160405180910390fd5b6001600f6000848481518110610b1a57610b1961366f565b5b602002602001015173ffffffffffffffffffffffffffffffffffffffff1673ffffffffffffffffffffffffffffffffffffffff16815260200190815260200160002060006101000a81548160ff021916908315150217905550600e828281518110610b8857610b8761366f565b5b60200260200101519080600181540180825580915050600190039060005260206000200160009091909190916101000a81548173ffffffffffffffffffffffffffffffffffffffff021916908373ffffffffffffffffffffffffffffffffffffffff1602179055508080610bfb906136cd565b915050610a9e565b5050565b6000610c11610896565b8210610c52576040517f08c379a0000000000000000000000000000000000000000000000000000000008152600401610c4990613787565b60405180910390fd5b60088281548110610c6657610c6561366f565b5b90600052602060002001549050919050565b600080610c8483611dbe565b9050600073ffffffffffffffffffffffffffffffffffffffff168173ffffffffffffffffffffffffffffffffffffffff1603610cf5576040517f08c379a0000000000000000000000000000000000000000000000000000000008152600401610cec906137f3565b60405180910390fd5b80915050919050565b6000600f60008373ffffffffffffffffffffffffffffffffffffffff1673ffffffffffffffffffffffffffffffffffffffff16815260200190815260200160002060009054906101000a900460ff169050919050565b60008073ffffffffffffffffffffffffffffffffffffffff168273ffffffffffffffffffffffffffffffffffffffff1603610dc4576040517f08c379a0000000000000000000000000000000000000000000000000000000008152600401610dbb90613885565b60405180910390fd5b600360008373ffffffffffffffffffffffffffffffffffffffff1673ffffffffffffffffffffffffffffffffffffffff168152602001908152602001600020549050919050565b610e136119b2565b610e1d6000611dfb565b565b6060610e296119b2565b600e805480602002602001604051908101604052809291908181526020018280548015610eab57602002820191906000526020600020905b8160009054906101000a900473ffffffffffffffffffffffffffffffffffffffff1673ffffffffffffffffffffffffffffffffffffffff1681526020019060010190808311610e61575b5050505050905090565b6000600a60009054906101000a900473ffffffffffffffffffffffffffffffffffffffff16905090565b606060018054610eee906133f6565b80601f0160208091040260200160405190810160405280929190818152602001828054610f1a906133f6565b8015610f675780601f10610f3c57610100808354040283529160200191610f67565b820191906000526020600020905b815481529060010190602001808311610f4a57829003601f168201915b5050505050905090565b610f83610f7c6118f1565b8383611ec1565b5050565b610f98610f926118f1565b83611a30565b610fd7576040517f08c379a0000000000000000000000000000000000000000000000000000000008152600401610fce906135bd565b60405180910390fd5b610fe38484848461202d565b50505050565b6060610ff4826118a6565b6000610ffe612089565b9050600081511161101e5760405180602001604052806000815250611049565b80611028846120a0565b6040516020016110399291906138e1565b6040516020818303038152906040525b915050919050565b6110596119b2565b60005b815181101561133157600f600083838151811061107c5761107b61366f565b5b602002602001015173ffffffffffffffffffffffffffffffffffffffff1673ffffffffffffffffffffffffffffffffffffffff16815260200190815260200160002060009054906101000a900460ff16611102576040517f336382e000000000000000000000000000000000000000000000000000000000815260040160405180910390fd5b6000600f600084848151811061111b5761111a61366f565b5b602002602001015173ffffffffffffffffffffffffffffffffffffffff1673ffffffffffffffffffffffffffffffffffffffff16815260200190815260200160002060006101000a81548160ff02191690831515021790555060008190505b600e8054905081101561131d5782828151811061119a5761119961366f565b5b602002602001015173ffffffffffffffffffffffffffffffffffffffff16600e82815481106111cc576111cb61366f565b5b9060005260206000200160009054906101000a900473ffffffffffffffffffffffffffffffffffffffff1673ffffffffffffffffffffffffffffffffffffffff160361130a57600e6001600e805490506112269190613905565b815481106112375761123661366f565b5b9060005260206000200160009054906101000a900473ffffffffffffffffffffffffffffffffffffffff16600e82815481106112765761127561366f565b5b9060005260206000200160006101000a81548173ffffffffffffffffffffffffffffffffffffffff021916908373ffffffffffffffffffffffffffffffffffffffff160217905550600e8054806112d0576112cf613939565b5b6001900381819060005260206000200160006101000a81549073ffffffffffffffffffffffffffffffffffffffff0219169055905561131d565b8080611315906136cd565b91505061117a565b508080611329906136cd565b91505061105c565b5050565b6000600560008473ffffffffffffffffffffffffffffffffffffffff1673ffffffffffffffffffffffffffffffffffffffff16815260200190815260200160002060008373ffffffffffffffffffffffffffffffffffffffff1673ffffffffffffffffffffffffffffffffffffffff16815260200190815260200160002060009054906101000a900460ff16905092915050565b600073ffffffffffffffffffffffffffffffffffffffff163373ffffffffffffffffffffffffffffffffffffffff160361142f576040517f0623993300000000000000000000000000000000000000000000000000000000815260040160405180910390fd5b670de0b6b3a76400003414611470576040517f64bf7c6400000000000000000000000000000000000000000000000000000000815260040160405180910390fd5b600c5442106114ab576040517fa4d6e94500000000000000000000000000000000000000000000000000000000815260040160405180910390fd5b6103e863ffffffff166114bc610896565b036114f3576040517ff8a94fc000000000000000000000000000000000000000000000000000000000815260040160405180910390fd5b60c861ffff16600d60009054906101000a900463ffffffff1663ffffffff1610156115dd57600f60003373ffffffffffffffffffffffffffffffffffffffff1673ffffffffffffffffffffffffffffffffffffffff16815260200190815260200160002060009054906101000a900460ff1661159b576040517f336382e000000000000000000000000000000000000000000000000000000000815260040160405180910390fd5b600d600081819054906101000a900463ffffffff16809291906115bd90613978565b91906101000a81548163ffffffff021916908363ffffffff160217905550505b601461ffff16600d60049054906101000a900461ffff1661ffff161080156116115750601461ffff1661160e610896565b11155b156116ca57600d600481819054906101000a900461ffff1680929190611636906139b2565b91906101000a81548161ffff021916908361ffff16021790555050600161165b610896565b61166591906139dc565b3373ffffffffffffffffffffffffffffffffffffffff167f1a05a762c5ed481d6a3291a97dbda977394f1fb86ee9e8cbf4a5fe4eb1c1a9e960405160405180910390a36116c53360016116b6610896565b6116c091906139dc565b61216e565b61173f565b6116e73360016116d8610896565b6116e291906139dc565b61216e565b60016116f1610896565b6116fb91906139dc565b3373ffffffffffffffffffffffffffffffffffffffff167f985d112c54c7518a49841fc37640d9ded60112ea7370ca9129c8ed33c3607bc760405160405180910390a35b565b6117496119b2565b600073ffffffffffffffffffffffffffffffffffffffff168173ffffffffffffffffffffffffffffffffffffffff16036117b8576040517f08c379a00000000000000000000000000000000000000000000000000000000081526004016117af90613a82565b60405180910390fd5b6117c181611dfb565b50565b60007f80ac58cd000000000000000000000000000000000000000000000000000000007bffffffffffffffffffffffffffffffffffffffffffffffffffffffff1916827bffffffffffffffffffffffffffffffffffffffffffffffffffffffff1916148061188f57507f5b5e139f000000000000000000000000000000000000000000000000000000007bffffffffffffffffffffffffffffffffffffffffffffffffffffffff1916827bffffffffffffffffffffffffffffffffffffffffffffffffffffffff1916145b8061189f575061189e8261218c565b5b9050919050565b6118af816121f6565b6118ee576040517f08c379a00000000000000000000000000000000000000000000000000000000081526004016118e5906137f3565b60405180910390fd5b50565b600033905090565b816004600083815260200190815260200160002060006101000a81548173ffffffffffffffffffffffffffffffffffffffff021916908373ffffffffffffffffffffffffffffffffffffffff160217905550808273ffffffffffffffffffffffffffffffffffffffff1661196c83610c78565b73ffffffffffffffffffffffffffffffffffffffff167f8c5be1e5ebec7d5bd14f71427d1e84f3dd0314c0f7b2291e5b200ac8c7c3b92560405160405180910390a45050565b6119ba6118f1565b73ffffffffffffffffffffffffffffffffffffffff166119d8610eb5565b73ffffffffffffffffffffffffffffffffffffffff1614611a2e576040517f08c379a0000000000000000000000000000000000000000000000000000000008152600401611a2590613aee565b60405180910390fd5b565b600080611a3c83610c78565b90508073ffffffffffffffffffffffffffffffffffffffff168473ffffffffffffffffffffffffffffffffffffffff161480611a7e5750611a7d8185611335565b5b80611abc57508373ffffffffffffffffffffffffffffffffffffffff16611aa484610739565b73ffffffffffffffffffffffffffffffffffffffff16145b91505092915050565b8273ffffffffffffffffffffffffffffffffffffffff16611ae582610c78565b73ffffffffffffffffffffffffffffffffffffffff1614611b3b576040517f08c379a0000000000000000000000000000000000000000000000000000000008152600401611b3290613b80565b60405180910390fd5b600073ffffffffffffffffffffffffffffffffffffffff168273ffffffffffffffffffffffffffffffffffffffff1603611baa576040517f08c379a0000000000000000000000000000000000000000000000000000000008152600401611ba190613c12565b60405180910390fd5b611bb78383836001612237565b8273ffffffffffffffffffffffffffffffffffffffff16611bd782610c78565b73ffffffffffffffffffffffffffffffffffffffff1614611c2d576040517f08c379a0000000000000000000000000000000000000000000000000000000008152600401611c2490613b80565b60405180910390fd5b6004600082815260200190815260200160002060006101000a81549073ffffffffffffffffffffffffffffffffffffffff02191690556001600360008573ffffffffffffffffffffffffffffffffffffffff1673ffffffffffffffffffffffffffffffffffffffff168152602001908152602001600020600082825403925050819055506001600360008473ffffffffffffffffffffffffffffffffffffffff1673ffffffffffffffffffffffffffffffffffffffff16815260200190815260200160002060008282540192505081905550816002600083815260200190815260200160002060006101000a81548173ffffffffffffffffffffffffffffffffffffffff021916908373ffffffffffffffffffffffffffffffffffffffff160217905550808273ffffffffffffffffffffffffffffffffffffffff168473ffffffffffffffffffffffffffffffffffffffff167fddf252ad1be2c89b69c2b068fc378daa952ba7f163c4a11628f55a4df523b3ef60405160405180910390a4611db98383836001612395565b505050565b60006002600083815260200190815260200160002060009054906101000a900473ffffffffffffffffffffffffffffffffffffffff169050919050565b6000600a60009054906101000a900473ffffffffffffffffffffffffffffffffffffffff16905081600a60006101000a81548173ffffffffffffffffffffffffffffffffffffffff021916908373ffffffffffffffffffffffffffffffffffffffff1602179055508173ffffffffffffffffffffffffffffffffffffffff168173ffffffffffffffffffffffffffffffffffffffff167f8be0079c531659141344cd1fd0a4f28419497f9722a3daafe3b4186f6b6457e060405160405180910390a35050565b8173ffffffffffffffffffffffffffffffffffffffff168373ffffffffffffffffffffffffffffffffffffffff1603611f2f576040517f08c379a0000000000000000000000000000000000000000000000000000000008152600401611f2690613c7e565b60405180910390fd5b80600560008573ffffffffffffffffffffffffffffffffffffffff1673ffffffffffffffffffffffffffffffffffffffff16815260200190815260200160002060008473ffffffffffffffffffffffffffffffffffffffff1673ffffffffffffffffffffffffffffffffffffffff16815260200190815260200160002060006101000a81548160ff0219169083151502179055508173ffffffffffffffffffffffffffffffffffffffff168373ffffffffffffffffffffffffffffffffffffffff167f17307eab39ab6107e8899845ad3d59bd9653f200f220920489ca2b5937696c31836040516120209190612cd0565b60405180910390a3505050565b612038848484611ac5565b6120448484848461239b565b612083576040517f08c379a000000000000000000000000000000000000000000000000000000000815260040161207a90613d10565b60405180910390fd5b50505050565b606060405180602001604052806000815250905090565b6060600060016120af84612522565b01905060008167ffffffffffffffff8111156120ce576120cd612f4a565b5b6040519080825280601f01601f1916602001820160405280156121005781602001600182028036833780820191505090505b509050600082602001820190505b600115612163578080600190039150507f3031323334353637383961626364656600000000000000000000000000000000600a86061a8153600a858161215757612156613d30565b5b0494506000850361210e575b819350505050919050565b612188828260405180602001604052806000815250612675565b5050565b60007f01ffc9a7000000000000000000000000000000000000000000000000000000007bffffffffffffffffffffffffffffffffffffffffffffffffffffffff1916827bffffffffffffffffffffffffffffffffffffffffffffffffffffffff1916149050919050565b60008073ffffffffffffffffffffffffffffffffffffffff1661221883611dbe565b73ffffffffffffffffffffffffffffffffffffffff1614159050919050565b612243848484846126d0565b6001811115612287576040517f08c379a000000000000000000000000000000000000000000000000000000000815260040161227e90613dd1565b60405180910390fd5b6000829050600073ffffffffffffffffffffffffffffffffffffffff168573ffffffffffffffffffffffffffffffffffffffff16036122ce576122c9816126d6565b61230d565b8373ffffffffffffffffffffffffffffffffffffffff168573ffffffffffffffffffffffffffffffffffffffff161461230c5761230b858261271f565b5b5b600073ffffffffffffffffffffffffffffffffffffffff168473ffffffffffffffffffffffffffffffffffffffff160361234f5761234a8161288c565b61238e565b8473ffffffffffffffffffffffffffffffffffffffff168473ffffffffffffffffffffffffffffffffffffffff161461238d5761238c848261295d565b5b5b5050505050565b50505050565b60006123bc8473ffffffffffffffffffffffffffffffffffffffff166129dc565b15612515578373ffffffffffffffffffffffffffffffffffffffff1663150b7a026123e56118f1565b8786866040518563ffffffff1660e01b81526004016124079493929190613e46565b6020604051808303816000875af192505050801561244357506040513d601f19601f820116820180604052508101906124409190613ea7565b60015b6124c5573d8060008114612473576040519150601f19603f3d011682016040523d82523d6000602084013e612478565b606091505b5060008151036124bd576040517f08c379a00000000000000000000000000000000000000000000000000000000081526004016124b490613d10565b60405180910390fd5b805181602001fd5b63150b7a0260e01b7bffffffffffffffffffffffffffffffffffffffffffffffffffffffff1916817bffffffffffffffffffffffffffffffffffffffffffffffffffffffff19161491505061251a565b600190505b949350505050565b600080600090507a184f03e93ff9f4daa797ed6e38ed64bf6a1f0100000000000000008310612580577a184f03e93ff9f4daa797ed6e38ed64bf6a1f010000000000000000838161257657612575613d30565b5b0492506040810190505b6d04ee2d6d415b85acef810000000083106125bd576d04ee2d6d415b85acef810000000083816125b3576125b2613d30565b5b0492506020810190505b662386f26fc1000083106125ec57662386f26fc1000083816125e2576125e1613d30565b5b0492506010810190505b6305f5e1008310612615576305f5e100838161260b5761260a613d30565b5b0492506008810190505b612710831061263a5761271083816126305761262f613d30565b5b0492506004810190505b6064831061265d576064838161265357612652613d30565b5b0492506002810190505b600a831061266c576001810190505b80915050919050565b61267f83836129ff565b61268c600084848461239b565b6126cb576040517f08c379a00000000000000000000000000000000000000000000000000000000081526004016126c290613d10565b60405180910390fd5b505050565b50505050565b6008805490506009600083815260200190815260200160002081905550600881908060018154018082558091505060019003906000526020600020016000909190919091505550565b6000600161272c84610d54565b6127369190613905565b905060006007600084815260200190815260200160002054905081811461281b576000600660008673ffffffffffffffffffffffffffffffffffffffff1673ffffffffffffffffffffffffffffffffffffffff168152602001908152602001600020600084815260200190815260200160002054905080600660008773ffffffffffffffffffffffffffffffffffffffff1673ffffffffffffffffffffffffffffffffffffffff168152602001908152602001600020600084815260200190815260200160002081905550816007600083815260200190815260200160002081905550505b6007600084815260200190815260200160002060009055600660008573ffffffffffffffffffffffffffffffffffffffff1673ffffffffffffffffffffffffffffffffffffffff16815260200190815260200160002060008381526020019081526020016000206000905550505050565b600060016008805490506128a09190613905565b90506000600960008481526020019081526020016000205490506000600883815481106128d0576128cf61366f565b5b9060005260206000200154905080600883815481106128f2576128f161366f565b5b90600052602060002001819055508160096000838152602001908152602001600020819055506009600085815260200190815260200160002060009055600880548061294157612940613939565b5b6001900381819060005260206000200160009055905550505050565b600061296883610d54565b905081600660008573ffffffffffffffffffffffffffffffffffffffff1673ffffffffffffffffffffffffffffffffffffffff168152602001908152602001600020600083815260200190815260200160002081905550806007600084815260200190815260200160002081905550505050565b6000808273ffffffffffffffffffffffffffffffffffffffff163b119050919050565b600073ffffffffffffffffffffffffffffffffffffffff168273ffffffffffffffffffffffffffffffffffffffff1603612a6e576040517f08c379a0000000000000000000000000000000000000000000000000000000008152600401612a6590613f20565b60405180910390fd5b612a77816121f6565b15612ab7576040517f08c379a0000000000000000000000000000000000000000000000000000000008152600401612aae90613f8c565b60405180910390fd5b612ac5600083836001612237565b612ace816121f6565b15612b0e576040517f08c379a0000000000000000000000000000000000000000000000000000000008152600401612b0590613f8c565b60405180910390fd5b6001600360008473ffffffffffffffffffffffffffffffffffffffff1673ffffffffffffffffffffffffffffffffffffffff16815260200190815260200160002060008282540192505081905550816002600083815260200190815260200160002060006101000a81548173ffffffffffffffffffffffffffffffffffffffff021916908373ffffffffffffffffffffffffffffffffffffffff160217905550808273ffffffffffffffffffffffffffffffffffffffff16600073ffffffffffffffffffffffffffffffffffffffff167fddf252ad1be2c89b69c2b068fc378daa952ba7f163c4a11628f55a4df523b3ef60405160405180910390a4612c18600083836001612395565b5050565b6000604051905090565b600080fd5b600080fd5b60007fffffffff0000000000000000000000000000000000000000000000000000000082169050919050565b612c6581612c30565b8114612c7057600080fd5b50565b600081359050612c8281612c5c565b92915050565b600060208284031215612c9e57612c9d612c26565b5b6000612cac84828501612c73565b91505092915050565b60008115159050919050565b612cca81612cb5565b82525050565b6000602082019050612ce56000830184612cc1565b92915050565b600081519050919050565b600082825260208201905092915050565b60005b83811015612d25578082015181840152602081019050612d0a565b60008484015250505050565b6000601f19601f8301169050919050565b6000612d4d82612ceb565b612d578185612cf6565b9350612d67818560208601612d07565b612d7081612d31565b840191505092915050565b60006020820190508181036000830152612d958184612d42565b905092915050565b6000819050919050565b612db081612d9d565b8114612dbb57600080fd5b50565b600081359050612dcd81612da7565b92915050565b600060208284031215612de957612de8612c26565b5b6000612df784828501612dbe565b91505092915050565b600073ffffffffffffffffffffffffffffffffffffffff82169050919050565b6000612e2b82612e00565b9050919050565b612e3b81612e20565b82525050565b6000602082019050612e566000830184612e32565b92915050565b612e6581612e20565b8114612e7057600080fd5b50565b600081359050612e8281612e5c565b92915050565b60008060408385031215612e9f57612e9e612c26565b5b6000612ead85828601612e73565b9250506020612ebe85828601612dbe565b9150509250929050565b612ed181612d9d565b82525050565b6000602082019050612eec6000830184612ec8565b92915050565b600080600060608486031215612f0b57612f0a612c26565b5b6000612f1986828701612e73565b9350506020612f2a86828701612e73565b9250506040612f3b86828701612dbe565b9150509250925092565b600080fd5b7f4e487b7100000000000000000000000000000000000000000000000000000000600052604160045260246000fd5b612f8282612d31565b810181811067ffffffffffffffff82111715612fa157612fa0612f4a565b5b80604052505050565b6000612fb4612c1c565b9050612fc08282612f79565b919050565b600067ffffffffffffffff821115612fe057612fdf612f4a565b5b602082029050602081019050919050565b600080fd5b600061300961300484612fc5565b612faa565b9050808382526020820190506020840283018581111561302c5761302b612ff1565b5b835b8181101561305557806130418882612e73565b84526020840193505060208101905061302e565b5050509392505050565b600082601f83011261307457613073612f45565b5b8135613084848260208601612ff6565b91505092915050565b6000602082840312156130a3576130a2612c26565b5b600082013567ffffffffffffffff8111156130c1576130c0612c2b565b5b6130cd8482850161305f565b91505092915050565b6000602082840312156130ec576130eb612c26565b5b60006130fa84828501612e73565b91505092915050565b600081519050919050565b600082825260208201905092915050565b6000819050602082019050919050565b61313881612e20565b82525050565b600061314a838361312f565b60208301905092915050565b6000602082019050919050565b600061316e82613103565b613178818561310e565b93506131838361311f565b8060005b838110156131b457815161319b888261313e565b97506131a683613156565b925050600181019050613187565b5085935050505092915050565b600060208201905081810360008301526131db8184613163565b905092915050565b6131ec81612cb5565b81146131f757600080fd5b50565b600081359050613209816131e3565b92915050565b6000806040838503121561322657613225612c26565b5b600061323485828601612e73565b9250506020613245858286016131fa565b9150509250929050565b600080fd5b600067ffffffffffffffff82111561326f5761326e612f4a565b5b61327882612d31565b9050602081019050919050565b82818337600083830152505050565b60006132a76132a284613254565b612faa565b9050828152602081018484840111156132c3576132c261324f565b5b6132ce848285613285565b509392505050565b600082601f8301126132eb576132ea612f45565b5b81356132fb848260208601613294565b91505092915050565b6000806000806080858703121561331e5761331d612c26565b5b600061332c87828801612e73565b945050602061333d87828801612e73565b935050604061334e87828801612dbe565b925050606085013567ffffffffffffffff81111561336f5761336e612c2b565b5b61337b878288016132d6565b91505092959194509250565b6000806040838503121561339e5761339d612c26565b5b60006133ac85828601612e73565b92505060206133bd85828601612e73565b9150509250929050565b7f4e487b7100000000000000000000000000000000000000000000000000000000600052602260045260246000fd5b6000600282049050600182168061340e57607f821691505b602082108103613421576134206133c7565b5b50919050565b7f4552433732313a20617070726f76616c20746f2063757272656e74206f776e6560008201527f7200000000000000000000000000000000000000000000000000000000000000602082015250565b6000613483602183612cf6565b915061348e82613427565b604082019050919050565b600060208201905081810360008301526134b281613476565b9050919050565b7f4552433732313a20617070726f76652063616c6c6572206973206e6f7420746f60008201527f6b656e206f776e6572206f7220617070726f76656420666f7220616c6c000000602082015250565b6000613515603d83612cf6565b9150613520826134b9565b604082019050919050565b6000602082019050818103600083015261354481613508565b9050919050565b7f4552433732313a2063616c6c6572206973206e6f7420746f6b656e206f776e6560008201527f72206f7220617070726f76656400000000000000000000000000000000000000602082015250565b60006135a7602d83612cf6565b91506135b28261354b565b604082019050919050565b600060208201905081810360008301526135d68161359a565b9050919050565b7f455243373231456e756d657261626c653a206f776e657220696e646578206f7560008201527f74206f6620626f756e6473000000000000000000000000000000000000000000602082015250565b6000613639602b83612cf6565b9150613644826135dd565b604082019050919050565b600060208201905081810360008301526136688161362c565b9050919050565b7f4e487b7100000000000000000000000000000000000000000000000000000000600052603260045260246000fd5b7f4e487b7100000000000000000000000000000000000000000000000000000000600052601160045260246000fd5b60006136d882612d9d565b91507fffffffffffffffffffffffffffffffffffffffffffffffffffffffffffffffff820361370a5761370961369e565b5b600182019050919050565b7f455243373231456e756d657261626c653a20676c6f62616c20696e646578206f60008201527f7574206f6620626f756e64730000000000000000000000000000000000000000602082015250565b6000613771602c83612cf6565b915061377c82613715565b604082019050919050565b600060208201905081810360008301526137a081613764565b9050919050565b7f4552433732313a20696e76616c696420746f6b656e2049440000000000000000600082015250565b60006137dd601883612cf6565b91506137e8826137a7565b602082019050919050565b6000602082019050818103600083015261380c816137d0565b9050919050565b7f4552433732313a2061646472657373207a65726f206973206e6f74206120766160008201527f6c6964206f776e65720000000000000000000000000000000000000000000000602082015250565b600061386f602983612cf6565b915061387a82613813565b604082019050919050565b6000602082019050818103600083015261389e81613862565b9050919050565b600081905092915050565b60006138bb82612ceb565b6138c581856138a5565b93506138d5818560208601612d07565b80840191505092915050565b60006138ed82856138b0565b91506138f982846138b0565b91508190509392505050565b600061391082612d9d565b915061391b83612d9d565b92508282039050818111156139335761393261369e565b5b92915050565b7f4e487b7100000000000000000000000000000000000000000000000000000000600052603160045260246000fd5b600063ffffffff82169050919050565b600061398382613968565b915063ffffffff82036139995761399861369e565b5b600182019050919050565b600061ffff82169050919050565b60006139bd826139a4565b915061ffff82036139d1576139d061369e565b5b600182019050919050565b60006139e782612d9d565b91506139f283612d9d565b9250828201905080821115613a0a57613a0961369e565b5b92915050565b7f4f776e61626c653a206e6577206f776e657220697320746865207a65726f206160008201527f6464726573730000000000000000000000000000000000000000000000000000602082015250565b6000613a6c602683612cf6565b9150613a7782613a10565b604082019050919050565b60006020820190508181036000830152613a9b81613a5f565b9050919050565b7f4f776e61626c653a2063616c6c6572206973206e6f7420746865206f776e6572600082015250565b6000613ad8602083612cf6565b9150613ae382613aa2565b602082019050919050565b60006020820190508181036000830152613b0781613acb565b9050919050565b7f4552433732313a207472616e736665722066726f6d20696e636f72726563742060008201527f6f776e6572000000000000000000000000000000000000000000000000000000602082015250565b6000613b6a602583612cf6565b9150613b7582613b0e565b604082019050919050565b60006020820190508181036000830152613b9981613b5d565b9050919050565b7f4552433732313a207472616e7366657220746f20746865207a65726f2061646460008201527f7265737300000000000000000000000000000000000000000000000000000000602082015250565b6000613bfc602483612cf6565b9150613c0782613ba0565b604082019050919050565b60006020820190508181036000830152613c2b81613bef565b9050919050565b7f4552433732313a20617070726f766520746f2063616c6c657200000000000000600082015250565b6000613c68601983612cf6565b9150613c7382613c32565b602082019050919050565b60006020820190508181036000830152613c9781613c5b565b9050919050565b7f4552433732313a207472616e7366657220746f206e6f6e20455243373231526560008201527f63656976657220696d706c656d656e7465720000000000000000000000000000602082015250565b6000613cfa603283612cf6565b9150613d0582613c9e565b604082019050919050565b60006020820190508181036000830152613d2981613ced565b9050919050565b7f4e487b7100000000000000000000000000000000000000000000000000000000600052601260045260246000fd5b7f455243373231456e756d657261626c653a20636f6e736563757469766520747260008201527f616e7366657273206e6f7420737570706f727465640000000000000000000000602082015250565b6000613dbb603583612cf6565b9150613dc682613d5f565b604082019050919050565b60006020820190508181036000830152613dea81613dae565b9050919050565b600081519050919050565b600082825260208201905092915050565b6000613e1882613df1565b613e228185613dfc565b9350613e32818560208601612d07565b613e3b81612d31565b840191505092915050565b6000608082019050613e5b6000830187612e32565b613e686020830186612e32565b613e756040830185612ec8565b8181036060830152613e878184613e0d565b905095945050505050565b600081519050613ea181612c5c565b92915050565b600060208284031215613ebd57613ebc612c26565b5b6000613ecb84828501613e92565b91505092915050565b7f4552433732313a206d696e7420746f20746865207a65726f2061646472657373600082015250565b6000613f0a602083612cf6565b9150613f1582613ed4565b602082019050919050565b60006020820190508181036000830152613f3981613efd565b9050919050565b7f4552433732313a20746f6b656e20616c7265616479206d696e74656400000000600082015250565b6000613f76601c83612cf6565b9150613f8182613f40565b602082019050919050565b60006020820190508181036000830152613fa581613f69565b905091905056fea2646970667358221220da49560b2641f167e8ae2c27392639e82682f2bcdfd3cd7d4b102ee6cf3f9b1264736f6c63430008120033",
  "devdoc": {
    "events": {
      "Approval(address,address,uint256)": {
        "details": "Emitted when `owner` enables `approved` to manage the `tokenId` token."
      },
      "ApprovalForAll(address,address,bool)": {
        "details": "Emitted when `owner` enables or disables (`approved`) `operator` to manage all of its assets."
      },
      "Transfer(address,address,uint256)": {
        "details": "Emitted when `tokenId` token is transferred from `from` to `to`."
      }
    },
    "kind": "dev",
    "methods": {
      "approve(address,uint256)": {
        "details": "See {IERC721-approve}."
      },
      "balanceOf(address)": {
        "details": "See {IERC721-balanceOf}."
      },
      "buyTicket()": {
        "details": "This function is used to buy tickets for a Drake concert "
      },
      "constructor": {
        "params": {
          "_startTime": "set the start time of the ticket sale "
        }
      },
      "getApproved(uint256)": {
        "details": "See {IERC721-getApproved}."
      },
      "getEndTime()": {
        "details": "returns the end time of purchase"
      },
      "getWhiteListedAddress()": {
        "details": "returns all whitelisted addresses"
      },
      "isApprovedForAll(address,address)": {
        "details": "See {IERC721-isApprovedForAll}."
      },
      "isWhiteListed(address)": {
        "details": "checks if an address is whitelisted or not",
        "params": {
          "_address": "address to be checked"
        }
      },
      "killContract()": {
        "details": "kills the contract purchase are done, and transfer the remaining balance to the contract owner"
      },
      "name()": {
        "details": "See {IERC721Metadata-name}."
      },
      "owner()": {
        "details": "Returns the address of the current owner."
      },
      "ownerOf(uint256)": {
        "details": "See {IERC721-ownerOf}."
      },
      "removeWhiteListedAddress(address[])": {
        "details": "Removes Whitelisted Addresses",
        "params": {
          "addresses": "Addresses to be removed from the whitelist"
        }
      },
      "renounceOwnership()": {
        "details": "Leaves the contract without owner. It will not be possible to call `onlyOwner` functions anymore. Can only be called by the current owner. NOTE: Renouncing ownership will leave the contract without an owner, thereby removing any functionality that is only available to the owner."
      },
      "safeTransferFrom(address,address,uint256)": {
        "details": "See {IERC721-safeTransferFrom}."
      },
      "safeTransferFrom(address,address,uint256,bytes)": {
        "details": "See {IERC721-safeTransferFrom}."
      },
      "setApprovalForAll(address,bool)": {
        "details": "See {IERC721-setApprovalForAll}."
      },
      "supportsInterface(bytes4)": {
        "details": "See {IERC165-supportsInterface}."
      },
      "symbol()": {
        "details": "See {IERC721Metadata-symbol}."
      },
      "tokenByIndex(uint256)": {
        "details": "See {IERC721Enumerable-tokenByIndex}."
      },
      "tokenOfOwnerByIndex(address,uint256)": {
        "details": "See {IERC721Enumerable-tokenOfOwnerByIndex}."
      },
      "tokenURI(uint256)": {
        "details": "See {IERC721Metadata-tokenURI}."
      },
      "totalSupply()": {
        "details": "See {IERC721Enumerable-totalSupply}."
      },
      "transferFrom(address,address,uint256)": {
        "details": "See {IERC721-transferFrom}."
      },
      "transferOwnership(address)": {
        "details": "Transfers ownership of the contract to a new account (`newOwner`). Can only be called by the current owner."
      },
      "whiteListAddress(address[])": {
        "details": "Whitelist Addresses for presale",
        "params": {
          "addresses": "Addresses to be whitelisted for Pre-sale"
        }
      }
    },
    "version": 1
  },
  "userdoc": {
    "kind": "user",
    "methods": {},
    "version": 1
  },
  "storageLayout": {
    "storage": [
      {
        "astId": 138,
        "contract": "contracts/DrakeConcertContract.sol:DrakeConcertContract",
        "label": "_name",
        "offset": 0,
        "slot": "0",
        "type": "t_string_storage"
      },
      {
        "astId": 140,
        "contract": "contracts/DrakeConcertContract.sol:DrakeConcertContract",
        "label": "_symbol",
        "offset": 0,
        "slot": "1",
        "type": "t_string_storage"
      },
      {
        "astId": 144,
        "contract": "contracts/DrakeConcertContract.sol:DrakeConcertContract",
        "label": "_owners",
        "offset": 0,
        "slot": "2",
        "type": "t_mapping(t_uint256,t_address)"
      },
      {
        "astId": 148,
        "contract": "contracts/DrakeConcertContract.sol:DrakeConcertContract",
        "label": "_balances",
        "offset": 0,
        "slot": "3",
        "type": "t_mapping(t_address,t_uint256)"
      },
      {
        "astId": 152,
        "contract": "contracts/DrakeConcertContract.sol:DrakeConcertContract",
        "label": "_tokenApprovals",
        "offset": 0,
        "slot": "4",
        "type": "t_mapping(t_uint256,t_address)"
      },
      {
        "astId": 158,
        "contract": "contracts/DrakeConcertContract.sol:DrakeConcertContract",
        "label": "_operatorApprovals",
        "offset": 0,
        "slot": "5",
        "type": "t_mapping(t_address,t_mapping(t_address,t_bool))"
      },
      {
        "astId": 1188,
        "contract": "contracts/DrakeConcertContract.sol:DrakeConcertContract",
        "label": "_ownedTokens",
        "offset": 0,
        "slot": "6",
        "type": "t_mapping(t_address,t_mapping(t_uint256,t_uint256))"
      },
      {
        "astId": 1192,
        "contract": "contracts/DrakeConcertContract.sol:DrakeConcertContract",
        "label": "_ownedTokensIndex",
        "offset": 0,
        "slot": "7",
        "type": "t_mapping(t_uint256,t_uint256)"
      },
      {
        "astId": 1195,
        "contract": "contracts/DrakeConcertContract.sol:DrakeConcertContract",
        "label": "_allTokens",
        "offset": 0,
        "slot": "8",
        "type": "t_array(t_uint256)dyn_storage"
      },
      {
        "astId": 1199,
        "contract": "contracts/DrakeConcertContract.sol:DrakeConcertContract",
        "label": "_allTokensIndex",
        "offset": 0,
        "slot": "9",
        "type": "t_mapping(t_uint256,t_uint256)"
      },
      {
        "astId": 7,
        "contract": "contracts/DrakeConcertContract.sol:DrakeConcertContract",
        "label": "_owner",
        "offset": 0,
        "slot": "10",
        "type": "t_address"
      },
      {
        "astId": 3039,
        "contract": "contracts/DrakeConcertContract.sol:DrakeConcertContract",
        "label": "startTime",
        "offset": 0,
        "slot": "11",
        "type": "t_uint256"
      },
      {
        "astId": 3041,
        "contract": "contracts/DrakeConcertContract.sol:DrakeConcertContract",
        "label": "endTime",
        "offset": 0,
        "slot": "12",
        "type": "t_uint256"
      },
      {
        "astId": 3049,
        "contract": "contracts/DrakeConcertContract.sol:DrakeConcertContract",
        "label": "preSaleCount",
        "offset": 0,
        "slot": "13",
        "type": "t_uint32"
      },
      {
        "astId": 3054,
        "contract": "contracts/DrakeConcertContract.sol:DrakeConcertContract",
        "label": "soulboundCount",
        "offset": 4,
        "slot": "13",
        "type": "t_uint16"
      },
      {
        "astId": 3060,
        "contract": "contracts/DrakeConcertContract.sol:DrakeConcertContract",
        "label": "_whiteListedAddresses",
        "offset": 0,
        "slot": "14",
        "type": "t_array(t_address)dyn_storage"
      },
      {
        "astId": 3064,
        "contract": "contracts/DrakeConcertContract.sol:DrakeConcertContract",
        "label": "whiteListed",
        "offset": 0,
        "slot": "15",
        "type": "t_mapping(t_address,t_bool)"
      }
    ],
    "types": {
      "t_address": {
        "encoding": "inplace",
        "label": "address",
        "numberOfBytes": "20"
      },
      "t_array(t_address)dyn_storage": {
        "base": "t_address",
        "encoding": "dynamic_array",
        "label": "address[]",
        "numberOfBytes": "32"
      },
      "t_array(t_uint256)dyn_storage": {
        "base": "t_uint256",
        "encoding": "dynamic_array",
        "label": "uint256[]",
        "numberOfBytes": "32"
      },
      "t_bool": {
        "encoding": "inplace",
        "label": "bool",
        "numberOfBytes": "1"
      },
      "t_mapping(t_address,t_bool)": {
        "encoding": "mapping",
        "key": "t_address",
        "label": "mapping(address => bool)",
        "numberOfBytes": "32",
        "value": "t_bool"
      },
      "t_mapping(t_address,t_mapping(t_address,t_bool))": {
        "encoding": "mapping",
        "key": "t_address",
        "label": "mapping(address => mapping(address => bool))",
        "numberOfBytes": "32",
        "value": "t_mapping(t_address,t_bool)"
      },
      "t_mapping(t_address,t_mapping(t_uint256,t_uint256))": {
        "encoding": "mapping",
        "key": "t_address",
        "label": "mapping(address => mapping(uint256 => uint256))",
        "numberOfBytes": "32",
        "value": "t_mapping(t_uint256,t_uint256)"
      },
      "t_mapping(t_address,t_uint256)": {
        "encoding": "mapping",
        "key": "t_address",
        "label": "mapping(address => uint256)",
        "numberOfBytes": "32",
        "value": "t_uint256"
      },
      "t_mapping(t_uint256,t_address)": {
        "encoding": "mapping",
        "key": "t_uint256",
        "label": "mapping(uint256 => address)",
        "numberOfBytes": "32",
        "value": "t_address"
      },
      "t_mapping(t_uint256,t_uint256)": {
        "encoding": "mapping",
        "key": "t_uint256",
        "label": "mapping(uint256 => uint256)",
        "numberOfBytes": "32",
        "value": "t_uint256"
      },
      "t_string_storage": {
        "encoding": "bytes",
        "label": "string",
        "numberOfBytes": "32"
      },
      "t_uint16": {
        "encoding": "inplace",
        "label": "uint16",
        "numberOfBytes": "2"
      },
      "t_uint256": {
        "encoding": "inplace",
        "label": "uint256",
        "numberOfBytes": "32"
      },
      "t_uint32": {
        "encoding": "inplace",
        "label": "uint32",
        "numberOfBytes": "4"
      }
    }
  }
}