{
  "address": "0x61bbD5e200636927E56062F656e80cEEEfCFFFa6",
  "abi": [
    {
      "inputs": [
        {
          "internalType": "uint256",
          "name": "_startTime",
          "type": "uint256"
        }
      ],
      "stateMutability": "nonpayable",
      "type": "constructor"
    },
    {
      "inputs": [],
      "name": "DrakeConcertContract_addrCannotBeZeroAddress",
      "type": "error"
    },
    {
      "inputs": [],
      "name": "DrakeConcertContract_inAccuratePrice",
      "type": "error"
    },
    {
      "inputs": [],
      "name": "DrakeConcertContract_notWhiteListed",
      "type": "error"
    },
    {
      "inputs": [],
      "name": "DrakeConcertContract_saleHasNotEnded",
      "type": "error"
    },
    {
      "inputs": [],
      "name": "DrakeConcertContract_saleHasNotStarted",
      "type": "error"
    },
    {
      "inputs": [],
      "name": "DrakeConcertContract_salesHasEnded",
      "type": "error"
    },
    {
      "anonymous": false,
      "inputs": [
        {
          "indexed": true,
          "internalType": "address",
          "name": "owner",
          "type": "address"
        },
        {
          "indexed": true,
          "internalType": "address",
          "name": "approved",
          "type": "address"
        },
        {
          "indexed": true,
          "internalType": "uint256",
          "name": "tokenId",
          "type": "uint256"
        }
      ],
      "name": "Approval",
      "type": "event"
    },
    {
      "anonymous": false,
      "inputs": [
        {
          "indexed": true,
          "internalType": "address",
          "name": "owner",
          "type": "address"
        },
        {
          "indexed": true,
          "internalType": "address",
          "name": "operator",
          "type": "address"
        },
        {
          "indexed": false,
          "internalType": "bool",
          "name": "approved",
          "type": "bool"
        }
      ],
      "name": "ApprovalForAll",
      "type": "event"
    },
    {
      "anonymous": false,
      "inputs": [
        {
          "indexed": true,
          "internalType": "address",
          "name": "previousOwner",
          "type": "address"
        },
        {
          "indexed": true,
          "internalType": "address",
          "name": "newOwner",
          "type": "address"
        }
      ],
      "name": "OwnershipTransferred",
      "type": "event"
    },
    {
      "anonymous": false,
      "inputs": [
        {
          "indexed": true,
          "internalType": "address",
          "name": "buyersAddress",
          "type": "address"
        },
        {
          "indexed": true,
          "internalType": "uint256",
          "name": "ticketId",
          "type": "uint256"
        }
      ],
      "name": "SoulboundTicket",
      "type": "event"
    },
    {
      "anonymous": false,
      "inputs": [
        {
          "indexed": true,
          "internalType": "address",
          "name": "buyersAddress",
          "type": "address"
        },
        {
          "indexed": true,
          "internalType": "uint256",
          "name": "ticketId",
          "type": "uint256"
        }
      ],
      "name": "TicketBought",
      "type": "event"
    },
    {
      "anonymous": false,
      "inputs": [
        {
          "indexed": true,
          "internalType": "address",
          "name": "from",
          "type": "address"
        },
        {
          "indexed": true,
          "internalType": "address",
          "name": "to",
          "type": "address"
        },
        {
          "indexed": true,
          "internalType": "uint256",
          "name": "tokenId",
          "type": "uint256"
        }
      ],
      "name": "Transfer",
      "type": "event"
    },
    {
      "anonymous": false,
      "inputs": [
        {
          "indexed": false,
          "internalType": "uint256",
          "name": "_endTime",
          "type": "uint256"
        }
      ],
      "name": "endTimeEvent",
      "type": "event"
    },
    {
      "inputs": [
        {
          "internalType": "address",
          "name": "to",
          "type": "address"
        },
        {
          "internalType": "uint256",
          "name": "tokenId",
          "type": "uint256"
        }
      ],
      "name": "approve",
      "outputs": [],
      "stateMutability": "nonpayable",
      "type": "function"
    },
    {
      "inputs": [
        {
          "internalType": "address",
          "name": "owner",
          "type": "address"
        }
      ],
      "name": "balanceOf",
      "outputs": [
        {
          "internalType": "uint256",
          "name": "",
          "type": "uint256"
        }
      ],
      "stateMutability": "view",
      "type": "function"
    },
    {
      "inputs": [],
      "name": "buyTicket",
      "outputs": [],
      "stateMutability": "payable",
      "type": "function"
    },
    {
      "inputs": [
        {
          "internalType": "uint256",
          "name": "tokenId",
          "type": "uint256"
        }
      ],
      "name": "getApproved",
      "outputs": [
        {
          "internalType": "address",
          "name": "",
          "type": "address"
        }
      ],
      "stateMutability": "view",
      "type": "function"
    },
    {
      "inputs": [],
      "name": "getContractBalance",
      "outputs": [
        {
          "internalType": "uint256",
          "name": "",
          "type": "uint256"
        }
      ],
      "stateMutability": "view",
      "type": "function"
    },
    {
      "inputs": [],
      "name": "getContractOwner",
      "outputs": [
        {
          "internalType": "address",
          "name": "",
          "type": "address"
        }
      ],
      "stateMutability": "view",
      "type": "function"
    },
    {
      "inputs": [],
      "name": "getEndTime",
      "outputs": [
        {
          "internalType": "uint256",
          "name": "",
          "type": "uint256"
        }
      ],
      "stateMutability": "view",
      "type": "function"
    },
    {
      "inputs": [],
      "name": "getMaxSoulNBoundCounter",
      "outputs": [
        {
          "internalType": "uint16",
          "name": "",
          "type": "uint16"
        }
      ],
      "stateMutability": "view",
      "type": "function"
    },
    {
      "inputs": [],
      "name": "getMaxSoulNBoundTicket",
      "outputs": [
        {
          "internalType": "uint16",
          "name": "",
          "type": "uint16"
        }
      ],
      "stateMutability": "pure",
      "type": "function"
    },
    {
      "inputs": [],
      "name": "getMaxTicketAmount",
      "outputs": [
        {
          "internalType": "uint32",
          "name": "",
          "type": "uint32"
        }
      ],
      "stateMutability": "pure",
      "type": "function"
    },
    {
      "inputs": [],
      "name": "getPreSaleCounter",
      "outputs": [
        {
          "internalType": "uint16",
          "name": "",
          "type": "uint16"
        }
      ],
      "stateMutability": "view",
      "type": "function"
    },
    {
      "inputs": [],
      "name": "getPresaleMaxAmount",
      "outputs": [
        {
          "internalType": "uint16",
          "name": "",
          "type": "uint16"
        }
      ],
      "stateMutability": "pure",
      "type": "function"
    },
    {
      "inputs": [],
      "name": "getTicketPrice",
      "outputs": [
        {
          "internalType": "uint256",
          "name": "",
          "type": "uint256"
        }
      ],
      "stateMutability": "pure",
      "type": "function"
    },
    {
      "inputs": [],
      "name": "getTicketSaleCount",
      "outputs": [
        {
          "internalType": "uint32",
          "name": "",
          "type": "uint32"
        }
      ],
      "stateMutability": "view",
      "type": "function"
    },
    {
      "inputs": [],
      "name": "getWhiteListedCount",
      "outputs": [
        {
          "internalType": "uint8",
          "name": "",
          "type": "uint8"
        }
      ],
      "stateMutability": "view",
      "type": "function"
    },
    {
      "inputs": [
        {
          "internalType": "address",
          "name": "owner",
          "type": "address"
        }
      ],
      "name": "hasSoulBoundToken",
      "outputs": [
        {
          "internalType": "bool",
          "name": "",
          "type": "bool"
        }
      ],
      "stateMutability": "view",
      "type": "function"
    },
    {
      "inputs": [
        {
          "internalType": "address",
          "name": "owner",
          "type": "address"
        },
        {
          "internalType": "address",
          "name": "operator",
          "type": "address"
        }
      ],
      "name": "isApprovedForAll",
      "outputs": [
        {
          "internalType": "bool",
          "name": "",
          "type": "bool"
        }
      ],
      "stateMutability": "view",
      "type": "function"
    },
    {
      "inputs": [
        {
          "internalType": "address",
          "name": "_address",
          "type": "address"
        }
      ],
      "name": "isWhiteListed",
      "outputs": [
        {
          "internalType": "bool",
          "name": "",
          "type": "bool"
        }
      ],
      "stateMutability": "view",
      "type": "function"
    },
    {
      "inputs": [],
      "name": "killContract",
      "outputs": [],
      "stateMutability": "nonpayable",
      "type": "function"
    },
    {
      "inputs": [],
      "name": "name",
      "outputs": [
        {
          "internalType": "string",
          "name": "",
          "type": "string"
        }
      ],
      "stateMutability": "view",
      "type": "function"
    },
    {
      "inputs": [],
      "name": "owner",
      "outputs": [
        {
          "internalType": "address",
          "name": "",
          "type": "address"
        }
      ],
      "stateMutability": "view",
      "type": "function"
    },
    {
      "inputs": [
        {
          "internalType": "uint256",
          "name": "tokenId",
          "type": "uint256"
        }
      ],
      "name": "ownerOf",
      "outputs": [
        {
          "internalType": "address",
          "name": "",
          "type": "address"
        }
      ],
      "stateMutability": "view",
      "type": "function"
    },
    {
      "inputs": [
        {
          "internalType": "address[]",
          "name": "addresses",
          "type": "address[]"
        }
      ],
      "name": "removeWhiteListedAddress",
      "outputs": [],
      "stateMutability": "nonpayable",
      "type": "function"
    },
    {
      "inputs": [],
      "name": "renounceOwnership",
      "outputs": [],
      "stateMutability": "nonpayable",
      "type": "function"
    },
    {
      "inputs": [
        {
          "internalType": "address",
          "name": "from",
          "type": "address"
        },
        {
          "internalType": "address",
          "name": "to",
          "type": "address"
        },
        {
          "internalType": "uint256",
          "name": "tokenId",
          "type": "uint256"
        }
      ],
      "name": "safeTransferFrom",
      "outputs": [],
      "stateMutability": "nonpayable",
      "type": "function"
    },
    {
      "inputs": [
        {
          "internalType": "address",
          "name": "from",
          "type": "address"
        },
        {
          "internalType": "address",
          "name": "to",
          "type": "address"
        },
        {
          "internalType": "uint256",
          "name": "tokenId",
          "type": "uint256"
        },
        {
          "internalType": "bytes",
          "name": "data",
          "type": "bytes"
        }
      ],
      "name": "safeTransferFrom",
      "outputs": [],
      "stateMutability": "nonpayable",
      "type": "function"
    },
    {
      "inputs": [
        {
          "internalType": "address",
          "name": "operator",
          "type": "address"
        },
        {
          "internalType": "bool",
          "name": "approved",
          "type": "bool"
        }
      ],
      "name": "setApprovalForAll",
      "outputs": [],
      "stateMutability": "nonpayable",
      "type": "function"
    },
    {
      "inputs": [
        {
          "internalType": "bytes4",
          "name": "interfaceId",
          "type": "bytes4"
        }
      ],
      "name": "supportsInterface",
      "outputs": [
        {
          "internalType": "bool",
          "name": "",
          "type": "bool"
        }
      ],
      "stateMutability": "view",
      "type": "function"
    },
    {
      "inputs": [],
      "name": "symbol",
      "outputs": [
        {
          "internalType": "string",
          "name": "",
          "type": "string"
        }
      ],
      "stateMutability": "view",
      "type": "function"
    },
    {
      "inputs": [
        {
          "internalType": "uint256",
          "name": "index",
          "type": "uint256"
        }
      ],
      "name": "tokenByIndex",
      "outputs": [
        {
          "internalType": "uint256",
          "name": "",
          "type": "uint256"
        }
      ],
      "stateMutability": "view",
      "type": "function"
    },
    {
      "inputs": [
        {
          "internalType": "address",
          "name": "owner",
          "type": "address"
        },
        {
          "internalType": "uint256",
          "name": "index",
          "type": "uint256"
        }
      ],
      "name": "tokenOfOwnerByIndex",
      "outputs": [
        {
          "internalType": "uint256",
          "name": "",
          "type": "uint256"
        }
      ],
      "stateMutability": "view",
      "type": "function"
    },
    {
      "inputs": [
        {
          "internalType": "uint256",
          "name": "tokenId",
          "type": "uint256"
        }
      ],
      "name": "tokenURI",
      "outputs": [
        {
          "internalType": "string",
          "name": "",
          "type": "string"
        }
      ],
      "stateMutability": "view",
      "type": "function"
    },
    {
      "inputs": [],
      "name": "totalSupply",
      "outputs": [
        {
          "internalType": "uint256",
          "name": "",
          "type": "uint256"
        }
      ],
      "stateMutability": "view",
      "type": "function"
    },
    {
      "inputs": [
        {
          "internalType": "address",
          "name": "from",
          "type": "address"
        },
        {
          "internalType": "address",
          "name": "to",
          "type": "address"
        },
        {
          "internalType": "uint256",
          "name": "tokenId",
          "type": "uint256"
        }
      ],
      "name": "transferFrom",
      "outputs": [],
      "stateMutability": "nonpayable",
      "type": "function"
    },
    {
      "inputs": [
        {
          "internalType": "address",
          "name": "newOwner",
          "type": "address"
        }
      ],
      "name": "transferOwnership",
      "outputs": [],
      "stateMutability": "nonpayable",
      "type": "function"
    },
    {
      "inputs": [
        {
          "internalType": "address[]",
          "name": "addresses",
          "type": "address[]"
        }
      ],
      "name": "whiteListAddress",
      "outputs": [],
      "stateMutability": "nonpayable",
      "type": "function"
    },
    {
      "inputs": [],
      "name": "whiteListedCounter",
      "outputs": [
        {
          "internalType": "uint8",
          "name": "",
          "type": "uint8"
        }
      ],
      "stateMutability": "view",
      "type": "function"
    }
  ],
  "transactionHash": "0x58469de0dee20ed4c53cff1b7518d44c82f09d159c5af0af05976b2989fabc2c",
  "args": [
    1684319880
  ],
  "numDeployments": 6,
  "solcInputHash": "d66c31de4eb9e90dba64477c23772825",
  "bytecode": "0x60806040523480156200001157600080fd5b506040516200719a3803806200719a833981810160405281019062000037919062000312565b6040518060400160405280601481526020017f4472616b65436f6e63657274436f6e74726163740000000000000000000000008152506040518060400160405280600481526020017f24444343000000000000000000000000000000000000000000000000000000008152508160009081620000b49190620005b4565b508060019081620000c69190620005b4565b505050620000e9620000dd620001f660201b60201c565b620001fe60201b60201c565b33600b60006101000a81548173ffffffffffffffffffffffffffffffffffffffff021916908373ffffffffffffffffffffffffffffffffffffffff1602179055506040516200013890620002c4565b604051809103906000f08015801562000155573d6000803e3d6000fd5b50600e60096101000a81548173ffffffffffffffffffffffffffffffffffffffff021916908373ffffffffffffffffffffffffffffffffffffffff16021790555080600c81905550620d2f0081620001ae9190620006ca565b600d819055507f342ef6a06b08d63996b4a4a4ddb6183e18876c666c8a5dc6f88e2ff99a3426cd600d54604051620001e7919062000716565b60405180910390a15062000733565b600033905090565b6000600a60009054906101000a900473ffffffffffffffffffffffffffffffffffffffff16905081600a60006101000a81548173ffffffffffffffffffffffffffffffffffffffff021916908373ffffffffffffffffffffffffffffffffffffffff1602179055508173ffffffffffffffffffffffffffffffffffffffff168173ffffffffffffffffffffffffffffffffffffffff167f8be0079c531659141344cd1fd0a4f28419497f9722a3daafe3b4186f6b6457e060405160405180910390a35050565b61266c8062004b2e83390190565b600080fd5b6000819050919050565b620002ec81620002d7565b8114620002f857600080fd5b50565b6000815190506200030c81620002e1565b92915050565b6000602082840312156200032b576200032a620002d2565b5b60006200033b84828501620002fb565b91505092915050565b600081519050919050565b7f4e487b7100000000000000000000000000000000000000000000000000000000600052604160045260246000fd5b7f4e487b7100000000000000000000000000000000000000000000000000000000600052602260045260246000fd5b60006002820490506001821680620003c657607f821691505b602082108103620003dc57620003db6200037e565b5b50919050565b60008190508160005260206000209050919050565b60006020601f8301049050919050565b600082821b905092915050565b600060088302620004467fffffffffffffffffffffffffffffffffffffffffffffffffffffffffffffffff8262000407565b62000452868362000407565b95508019841693508086168417925050509392505050565b6000819050919050565b6000620004956200048f6200048984620002d7565b6200046a565b620002d7565b9050919050565b6000819050919050565b620004b18362000474565b620004c9620004c0826200049c565b84845462000414565b825550505050565b600090565b620004e0620004d1565b620004ed818484620004a6565b505050565b5b81811015620005155762000509600082620004d6565b600181019050620004f3565b5050565b601f82111562000564576200052e81620003e2565b6200053984620003f7565b8101602085101562000549578190505b620005616200055885620003f7565b830182620004f2565b50505b505050565b600082821c905092915050565b6000620005896000198460080262000569565b1980831691505092915050565b6000620005a4838362000576565b9150826002028217905092915050565b620005bf8262000344565b67ffffffffffffffff811115620005db57620005da6200034f565b5b620005e78254620003ad565b620005f482828562000519565b600060209050601f8311600181146200062c576000841562000617578287015190505b62000623858262000596565b86555062000693565b601f1984166200063c86620003e2565b60005b8281101562000666578489015182556001820191506020850194506020810190506200063f565b8683101562000686578489015162000682601f89168262000576565b8355505b6001600288020188555050505b505050505050565b7f4e487b7100000000000000000000000000000000000000000000000000000000600052601160045260246000fd5b6000620006d782620002d7565b9150620006e483620002d7565b9250828201905080821115620006ff57620006fe6200069b565b5b92915050565b6200071081620002d7565b82525050565b60006020820190506200072d600083018462000705565b92915050565b6143eb80620007436000396000f3fe60806040526004361061021a5760003560e01c80636f9fb98a11610123578063c08c096b116100ab578063ed8f3db41161006f578063ed8f3db4146107fd578063edca914c14610828578063f1a489e214610832578063f2fde38b1461085d578063f64cf50d146108865761021a565b8063c08c096b14610704578063c33896871461072f578063c87b56dd1461075a578063ce05bd0b14610797578063e985e9c5146107c05761021a565b80638da5cb5b116100f25780638da5cb5b1461061f57806395d89b411461064a578063a22cb46514610675578063a557d3bc1461069e578063b88d4fde146106db5761021a565b80636f9fb98a1461057557806370a08231146105a0578063715018a6146105dd57806387bb7ae0146105f45761021a565b8063409eb08e116101a65780634e41cfdb116101755780634e41cfdb1461046a5780634f6ccce7146104935780636352211e146104d0578063635a881c1461050d5780636f9170f6146105385761021a565b8063409eb08e146103c057806342842e0e146103eb578063439f5ac214610414578063442890d51461043f5761021a565b8063095ea7b3116101ed578063095ea7b3146102ef57806318160ddd146103185780631c02708d1461034357806323b872dd1461035a5780632f745c59146103835761021a565b806301ffc9a71461021f57806306fdde031461025c5780630743f96714610287578063081812fc146102b2575b600080fd5b34801561022b57600080fd5b5061024660048036038101906102419190612f45565b6108b1565b6040516102539190612f8d565b60405180910390f35b34801561026857600080fd5b5061027161092b565b60405161027e9190613038565b60405180910390f35b34801561029357600080fd5b5061029c6109bd565b6040516102a99190613077565b60405180910390f35b3480156102be57600080fd5b506102d960048036038101906102d491906130c8565b6109d5565b6040516102e69190613136565b60405180910390f35b3480156102fb57600080fd5b506103166004803603810190610311919061317d565b610a1b565b005b34801561032457600080fd5b5061032d610b32565b60405161033a91906131cc565b60405180910390f35b34801561034f57600080fd5b50610358610b3f565b005b34801561036657600080fd5b50610381600480360381019061037c91906131e7565b610bbd565b005b34801561038f57600080fd5b506103aa60048036038101906103a5919061317d565b610c1d565b6040516103b791906131cc565b60405180910390f35b3480156103cc57600080fd5b506103d5610cc2565b6040516103e29190613077565b60405180910390f35b3480156103f757600080fd5b50610412600480360381019061040d91906131e7565b610cda565b005b34801561042057600080fd5b50610429610cfa565b60405161043691906131cc565b60405180910390f35b34801561044b57600080fd5b50610454610d04565b6040516104619190613136565b60405180910390f35b34801561047657600080fd5b50610491600480360381019061048c9190613382565b610d2e565b005b34801561049f57600080fd5b506104ba60048036038101906104b591906130c8565b610e97565b6040516104c791906131cc565b60405180910390f35b3480156104dc57600080fd5b506104f760048036038101906104f291906130c8565b610f08565b6040516105049190613136565b60405180910390f35b34801561051957600080fd5b50610522610f8e565b60405161052f91906133ea565b60405180910390f35b34801561054457600080fd5b5061055f600480360381019061055a9190613405565b610f98565b60405161056c9190612f8d565b60405180910390f35b34801561058157600080fd5b5061058a610fee565b60405161059791906131cc565b60405180910390f35b3480156105ac57600080fd5b506105c760048036038101906105c29190613405565b610ff6565b6040516105d491906131cc565b60405180910390f35b3480156105e957600080fd5b506105f26110ad565b005b34801561060057600080fd5b506106096110c1565b60405161061691906131cc565b60405180910390f35b34801561062b57600080fd5b506106346110d1565b6040516106419190613136565b60405180910390f35b34801561065657600080fd5b5061065f6110fb565b60405161066c9190613038565b60405180910390f35b34801561068157600080fd5b5061069c6004803603810190610697919061345e565b61118d565b005b3480156106aa57600080fd5b506106c560048036038101906106c09190613405565b6111a3565b6040516106d29190612f8d565b60405180910390f35b3480156106e757600080fd5b5061070260048036038101906106fd9190613553565b611248565b005b34801561071057600080fd5b506107196112aa565b60405161072691906135f2565b60405180910390f35b34801561073b57600080fd5b506107446112c1565b6040516107519190613077565b60405180910390f35b34801561076657600080fd5b50610781600480360381019061077c91906130c8565b6112ca565b60405161078e9190613038565b60405180910390f35b3480156107a357600080fd5b506107be60048036038101906107b99190613382565b611332565b005b3480156107cc57600080fd5b506107e760048036038101906107e2919061360d565b6114d3565b6040516107f49190612f8d565b60405180910390f35b34801561080957600080fd5b50610812611567565b60405161081f91906133ea565b60405180910390f35b610830611581565b005b34801561083e57600080fd5b506108476119e2565b6040516108549190613077565b60405180910390f35b34801561086957600080fd5b50610884600480360381019061087f9190613405565b6119eb565b005b34801561089257600080fd5b5061089b611a6e565b6040516108a891906135f2565b60405180910390f35b60007f780e9d63000000000000000000000000000000000000000000000000000000007bffffffffffffffffffffffffffffffffffffffffffffffffffffffff1916827bffffffffffffffffffffffffffffffffffffffffffffffffffffffff19161480610924575061092382611a81565b5b9050919050565b60606000805461093a9061367c565b80601f01602080910402602001604051908101604052809291908181526020018280546109669061367c565b80156109b35780601f10610988576101008083540402835291602001916109b3565b820191906000526020600020905b81548152906001019060200180831161099657829003601f168201915b5050505050905090565b6000600e60069054906101000a900461ffff16905090565b60006109e082611b63565b6004600083815260200190815260200160002060009054906101000a900473ffffffffffffffffffffffffffffffffffffffff169050919050565b6000610a2682610f08565b90508073ffffffffffffffffffffffffffffffffffffffff168373ffffffffffffffffffffffffffffffffffffffff1603610a96576040517f08c379a0000000000000000000000000000000000000000000000000000000008152600401610a8d9061371f565b60405180910390fd5b8073ffffffffffffffffffffffffffffffffffffffff16610ab5611bae565b73ffffffffffffffffffffffffffffffffffffffff161480610ae45750610ae381610ade611bae565b6114d3565b5b610b23576040517f08c379a0000000000000000000000000000000000000000000000000000000008152600401610b1a906137b1565b60405180910390fd5b610b2d8383611bb6565b505050565b6000600880549050905090565b610b47611c6f565b600d5442108015610b6657506103e863ffffffff16610b64610b32565b105b15610b9d576040517fb1d45db000000000000000000000000000000000000000000000000000000000815260040160405180910390fd5b610ba56110d1565b73ffffffffffffffffffffffffffffffffffffffff16ff5b610bce610bc8611bae565b82611ced565b610c0d576040517f08c379a0000000000000000000000000000000000000000000000000000000008152600401610c0490613843565b60405180910390fd5b610c18838383611d82565b505050565b6000610c2883610ff6565b8210610c69576040517f08c379a0000000000000000000000000000000000000000000000000000000008152600401610c60906138d5565b60405180910390fd5b600660008473ffffffffffffffffffffffffffffffffffffffff1673ffffffffffffffffffffffffffffffffffffffff168152602001908152602001600020600083815260200190815260200160002054905092915050565b6000600e60049054906101000a900461ffff16905090565b610cf583838360405180602001604052806000815250611248565b505050565b6000600d54905090565b6000600b60009054906101000a900473ffffffffffffffffffffffffffffffffffffffff16905090565b610d36611c6f565b60008151905060c861ffff1681600e60089054906101000a900460ff16610d5d9190613924565b60ff161115610da1576040517f08c379a0000000000000000000000000000000000000000000000000000000008152600401610d98906139a5565b60405180910390fd5b60005b8251811015610e9257610dd0838281518110610dc357610dc26139c5565b5b6020026020010151610f98565b610e7f576001600f6000858481518110610ded57610dec6139c5565b5b602002602001015173ffffffffffffffffffffffffffffffffffffffff1673ffffffffffffffffffffffffffffffffffffffff16815260200190815260200160002060006101000a81548160ff021916908315150217905550600e600881819054906101000a900460ff1680929190610e65906139f4565b91906101000a81548160ff021916908360ff160217905550505b8080610e8a90613a1d565b915050610da4565b505050565b6000610ea1610b32565b8210610ee2576040517f08c379a0000000000000000000000000000000000000000000000000000000008152600401610ed990613ad7565b60405180910390fd5b60088281548110610ef657610ef56139c5565b5b90600052602060002001549050919050565b600080610f148361207b565b9050600073ffffffffffffffffffffffffffffffffffffffff168173ffffffffffffffffffffffffffffffffffffffff1603610f85576040517f08c379a0000000000000000000000000000000000000000000000000000000008152600401610f7c90613b43565b60405180910390fd5b80915050919050565b60006103e8905090565b6000600f60008373ffffffffffffffffffffffffffffffffffffffff1673ffffffffffffffffffffffffffffffffffffffff16815260200190815260200160002060009054906101000a900460ff169050919050565b600047905090565b60008073ffffffffffffffffffffffffffffffffffffffff168273ffffffffffffffffffffffffffffffffffffffff1603611066576040517f08c379a000000000000000000000000000000000000000000000000000000000815260040161105d90613bd5565b60405180910390fd5b600360008373ffffffffffffffffffffffffffffffffffffffff1673ffffffffffffffffffffffffffffffffffffffff168152602001908152602001600020549050919050565b6110b5611c6f565b6110bf60006120b8565b565b6000670de0b6b3a7640000905090565b6000600a60009054906101000a900473ffffffffffffffffffffffffffffffffffffffff16905090565b60606001805461110a9061367c565b80601f01602080910402602001604051908101604052809291908181526020018280546111369061367c565b80156111835780601f1061115857610100808354040283529160200191611183565b820191906000526020600020905b81548152906001019060200180831161116657829003601f168201915b5050505050905090565b61119f611198611bae565b838361217e565b5050565b6000600e60099054906101000a900473ffffffffffffffffffffffffffffffffffffffff1673ffffffffffffffffffffffffffffffffffffffff16634ada8fcc836040518263ffffffff1660e01b81526004016112009190613136565b602060405180830381865afa15801561121d573d6000803e3d6000fd5b505050506040513d601f19601f820116820180604052508101906112419190613c0a565b9050919050565b611259611253611bae565b83611ced565b611298576040517f08c379a000000000000000000000000000000000000000000000000000000000815260040161128f90613843565b60405180910390fd5b6112a4848484846122ea565b50505050565b6000600e60089054906101000a900460ff16905090565b600060c8905090565b60606112d582611b63565b60006112df612346565b905060008151116112ff576040518060200160405280600081525061132a565b806113098461235d565b60405160200161131a929190613c73565b6040516020818303038152906040525b915050919050565b61133a611c6f565b600081519050600e60089054906101000a900460ff1660ff168160ff161115611398576040517f08c379a000000000000000000000000000000000000000000000000000000000815260040161138f90613ce3565b60405180910390fd5b60005b82518110156114ce57600f60008483815181106113bb576113ba6139c5565b5b602002602001015173ffffffffffffffffffffffffffffffffffffffff1673ffffffffffffffffffffffffffffffffffffffff16815260200190815260200160002060009054906101000a900460ff16156114bb576000600f6000858481518110611429576114286139c5565b5b602002602001015173ffffffffffffffffffffffffffffffffffffffff1673ffffffffffffffffffffffffffffffffffffffff16815260200190815260200160002060006101000a81548160ff021916908315150217905550600e600881819054906101000a900460ff16809291906114a190613d03565b91906101000a81548160ff021916908360ff160217905550505b80806114c690613a1d565b91505061139b565b505050565b6000600560008473ffffffffffffffffffffffffffffffffffffffff1673ffffffffffffffffffffffffffffffffffffffff16815260200190815260200160002060008373ffffffffffffffffffffffffffffffffffffffff1673ffffffffffffffffffffffffffffffffffffffff16815260200190815260200160002060009054906101000a900460ff16905092915050565b6000600e60009054906101000a900463ffffffff16905090565b600073ffffffffffffffffffffffffffffffffffffffff163373ffffffffffffffffffffffffffffffffffffffff16036115e7576040517f0623993300000000000000000000000000000000000000000000000000000000815260040160405180910390fd5b670de0b6b3a76400003414611628576040517f64bf7c6400000000000000000000000000000000000000000000000000000000815260040160405180910390fd5b600d544210611663576040517fa4d6e94500000000000000000000000000000000000000000000000000000000815260040160405180910390fd5b6103e863ffffffff16611674610b32565b036116ab576040517ff8a94fc000000000000000000000000000000000000000000000000000000000815260040160405180910390fd5b60c861ffff16600e60049054906101000a900461ffff1661ffff16101561178b57600f60003373ffffffffffffffffffffffffffffffffffffffff1673ffffffffffffffffffffffffffffffffffffffff16815260200190815260200160002060009054906101000a900460ff1661174f576040517f336382e000000000000000000000000000000000000000000000000000000000815260040160405180910390fd5b600e600481819054906101000a900461ffff168092919061176f90613d2c565b91906101000a81548161ffff021916908361ffff160217905550505b601461ffff16600e60069054906101000a900461ffff1661ffff161080156117be5750601461ffff166117bc610b32565b105b1561192b57600e600681819054906101000a900461ffff16809291906117e390613d2c565b91906101000a81548161ffff021916908361ffff16021790555050600e60099054906101000a900473ffffffffffffffffffffffffffffffffffffffff1673ffffffffffffffffffffffffffffffffffffffff1663e077a038336040518263ffffffff1660e01b81526004016118599190613136565b6020604051808303816000875af1158015611878573d6000803e3d6000fd5b505050506040513d601f19601f8201168201806040525081019061189c9190613c0a565b50600e60099054906101000a900473ffffffffffffffffffffffffffffffffffffffff1673ffffffffffffffffffffffffffffffffffffffff166340d097c3336040518263ffffffff1660e01b81526004016118f89190613136565b600060405180830381600087803b15801561191257600080fd5b505af1158015611926573d6000803e3d6000fd5b505050505b611948336001611939610b32565b6119439190613d56565b61242b565b600e600081819054906101000a900463ffffffff168092919061196a90613d8a565b91906101000a81548163ffffffff021916908363ffffffff160217905550506001611993610b32565b61199d9190613d56565b3373ffffffffffffffffffffffffffffffffffffffff167f985d112c54c7518a49841fc37640d9ded60112ea7370ca9129c8ed33c3607bc760405160405180910390a3565b60006014905090565b6119f3611c6f565b600073ffffffffffffffffffffffffffffffffffffffff168173ffffffffffffffffffffffffffffffffffffffff1603611a62576040517f08c379a0000000000000000000000000000000000000000000000000000000008152600401611a5990613e28565b60405180910390fd5b611a6b816120b8565b50565b600e60089054906101000a900460ff1681565b60007f80ac58cd000000000000000000000000000000000000000000000000000000007bffffffffffffffffffffffffffffffffffffffffffffffffffffffff1916827bffffffffffffffffffffffffffffffffffffffffffffffffffffffff19161480611b4c57507f5b5e139f000000000000000000000000000000000000000000000000000000007bffffffffffffffffffffffffffffffffffffffffffffffffffffffff1916827bffffffffffffffffffffffffffffffffffffffffffffffffffffffff1916145b80611b5c5750611b5b82612449565b5b9050919050565b611b6c816124b3565b611bab576040517f08c379a0000000000000000000000000000000000000000000000000000000008152600401611ba290613b43565b60405180910390fd5b50565b600033905090565b816004600083815260200190815260200160002060006101000a81548173ffffffffffffffffffffffffffffffffffffffff021916908373ffffffffffffffffffffffffffffffffffffffff160217905550808273ffffffffffffffffffffffffffffffffffffffff16611c2983610f08565b73ffffffffffffffffffffffffffffffffffffffff167f8c5be1e5ebec7d5bd14f71427d1e84f3dd0314c0f7b2291e5b200ac8c7c3b92560405160405180910390a45050565b611c77611bae565b73ffffffffffffffffffffffffffffffffffffffff16611c956110d1565b73ffffffffffffffffffffffffffffffffffffffff1614611ceb576040517f08c379a0000000000000000000000000000000000000000000000000000000008152600401611ce290613e94565b60405180910390fd5b565b600080611cf983610f08565b90508073ffffffffffffffffffffffffffffffffffffffff168473ffffffffffffffffffffffffffffffffffffffff161480611d3b5750611d3a81856114d3565b5b80611d7957508373ffffffffffffffffffffffffffffffffffffffff16611d61846109d5565b73ffffffffffffffffffffffffffffffffffffffff16145b91505092915050565b8273ffffffffffffffffffffffffffffffffffffffff16611da282610f08565b73ffffffffffffffffffffffffffffffffffffffff1614611df8576040517f08c379a0000000000000000000000000000000000000000000000000000000008152600401611def90613f26565b60405180910390fd5b600073ffffffffffffffffffffffffffffffffffffffff168273ffffffffffffffffffffffffffffffffffffffff1603611e67576040517f08c379a0000000000000000000000000000000000000000000000000000000008152600401611e5e90613fb8565b60405180910390fd5b611e7483838360016124f4565b8273ffffffffffffffffffffffffffffffffffffffff16611e9482610f08565b73ffffffffffffffffffffffffffffffffffffffff1614611eea576040517f08c379a0000000000000000000000000000000000000000000000000000000008152600401611ee190613f26565b60405180910390fd5b6004600082815260200190815260200160002060006101000a81549073ffffffffffffffffffffffffffffffffffffffff02191690556001600360008573ffffffffffffffffffffffffffffffffffffffff1673ffffffffffffffffffffffffffffffffffffffff168152602001908152602001600020600082825403925050819055506001600360008473ffffffffffffffffffffffffffffffffffffffff1673ffffffffffffffffffffffffffffffffffffffff16815260200190815260200160002060008282540192505081905550816002600083815260200190815260200160002060006101000a81548173ffffffffffffffffffffffffffffffffffffffff021916908373ffffffffffffffffffffffffffffffffffffffff160217905550808273ffffffffffffffffffffffffffffffffffffffff168473ffffffffffffffffffffffffffffffffffffffff167fddf252ad1be2c89b69c2b068fc378daa952ba7f163c4a11628f55a4df523b3ef60405160405180910390a46120768383836001612652565b505050565b60006002600083815260200190815260200160002060009054906101000a900473ffffffffffffffffffffffffffffffffffffffff169050919050565b6000600a60009054906101000a900473ffffffffffffffffffffffffffffffffffffffff16905081600a60006101000a81548173ffffffffffffffffffffffffffffffffffffffff021916908373ffffffffffffffffffffffffffffffffffffffff1602179055508173ffffffffffffffffffffffffffffffffffffffff168173ffffffffffffffffffffffffffffffffffffffff167f8be0079c531659141344cd1fd0a4f28419497f9722a3daafe3b4186f6b6457e060405160405180910390a35050565b8173ffffffffffffffffffffffffffffffffffffffff168373ffffffffffffffffffffffffffffffffffffffff16036121ec576040517f08c379a00000000000000000000000000000000000000000000000000000000081526004016121e390614024565b60405180910390fd5b80600560008573ffffffffffffffffffffffffffffffffffffffff1673ffffffffffffffffffffffffffffffffffffffff16815260200190815260200160002060008473ffffffffffffffffffffffffffffffffffffffff1673ffffffffffffffffffffffffffffffffffffffff16815260200190815260200160002060006101000a81548160ff0219169083151502179055508173ffffffffffffffffffffffffffffffffffffffff168373ffffffffffffffffffffffffffffffffffffffff167f17307eab39ab6107e8899845ad3d59bd9653f200f220920489ca2b5937696c31836040516122dd9190612f8d565b60405180910390a3505050565b6122f5848484611d82565b61230184848484612658565b612340576040517f08c379a0000000000000000000000000000000000000000000000000000000008152600401612337906140b6565b60405180910390fd5b50505050565b606060405180602001604052806000815250905090565b60606000600161236c846127df565b01905060008167ffffffffffffffff81111561238b5761238a61323f565b5b6040519080825280601f01601f1916602001820160405280156123bd5781602001600182028036833780820191505090505b509050600082602001820190505b600115612420578080600190039150507f3031323334353637383961626364656600000000000000000000000000000000600a86061a8153600a8581612414576124136140d6565b5b049450600085036123cb575b819350505050919050565b612445828260405180602001604052806000815250612932565b5050565b60007f01ffc9a7000000000000000000000000000000000000000000000000000000007bffffffffffffffffffffffffffffffffffffffffffffffffffffffff1916827bffffffffffffffffffffffffffffffffffffffffffffffffffffffff1916149050919050565b60008073ffffffffffffffffffffffffffffffffffffffff166124d58361207b565b73ffffffffffffffffffffffffffffffffffffffff1614159050919050565b6125008484848461298d565b6001811115612544576040517f08c379a000000000000000000000000000000000000000000000000000000000815260040161253b90614177565b60405180910390fd5b6000829050600073ffffffffffffffffffffffffffffffffffffffff168573ffffffffffffffffffffffffffffffffffffffff160361258b5761258681612993565b6125ca565b8373ffffffffffffffffffffffffffffffffffffffff168573ffffffffffffffffffffffffffffffffffffffff16146125c9576125c885826129dc565b5b5b600073ffffffffffffffffffffffffffffffffffffffff168473ffffffffffffffffffffffffffffffffffffffff160361260c5761260781612b49565b61264b565b8473ffffffffffffffffffffffffffffffffffffffff168473ffffffffffffffffffffffffffffffffffffffff161461264a576126498482612c1a565b5b5b5050505050565b50505050565b60006126798473ffffffffffffffffffffffffffffffffffffffff16612c99565b156127d2578373ffffffffffffffffffffffffffffffffffffffff1663150b7a026126a2611bae565b8786866040518563ffffffff1660e01b81526004016126c494939291906141ec565b6020604051808303816000875af192505050801561270057506040513d601f19601f820116820180604052508101906126fd919061424d565b60015b612782573d8060008114612730576040519150601f19603f3d011682016040523d82523d6000602084013e612735565b606091505b50600081510361277a576040517f08c379a0000000000000000000000000000000000000000000000000000000008152600401612771906140b6565b60405180910390fd5b805181602001fd5b63150b7a0260e01b7bffffffffffffffffffffffffffffffffffffffffffffffffffffffff1916817bffffffffffffffffffffffffffffffffffffffffffffffffffffffff1916149150506127d7565b600190505b949350505050565b600080600090507a184f03e93ff9f4daa797ed6e38ed64bf6a1f010000000000000000831061283d577a184f03e93ff9f4daa797ed6e38ed64bf6a1f0100000000000000008381612833576128326140d6565b5b0492506040810190505b6d04ee2d6d415b85acef8100000000831061287a576d04ee2d6d415b85acef810000000083816128705761286f6140d6565b5b0492506020810190505b662386f26fc1000083106128a957662386f26fc10000838161289f5761289e6140d6565b5b0492506010810190505b6305f5e10083106128d2576305f5e10083816128c8576128c76140d6565b5b0492506008810190505b61271083106128f75761271083816128ed576128ec6140d6565b5b0492506004810190505b6064831061291a57606483816129105761290f6140d6565b5b0492506002810190505b600a8310612929576001810190505b80915050919050565b61293c8383612cbc565b6129496000848484612658565b612988576040517f08c379a000000000000000000000000000000000000000000000000000000000815260040161297f906140b6565b60405180910390fd5b505050565b50505050565b6008805490506009600083815260200190815260200160002081905550600881908060018154018082558091505060019003906000526020600020016000909190919091505550565b600060016129e984610ff6565b6129f3919061427a565b9050600060076000848152602001908152602001600020549050818114612ad8576000600660008673ffffffffffffffffffffffffffffffffffffffff1673ffffffffffffffffffffffffffffffffffffffff168152602001908152602001600020600084815260200190815260200160002054905080600660008773ffffffffffffffffffffffffffffffffffffffff1673ffffffffffffffffffffffffffffffffffffffff168152602001908152602001600020600084815260200190815260200160002081905550816007600083815260200190815260200160002081905550505b6007600084815260200190815260200160002060009055600660008573ffffffffffffffffffffffffffffffffffffffff1673ffffffffffffffffffffffffffffffffffffffff16815260200190815260200160002060008381526020019081526020016000206000905550505050565b60006001600880549050612b5d919061427a565b9050600060096000848152602001908152602001600020549050600060088381548110612b8d57612b8c6139c5565b5b906000526020600020015490508060088381548110612baf57612bae6139c5565b5b906000526020600020018190555081600960008381526020019081526020016000208190555060096000858152602001908152602001600020600090556008805480612bfe57612bfd6142ae565b5b6001900381819060005260206000200160009055905550505050565b6000612c2583610ff6565b905081600660008573ffffffffffffffffffffffffffffffffffffffff1673ffffffffffffffffffffffffffffffffffffffff168152602001908152602001600020600083815260200190815260200160002081905550806007600084815260200190815260200160002081905550505050565b6000808273ffffffffffffffffffffffffffffffffffffffff163b119050919050565b600073ffffffffffffffffffffffffffffffffffffffff168273ffffffffffffffffffffffffffffffffffffffff1603612d2b576040517f08c379a0000000000000000000000000000000000000000000000000000000008152600401612d2290614329565b60405180910390fd5b612d34816124b3565b15612d74576040517f08c379a0000000000000000000000000000000000000000000000000000000008152600401612d6b90614395565b60405180910390fd5b612d826000838360016124f4565b612d8b816124b3565b15612dcb576040517f08c379a0000000000000000000000000000000000000000000000000000000008152600401612dc290614395565b60405180910390fd5b6001600360008473ffffffffffffffffffffffffffffffffffffffff1673ffffffffffffffffffffffffffffffffffffffff16815260200190815260200160002060008282540192505081905550816002600083815260200190815260200160002060006101000a81548173ffffffffffffffffffffffffffffffffffffffff021916908373ffffffffffffffffffffffffffffffffffffffff160217905550808273ffffffffffffffffffffffffffffffffffffffff16600073ffffffffffffffffffffffffffffffffffffffff167fddf252ad1be2c89b69c2b068fc378daa952ba7f163c4a11628f55a4df523b3ef60405160405180910390a4612ed5600083836001612652565b5050565b6000604051905090565b600080fd5b600080fd5b60007fffffffff0000000000000000000000000000000000000000000000000000000082169050919050565b612f2281612eed565b8114612f2d57600080fd5b50565b600081359050612f3f81612f19565b92915050565b600060208284031215612f5b57612f5a612ee3565b5b6000612f6984828501612f30565b91505092915050565b60008115159050919050565b612f8781612f72565b82525050565b6000602082019050612fa26000830184612f7e565b92915050565b600081519050919050565b600082825260208201905092915050565b60005b83811015612fe2578082015181840152602081019050612fc7565b60008484015250505050565b6000601f19601f8301169050919050565b600061300a82612fa8565b6130148185612fb3565b9350613024818560208601612fc4565b61302d81612fee565b840191505092915050565b600060208201905081810360008301526130528184612fff565b905092915050565b600061ffff82169050919050565b6130718161305a565b82525050565b600060208201905061308c6000830184613068565b92915050565b6000819050919050565b6130a581613092565b81146130b057600080fd5b50565b6000813590506130c28161309c565b92915050565b6000602082840312156130de576130dd612ee3565b5b60006130ec848285016130b3565b91505092915050565b600073ffffffffffffffffffffffffffffffffffffffff82169050919050565b6000613120826130f5565b9050919050565b61313081613115565b82525050565b600060208201905061314b6000830184613127565b92915050565b61315a81613115565b811461316557600080fd5b50565b60008135905061317781613151565b92915050565b6000806040838503121561319457613193612ee3565b5b60006131a285828601613168565b92505060206131b3858286016130b3565b9150509250929050565b6131c681613092565b82525050565b60006020820190506131e160008301846131bd565b92915050565b600080600060608486031215613200576131ff612ee3565b5b600061320e86828701613168565b935050602061321f86828701613168565b9250506040613230868287016130b3565b9150509250925092565b600080fd5b7f4e487b7100000000000000000000000000000000000000000000000000000000600052604160045260246000fd5b61327782612fee565b810181811067ffffffffffffffff821117156132965761329561323f565b5b80604052505050565b60006132a9612ed9565b90506132b5828261326e565b919050565b600067ffffffffffffffff8211156132d5576132d461323f565b5b602082029050602081019050919050565b600080fd5b60006132fe6132f9846132ba565b61329f565b90508083825260208201905060208402830185811115613321576133206132e6565b5b835b8181101561334a57806133368882613168565b845260208401935050602081019050613323565b5050509392505050565b600082601f8301126133695761336861323a565b5b81356133798482602086016132eb565b91505092915050565b60006020828403121561339857613397612ee3565b5b600082013567ffffffffffffffff8111156133b6576133b5612ee8565b5b6133c284828501613354565b91505092915050565b600063ffffffff82169050919050565b6133e4816133cb565b82525050565b60006020820190506133ff60008301846133db565b92915050565b60006020828403121561341b5761341a612ee3565b5b600061342984828501613168565b91505092915050565b61343b81612f72565b811461344657600080fd5b50565b60008135905061345881613432565b92915050565b6000806040838503121561347557613474612ee3565b5b600061348385828601613168565b925050602061349485828601613449565b9150509250929050565b600080fd5b600067ffffffffffffffff8211156134be576134bd61323f565b5b6134c782612fee565b9050602081019050919050565b82818337600083830152505050565b60006134f66134f1846134a3565b61329f565b9050828152602081018484840111156135125761351161349e565b5b61351d8482856134d4565b509392505050565b600082601f83011261353a5761353961323a565b5b813561354a8482602086016134e3565b91505092915050565b6000806000806080858703121561356d5761356c612ee3565b5b600061357b87828801613168565b945050602061358c87828801613168565b935050604061359d878288016130b3565b925050606085013567ffffffffffffffff8111156135be576135bd612ee8565b5b6135ca87828801613525565b91505092959194509250565b600060ff82169050919050565b6135ec816135d6565b82525050565b600060208201905061360760008301846135e3565b92915050565b6000806040838503121561362457613623612ee3565b5b600061363285828601613168565b925050602061364385828601613168565b9150509250929050565b7f4e487b7100000000000000000000000000000000000000000000000000000000600052602260045260246000fd5b6000600282049050600182168061369457607f821691505b6020821081036136a7576136a661364d565b5b50919050565b7f4552433732313a20617070726f76616c20746f2063757272656e74206f776e6560008201527f7200000000000000000000000000000000000000000000000000000000000000602082015250565b6000613709602183612fb3565b9150613714826136ad565b604082019050919050565b60006020820190508181036000830152613738816136fc565b9050919050565b7f4552433732313a20617070726f76652063616c6c6572206973206e6f7420746f60008201527f6b656e206f776e6572206f7220617070726f76656420666f7220616c6c000000602082015250565b600061379b603d83612fb3565b91506137a68261373f565b604082019050919050565b600060208201905081810360008301526137ca8161378e565b9050919050565b7f4552433732313a2063616c6c6572206973206e6f7420746f6b656e206f776e6560008201527f72206f7220617070726f76656400000000000000000000000000000000000000602082015250565b600061382d602d83612fb3565b9150613838826137d1565b604082019050919050565b6000602082019050818103600083015261385c81613820565b9050919050565b7f455243373231456e756d657261626c653a206f776e657220696e646578206f7560008201527f74206f6620626f756e6473000000000000000000000000000000000000000000602082015250565b60006138bf602b83612fb3565b91506138ca82613863565b604082019050919050565b600060208201905081810360008301526138ee816138b2565b9050919050565b7f4e487b7100000000000000000000000000000000000000000000000000000000600052601160045260246000fd5b600061392f826135d6565b915061393a836135d6565b9250828201905060ff811115613953576139526138f5565b5b92915050565b7f57686974656c69737465642048617320526561636820697473206d6178000000600082015250565b600061398f601d83612fb3565b915061399a82613959565b602082019050919050565b600060208201905081810360008301526139be81613982565b9050919050565b7f4e487b7100000000000000000000000000000000000000000000000000000000600052603260045260246000fd5b60006139ff826135d6565b915060ff8203613a1257613a116138f5565b5b600182019050919050565b6000613a2882613092565b91507fffffffffffffffffffffffffffffffffffffffffffffffffffffffffffffffff8203613a5a57613a596138f5565b5b600182019050919050565b7f455243373231456e756d657261626c653a20676c6f62616c20696e646578206f60008201527f7574206f6620626f756e64730000000000000000000000000000000000000000602082015250565b6000613ac1602c83612fb3565b9150613acc82613a65565b604082019050919050565b60006020820190508181036000830152613af081613ab4565b9050919050565b7f4552433732313a20696e76616c696420746f6b656e2049440000000000000000600082015250565b6000613b2d601883612fb3565b9150613b3882613af7565b602082019050919050565b60006020820190508181036000830152613b5c81613b20565b9050919050565b7f4552433732313a2061646472657373207a65726f206973206e6f74206120766160008201527f6c6964206f776e65720000000000000000000000000000000000000000000000602082015250565b6000613bbf602983612fb3565b9150613bca82613b63565b604082019050919050565b60006020820190508181036000830152613bee81613bb2565b9050919050565b600081519050613c0481613432565b92915050565b600060208284031215613c2057613c1f612ee3565b5b6000613c2e84828501613bf5565b91505092915050565b600081905092915050565b6000613c4d82612fa8565b613c578185613c37565b9350613c67818560208601612fc4565b80840191505092915050565b6000613c7f8285613c42565b9150613c8b8284613c42565b91508190509392505050565b7f63616e206f6e6c792072656d6f76652032302061646472657373000000000000600082015250565b6000613ccd601a83612fb3565b9150613cd882613c97565b602082019050919050565b60006020820190508181036000830152613cfc81613cc0565b9050919050565b6000613d0e826135d6565b915060008203613d2157613d206138f5565b5b600182039050919050565b6000613d378261305a565b915061ffff8203613d4b57613d4a6138f5565b5b600182019050919050565b6000613d6182613092565b9150613d6c83613092565b9250828201905080821115613d8457613d836138f5565b5b92915050565b6000613d95826133cb565b915063ffffffff8203613dab57613daa6138f5565b5b600182019050919050565b7f4f776e61626c653a206e6577206f776e657220697320746865207a65726f206160008201527f6464726573730000000000000000000000000000000000000000000000000000602082015250565b6000613e12602683612fb3565b9150613e1d82613db6565b604082019050919050565b60006020820190508181036000830152613e4181613e05565b9050919050565b7f4f776e61626c653a2063616c6c6572206973206e6f7420746865206f776e6572600082015250565b6000613e7e602083612fb3565b9150613e8982613e48565b602082019050919050565b60006020820190508181036000830152613ead81613e71565b9050919050565b7f4552433732313a207472616e736665722066726f6d20696e636f72726563742060008201527f6f776e6572000000000000000000000000000000000000000000000000000000602082015250565b6000613f10602583612fb3565b9150613f1b82613eb4565b604082019050919050565b60006020820190508181036000830152613f3f81613f03565b9050919050565b7f4552433732313a207472616e7366657220746f20746865207a65726f2061646460008201527f7265737300000000000000000000000000000000000000000000000000000000602082015250565b6000613fa2602483612fb3565b9150613fad82613f46565b604082019050919050565b60006020820190508181036000830152613fd181613f95565b9050919050565b7f4552433732313a20617070726f766520746f2063616c6c657200000000000000600082015250565b600061400e601983612fb3565b915061401982613fd8565b602082019050919050565b6000602082019050818103600083015261403d81614001565b9050919050565b7f4552433732313a207472616e7366657220746f206e6f6e20455243373231526560008201527f63656976657220696d706c656d656e7465720000000000000000000000000000602082015250565b60006140a0603283612fb3565b91506140ab82614044565b604082019050919050565b600060208201905081810360008301526140cf81614093565b9050919050565b7f4e487b7100000000000000000000000000000000000000000000000000000000600052601260045260246000fd5b7f455243373231456e756d657261626c653a20636f6e736563757469766520747260008201527f616e7366657273206e6f7420737570706f727465640000000000000000000000602082015250565b6000614161603583612fb3565b915061416c82614105565b604082019050919050565b6000602082019050818103600083015261419081614154565b9050919050565b600081519050919050565b600082825260208201905092915050565b60006141be82614197565b6141c881856141a2565b93506141d8818560208601612fc4565b6141e181612fee565b840191505092915050565b60006080820190506142016000830187613127565b61420e6020830186613127565b61421b60408301856131bd565b818103606083015261422d81846141b3565b905095945050505050565b60008151905061424781612f19565b92915050565b60006020828403121561426357614262612ee3565b5b600061427184828501614238565b91505092915050565b600061428582613092565b915061429083613092565b92508282039050818111156142a8576142a76138f5565b5b92915050565b7f4e487b7100000000000000000000000000000000000000000000000000000000600052603160045260246000fd5b7f4552433732313a206d696e7420746f20746865207a65726f2061646472657373600082015250565b6000614313602083612fb3565b915061431e826142dd565b602082019050919050565b6000602082019050818103600083015261434281614306565b9050919050565b7f4552433732313a20746f6b656e20616c7265616479206d696e74656400000000600082015250565b600061437f601c83612fb3565b915061438a82614349565b602082019050919050565b600060208201905081810360008301526143ae81614372565b905091905056fea26469706673582212203adae97a893197c54b015accefa6b5faa0bd5ff2cb7ab27df3fc3045d9d2c76d64736f6c6343000812003360806040523480156200001157600080fd5b506040518060400160405280601181526020017f444343536f756c626f756e64546f6b656e0000000000000000000000000000008152506040518060400160405280600481526020017f244453540000000000000000000000000000000000000000000000000000000081525081600090816200008f919062000412565b508060019081620000a1919062000412565b505050620000c4620000b8620000ca60201b60201c565b620000d260201b60201c565b620004f9565b600033905090565b6000600660009054906101000a900473ffffffffffffffffffffffffffffffffffffffff16905081600660006101000a81548173ffffffffffffffffffffffffffffffffffffffff021916908373ffffffffffffffffffffffffffffffffffffffff1602179055508173ffffffffffffffffffffffffffffffffffffffff168173ffffffffffffffffffffffffffffffffffffffff167f8be0079c531659141344cd1fd0a4f28419497f9722a3daafe3b4186f6b6457e060405160405180910390a35050565b600081519050919050565b7f4e487b7100000000000000000000000000000000000000000000000000000000600052604160045260246000fd5b7f4e487b7100000000000000000000000000000000000000000000000000000000600052602260045260246000fd5b600060028204905060018216806200021a57607f821691505b60208210810362000230576200022f620001d2565b5b50919050565b60008190508160005260206000209050919050565b60006020601f8301049050919050565b600082821b905092915050565b6000600883026200029a7fffffffffffffffffffffffffffffffffffffffffffffffffffffffffffffffff826200025b565b620002a686836200025b565b95508019841693508086168417925050509392505050565b6000819050919050565b6000819050919050565b6000620002f3620002ed620002e784620002be565b620002c8565b620002be565b9050919050565b6000819050919050565b6200030f83620002d2565b620003276200031e82620002fa565b84845462000268565b825550505050565b600090565b6200033e6200032f565b6200034b81848462000304565b505050565b5b8181101562000373576200036760008262000334565b60018101905062000351565b5050565b601f821115620003c2576200038c8162000236565b62000397846200024b565b81016020851015620003a7578190505b620003bf620003b6856200024b565b83018262000350565b50505b505050565b600082821c905092915050565b6000620003e760001984600802620003c7565b1980831691505092915050565b6000620004028383620003d4565b9150826002028217905092915050565b6200041d8262000198565b67ffffffffffffffff811115620004395762000438620001a3565b5b62000445825462000201565b6200045282828562000377565b600060209050601f8311600181146200048a576000841562000475578287015190505b620004818582620003f4565b865550620004f1565b601f1984166200049a8662000236565b60005b82811015620004c4578489015182556001820191506020850194506020810190506200049d565b86831015620004e45784890151620004e0601f891682620003d4565b8355505b6001600288020188555050505b505050505050565b61216380620005096000396000f3fe608060405234801561001057600080fd5b50600436106101215760003560e01c806370a08231116100ad578063b88d4fde11610071578063b88d4fde14610306578063c87b56dd14610322578063e077a03814610352578063e985e9c514610382578063f2fde38b146103b257610121565b806370a0823114610274578063715018a6146102a45780638da5cb5b146102ae57806395d89b41146102cc578063a22cb465146102ea57610121565b806323b872dd116100f457806323b872dd146101c057806340d097c3146101dc57806342842e0e146101f85780634ada8fcc146102145780636352211e1461024457610121565b806301ffc9a71461012657806306fdde0314610156578063081812fc14610174578063095ea7b3146101a4575b600080fd5b610140600480360381019061013b919061156a565b6103ce565b60405161014d91906115b2565b60405180910390f35b61015e6104b0565b60405161016b919061165d565b60405180910390f35b61018e600480360381019061018991906116b5565b610542565b60405161019b9190611723565b60405180910390f35b6101be60048036038101906101b9919061176a565b610588565b005b6101da60048036038101906101d591906117aa565b61058c565b005b6101f660048036038101906101f191906117fd565b610591565b005b610212600480360381019061020d91906117aa565b6107aa565b005b61022e600480360381019061022991906117fd565b6107af565b60405161023b91906115b2565b60405180910390f35b61025e600480360381019061025991906116b5565b610805565b60405161026b9190611723565b60405180910390f35b61028e600480360381019061028991906117fd565b61088b565b60405161029b9190611839565b60405180910390f35b6102ac610942565b005b6102b6610956565b6040516102c39190611723565b60405180910390f35b6102d4610980565b6040516102e1919061165d565b60405180910390f35b61030460048036038101906102ff9190611880565b610a12565b005b610320600480360381019061031b91906119f5565b610a16565b005b61033c600480360381019061033791906116b5565b610a1c565b604051610349919061165d565b60405180910390f35b61036c600480360381019061036791906117fd565b610a84565b60405161037991906115b2565b60405180910390f35b61039c60048036038101906103979190611a78565b610ae4565b6040516103a991906115b2565b60405180910390f35b6103cc60048036038101906103c791906117fd565b610b78565b005b60007f80ac58cd000000000000000000000000000000000000000000000000000000007bffffffffffffffffffffffffffffffffffffffffffffffffffffffff1916827bffffffffffffffffffffffffffffffffffffffffffffffffffffffff1916148061049957507f5b5e139f000000000000000000000000000000000000000000000000000000007bffffffffffffffffffffffffffffffffffffffffffffffffffffffff1916827bffffffffffffffffffffffffffffffffffffffffffffffffffffffff1916145b806104a957506104a882610bfb565b5b9050919050565b6060600080546104bf90611ae7565b80601f01602080910402602001604051908101604052809291908181526020018280546104eb90611ae7565b80156105385780601f1061050d57610100808354040283529160200191610538565b820191906000526020600020905b81548152906001019060200180831161051b57829003601f168201915b5050505050905090565b600061054d82610c65565b6004600083815260200190815260200160002060009054906101000a900473ffffffffffffffffffffffffffffffffffffffff169050919050565b5050565b505050565b610599610cb0565b600073ffffffffffffffffffffffffffffffffffffffff168173ffffffffffffffffffffffffffffffffffffffff16036105d257600080fd5b600860008273ffffffffffffffffffffffffffffffffffffffff1673ffffffffffffffffffffffffffffffffffffffff16815260200190815260200160002060009054906101000a900460ff1661065e576040517f08c379a000000000000000000000000000000000000000000000000000000000815260040161065590611b64565b60405180910390fd5b60006106698261088b565b1180156106bb57508073ffffffffffffffffffffffffffffffffffffffff166106a3600660149054906101000a900460ff1660ff16610805565b73ffffffffffffffffffffffffffffffffffffffff16145b156106fb576040517f08c379a00000000000000000000000000000000000000000000000000000000081526004016106f290611bd0565b60405180910390fd5b6006601481819054906101000a900460ff168092919061071a90611c2c565b91906101000a81548160ff021916908360ff160217905550506001600760008373ffffffffffffffffffffffffffffffffffffffff1673ffffffffffffffffffffffffffffffffffffffff16815260200190815260200160002060006101000a81548160ff0219169083151502179055506107a781600660149054906101000a900460ff1660ff16610d2e565b50565b505050565b6000600760008373ffffffffffffffffffffffffffffffffffffffff1673ffffffffffffffffffffffffffffffffffffffff16815260200190815260200160002060009054906101000a900460ff169050919050565b60008061081183610d4c565b9050600073ffffffffffffffffffffffffffffffffffffffff168173ffffffffffffffffffffffffffffffffffffffff1603610882576040517f08c379a000000000000000000000000000000000000000000000000000000000815260040161087990611ca1565b60405180910390fd5b80915050919050565b60008073ffffffffffffffffffffffffffffffffffffffff168273ffffffffffffffffffffffffffffffffffffffff16036108fb576040517f08c379a00000000000000000000000000000000000000000000000000000000081526004016108f290611d33565b60405180910390fd5b600360008373ffffffffffffffffffffffffffffffffffffffff1673ffffffffffffffffffffffffffffffffffffffff168152602001908152602001600020549050919050565b61094a610cb0565b6109546000610d89565b565b6000600660009054906101000a900473ffffffffffffffffffffffffffffffffffffffff16905090565b60606001805461098f90611ae7565b80601f01602080910402602001604051908101604052809291908181526020018280546109bb90611ae7565b8015610a085780601f106109dd57610100808354040283529160200191610a08565b820191906000526020600020905b8154815290600101906020018083116109eb57829003601f168201915b5050505050905090565b5050565b50505050565b6060610a2782610c65565b6000610a31610e4f565b90506000815111610a515760405180602001604052806000815250610a7c565b80610a5b84610e66565b604051602001610a6c929190611d8f565b6040516020818303038152906040525b915050919050565b60006001600860008473ffffffffffffffffffffffffffffffffffffffff1673ffffffffffffffffffffffffffffffffffffffff16815260200190815260200160002060006101000a81548160ff02191690831515021790559050919050565b6000600560008473ffffffffffffffffffffffffffffffffffffffff1673ffffffffffffffffffffffffffffffffffffffff16815260200190815260200160002060008373ffffffffffffffffffffffffffffffffffffffff1673ffffffffffffffffffffffffffffffffffffffff16815260200190815260200160002060009054906101000a900460ff16905092915050565b610b80610cb0565b600073ffffffffffffffffffffffffffffffffffffffff168173ffffffffffffffffffffffffffffffffffffffff1603610bef576040517f08c379a0000000000000000000000000000000000000000000000000000000008152600401610be690611e25565b60405180910390fd5b610bf881610d89565b50565b60007f01ffc9a7000000000000000000000000000000000000000000000000000000007bffffffffffffffffffffffffffffffffffffffffffffffffffffffff1916827bffffffffffffffffffffffffffffffffffffffffffffffffffffffff1916149050919050565b610c6e81610f34565b610cad576040517f08c379a0000000000000000000000000000000000000000000000000000000008152600401610ca490611ca1565b60405180910390fd5b50565b610cb8610f75565b73ffffffffffffffffffffffffffffffffffffffff16610cd6610956565b73ffffffffffffffffffffffffffffffffffffffff1614610d2c576040517f08c379a0000000000000000000000000000000000000000000000000000000008152600401610d2390611e91565b60405180910390fd5b565b610d48828260405180602001604052806000815250610f7d565b5050565b60006002600083815260200190815260200160002060009054906101000a900473ffffffffffffffffffffffffffffffffffffffff169050919050565b6000600660009054906101000a900473ffffffffffffffffffffffffffffffffffffffff16905081600660006101000a81548173ffffffffffffffffffffffffffffffffffffffff021916908373ffffffffffffffffffffffffffffffffffffffff1602179055508173ffffffffffffffffffffffffffffffffffffffff168173ffffffffffffffffffffffffffffffffffffffff167f8be0079c531659141344cd1fd0a4f28419497f9722a3daafe3b4186f6b6457e060405160405180910390a35050565b606060405180602001604052806000815250905090565b606060006001610e7584610fd8565b01905060008167ffffffffffffffff811115610e9457610e936118ca565b5b6040519080825280601f01601f191660200182016040528015610ec65781602001600182028036833780820191505090505b509050600082602001820190505b600115610f29578080600190039150507f3031323334353637383961626364656600000000000000000000000000000000600a86061a8153600a8581610f1d57610f1c611eb1565b5b04945060008503610ed4575b819350505050919050565b60008073ffffffffffffffffffffffffffffffffffffffff16610f5683610d4c565b73ffffffffffffffffffffffffffffffffffffffff1614159050919050565b600033905090565b610f87838361112b565b610f946000848484611348565b610fd3576040517f08c379a0000000000000000000000000000000000000000000000000000000008152600401610fca90611f52565b60405180910390fd5b505050565b600080600090507a184f03e93ff9f4daa797ed6e38ed64bf6a1f0100000000000000008310611036577a184f03e93ff9f4daa797ed6e38ed64bf6a1f010000000000000000838161102c5761102b611eb1565b5b0492506040810190505b6d04ee2d6d415b85acef81000000008310611073576d04ee2d6d415b85acef8100000000838161106957611068611eb1565b5b0492506020810190505b662386f26fc1000083106110a257662386f26fc10000838161109857611097611eb1565b5b0492506010810190505b6305f5e10083106110cb576305f5e10083816110c1576110c0611eb1565b5b0492506008810190505b61271083106110f05761271083816110e6576110e5611eb1565b5b0492506004810190505b60648310611113576064838161110957611108611eb1565b5b0492506002810190505b600a8310611122576001810190505b80915050919050565b600073ffffffffffffffffffffffffffffffffffffffff168273ffffffffffffffffffffffffffffffffffffffff160361119a576040517f08c379a000000000000000000000000000000000000000000000000000000000815260040161119190611fbe565b60405180910390fd5b6111a381610f34565b156111e3576040517f08c379a00000000000000000000000000000000000000000000000000000000081526004016111da9061202a565b60405180910390fd5b6111f16000838360016114cf565b6111fa81610f34565b1561123a576040517f08c379a00000000000000000000000000000000000000000000000000000000081526004016112319061202a565b60405180910390fd5b6001600360008473ffffffffffffffffffffffffffffffffffffffff1673ffffffffffffffffffffffffffffffffffffffff16815260200190815260200160002060008282540192505081905550816002600083815260200190815260200160002060006101000a81548173ffffffffffffffffffffffffffffffffffffffff021916908373ffffffffffffffffffffffffffffffffffffffff160217905550808273ffffffffffffffffffffffffffffffffffffffff16600073ffffffffffffffffffffffffffffffffffffffff167fddf252ad1be2c89b69c2b068fc378daa952ba7f163c4a11628f55a4df523b3ef60405160405180910390a46113446000838360016114d5565b5050565b60006113698473ffffffffffffffffffffffffffffffffffffffff166114db565b156114c2578373ffffffffffffffffffffffffffffffffffffffff1663150b7a02611392610f75565b8786866040518563ffffffff1660e01b81526004016113b4949392919061209f565b6020604051808303816000875af19250505080156113f057506040513d601f19601f820116820180604052508101906113ed9190612100565b60015b611472573d8060008114611420576040519150601f19603f3d011682016040523d82523d6000602084013e611425565b606091505b50600081510361146a576040517f08c379a000000000000000000000000000000000000000000000000000000000815260040161146190611f52565b60405180910390fd5b805181602001fd5b63150b7a0260e01b7bffffffffffffffffffffffffffffffffffffffffffffffffffffffff1916817bffffffffffffffffffffffffffffffffffffffffffffffffffffffff1916149150506114c7565b600190505b949350505050565b50505050565b50505050565b6000808273ffffffffffffffffffffffffffffffffffffffff163b119050919050565b6000604051905090565b600080fd5b600080fd5b60007fffffffff0000000000000000000000000000000000000000000000000000000082169050919050565b61154781611512565b811461155257600080fd5b50565b6000813590506115648161153e565b92915050565b6000602082840312156115805761157f611508565b5b600061158e84828501611555565b91505092915050565b60008115159050919050565b6115ac81611597565b82525050565b60006020820190506115c760008301846115a3565b92915050565b600081519050919050565b600082825260208201905092915050565b60005b838110156116075780820151818401526020810190506115ec565b60008484015250505050565b6000601f19601f8301169050919050565b600061162f826115cd565b61163981856115d8565b93506116498185602086016115e9565b61165281611613565b840191505092915050565b600060208201905081810360008301526116778184611624565b905092915050565b6000819050919050565b6116928161167f565b811461169d57600080fd5b50565b6000813590506116af81611689565b92915050565b6000602082840312156116cb576116ca611508565b5b60006116d9848285016116a0565b91505092915050565b600073ffffffffffffffffffffffffffffffffffffffff82169050919050565b600061170d826116e2565b9050919050565b61171d81611702565b82525050565b60006020820190506117386000830184611714565b92915050565b61174781611702565b811461175257600080fd5b50565b6000813590506117648161173e565b92915050565b6000806040838503121561178157611780611508565b5b600061178f85828601611755565b92505060206117a0858286016116a0565b9150509250929050565b6000806000606084860312156117c3576117c2611508565b5b60006117d186828701611755565b93505060206117e286828701611755565b92505060406117f3868287016116a0565b9150509250925092565b60006020828403121561181357611812611508565b5b600061182184828501611755565b91505092915050565b6118338161167f565b82525050565b600060208201905061184e600083018461182a565b92915050565b61185d81611597565b811461186857600080fd5b50565b60008135905061187a81611854565b92915050565b6000806040838503121561189757611896611508565b5b60006118a585828601611755565b92505060206118b68582860161186b565b9150509250929050565b600080fd5b600080fd5b7f4e487b7100000000000000000000000000000000000000000000000000000000600052604160045260246000fd5b61190282611613565b810181811067ffffffffffffffff82111715611921576119206118ca565b5b80604052505050565b60006119346114fe565b905061194082826118f9565b919050565b600067ffffffffffffffff8211156119605761195f6118ca565b5b61196982611613565b9050602081019050919050565b82818337600083830152505050565b600061199861199384611945565b61192a565b9050828152602081018484840111156119b4576119b36118c5565b5b6119bf848285611976565b509392505050565b600082601f8301126119dc576119db6118c0565b5b81356119ec848260208601611985565b91505092915050565b60008060008060808587031215611a0f57611a0e611508565b5b6000611a1d87828801611755565b9450506020611a2e87828801611755565b9350506040611a3f878288016116a0565b925050606085013567ffffffffffffffff811115611a6057611a5f61150d565b5b611a6c878288016119c7565b91505092959194509250565b60008060408385031215611a8f57611a8e611508565b5b6000611a9d85828601611755565b9250506020611aae85828601611755565b9150509250929050565b7f4e487b7100000000000000000000000000000000000000000000000000000000600052602260045260246000fd5b60006002820490506001821680611aff57607f821691505b602082108103611b1257611b11611ab8565b5b50919050565b7f4163636573732044656e69656400000000000000000000000000000000000000600082015250565b6000611b4e600d836115d8565b9150611b5982611b18565b602082019050919050565b60006020820190508181036000830152611b7d81611b41565b9050919050565b7f546f6b656e2063616e6e6f74206265206d696e74656420616761696e00000000600082015250565b6000611bba601c836115d8565b9150611bc582611b84565b602082019050919050565b60006020820190508181036000830152611be981611bad565b9050919050565b7f4e487b7100000000000000000000000000000000000000000000000000000000600052601160045260246000fd5b600060ff82169050919050565b6000611c3782611c1f565b915060ff8203611c4a57611c49611bf0565b5b600182019050919050565b7f4552433732313a20696e76616c696420746f6b656e2049440000000000000000600082015250565b6000611c8b6018836115d8565b9150611c9682611c55565b602082019050919050565b60006020820190508181036000830152611cba81611c7e565b9050919050565b7f4552433732313a2061646472657373207a65726f206973206e6f74206120766160008201527f6c6964206f776e65720000000000000000000000000000000000000000000000602082015250565b6000611d1d6029836115d8565b9150611d2882611cc1565b604082019050919050565b60006020820190508181036000830152611d4c81611d10565b9050919050565b600081905092915050565b6000611d69826115cd565b611d738185611d53565b9350611d838185602086016115e9565b80840191505092915050565b6000611d9b8285611d5e565b9150611da78284611d5e565b91508190509392505050565b7f4f776e61626c653a206e6577206f776e657220697320746865207a65726f206160008201527f6464726573730000000000000000000000000000000000000000000000000000602082015250565b6000611e0f6026836115d8565b9150611e1a82611db3565b604082019050919050565b60006020820190508181036000830152611e3e81611e02565b9050919050565b7f4f776e61626c653a2063616c6c6572206973206e6f7420746865206f776e6572600082015250565b6000611e7b6020836115d8565b9150611e8682611e45565b602082019050919050565b60006020820190508181036000830152611eaa81611e6e565b9050919050565b7f4e487b7100000000000000000000000000000000000000000000000000000000600052601260045260246000fd5b7f4552433732313a207472616e7366657220746f206e6f6e20455243373231526560008201527f63656976657220696d706c656d656e7465720000000000000000000000000000602082015250565b6000611f3c6032836115d8565b9150611f4782611ee0565b604082019050919050565b60006020820190508181036000830152611f6b81611f2f565b9050919050565b7f4552433732313a206d696e7420746f20746865207a65726f2061646472657373600082015250565b6000611fa86020836115d8565b9150611fb382611f72565b602082019050919050565b60006020820190508181036000830152611fd781611f9b565b9050919050565b7f4552433732313a20746f6b656e20616c7265616479206d696e74656400000000600082015250565b6000612014601c836115d8565b915061201f82611fde565b602082019050919050565b6000602082019050818103600083015261204381612007565b9050919050565b600081519050919050565b600082825260208201905092915050565b60006120718261204a565b61207b8185612055565b935061208b8185602086016115e9565b61209481611613565b840191505092915050565b60006080820190506120b46000830187611714565b6120c16020830186611714565b6120ce604083018561182a565b81810360608301526120e08184612066565b905095945050505050565b6000815190506120fa8161153e565b92915050565b60006020828403121561211657612115611508565b5b6000612124848285016120eb565b9150509291505056fea2646970667358221220852cd6f54c9a76e8624d9c2a674f7f04a8cb532053f12c55ecb7bac39fb6eaef64736f6c63430008120033",
  "devdoc": {
    "events": {
      "Approval(address,address,uint256)": {
        "details": "Emitted when `owner` enables `approved` to manage the `tokenId` token."
      },
      "ApprovalForAll(address,address,bool)": {
        "details": "Emitted when `owner` enables or disables (`approved`) `operator` to manage all of its assets."
      },
      "Transfer(address,address,uint256)": {
        "details": "Emitted when `tokenId` token is transferred from `from` to `to`."
      }
    },
    "kind": "dev",
    "methods": {
      "approve(address,uint256)": {
        "details": "See {IERC721-approve}."
      },
      "balanceOf(address)": {
        "details": "See {IERC721-balanceOf}."
      },
      "buyTicket()": {
        "details": "This function is used to buy tickets for a Drake concert"
      },
      "constructor": {
        "params": {
          "_startTime": "set the start time of the ticket sale"
        }
      },
      "getApproved(uint256)": {
        "details": "See {IERC721-getApproved}."
      },
      "getEndTime()": {
        "details": "returns the end time of purchase"
      },
      "getMaxSoulNBoundCounter()": {
        "details": "returns the count of each soulbount received"
      },
      "getMaxSoulNBoundTicket()": {
        "details": "returns the Maximum of soulbounds"
      },
      "getMaxTicketAmount()": {
        "details": "returns the maximum amount of ticket that can be purchased"
      },
      "getPreSaleCounter()": {
        "details": "returns the count of each presale acquired"
      },
      "getPresaleMaxAmount()": {
        "details": "returns the maximum presale ticket sale"
      },
      "getTicketPrice()": {
        "details": "returns the amount of ticket price"
      },
      "getWhiteListedCount()": {
        "details": "returns all whitelisted addresses"
      },
      "isApprovedForAll(address,address)": {
        "details": "See {IERC721-isApprovedForAll}."
      },
      "isWhiteListed(address)": {
        "details": "checks if an address is whitelisted or not",
        "params": {
          "_address": "address to be checked"
        }
      },
      "killContract()": {
        "details": "kills the contract purchase are done, and transfer the remaining balance to the contract owner"
      },
      "name()": {
        "details": "See {IERC721Metadata-name}."
      },
      "owner()": {
        "details": "Returns the address of the current owner."
      },
      "ownerOf(uint256)": {
        "details": "See {IERC721-ownerOf}."
      },
      "removeWhiteListedAddress(address[])": {
        "details": "Removes Whitelisted Addresses",
        "params": {
          "addresses": "Addresses to be removed from the whitelist"
        }
      },
      "renounceOwnership()": {
        "details": "Leaves the contract without owner. It will not be possible to call `onlyOwner` functions anymore. Can only be called by the current owner. NOTE: Renouncing ownership will leave the contract without an owner, thereby removing any functionality that is only available to the owner."
      },
      "safeTransferFrom(address,address,uint256)": {
        "details": "See {IERC721-safeTransferFrom}."
      },
      "safeTransferFrom(address,address,uint256,bytes)": {
        "details": "See {IERC721-safeTransferFrom}."
      },
      "setApprovalForAll(address,bool)": {
        "details": "See {IERC721-setApprovalForAll}."
      },
      "supportsInterface(bytes4)": {
        "details": "See {IERC165-supportsInterface}."
      },
      "symbol()": {
        "details": "See {IERC721Metadata-symbol}."
      },
      "tokenByIndex(uint256)": {
        "details": "See {IERC721Enumerable-tokenByIndex}."
      },
      "tokenOfOwnerByIndex(address,uint256)": {
        "details": "See {IERC721Enumerable-tokenOfOwnerByIndex}."
      },
      "tokenURI(uint256)": {
        "details": "See {IERC721Metadata-tokenURI}."
      },
      "totalSupply()": {
        "details": "See {IERC721Enumerable-totalSupply}."
      },
      "transferFrom(address,address,uint256)": {
        "details": "See {IERC721-transferFrom}."
      },
      "transferOwnership(address)": {
        "details": "Transfers ownership of the contract to a new account (`newOwner`). Can only be called by the current owner."
      },
      "whiteListAddress(address[])": {
        "details": "Whitelist Addresses for presale",
        "params": {
          "addresses": "Addresses to be whitelisted for Pre-sale"
        }
      }
    },
    "version": 1
  },
  "userdoc": {
    "kind": "user",
    "methods": {},
    "version": 1
  },
  "storageLayout": {
    "storage": [
      {
        "astId": 138,
        "contract": "contracts/DrakeConcertContract.sol:DrakeConcertContract",
        "label": "_name",
        "offset": 0,
        "slot": "0",
        "type": "t_string_storage"
      },
      {
        "astId": 140,
        "contract": "contracts/DrakeConcertContract.sol:DrakeConcertContract",
        "label": "_symbol",
        "offset": 0,
        "slot": "1",
        "type": "t_string_storage"
      },
      {
        "astId": 144,
        "contract": "contracts/DrakeConcertContract.sol:DrakeConcertContract",
        "label": "_owners",
        "offset": 0,
        "slot": "2",
        "type": "t_mapping(t_uint256,t_address)"
      },
      {
        "astId": 148,
        "contract": "contracts/DrakeConcertContract.sol:DrakeConcertContract",
        "label": "_balances",
        "offset": 0,
        "slot": "3",
        "type": "t_mapping(t_address,t_uint256)"
      },
      {
        "astId": 152,
        "contract": "contracts/DrakeConcertContract.sol:DrakeConcertContract",
        "label": "_tokenApprovals",
        "offset": 0,
        "slot": "4",
        "type": "t_mapping(t_uint256,t_address)"
      },
      {
        "astId": 158,
        "contract": "contracts/DrakeConcertContract.sol:DrakeConcertContract",
        "label": "_operatorApprovals",
        "offset": 0,
        "slot": "5",
        "type": "t_mapping(t_address,t_mapping(t_address,t_bool))"
      },
      {
        "astId": 1188,
        "contract": "contracts/DrakeConcertContract.sol:DrakeConcertContract",
        "label": "_ownedTokens",
        "offset": 0,
        "slot": "6",
        "type": "t_mapping(t_address,t_mapping(t_uint256,t_uint256))"
      },
      {
        "astId": 1192,
        "contract": "contracts/DrakeConcertContract.sol:DrakeConcertContract",
        "label": "_ownedTokensIndex",
        "offset": 0,
        "slot": "7",
        "type": "t_mapping(t_uint256,t_uint256)"
      },
      {
        "astId": 1195,
        "contract": "contracts/DrakeConcertContract.sol:DrakeConcertContract",
        "label": "_allTokens",
        "offset": 0,
        "slot": "8",
        "type": "t_array(t_uint256)dyn_storage"
      },
      {
        "astId": 1199,
        "contract": "contracts/DrakeConcertContract.sol:DrakeConcertContract",
        "label": "_allTokensIndex",
        "offset": 0,
        "slot": "9",
        "type": "t_mapping(t_uint256,t_uint256)"
      },
      {
        "astId": 7,
        "contract": "contracts/DrakeConcertContract.sol:DrakeConcertContract",
        "label": "_owner",
        "offset": 0,
        "slot": "10",
        "type": "t_address"
      },
      {
        "astId": 3040,
        "contract": "contracts/DrakeConcertContract.sol:DrakeConcertContract",
        "label": "contractOwner",
        "offset": 0,
        "slot": "11",
        "type": "t_address"
      },
      {
        "astId": 3042,
        "contract": "contracts/DrakeConcertContract.sol:DrakeConcertContract",
        "label": "startTime",
        "offset": 0,
        "slot": "12",
        "type": "t_uint256"
      },
      {
        "astId": 3044,
        "contract": "contracts/DrakeConcertContract.sol:DrakeConcertContract",
        "label": "endTime",
        "offset": 0,
        "slot": "13",
        "type": "t_uint256"
      },
      {
        "astId": 3049,
        "contract": "contracts/DrakeConcertContract.sol:DrakeConcertContract",
        "label": "ticketSaleCount",
        "offset": 0,
        "slot": "14",
        "type": "t_uint32"
      },
      {
        "astId": 3054,
        "contract": "contracts/DrakeConcertContract.sol:DrakeConcertContract",
        "label": "preSaleCount",
        "offset": 4,
        "slot": "14",
        "type": "t_uint16"
      },
      {
        "astId": 3059,
        "contract": "contracts/DrakeConcertContract.sol:DrakeConcertContract",
        "label": "soulboundCount",
        "offset": 6,
        "slot": "14",
        "type": "t_uint16"
      },
      {
        "astId": 3064,
        "contract": "contracts/DrakeConcertContract.sol:DrakeConcertContract",
        "label": "whiteListedCounter",
        "offset": 8,
        "slot": "14",
        "type": "t_uint8"
      },
      {
        "astId": 3067,
        "contract": "contracts/DrakeConcertContract.sol:DrakeConcertContract",
        "label": "sContract",
        "offset": 9,
        "slot": "14",
        "type": "t_contract(SoulboundToken)3666"
      },
      {
        "astId": 3071,
        "contract": "contracts/DrakeConcertContract.sol:DrakeConcertContract",
        "label": "whiteListed",
        "offset": 0,
        "slot": "15",
        "type": "t_mapping(t_address,t_bool)"
      }
    ],
    "types": {
      "t_address": {
        "encoding": "inplace",
        "label": "address",
        "numberOfBytes": "20"
      },
      "t_array(t_uint256)dyn_storage": {
        "base": "t_uint256",
        "encoding": "dynamic_array",
        "label": "uint256[]",
        "numberOfBytes": "32"
      },
      "t_bool": {
        "encoding": "inplace",
        "label": "bool",
        "numberOfBytes": "1"
      },
      "t_contract(SoulboundToken)3666": {
        "encoding": "inplace",
        "label": "contract SoulboundToken",
        "numberOfBytes": "20"
      },
      "t_mapping(t_address,t_bool)": {
        "encoding": "mapping",
        "key": "t_address",
        "label": "mapping(address => bool)",
        "numberOfBytes": "32",
        "value": "t_bool"
      },
      "t_mapping(t_address,t_mapping(t_address,t_bool))": {
        "encoding": "mapping",
        "key": "t_address",
        "label": "mapping(address => mapping(address => bool))",
        "numberOfBytes": "32",
        "value": "t_mapping(t_address,t_bool)"
      },
      "t_mapping(t_address,t_mapping(t_uint256,t_uint256))": {
        "encoding": "mapping",
        "key": "t_address",
        "label": "mapping(address => mapping(uint256 => uint256))",
        "numberOfBytes": "32",
        "value": "t_mapping(t_uint256,t_uint256)"
      },
      "t_mapping(t_address,t_uint256)": {
        "encoding": "mapping",
        "key": "t_address",
        "label": "mapping(address => uint256)",
        "numberOfBytes": "32",
        "value": "t_uint256"
      },
      "t_mapping(t_uint256,t_address)": {
        "encoding": "mapping",
        "key": "t_uint256",
        "label": "mapping(uint256 => address)",
        "numberOfBytes": "32",
        "value": "t_address"
      },
      "t_mapping(t_uint256,t_uint256)": {
        "encoding": "mapping",
        "key": "t_uint256",
        "label": "mapping(uint256 => uint256)",
        "numberOfBytes": "32",
        "value": "t_uint256"
      },
      "t_string_storage": {
        "encoding": "bytes",
        "label": "string",
        "numberOfBytes": "32"
      },
      "t_uint16": {
        "encoding": "inplace",
        "label": "uint16",
        "numberOfBytes": "2"
      },
      "t_uint256": {
        "encoding": "inplace",
        "label": "uint256",
        "numberOfBytes": "32"
      },
      "t_uint32": {
        "encoding": "inplace",
        "label": "uint32",
        "numberOfBytes": "4"
      },
      "t_uint8": {
        "encoding": "inplace",
        "label": "uint8",
        "numberOfBytes": "1"
      }
    }
  }
}