{
  "address": "0x2fE993453528894dDECe766E47c2f0aD3Ed514d4",
  "abi": [
    {
      "inputs": [],
      "stateMutability": "nonpayable",
      "type": "constructor"
    },
    {
      "anonymous": false,
      "inputs": [
        {
          "indexed": true,
          "internalType": "address",
          "name": "owner",
          "type": "address"
        },
        {
          "indexed": true,
          "internalType": "address",
          "name": "approved",
          "type": "address"
        },
        {
          "indexed": true,
          "internalType": "uint256",
          "name": "tokenId",
          "type": "uint256"
        }
      ],
      "name": "Approval",
      "type": "event"
    },
    {
      "anonymous": false,
      "inputs": [
        {
          "indexed": true,
          "internalType": "address",
          "name": "owner",
          "type": "address"
        },
        {
          "indexed": true,
          "internalType": "address",
          "name": "operator",
          "type": "address"
        },
        {
          "indexed": false,
          "internalType": "bool",
          "name": "approved",
          "type": "bool"
        }
      ],
      "name": "ApprovalForAll",
      "type": "event"
    },
    {
      "anonymous": false,
      "inputs": [
        {
          "indexed": true,
          "internalType": "address",
          "name": "previousOwner",
          "type": "address"
        },
        {
          "indexed": true,
          "internalType": "address",
          "name": "newOwner",
          "type": "address"
        }
      ],
      "name": "OwnershipTransferred",
      "type": "event"
    },
    {
      "anonymous": false,
      "inputs": [
        {
          "indexed": true,
          "internalType": "address",
          "name": "from",
          "type": "address"
        },
        {
          "indexed": true,
          "internalType": "address",
          "name": "to",
          "type": "address"
        },
        {
          "indexed": true,
          "internalType": "uint256",
          "name": "tokenId",
          "type": "uint256"
        }
      ],
      "name": "Transfer",
      "type": "event"
    },
    {
      "inputs": [
        {
          "internalType": "address",
          "name": "to",
          "type": "address"
        },
        {
          "internalType": "uint256",
          "name": "tokenId",
          "type": "uint256"
        }
      ],
      "name": "approve",
      "outputs": [],
      "stateMutability": "nonpayable",
      "type": "function"
    },
    {
      "inputs": [
        {
          "internalType": "address",
          "name": "owner",
          "type": "address"
        }
      ],
      "name": "balanceOf",
      "outputs": [
        {
          "internalType": "uint256",
          "name": "",
          "type": "uint256"
        }
      ],
      "stateMutability": "view",
      "type": "function"
    },
    {
      "inputs": [
        {
          "internalType": "uint256",
          "name": "tokenId",
          "type": "uint256"
        }
      ],
      "name": "getApproved",
      "outputs": [
        {
          "internalType": "address",
          "name": "",
          "type": "address"
        }
      ],
      "stateMutability": "view",
      "type": "function"
    },
    {
      "inputs": [
        {
          "internalType": "address",
          "name": "minter",
          "type": "address"
        }
      ],
      "name": "grantMintAccess",
      "outputs": [
        {
          "internalType": "bool",
          "name": "",
          "type": "bool"
        }
      ],
      "stateMutability": "nonpayable",
      "type": "function"
    },
    {
      "inputs": [
        {
          "internalType": "address",
          "name": "owner",
          "type": "address"
        },
        {
          "internalType": "address",
          "name": "operator",
          "type": "address"
        }
      ],
      "name": "isApprovedForAll",
      "outputs": [
        {
          "internalType": "bool",
          "name": "",
          "type": "bool"
        }
      ],
      "stateMutability": "view",
      "type": "function"
    },
    {
      "inputs": [
        {
          "internalType": "address",
          "name": "owner",
          "type": "address"
        }
      ],
      "name": "isSoulbound",
      "outputs": [
        {
          "internalType": "bool",
          "name": "",
          "type": "bool"
        }
      ],
      "stateMutability": "view",
      "type": "function"
    },
    {
      "inputs": [],
      "name": "name",
      "outputs": [
        {
          "internalType": "string",
          "name": "",
          "type": "string"
        }
      ],
      "stateMutability": "view",
      "type": "function"
    },
    {
      "inputs": [],
      "name": "owner",
      "outputs": [
        {
          "internalType": "address",
          "name": "",
          "type": "address"
        }
      ],
      "stateMutability": "view",
      "type": "function"
    },
    {
      "inputs": [
        {
          "internalType": "uint256",
          "name": "tokenId",
          "type": "uint256"
        }
      ],
      "name": "ownerOf",
      "outputs": [
        {
          "internalType": "address",
          "name": "",
          "type": "address"
        }
      ],
      "stateMutability": "view",
      "type": "function"
    },
    {
      "inputs": [],
      "name": "renounceOwnership",
      "outputs": [],
      "stateMutability": "nonpayable",
      "type": "function"
    },
    {
      "inputs": [
        {
          "internalType": "address",
          "name": "to",
          "type": "address"
        }
      ],
      "name": "safeMint",
      "outputs": [],
      "stateMutability": "nonpayable",
      "type": "function"
    },
    {
      "inputs": [
        {
          "internalType": "address",
          "name": "from",
          "type": "address"
        },
        {
          "internalType": "address",
          "name": "to",
          "type": "address"
        },
        {
          "internalType": "uint256",
          "name": "tokenId",
          "type": "uint256"
        }
      ],
      "name": "safeTransferFrom",
      "outputs": [],
      "stateMutability": "nonpayable",
      "type": "function"
    },
    {
      "inputs": [
        {
          "internalType": "address",
          "name": "from",
          "type": "address"
        },
        {
          "internalType": "address",
          "name": "to",
          "type": "address"
        },
        {
          "internalType": "uint256",
          "name": "tokenId",
          "type": "uint256"
        },
        {
          "internalType": "bytes",
          "name": "data",
          "type": "bytes"
        }
      ],
      "name": "safeTransferFrom",
      "outputs": [],
      "stateMutability": "nonpayable",
      "type": "function"
    },
    {
      "inputs": [
        {
          "internalType": "address",
          "name": "operator",
          "type": "address"
        },
        {
          "internalType": "bool",
          "name": "approved",
          "type": "bool"
        }
      ],
      "name": "setApprovalForAll",
      "outputs": [],
      "stateMutability": "nonpayable",
      "type": "function"
    },
    {
      "inputs": [
        {
          "internalType": "bytes4",
          "name": "interfaceId",
          "type": "bytes4"
        }
      ],
      "name": "supportsInterface",
      "outputs": [
        {
          "internalType": "bool",
          "name": "",
          "type": "bool"
        }
      ],
      "stateMutability": "view",
      "type": "function"
    },
    {
      "inputs": [],
      "name": "symbol",
      "outputs": [
        {
          "internalType": "string",
          "name": "",
          "type": "string"
        }
      ],
      "stateMutability": "view",
      "type": "function"
    },
    {
      "inputs": [
        {
          "internalType": "uint256",
          "name": "tokenId",
          "type": "uint256"
        }
      ],
      "name": "tokenURI",
      "outputs": [
        {
          "internalType": "string",
          "name": "",
          "type": "string"
        }
      ],
      "stateMutability": "view",
      "type": "function"
    },
    {
      "inputs": [
        {
          "internalType": "address",
          "name": "from",
          "type": "address"
        },
        {
          "internalType": "address",
          "name": "to",
          "type": "address"
        },
        {
          "internalType": "uint256",
          "name": "tokenId",
          "type": "uint256"
        }
      ],
      "name": "transferFrom",
      "outputs": [],
      "stateMutability": "nonpayable",
      "type": "function"
    },
    {
      "inputs": [
        {
          "internalType": "address",
          "name": "newOwner",
          "type": "address"
        }
      ],
      "name": "transferOwnership",
      "outputs": [],
      "stateMutability": "nonpayable",
      "type": "function"
    }
  ],
  "transactionHash": "0xd9372cc02a0189f6b2d2cf68444a816db2b04fcd9934f03b0ca3b76db4d43b62",
  "args": [],
  "numDeployments": 1,
  "solcInputHash": "05f5f3dd0239e655350485b87e0503f4",
  "bytecode": "0x60806040523480156200001157600080fd5b506040518060400160405280601181526020017f444343536f756c626f756e64546f6b656e0000000000000000000000000000008152506040518060400160405280600481526020017f244453540000000000000000000000000000000000000000000000000000000081525081600090816200008f919062000412565b508060019081620000a1919062000412565b505050620000c4620000b8620000ca60201b60201c565b620000d260201b60201c565b620004f9565b600033905090565b6000600660009054906101000a900473ffffffffffffffffffffffffffffffffffffffff16905081600660006101000a81548173ffffffffffffffffffffffffffffffffffffffff021916908373ffffffffffffffffffffffffffffffffffffffff1602179055508173ffffffffffffffffffffffffffffffffffffffff168173ffffffffffffffffffffffffffffffffffffffff167f8be0079c531659141344cd1fd0a4f28419497f9722a3daafe3b4186f6b6457e060405160405180910390a35050565b600081519050919050565b7f4e487b7100000000000000000000000000000000000000000000000000000000600052604160045260246000fd5b7f4e487b7100000000000000000000000000000000000000000000000000000000600052602260045260246000fd5b600060028204905060018216806200021a57607f821691505b60208210810362000230576200022f620001d2565b5b50919050565b60008190508160005260206000209050919050565b60006020601f8301049050919050565b600082821b905092915050565b6000600883026200029a7fffffffffffffffffffffffffffffffffffffffffffffffffffffffffffffffff826200025b565b620002a686836200025b565b95508019841693508086168417925050509392505050565b6000819050919050565b6000819050919050565b6000620002f3620002ed620002e784620002be565b620002c8565b620002be565b9050919050565b6000819050919050565b6200030f83620002d2565b620003276200031e82620002fa565b84845462000268565b825550505050565b600090565b6200033e6200032f565b6200034b81848462000304565b505050565b5b8181101562000373576200036760008262000334565b60018101905062000351565b5050565b601f821115620003c2576200038c8162000236565b62000397846200024b565b81016020851015620003a7578190505b620003bf620003b6856200024b565b83018262000350565b50505b505050565b600082821c905092915050565b6000620003e760001984600802620003c7565b1980831691505092915050565b6000620004028383620003d4565b9150826002028217905092915050565b6200041d8262000198565b67ffffffffffffffff811115620004395762000438620001a3565b5b62000445825462000201565b6200045282828562000377565b600060209050601f8311600181146200048a576000841562000475578287015190505b620004818582620003f4565b865550620004f1565b601f1984166200049a8662000236565b60005b82811015620004c4578489015182556001820191506020850194506020810190506200049d565b86831015620004e45784890151620004e0601f891682620003d4565b8355505b6001600288020188555050505b505050505050565b61216380620005096000396000f3fe608060405234801561001057600080fd5b50600436106101215760003560e01c806370a08231116100ad578063b88d4fde11610071578063b88d4fde14610306578063c87b56dd14610322578063e077a03814610352578063e985e9c514610382578063f2fde38b146103b257610121565b806370a0823114610274578063715018a6146102a45780638da5cb5b146102ae57806395d89b41146102cc578063a22cb465146102ea57610121565b806323b872dd116100f457806323b872dd146101c057806340d097c3146101dc57806342842e0e146101f85780634ada8fcc146102145780636352211e1461024457610121565b806301ffc9a71461012657806306fdde0314610156578063081812fc14610174578063095ea7b3146101a4575b600080fd5b610140600480360381019061013b919061156a565b6103ce565b60405161014d91906115b2565b60405180910390f35b61015e6104b0565b60405161016b919061165d565b60405180910390f35b61018e600480360381019061018991906116b5565b610542565b60405161019b9190611723565b60405180910390f35b6101be60048036038101906101b9919061176a565b610588565b005b6101da60048036038101906101d591906117aa565b61058c565b005b6101f660048036038101906101f191906117fd565b610591565b005b610212600480360381019061020d91906117aa565b6107aa565b005b61022e600480360381019061022991906117fd565b6107af565b60405161023b91906115b2565b60405180910390f35b61025e600480360381019061025991906116b5565b610805565b60405161026b9190611723565b60405180910390f35b61028e600480360381019061028991906117fd565b61088b565b60405161029b9190611839565b60405180910390f35b6102ac610942565b005b6102b6610956565b6040516102c39190611723565b60405180910390f35b6102d4610980565b6040516102e1919061165d565b60405180910390f35b61030460048036038101906102ff9190611880565b610a12565b005b610320600480360381019061031b91906119f5565b610a16565b005b61033c600480360381019061033791906116b5565b610a1c565b604051610349919061165d565b60405180910390f35b61036c600480360381019061036791906117fd565b610a84565b60405161037991906115b2565b60405180910390f35b61039c60048036038101906103979190611a78565b610ae4565b6040516103a991906115b2565b60405180910390f35b6103cc60048036038101906103c791906117fd565b610b78565b005b60007f80ac58cd000000000000000000000000000000000000000000000000000000007bffffffffffffffffffffffffffffffffffffffffffffffffffffffff1916827bffffffffffffffffffffffffffffffffffffffffffffffffffffffff1916148061049957507f5b5e139f000000000000000000000000000000000000000000000000000000007bffffffffffffffffffffffffffffffffffffffffffffffffffffffff1916827bffffffffffffffffffffffffffffffffffffffffffffffffffffffff1916145b806104a957506104a882610bfb565b5b9050919050565b6060600080546104bf90611ae7565b80601f01602080910402602001604051908101604052809291908181526020018280546104eb90611ae7565b80156105385780601f1061050d57610100808354040283529160200191610538565b820191906000526020600020905b81548152906001019060200180831161051b57829003601f168201915b5050505050905090565b600061054d82610c65565b6004600083815260200190815260200160002060009054906101000a900473ffffffffffffffffffffffffffffffffffffffff169050919050565b5050565b505050565b610599610cb0565b600073ffffffffffffffffffffffffffffffffffffffff168173ffffffffffffffffffffffffffffffffffffffff16036105d257600080fd5b600860008273ffffffffffffffffffffffffffffffffffffffff1673ffffffffffffffffffffffffffffffffffffffff16815260200190815260200160002060009054906101000a900460ff1661065e576040517f08c379a000000000000000000000000000000000000000000000000000000000815260040161065590611b64565b60405180910390fd5b60006106698261088b565b1180156106bb57508073ffffffffffffffffffffffffffffffffffffffff166106a3600660149054906101000a900460ff1660ff16610805565b73ffffffffffffffffffffffffffffffffffffffff16145b156106fb576040517f08c379a00000000000000000000000000000000000000000000000000000000081526004016106f290611bd0565b60405180910390fd5b6006601481819054906101000a900460ff168092919061071a90611c2c565b91906101000a81548160ff021916908360ff160217905550506001600760008373ffffffffffffffffffffffffffffffffffffffff1673ffffffffffffffffffffffffffffffffffffffff16815260200190815260200160002060006101000a81548160ff0219169083151502179055506107a781600660149054906101000a900460ff1660ff16610d2e565b50565b505050565b6000600760008373ffffffffffffffffffffffffffffffffffffffff1673ffffffffffffffffffffffffffffffffffffffff16815260200190815260200160002060009054906101000a900460ff169050919050565b60008061081183610d4c565b9050600073ffffffffffffffffffffffffffffffffffffffff168173ffffffffffffffffffffffffffffffffffffffff1603610882576040517f08c379a000000000000000000000000000000000000000000000000000000000815260040161087990611ca1565b60405180910390fd5b80915050919050565b60008073ffffffffffffffffffffffffffffffffffffffff168273ffffffffffffffffffffffffffffffffffffffff16036108fb576040517f08c379a00000000000000000000000000000000000000000000000000000000081526004016108f290611d33565b60405180910390fd5b600360008373ffffffffffffffffffffffffffffffffffffffff1673ffffffffffffffffffffffffffffffffffffffff168152602001908152602001600020549050919050565b61094a610cb0565b6109546000610d89565b565b6000600660009054906101000a900473ffffffffffffffffffffffffffffffffffffffff16905090565b60606001805461098f90611ae7565b80601f01602080910402602001604051908101604052809291908181526020018280546109bb90611ae7565b8015610a085780601f106109dd57610100808354040283529160200191610a08565b820191906000526020600020905b8154815290600101906020018083116109eb57829003601f168201915b5050505050905090565b5050565b50505050565b6060610a2782610c65565b6000610a31610e4f565b90506000815111610a515760405180602001604052806000815250610a7c565b80610a5b84610e66565b604051602001610a6c929190611d8f565b6040516020818303038152906040525b915050919050565b60006001600860008473ffffffffffffffffffffffffffffffffffffffff1673ffffffffffffffffffffffffffffffffffffffff16815260200190815260200160002060006101000a81548160ff02191690831515021790559050919050565b6000600560008473ffffffffffffffffffffffffffffffffffffffff1673ffffffffffffffffffffffffffffffffffffffff16815260200190815260200160002060008373ffffffffffffffffffffffffffffffffffffffff1673ffffffffffffffffffffffffffffffffffffffff16815260200190815260200160002060009054906101000a900460ff16905092915050565b610b80610cb0565b600073ffffffffffffffffffffffffffffffffffffffff168173ffffffffffffffffffffffffffffffffffffffff1603610bef576040517f08c379a0000000000000000000000000000000000000000000000000000000008152600401610be690611e25565b60405180910390fd5b610bf881610d89565b50565b60007f01ffc9a7000000000000000000000000000000000000000000000000000000007bffffffffffffffffffffffffffffffffffffffffffffffffffffffff1916827bffffffffffffffffffffffffffffffffffffffffffffffffffffffff1916149050919050565b610c6e81610f34565b610cad576040517f08c379a0000000000000000000000000000000000000000000000000000000008152600401610ca490611ca1565b60405180910390fd5b50565b610cb8610f75565b73ffffffffffffffffffffffffffffffffffffffff16610cd6610956565b73ffffffffffffffffffffffffffffffffffffffff1614610d2c576040517f08c379a0000000000000000000000000000000000000000000000000000000008152600401610d2390611e91565b60405180910390fd5b565b610d48828260405180602001604052806000815250610f7d565b5050565b60006002600083815260200190815260200160002060009054906101000a900473ffffffffffffffffffffffffffffffffffffffff169050919050565b6000600660009054906101000a900473ffffffffffffffffffffffffffffffffffffffff16905081600660006101000a81548173ffffffffffffffffffffffffffffffffffffffff021916908373ffffffffffffffffffffffffffffffffffffffff1602179055508173ffffffffffffffffffffffffffffffffffffffff168173ffffffffffffffffffffffffffffffffffffffff167f8be0079c531659141344cd1fd0a4f28419497f9722a3daafe3b4186f6b6457e060405160405180910390a35050565b606060405180602001604052806000815250905090565b606060006001610e7584610fd8565b01905060008167ffffffffffffffff811115610e9457610e936118ca565b5b6040519080825280601f01601f191660200182016040528015610ec65781602001600182028036833780820191505090505b509050600082602001820190505b600115610f29578080600190039150507f3031323334353637383961626364656600000000000000000000000000000000600a86061a8153600a8581610f1d57610f1c611eb1565b5b04945060008503610ed4575b819350505050919050565b60008073ffffffffffffffffffffffffffffffffffffffff16610f5683610d4c565b73ffffffffffffffffffffffffffffffffffffffff1614159050919050565b600033905090565b610f87838361112b565b610f946000848484611348565b610fd3576040517f08c379a0000000000000000000000000000000000000000000000000000000008152600401610fca90611f52565b60405180910390fd5b505050565b600080600090507a184f03e93ff9f4daa797ed6e38ed64bf6a1f0100000000000000008310611036577a184f03e93ff9f4daa797ed6e38ed64bf6a1f010000000000000000838161102c5761102b611eb1565b5b0492506040810190505b6d04ee2d6d415b85acef81000000008310611073576d04ee2d6d415b85acef8100000000838161106957611068611eb1565b5b0492506020810190505b662386f26fc1000083106110a257662386f26fc10000838161109857611097611eb1565b5b0492506010810190505b6305f5e10083106110cb576305f5e10083816110c1576110c0611eb1565b5b0492506008810190505b61271083106110f05761271083816110e6576110e5611eb1565b5b0492506004810190505b60648310611113576064838161110957611108611eb1565b5b0492506002810190505b600a8310611122576001810190505b80915050919050565b600073ffffffffffffffffffffffffffffffffffffffff168273ffffffffffffffffffffffffffffffffffffffff160361119a576040517f08c379a000000000000000000000000000000000000000000000000000000000815260040161119190611fbe565b60405180910390fd5b6111a381610f34565b156111e3576040517f08c379a00000000000000000000000000000000000000000000000000000000081526004016111da9061202a565b60405180910390fd5b6111f16000838360016114cf565b6111fa81610f34565b1561123a576040517f08c379a00000000000000000000000000000000000000000000000000000000081526004016112319061202a565b60405180910390fd5b6001600360008473ffffffffffffffffffffffffffffffffffffffff1673ffffffffffffffffffffffffffffffffffffffff16815260200190815260200160002060008282540192505081905550816002600083815260200190815260200160002060006101000a81548173ffffffffffffffffffffffffffffffffffffffff021916908373ffffffffffffffffffffffffffffffffffffffff160217905550808273ffffffffffffffffffffffffffffffffffffffff16600073ffffffffffffffffffffffffffffffffffffffff167fddf252ad1be2c89b69c2b068fc378daa952ba7f163c4a11628f55a4df523b3ef60405160405180910390a46113446000838360016114d5565b5050565b60006113698473ffffffffffffffffffffffffffffffffffffffff166114db565b156114c2578373ffffffffffffffffffffffffffffffffffffffff1663150b7a02611392610f75565b8786866040518563ffffffff1660e01b81526004016113b4949392919061209f565b6020604051808303816000875af19250505080156113f057506040513d601f19601f820116820180604052508101906113ed9190612100565b60015b611472573d8060008114611420576040519150601f19603f3d011682016040523d82523d6000602084013e611425565b606091505b50600081510361146a576040517f08c379a000000000000000000000000000000000000000000000000000000000815260040161146190611f52565b60405180910390fd5b805181602001fd5b63150b7a0260e01b7bffffffffffffffffffffffffffffffffffffffffffffffffffffffff1916817bffffffffffffffffffffffffffffffffffffffffffffffffffffffff1916149150506114c7565b600190505b949350505050565b50505050565b50505050565b6000808273ffffffffffffffffffffffffffffffffffffffff163b119050919050565b6000604051905090565b600080fd5b600080fd5b60007fffffffff0000000000000000000000000000000000000000000000000000000082169050919050565b61154781611512565b811461155257600080fd5b50565b6000813590506115648161153e565b92915050565b6000602082840312156115805761157f611508565b5b600061158e84828501611555565b91505092915050565b60008115159050919050565b6115ac81611597565b82525050565b60006020820190506115c760008301846115a3565b92915050565b600081519050919050565b600082825260208201905092915050565b60005b838110156116075780820151818401526020810190506115ec565b60008484015250505050565b6000601f19601f8301169050919050565b600061162f826115cd565b61163981856115d8565b93506116498185602086016115e9565b61165281611613565b840191505092915050565b600060208201905081810360008301526116778184611624565b905092915050565b6000819050919050565b6116928161167f565b811461169d57600080fd5b50565b6000813590506116af81611689565b92915050565b6000602082840312156116cb576116ca611508565b5b60006116d9848285016116a0565b91505092915050565b600073ffffffffffffffffffffffffffffffffffffffff82169050919050565b600061170d826116e2565b9050919050565b61171d81611702565b82525050565b60006020820190506117386000830184611714565b92915050565b61174781611702565b811461175257600080fd5b50565b6000813590506117648161173e565b92915050565b6000806040838503121561178157611780611508565b5b600061178f85828601611755565b92505060206117a0858286016116a0565b9150509250929050565b6000806000606084860312156117c3576117c2611508565b5b60006117d186828701611755565b93505060206117e286828701611755565b92505060406117f3868287016116a0565b9150509250925092565b60006020828403121561181357611812611508565b5b600061182184828501611755565b91505092915050565b6118338161167f565b82525050565b600060208201905061184e600083018461182a565b92915050565b61185d81611597565b811461186857600080fd5b50565b60008135905061187a81611854565b92915050565b6000806040838503121561189757611896611508565b5b60006118a585828601611755565b92505060206118b68582860161186b565b9150509250929050565b600080fd5b600080fd5b7f4e487b7100000000000000000000000000000000000000000000000000000000600052604160045260246000fd5b61190282611613565b810181811067ffffffffffffffff82111715611921576119206118ca565b5b80604052505050565b60006119346114fe565b905061194082826118f9565b919050565b600067ffffffffffffffff8211156119605761195f6118ca565b5b61196982611613565b9050602081019050919050565b82818337600083830152505050565b600061199861199384611945565b61192a565b9050828152602081018484840111156119b4576119b36118c5565b5b6119bf848285611976565b509392505050565b600082601f8301126119dc576119db6118c0565b5b81356119ec848260208601611985565b91505092915050565b60008060008060808587031215611a0f57611a0e611508565b5b6000611a1d87828801611755565b9450506020611a2e87828801611755565b9350506040611a3f878288016116a0565b925050606085013567ffffffffffffffff811115611a6057611a5f61150d565b5b611a6c878288016119c7565b91505092959194509250565b60008060408385031215611a8f57611a8e611508565b5b6000611a9d85828601611755565b9250506020611aae85828601611755565b9150509250929050565b7f4e487b7100000000000000000000000000000000000000000000000000000000600052602260045260246000fd5b60006002820490506001821680611aff57607f821691505b602082108103611b1257611b11611ab8565b5b50919050565b7f4163636573732044656e69656400000000000000000000000000000000000000600082015250565b6000611b4e600d836115d8565b9150611b5982611b18565b602082019050919050565b60006020820190508181036000830152611b7d81611b41565b9050919050565b7f546f6b656e2063616e6e6f74206265206d696e74656420616761696e00000000600082015250565b6000611bba601c836115d8565b9150611bc582611b84565b602082019050919050565b60006020820190508181036000830152611be981611bad565b9050919050565b7f4e487b7100000000000000000000000000000000000000000000000000000000600052601160045260246000fd5b600060ff82169050919050565b6000611c3782611c1f565b915060ff8203611c4a57611c49611bf0565b5b600182019050919050565b7f4552433732313a20696e76616c696420746f6b656e2049440000000000000000600082015250565b6000611c8b6018836115d8565b9150611c9682611c55565b602082019050919050565b60006020820190508181036000830152611cba81611c7e565b9050919050565b7f4552433732313a2061646472657373207a65726f206973206e6f74206120766160008201527f6c6964206f776e65720000000000000000000000000000000000000000000000602082015250565b6000611d1d6029836115d8565b9150611d2882611cc1565b604082019050919050565b60006020820190508181036000830152611d4c81611d10565b9050919050565b600081905092915050565b6000611d69826115cd565b611d738185611d53565b9350611d838185602086016115e9565b80840191505092915050565b6000611d9b8285611d5e565b9150611da78284611d5e565b91508190509392505050565b7f4f776e61626c653a206e6577206f776e657220697320746865207a65726f206160008201527f6464726573730000000000000000000000000000000000000000000000000000602082015250565b6000611e0f6026836115d8565b9150611e1a82611db3565b604082019050919050565b60006020820190508181036000830152611e3e81611e02565b9050919050565b7f4f776e61626c653a2063616c6c6572206973206e6f7420746865206f776e6572600082015250565b6000611e7b6020836115d8565b9150611e8682611e45565b602082019050919050565b60006020820190508181036000830152611eaa81611e6e565b9050919050565b7f4e487b7100000000000000000000000000000000000000000000000000000000600052601260045260246000fd5b7f4552433732313a207472616e7366657220746f206e6f6e20455243373231526560008201527f63656976657220696d706c656d656e7465720000000000000000000000000000602082015250565b6000611f3c6032836115d8565b9150611f4782611ee0565b604082019050919050565b60006020820190508181036000830152611f6b81611f2f565b9050919050565b7f4552433732313a206d696e7420746f20746865207a65726f2061646472657373600082015250565b6000611fa86020836115d8565b9150611fb382611f72565b602082019050919050565b60006020820190508181036000830152611fd781611f9b565b9050919050565b7f4552433732313a20746f6b656e20616c7265616479206d696e74656400000000600082015250565b6000612014601c836115d8565b915061201f82611fde565b602082019050919050565b6000602082019050818103600083015261204381612007565b9050919050565b600081519050919050565b600082825260208201905092915050565b60006120718261204a565b61207b8185612055565b935061208b8185602086016115e9565b61209481611613565b840191505092915050565b60006080820190506120b46000830187611714565b6120c16020830186611714565b6120ce604083018561182a565b81810360608301526120e08184612066565b905095945050505050565b6000815190506120fa8161153e565b92915050565b60006020828403121561211657612115611508565b5b6000612124848285016120eb565b9150509291505056fea2646970667358221220852cd6f54c9a76e8624d9c2a674f7f04a8cb532053f12c55ecb7bac39fb6eaef64736f6c63430008120033",
  "devdoc": {
    "author": "Dynamite",
    "events": {
      "Approval(address,address,uint256)": {
        "details": "Emitted when `owner` enables `approved` to manage the `tokenId` token."
      },
      "ApprovalForAll(address,address,bool)": {
        "details": "Emitted when `owner` enables or disables (`approved`) `operator` to manage all of its assets."
      },
      "Transfer(address,address,uint256)": {
        "details": "Emitted when `tokenId` token is transferred from `from` to `to`."
      }
    },
    "kind": "dev",
    "methods": {
      "approve(address,uint256)": {
        "details": "See {IERC721-approve}."
      },
      "balanceOf(address)": {
        "details": "See {IERC721-balanceOf}."
      },
      "getApproved(uint256)": {
        "details": "See {IERC721-getApproved}."
      },
      "isApprovedForAll(address,address)": {
        "details": "See {IERC721-isApprovedForAll}."
      },
      "name()": {
        "details": "See {IERC721Metadata-name}."
      },
      "owner()": {
        "details": "Returns the address of the current owner."
      },
      "ownerOf(uint256)": {
        "details": "See {IERC721-ownerOf}."
      },
      "renounceOwnership()": {
        "details": "Leaves the contract without owner. It will not be possible to call `onlyOwner` functions anymore. Can only be called by the current owner. NOTE: Renouncing ownership will leave the contract without an owner, thereby removing any functionality that is only available to the owner."
      },
      "safeTransferFrom(address,address,uint256)": {
        "details": "See {IERC721-safeTransferFrom}."
      },
      "safeTransferFrom(address,address,uint256,bytes)": {
        "details": "See {IERC721-safeTransferFrom}."
      },
      "setApprovalForAll(address,bool)": {
        "details": "See {IERC721-setApprovalForAll}."
      },
      "supportsInterface(bytes4)": {
        "details": "See {IERC165-supportsInterface}."
      },
      "symbol()": {
        "details": "See {IERC721Metadata-symbol}."
      },
      "tokenURI(uint256)": {
        "details": "See {IERC721Metadata-tokenURI}."
      },
      "transferFrom(address,address,uint256)": {
        "details": "See {IERC721-transferFrom}."
      },
      "transferOwnership(address)": {
        "details": "Transfers ownership of the contract to a new account (`newOwner`). Can only be called by the current owner."
      }
    },
    "title": "A Contract To Purchase Ticket For Drake's Event",
    "version": 1
  },
  "userdoc": {
    "kind": "user",
    "methods": {},
    "version": 1
  },
  "storageLayout": {
    "storage": [
      {
        "astId": 138,
        "contract": "contracts/SoulboundToken.sol:SoulboundToken",
        "label": "_name",
        "offset": 0,
        "slot": "0",
        "type": "t_string_storage"
      },
      {
        "astId": 140,
        "contract": "contracts/SoulboundToken.sol:SoulboundToken",
        "label": "_symbol",
        "offset": 0,
        "slot": "1",
        "type": "t_string_storage"
      },
      {
        "astId": 144,
        "contract": "contracts/SoulboundToken.sol:SoulboundToken",
        "label": "_owners",
        "offset": 0,
        "slot": "2",
        "type": "t_mapping(t_uint256,t_address)"
      },
      {
        "astId": 148,
        "contract": "contracts/SoulboundToken.sol:SoulboundToken",
        "label": "_balances",
        "offset": 0,
        "slot": "3",
        "type": "t_mapping(t_address,t_uint256)"
      },
      {
        "astId": 152,
        "contract": "contracts/SoulboundToken.sol:SoulboundToken",
        "label": "_tokenApprovals",
        "offset": 0,
        "slot": "4",
        "type": "t_mapping(t_uint256,t_address)"
      },
      {
        "astId": 158,
        "contract": "contracts/SoulboundToken.sol:SoulboundToken",
        "label": "_operatorApprovals",
        "offset": 0,
        "slot": "5",
        "type": "t_mapping(t_address,t_mapping(t_address,t_bool))"
      },
      {
        "astId": 7,
        "contract": "contracts/SoulboundToken.sol:SoulboundToken",
        "label": "_owner",
        "offset": 0,
        "slot": "6",
        "type": "t_address"
      },
      {
        "astId": 3463,
        "contract": "contracts/SoulboundToken.sol:SoulboundToken",
        "label": "soulBoundTokenCount",
        "offset": 20,
        "slot": "6",
        "type": "t_uint8"
      },
      {
        "astId": 3467,
        "contract": "contracts/SoulboundToken.sol:SoulboundToken",
        "label": "_isSoulbound",
        "offset": 0,
        "slot": "7",
        "type": "t_mapping(t_address,t_bool)"
      },
      {
        "astId": 3471,
        "contract": "contracts/SoulboundToken.sol:SoulboundToken",
        "label": "mintAccess",
        "offset": 0,
        "slot": "8",
        "type": "t_mapping(t_address,t_bool)"
      }
    ],
    "types": {
      "t_address": {
        "encoding": "inplace",
        "label": "address",
        "numberOfBytes": "20"
      },
      "t_bool": {
        "encoding": "inplace",
        "label": "bool",
        "numberOfBytes": "1"
      },
      "t_mapping(t_address,t_bool)": {
        "encoding": "mapping",
        "key": "t_address",
        "label": "mapping(address => bool)",
        "numberOfBytes": "32",
        "value": "t_bool"
      },
      "t_mapping(t_address,t_mapping(t_address,t_bool))": {
        "encoding": "mapping",
        "key": "t_address",
        "label": "mapping(address => mapping(address => bool))",
        "numberOfBytes": "32",
        "value": "t_mapping(t_address,t_bool)"
      },
      "t_mapping(t_address,t_uint256)": {
        "encoding": "mapping",
        "key": "t_address",
        "label": "mapping(address => uint256)",
        "numberOfBytes": "32",
        "value": "t_uint256"
      },
      "t_mapping(t_uint256,t_address)": {
        "encoding": "mapping",
        "key": "t_uint256",
        "label": "mapping(uint256 => address)",
        "numberOfBytes": "32",
        "value": "t_address"
      },
      "t_string_storage": {
        "encoding": "bytes",
        "label": "string",
        "numberOfBytes": "32"
      },
      "t_uint256": {
        "encoding": "inplace",
        "label": "uint256",
        "numberOfBytes": "32"
      },
      "t_uint8": {
        "encoding": "inplace",
        "label": "uint8",
        "numberOfBytes": "1"
      }
    }
  }
}