{
  "address": "0xe7f1725E7734CE288F8367e1Bb143E90bb3F0512",
  "abi": [
    {
      "inputs": [
        {
          "internalType": "uint256",
          "name": "_startTime",
          "type": "uint256"
        }
      ],
      "stateMutability": "nonpayable",
      "type": "constructor"
    },
    {
      "inputs": [],
      "name": "DrakeConcertContract_addrCannotBeZeroAddress",
      "type": "error"
    },
    {
      "inputs": [],
      "name": "DrakeConcertContract_inAccuratePrice",
      "type": "error"
    },
    {
      "inputs": [],
      "name": "DrakeConcertContract_notWhiteListed",
      "type": "error"
    },
    {
      "inputs": [],
      "name": "DrakeConcertContract_saleHasNotEnded",
      "type": "error"
    },
    {
      "inputs": [],
      "name": "DrakeConcertContract_saleHasNotStarted",
      "type": "error"
    },
    {
      "inputs": [],
      "name": "DrakeConcertContract_salesHasEnded",
      "type": "error"
    },
    {
      "anonymous": false,
      "inputs": [
        {
          "indexed": true,
          "internalType": "address",
          "name": "owner",
          "type": "address"
        },
        {
          "indexed": true,
          "internalType": "address",
          "name": "approved",
          "type": "address"
        },
        {
          "indexed": true,
          "internalType": "uint256",
          "name": "tokenId",
          "type": "uint256"
        }
      ],
      "name": "Approval",
      "type": "event"
    },
    {
      "anonymous": false,
      "inputs": [
        {
          "indexed": true,
          "internalType": "address",
          "name": "owner",
          "type": "address"
        },
        {
          "indexed": true,
          "internalType": "address",
          "name": "operator",
          "type": "address"
        },
        {
          "indexed": false,
          "internalType": "bool",
          "name": "approved",
          "type": "bool"
        }
      ],
      "name": "ApprovalForAll",
      "type": "event"
    },
    {
      "anonymous": false,
      "inputs": [
        {
          "indexed": true,
          "internalType": "address",
          "name": "previousOwner",
          "type": "address"
        },
        {
          "indexed": true,
          "internalType": "address",
          "name": "newOwner",
          "type": "address"
        }
      ],
      "name": "OwnershipTransferred",
      "type": "event"
    },
    {
      "anonymous": false,
      "inputs": [
        {
          "indexed": true,
          "internalType": "address",
          "name": "buyersAddress",
          "type": "address"
        },
        {
          "indexed": true,
          "internalType": "uint256",
          "name": "ticketId",
          "type": "uint256"
        }
      ],
      "name": "SoulboundTicket",
      "type": "event"
    },
    {
      "anonymous": false,
      "inputs": [
        {
          "indexed": true,
          "internalType": "address",
          "name": "buyersAddress",
          "type": "address"
        },
        {
          "indexed": true,
          "internalType": "uint256",
          "name": "ticketId",
          "type": "uint256"
        }
      ],
      "name": "TicketBought",
      "type": "event"
    },
    {
      "anonymous": false,
      "inputs": [
        {
          "indexed": true,
          "internalType": "address",
          "name": "from",
          "type": "address"
        },
        {
          "indexed": true,
          "internalType": "address",
          "name": "to",
          "type": "address"
        },
        {
          "indexed": true,
          "internalType": "uint256",
          "name": "tokenId",
          "type": "uint256"
        }
      ],
      "name": "Transfer",
      "type": "event"
    },
    {
      "inputs": [
        {
          "internalType": "address",
          "name": "to",
          "type": "address"
        },
        {
          "internalType": "uint256",
          "name": "tokenId",
          "type": "uint256"
        }
      ],
      "name": "approve",
      "outputs": [],
      "stateMutability": "nonpayable",
      "type": "function"
    },
    {
      "inputs": [
        {
          "internalType": "address",
          "name": "owner",
          "type": "address"
        }
      ],
      "name": "balanceOf",
      "outputs": [
        {
          "internalType": "uint256",
          "name": "",
          "type": "uint256"
        }
      ],
      "stateMutability": "view",
      "type": "function"
    },
    {
      "inputs": [],
      "name": "buyTicket",
      "outputs": [],
      "stateMutability": "payable",
      "type": "function"
    },
    {
      "inputs": [
        {
          "internalType": "uint256",
          "name": "tokenId",
          "type": "uint256"
        }
      ],
      "name": "getApproved",
      "outputs": [
        {
          "internalType": "address",
          "name": "",
          "type": "address"
        }
      ],
      "stateMutability": "view",
      "type": "function"
    },
    {
      "inputs": [],
      "name": "getContractBalance",
      "outputs": [
        {
          "internalType": "uint256",
          "name": "",
          "type": "uint256"
        }
      ],
      "stateMutability": "view",
      "type": "function"
    },
    {
      "inputs": [],
      "name": "getEndTime",
      "outputs": [
        {
          "internalType": "uint256",
          "name": "",
          "type": "uint256"
        }
      ],
      "stateMutability": "view",
      "type": "function"
    },
    {
      "inputs": [],
      "name": "getMaxSoulNBoundCounter",
      "outputs": [
        {
          "internalType": "uint16",
          "name": "",
          "type": "uint16"
        }
      ],
      "stateMutability": "view",
      "type": "function"
    },
    {
      "inputs": [],
      "name": "getMaxSoulNBoundTicket",
      "outputs": [
        {
          "internalType": "uint16",
          "name": "",
          "type": "uint16"
        }
      ],
      "stateMutability": "pure",
      "type": "function"
    },
    {
      "inputs": [],
      "name": "getMaxTicketAmount",
      "outputs": [
        {
          "internalType": "uint32",
          "name": "",
          "type": "uint32"
        }
      ],
      "stateMutability": "pure",
      "type": "function"
    },
    {
      "inputs": [],
      "name": "getPreSaleCounter",
      "outputs": [
        {
          "internalType": "uint16",
          "name": "",
          "type": "uint16"
        }
      ],
      "stateMutability": "view",
      "type": "function"
    },
    {
      "inputs": [],
      "name": "getPresaleMaxAmount",
      "outputs": [
        {
          "internalType": "uint16",
          "name": "",
          "type": "uint16"
        }
      ],
      "stateMutability": "pure",
      "type": "function"
    },
    {
      "inputs": [],
      "name": "getTicketPrice",
      "outputs": [
        {
          "internalType": "uint256",
          "name": "",
          "type": "uint256"
        }
      ],
      "stateMutability": "pure",
      "type": "function"
    },
    {
      "inputs": [],
      "name": "getWhiteListedCount",
      "outputs": [
        {
          "internalType": "uint8",
          "name": "",
          "type": "uint8"
        }
      ],
      "stateMutability": "view",
      "type": "function"
    },
    {
      "inputs": [
        {
          "internalType": "address",
          "name": "owner",
          "type": "address"
        }
      ],
      "name": "hasSoulBoundToken",
      "outputs": [
        {
          "internalType": "bool",
          "name": "",
          "type": "bool"
        }
      ],
      "stateMutability": "view",
      "type": "function"
    },
    {
      "inputs": [
        {
          "internalType": "address",
          "name": "owner",
          "type": "address"
        },
        {
          "internalType": "address",
          "name": "operator",
          "type": "address"
        }
      ],
      "name": "isApprovedForAll",
      "outputs": [
        {
          "internalType": "bool",
          "name": "",
          "type": "bool"
        }
      ],
      "stateMutability": "view",
      "type": "function"
    },
    {
      "inputs": [
        {
          "internalType": "address",
          "name": "_address",
          "type": "address"
        }
      ],
      "name": "isWhiteListed",
      "outputs": [
        {
          "internalType": "bool",
          "name": "",
          "type": "bool"
        }
      ],
      "stateMutability": "view",
      "type": "function"
    },
    {
      "inputs": [],
      "name": "killContract",
      "outputs": [],
      "stateMutability": "nonpayable",
      "type": "function"
    },
    {
      "inputs": [],
      "name": "name",
      "outputs": [
        {
          "internalType": "string",
          "name": "",
          "type": "string"
        }
      ],
      "stateMutability": "view",
      "type": "function"
    },
    {
      "inputs": [],
      "name": "owner",
      "outputs": [
        {
          "internalType": "address",
          "name": "",
          "type": "address"
        }
      ],
      "stateMutability": "view",
      "type": "function"
    },
    {
      "inputs": [
        {
          "internalType": "uint256",
          "name": "tokenId",
          "type": "uint256"
        }
      ],
      "name": "ownerOf",
      "outputs": [
        {
          "internalType": "address",
          "name": "",
          "type": "address"
        }
      ],
      "stateMutability": "view",
      "type": "function"
    },
    {
      "inputs": [
        {
          "internalType": "address[]",
          "name": "addresses",
          "type": "address[]"
        }
      ],
      "name": "removeWhiteListedAddress",
      "outputs": [],
      "stateMutability": "nonpayable",
      "type": "function"
    },
    {
      "inputs": [],
      "name": "renounceOwnership",
      "outputs": [],
      "stateMutability": "nonpayable",
      "type": "function"
    },
    {
      "inputs": [
        {
          "internalType": "address",
          "name": "from",
          "type": "address"
        },
        {
          "internalType": "address",
          "name": "to",
          "type": "address"
        },
        {
          "internalType": "uint256",
          "name": "tokenId",
          "type": "uint256"
        }
      ],
      "name": "safeTransferFrom",
      "outputs": [],
      "stateMutability": "nonpayable",
      "type": "function"
    },
    {
      "inputs": [
        {
          "internalType": "address",
          "name": "from",
          "type": "address"
        },
        {
          "internalType": "address",
          "name": "to",
          "type": "address"
        },
        {
          "internalType": "uint256",
          "name": "tokenId",
          "type": "uint256"
        },
        {
          "internalType": "bytes",
          "name": "data",
          "type": "bytes"
        }
      ],
      "name": "safeTransferFrom",
      "outputs": [],
      "stateMutability": "nonpayable",
      "type": "function"
    },
    {
      "inputs": [
        {
          "internalType": "address",
          "name": "operator",
          "type": "address"
        },
        {
          "internalType": "bool",
          "name": "approved",
          "type": "bool"
        }
      ],
      "name": "setApprovalForAll",
      "outputs": [],
      "stateMutability": "nonpayable",
      "type": "function"
    },
    {
      "inputs": [
        {
          "internalType": "bytes4",
          "name": "interfaceId",
          "type": "bytes4"
        }
      ],
      "name": "supportsInterface",
      "outputs": [
        {
          "internalType": "bool",
          "name": "",
          "type": "bool"
        }
      ],
      "stateMutability": "view",
      "type": "function"
    },
    {
      "inputs": [],
      "name": "symbol",
      "outputs": [
        {
          "internalType": "string",
          "name": "",
          "type": "string"
        }
      ],
      "stateMutability": "view",
      "type": "function"
    },
    {
      "inputs": [
        {
          "internalType": "uint256",
          "name": "index",
          "type": "uint256"
        }
      ],
      "name": "tokenByIndex",
      "outputs": [
        {
          "internalType": "uint256",
          "name": "",
          "type": "uint256"
        }
      ],
      "stateMutability": "view",
      "type": "function"
    },
    {
      "inputs": [
        {
          "internalType": "address",
          "name": "owner",
          "type": "address"
        },
        {
          "internalType": "uint256",
          "name": "index",
          "type": "uint256"
        }
      ],
      "name": "tokenOfOwnerByIndex",
      "outputs": [
        {
          "internalType": "uint256",
          "name": "",
          "type": "uint256"
        }
      ],
      "stateMutability": "view",
      "type": "function"
    },
    {
      "inputs": [
        {
          "internalType": "uint256",
          "name": "tokenId",
          "type": "uint256"
        }
      ],
      "name": "tokenURI",
      "outputs": [
        {
          "internalType": "string",
          "name": "",
          "type": "string"
        }
      ],
      "stateMutability": "view",
      "type": "function"
    },
    {
      "inputs": [],
      "name": "totalSupply",
      "outputs": [
        {
          "internalType": "uint256",
          "name": "",
          "type": "uint256"
        }
      ],
      "stateMutability": "view",
      "type": "function"
    },
    {
      "inputs": [
        {
          "internalType": "address",
          "name": "from",
          "type": "address"
        },
        {
          "internalType": "address",
          "name": "to",
          "type": "address"
        },
        {
          "internalType": "uint256",
          "name": "tokenId",
          "type": "uint256"
        }
      ],
      "name": "transferFrom",
      "outputs": [],
      "stateMutability": "nonpayable",
      "type": "function"
    },
    {
      "inputs": [
        {
          "internalType": "address",
          "name": "newOwner",
          "type": "address"
        }
      ],
      "name": "transferOwnership",
      "outputs": [],
      "stateMutability": "nonpayable",
      "type": "function"
    },
    {
      "inputs": [
        {
          "internalType": "address[]",
          "name": "addresses",
          "type": "address[]"
        }
      ],
      "name": "whiteListAddress",
      "outputs": [],
      "stateMutability": "nonpayable",
      "type": "function"
    },
    {
      "inputs": [],
      "name": "whiteListedCounter",
      "outputs": [
        {
          "internalType": "uint8",
          "name": "",
          "type": "uint8"
        }
      ],
      "stateMutability": "view",
      "type": "function"
    }
  ],
  "transactionHash": "0x34498840ee09dc0959b51c6417b1cf41bd439df3221a1c7c580a0f5d693982dc",
  "args": [
    1684169687
  ],
  "numDeployments": 1,
  "solcInputHash": "5d719f7110d02b9f74bd56b53362b0f5",
  "bytecode": "0x60806040523480156200001157600080fd5b5060405162006fd338038062006fd3833981810160405281019062000037919062000296565b6040518060400160405280601481526020017f4472616b65436f6e63657274436f6e74726163740000000000000000000000008152506040518060400160405280600481526020017f24444343000000000000000000000000000000000000000000000000000000008152508160009081620000b4919062000538565b508060019081620000c6919062000538565b505050620000e9620000dd6200017a60201b60201c565b6200018260201b60201c565b604051620000f79062000248565b604051809103906000f08015801562000114573d6000803e3d6000fd5b50600d60056101000a81548173ffffffffffffffffffffffffffffffffffffffff021916908373ffffffffffffffffffffffffffffffffffffffff16021790555080600b81905550620d2f00816200016d91906200064e565b600c819055505062000689565b600033905090565b6000600a60009054906101000a900473ffffffffffffffffffffffffffffffffffffffff16905081600a60006101000a81548173ffffffffffffffffffffffffffffffffffffffff021916908373ffffffffffffffffffffffffffffffffffffffff1602179055508173ffffffffffffffffffffffffffffffffffffffff168173ffffffffffffffffffffffffffffffffffffffff167f8be0079c531659141344cd1fd0a4f28419497f9722a3daafe3b4186f6b6457e060405160405180910390a35050565b61266c806200496783390190565b600080fd5b6000819050919050565b62000270816200025b565b81146200027c57600080fd5b50565b600081519050620002908162000265565b92915050565b600060208284031215620002af57620002ae62000256565b5b6000620002bf848285016200027f565b91505092915050565b600081519050919050565b7f4e487b7100000000000000000000000000000000000000000000000000000000600052604160045260246000fd5b7f4e487b7100000000000000000000000000000000000000000000000000000000600052602260045260246000fd5b600060028204905060018216806200034a57607f821691505b60208210810362000360576200035f62000302565b5b50919050565b60008190508160005260206000209050919050565b60006020601f8301049050919050565b600082821b905092915050565b600060088302620003ca7fffffffffffffffffffffffffffffffffffffffffffffffffffffffffffffffff826200038b565b620003d686836200038b565b95508019841693508086168417925050509392505050565b6000819050919050565b600062000419620004136200040d846200025b565b620003ee565b6200025b565b9050919050565b6000819050919050565b6200043583620003f8565b6200044d620004448262000420565b84845462000398565b825550505050565b600090565b6200046462000455565b620004718184846200042a565b505050565b5b8181101562000499576200048d6000826200045a565b60018101905062000477565b5050565b601f821115620004e857620004b28162000366565b620004bd846200037b565b81016020851015620004cd578190505b620004e5620004dc856200037b565b83018262000476565b50505b505050565b600082821c905092915050565b60006200050d60001984600802620004ed565b1980831691505092915050565b6000620005288383620004fa565b9150826002028217905092915050565b6200054382620002c8565b67ffffffffffffffff8111156200055f576200055e620002d3565b5b6200056b825462000331565b620005788282856200049d565b600060209050601f831160018114620005b057600084156200059b578287015190505b620005a785826200051a565b86555062000617565b601f198416620005c08662000366565b60005b82811015620005ea57848901518255600182019150602085019450602081019050620005c3565b868310156200060a578489015162000606601f891682620004fa565b8355505b6001600288020188555050505b505050505050565b7f4e487b7100000000000000000000000000000000000000000000000000000000600052601160045260246000fd5b60006200065b826200025b565b915062000668836200025b565b92508282019050808211156200068357620006826200061f565b5b92915050565b6142ce80620006996000396000f3fe6080604052600436106102045760003560e01c80636f9fb98a11610118578063c08c096b116100a0578063e985e9c51161006f578063e985e9c51461077f578063edca914c146107bc578063f1a489e2146107c6578063f2fde38b146107f1578063f64cf50d1461081a57610204565b8063c08c096b146106c3578063c3389687146106ee578063c87b56dd14610719578063ce05bd0b1461075657610204565b80638da5cb5b116100e75780638da5cb5b146105de57806395d89b4114610609578063a22cb46514610634578063a557d3bc1461065d578063b88d4fde1461069a57610204565b80636f9fb98a1461053457806370a082311461055f578063715018a61461059c57806387bb7ae0146105b357610204565b80632f745c591161019b5780634e41cfdb1161016a5780634e41cfdb146104295780634f6ccce7146104525780636352211e1461048f578063635a881c146104cc5780636f9170f6146104f757610204565b80632f745c591461036d578063409eb08e146103aa57806342842e0e146103d5578063439f5ac2146103fe57610204565b8063095ea7b3116101d7578063095ea7b3146102d957806318160ddd146103025780631c02708d1461032d57806323b872dd1461034457610204565b806301ffc9a71461020957806306fdde03146102465780630743f96714610271578063081812fc1461029c575b600080fd5b34801561021557600080fd5b50610230600480360381019061022b9190612e54565b610845565b60405161023d9190612e9c565b60405180910390f35b34801561025257600080fd5b5061025b6108bf565b6040516102689190612f47565b60405180910390f35b34801561027d57600080fd5b50610286610951565b6040516102939190612f86565b60405180910390f35b3480156102a857600080fd5b506102c360048036038101906102be9190612fd7565b610969565b6040516102d09190613045565b60405180910390f35b3480156102e557600080fd5b5061030060048036038101906102fb919061308c565b6109af565b005b34801561030e57600080fd5b50610317610ac6565b60405161032491906130db565b60405180910390f35b34801561033957600080fd5b50610342610ad3565b005b34801561035057600080fd5b5061036b600480360381019061036691906130f6565b610b51565b005b34801561037957600080fd5b50610394600480360381019061038f919061308c565b610bb1565b6040516103a191906130db565b60405180910390f35b3480156103b657600080fd5b506103bf610c56565b6040516103cc9190612f86565b60405180910390f35b3480156103e157600080fd5b506103fc60048036038101906103f791906130f6565b610c6e565b005b34801561040a57600080fd5b50610413610c8e565b60405161042091906130db565b60405180910390f35b34801561043557600080fd5b50610450600480360381019061044b9190613291565b610c98565b005b34801561045e57600080fd5b5061047960048036038101906104749190612fd7565b610e01565b60405161048691906130db565b60405180910390f35b34801561049b57600080fd5b506104b660048036038101906104b19190612fd7565b610e72565b6040516104c39190613045565b60405180910390f35b3480156104d857600080fd5b506104e1610ef8565b6040516104ee91906132f9565b60405180910390f35b34801561050357600080fd5b5061051e60048036038101906105199190613314565b610f02565b60405161052b9190612e9c565b60405180910390f35b34801561054057600080fd5b50610549610f58565b60405161055691906130db565b60405180910390f35b34801561056b57600080fd5b5061058660048036038101906105819190613314565b610f60565b60405161059391906130db565b60405180910390f35b3480156105a857600080fd5b506105b1611017565b005b3480156105bf57600080fd5b506105c861102b565b6040516105d591906130db565b60405180910390f35b3480156105ea57600080fd5b506105f361103b565b6040516106009190613045565b60405180910390f35b34801561061557600080fd5b5061061e611065565b60405161062b9190612f47565b60405180910390f35b34801561064057600080fd5b5061065b6004803603810190610656919061336d565b6110f7565b005b34801561066957600080fd5b50610684600480360381019061067f9190613314565b61110d565b6040516106919190612e9c565b60405180910390f35b3480156106a657600080fd5b506106c160048036038101906106bc9190613462565b6111b2565b005b3480156106cf57600080fd5b506106d8611214565b6040516106e59190613501565b60405180910390f35b3480156106fa57600080fd5b5061070361122b565b6040516107109190612f86565b60405180910390f35b34801561072557600080fd5b50610740600480360381019061073b9190612fd7565b611234565b60405161074d9190612f47565b60405180910390f35b34801561076257600080fd5b5061077d60048036038101906107789190613291565b61129c565b005b34801561078b57600080fd5b506107a660048036038101906107a1919061351c565b61143d565b6040516107b39190612e9c565b60405180910390f35b6107c46114d1565b005b3480156107d257600080fd5b506107db6118f1565b6040516107e89190612f86565b60405180910390f35b3480156107fd57600080fd5b5061081860048036038101906108139190613314565b6118fa565b005b34801561082657600080fd5b5061082f61197d565b60405161083c9190613501565b60405180910390f35b60007f780e9d63000000000000000000000000000000000000000000000000000000007bffffffffffffffffffffffffffffffffffffffffffffffffffffffff1916827bffffffffffffffffffffffffffffffffffffffffffffffffffffffff191614806108b857506108b782611990565b5b9050919050565b6060600080546108ce9061358b565b80601f01602080910402602001604051908101604052809291908181526020018280546108fa9061358b565b80156109475780601f1061091c57610100808354040283529160200191610947565b820191906000526020600020905b81548152906001019060200180831161092a57829003601f168201915b5050505050905090565b6000600d60029054906101000a900461ffff16905090565b600061097482611a72565b6004600083815260200190815260200160002060009054906101000a900473ffffffffffffffffffffffffffffffffffffffff169050919050565b60006109ba82610e72565b90508073ffffffffffffffffffffffffffffffffffffffff168373ffffffffffffffffffffffffffffffffffffffff1603610a2a576040517f08c379a0000000000000000000000000000000000000000000000000000000008152600401610a219061362e565b60405180910390fd5b8073ffffffffffffffffffffffffffffffffffffffff16610a49611abd565b73ffffffffffffffffffffffffffffffffffffffff161480610a785750610a7781610a72611abd565b61143d565b5b610ab7576040517f08c379a0000000000000000000000000000000000000000000000000000000008152600401610aae906136c0565b60405180910390fd5b610ac18383611ac5565b505050565b6000600880549050905090565b610adb611b7e565b600c5442108015610afa57506103e863ffffffff16610af8610ac6565b105b15610b31576040517fb1d45db000000000000000000000000000000000000000000000000000000000815260040160405180910390fd5b610b3961103b565b73ffffffffffffffffffffffffffffffffffffffff16ff5b610b62610b5c611abd565b82611bfc565b610ba1576040517f08c379a0000000000000000000000000000000000000000000000000000000008152600401610b9890613752565b60405180910390fd5b610bac838383611c91565b505050565b6000610bbc83610f60565b8210610bfd576040517f08c379a0000000000000000000000000000000000000000000000000000000008152600401610bf4906137e4565b60405180910390fd5b600660008473ffffffffffffffffffffffffffffffffffffffff1673ffffffffffffffffffffffffffffffffffffffff168152602001908152602001600020600083815260200190815260200160002054905092915050565b6000600d60009054906101000a900461ffff16905090565b610c89838383604051806020016040528060008152506111b2565b505050565b6000600c54905090565b610ca0611b7e565b600081519050600561ffff1681600d60049054906101000a900460ff16610cc79190613833565b60ff161115610d0b576040517f08c379a0000000000000000000000000000000000000000000000000000000008152600401610d02906138b4565b60405180910390fd5b60005b8251811015610dfc57610d3a838281518110610d2d57610d2c6138d4565b5b6020026020010151610f02565b610de9576001600e6000858481518110610d5757610d566138d4565b5b602002602001015173ffffffffffffffffffffffffffffffffffffffff1673ffffffffffffffffffffffffffffffffffffffff16815260200190815260200160002060006101000a81548160ff021916908315150217905550600d600481819054906101000a900460ff1680929190610dcf90613903565b91906101000a81548160ff021916908360ff160217905550505b8080610df49061392c565b915050610d0e565b505050565b6000610e0b610ac6565b8210610e4c576040517f08c379a0000000000000000000000000000000000000000000000000000000008152600401610e43906139e6565b60405180910390fd5b60088281548110610e6057610e5f6138d4565b5b90600052602060002001549050919050565b600080610e7e83611f8a565b9050600073ffffffffffffffffffffffffffffffffffffffff168173ffffffffffffffffffffffffffffffffffffffff1603610eef576040517f08c379a0000000000000000000000000000000000000000000000000000000008152600401610ee690613a52565b60405180910390fd5b80915050919050565b60006103e8905090565b6000600e60008373ffffffffffffffffffffffffffffffffffffffff1673ffffffffffffffffffffffffffffffffffffffff16815260200190815260200160002060009054906101000a900460ff169050919050565b600047905090565b60008073ffffffffffffffffffffffffffffffffffffffff168273ffffffffffffffffffffffffffffffffffffffff1603610fd0576040517f08c379a0000000000000000000000000000000000000000000000000000000008152600401610fc790613ae4565b60405180910390fd5b600360008373ffffffffffffffffffffffffffffffffffffffff1673ffffffffffffffffffffffffffffffffffffffff168152602001908152602001600020549050919050565b61101f611b7e565b6110296000611fc7565b565b6000670de0b6b3a7640000905090565b6000600a60009054906101000a900473ffffffffffffffffffffffffffffffffffffffff16905090565b6060600180546110749061358b565b80601f01602080910402602001604051908101604052809291908181526020018280546110a09061358b565b80156110ed5780601f106110c2576101008083540402835291602001916110ed565b820191906000526020600020905b8154815290600101906020018083116110d057829003601f168201915b5050505050905090565b611109611102611abd565b838361208d565b5050565b6000600d60059054906101000a900473ffffffffffffffffffffffffffffffffffffffff1673ffffffffffffffffffffffffffffffffffffffff16634ada8fcc836040518263ffffffff1660e01b815260040161116a9190613045565b602060405180830381865afa158015611187573d6000803e3d6000fd5b505050506040513d601f19601f820116820180604052508101906111ab9190613b19565b9050919050565b6111c36111bd611abd565b83611bfc565b611202576040517f08c379a00000000000000000000000000000000000000000000000000000000081526004016111f990613752565b60405180910390fd5b61120e848484846121f9565b50505050565b6000600d60049054906101000a900460ff16905090565b60006005905090565b606061123f82611a72565b6000611249612255565b905060008151116112695760405180602001604052806000815250611294565b806112738461226c565b604051602001611284929190613b82565b6040516020818303038152906040525b915050919050565b6112a4611b7e565b600081519050600d60049054906101000a900460ff1660ff168160ff161115611302576040517f08c379a00000000000000000000000000000000000000000000000000000000081526004016112f990613bf2565b60405180910390fd5b60005b825181101561143857600e6000848381518110611325576113246138d4565b5b602002602001015173ffffffffffffffffffffffffffffffffffffffff1673ffffffffffffffffffffffffffffffffffffffff16815260200190815260200160002060009054906101000a900460ff1615611425576000600e6000858481518110611393576113926138d4565b5b602002602001015173ffffffffffffffffffffffffffffffffffffffff1673ffffffffffffffffffffffffffffffffffffffff16815260200190815260200160002060006101000a81548160ff021916908315150217905550600d600481819054906101000a900460ff168092919061140b90613c12565b91906101000a81548160ff021916908360ff160217905550505b80806114309061392c565b915050611305565b505050565b6000600560008473ffffffffffffffffffffffffffffffffffffffff1673ffffffffffffffffffffffffffffffffffffffff16815260200190815260200160002060008373ffffffffffffffffffffffffffffffffffffffff1673ffffffffffffffffffffffffffffffffffffffff16815260200190815260200160002060009054906101000a900460ff16905092915050565b600073ffffffffffffffffffffffffffffffffffffffff163373ffffffffffffffffffffffffffffffffffffffff1603611537576040517f0623993300000000000000000000000000000000000000000000000000000000815260040160405180910390fd5b670de0b6b3a76400003414611578576040517f64bf7c6400000000000000000000000000000000000000000000000000000000815260040160405180910390fd5b600c5442106115b3576040517fa4d6e94500000000000000000000000000000000000000000000000000000000815260040160405180910390fd5b6103e863ffffffff166115c4610ac6565b036115fb576040517ff8a94fc000000000000000000000000000000000000000000000000000000000815260040160405180910390fd5b600561ffff16600d60009054906101000a900461ffff1661ffff1610156116db57600e60003373ffffffffffffffffffffffffffffffffffffffff1673ffffffffffffffffffffffffffffffffffffffff16815260200190815260200160002060009054906101000a900460ff1661169f576040517f336382e000000000000000000000000000000000000000000000000000000000815260040160405180910390fd5b600d600081819054906101000a900461ffff16809291906116bf90613c3b565b91906101000a81548161ffff021916908361ffff160217905550505b600361ffff16600d60029054906101000a900461ffff1661ffff1610801561170e5750600361ffff1661170c610ac6565b105b1561187b57600d600281819054906101000a900461ffff168092919061173390613c3b565b91906101000a81548161ffff021916908361ffff16021790555050600d60059054906101000a900473ffffffffffffffffffffffffffffffffffffffff1673ffffffffffffffffffffffffffffffffffffffff1663e077a038336040518263ffffffff1660e01b81526004016117a99190613045565b6020604051808303816000875af11580156117c8573d6000803e3d6000fd5b505050506040513d601f19601f820116820180604052508101906117ec9190613b19565b50600d60059054906101000a900473ffffffffffffffffffffffffffffffffffffffff1673ffffffffffffffffffffffffffffffffffffffff166340d097c3336040518263ffffffff1660e01b81526004016118489190613045565b600060405180830381600087803b15801561186257600080fd5b505af1158015611876573d6000803e3d6000fd5b505050505b611898336001611889610ac6565b6118939190613c65565b61233a565b60016118a2610ac6565b6118ac9190613c65565b3373ffffffffffffffffffffffffffffffffffffffff167f985d112c54c7518a49841fc37640d9ded60112ea7370ca9129c8ed33c3607bc760405160405180910390a3565b60006003905090565b611902611b7e565b600073ffffffffffffffffffffffffffffffffffffffff168173ffffffffffffffffffffffffffffffffffffffff1603611971576040517f08c379a000000000000000000000000000000000000000000000000000000000815260040161196890613d0b565b60405180910390fd5b61197a81611fc7565b50565b600d60049054906101000a900460ff1681565b60007f80ac58cd000000000000000000000000000000000000000000000000000000007bffffffffffffffffffffffffffffffffffffffffffffffffffffffff1916827bffffffffffffffffffffffffffffffffffffffffffffffffffffffff19161480611a5b57507f5b5e139f000000000000000000000000000000000000000000000000000000007bffffffffffffffffffffffffffffffffffffffffffffffffffffffff1916827bffffffffffffffffffffffffffffffffffffffffffffffffffffffff1916145b80611a6b5750611a6a82612358565b5b9050919050565b611a7b816123c2565b611aba576040517f08c379a0000000000000000000000000000000000000000000000000000000008152600401611ab190613a52565b60405180910390fd5b50565b600033905090565b816004600083815260200190815260200160002060006101000a81548173ffffffffffffffffffffffffffffffffffffffff021916908373ffffffffffffffffffffffffffffffffffffffff160217905550808273ffffffffffffffffffffffffffffffffffffffff16611b3883610e72565b73ffffffffffffffffffffffffffffffffffffffff167f8c5be1e5ebec7d5bd14f71427d1e84f3dd0314c0f7b2291e5b200ac8c7c3b92560405160405180910390a45050565b611b86611abd565b73ffffffffffffffffffffffffffffffffffffffff16611ba461103b565b73ffffffffffffffffffffffffffffffffffffffff1614611bfa576040517f08c379a0000000000000000000000000000000000000000000000000000000008152600401611bf190613d77565b60405180910390fd5b565b600080611c0883610e72565b90508073ffffffffffffffffffffffffffffffffffffffff168473ffffffffffffffffffffffffffffffffffffffff161480611c4a5750611c49818561143d565b5b80611c8857508373ffffffffffffffffffffffffffffffffffffffff16611c7084610969565b73ffffffffffffffffffffffffffffffffffffffff16145b91505092915050565b8273ffffffffffffffffffffffffffffffffffffffff16611cb182610e72565b73ffffffffffffffffffffffffffffffffffffffff1614611d07576040517f08c379a0000000000000000000000000000000000000000000000000000000008152600401611cfe90613e09565b60405180910390fd5b600073ffffffffffffffffffffffffffffffffffffffff168273ffffffffffffffffffffffffffffffffffffffff1603611d76576040517f08c379a0000000000000000000000000000000000000000000000000000000008152600401611d6d90613e9b565b60405180910390fd5b611d838383836001612403565b8273ffffffffffffffffffffffffffffffffffffffff16611da382610e72565b73ffffffffffffffffffffffffffffffffffffffff1614611df9576040517f08c379a0000000000000000000000000000000000000000000000000000000008152600401611df090613e09565b60405180910390fd5b6004600082815260200190815260200160002060006101000a81549073ffffffffffffffffffffffffffffffffffffffff02191690556001600360008573ffffffffffffffffffffffffffffffffffffffff1673ffffffffffffffffffffffffffffffffffffffff168152602001908152602001600020600082825403925050819055506001600360008473ffffffffffffffffffffffffffffffffffffffff1673ffffffffffffffffffffffffffffffffffffffff16815260200190815260200160002060008282540192505081905550816002600083815260200190815260200160002060006101000a81548173ffffffffffffffffffffffffffffffffffffffff021916908373ffffffffffffffffffffffffffffffffffffffff160217905550808273ffffffffffffffffffffffffffffffffffffffff168473ffffffffffffffffffffffffffffffffffffffff167fddf252ad1be2c89b69c2b068fc378daa952ba7f163c4a11628f55a4df523b3ef60405160405180910390a4611f858383836001612561565b505050565b60006002600083815260200190815260200160002060009054906101000a900473ffffffffffffffffffffffffffffffffffffffff169050919050565b6000600a60009054906101000a900473ffffffffffffffffffffffffffffffffffffffff16905081600a60006101000a81548173ffffffffffffffffffffffffffffffffffffffff021916908373ffffffffffffffffffffffffffffffffffffffff1602179055508173ffffffffffffffffffffffffffffffffffffffff168173ffffffffffffffffffffffffffffffffffffffff167f8be0079c531659141344cd1fd0a4f28419497f9722a3daafe3b4186f6b6457e060405160405180910390a35050565b8173ffffffffffffffffffffffffffffffffffffffff168373ffffffffffffffffffffffffffffffffffffffff16036120fb576040517f08c379a00000000000000000000000000000000000000000000000000000000081526004016120f290613f07565b60405180910390fd5b80600560008573ffffffffffffffffffffffffffffffffffffffff1673ffffffffffffffffffffffffffffffffffffffff16815260200190815260200160002060008473ffffffffffffffffffffffffffffffffffffffff1673ffffffffffffffffffffffffffffffffffffffff16815260200190815260200160002060006101000a81548160ff0219169083151502179055508173ffffffffffffffffffffffffffffffffffffffff168373ffffffffffffffffffffffffffffffffffffffff167f17307eab39ab6107e8899845ad3d59bd9653f200f220920489ca2b5937696c31836040516121ec9190612e9c565b60405180910390a3505050565b612204848484611c91565b61221084848484612567565b61224f576040517f08c379a000000000000000000000000000000000000000000000000000000000815260040161224690613f99565b60405180910390fd5b50505050565b606060405180602001604052806000815250905090565b60606000600161227b846126ee565b01905060008167ffffffffffffffff81111561229a5761229961314e565b5b6040519080825280601f01601f1916602001820160405280156122cc5781602001600182028036833780820191505090505b509050600082602001820190505b60011561232f578080600190039150507f3031323334353637383961626364656600000000000000000000000000000000600a86061a8153600a858161232357612322613fb9565b5b049450600085036122da575b819350505050919050565b612354828260405180602001604052806000815250612841565b5050565b60007f01ffc9a7000000000000000000000000000000000000000000000000000000007bffffffffffffffffffffffffffffffffffffffffffffffffffffffff1916827bffffffffffffffffffffffffffffffffffffffffffffffffffffffff1916149050919050565b60008073ffffffffffffffffffffffffffffffffffffffff166123e483611f8a565b73ffffffffffffffffffffffffffffffffffffffff1614159050919050565b61240f8484848461289c565b6001811115612453576040517f08c379a000000000000000000000000000000000000000000000000000000000815260040161244a9061405a565b60405180910390fd5b6000829050600073ffffffffffffffffffffffffffffffffffffffff168573ffffffffffffffffffffffffffffffffffffffff160361249a57612495816128a2565b6124d9565b8373ffffffffffffffffffffffffffffffffffffffff168573ffffffffffffffffffffffffffffffffffffffff16146124d8576124d785826128eb565b5b5b600073ffffffffffffffffffffffffffffffffffffffff168473ffffffffffffffffffffffffffffffffffffffff160361251b5761251681612a58565b61255a565b8473ffffffffffffffffffffffffffffffffffffffff168473ffffffffffffffffffffffffffffffffffffffff1614612559576125588482612b29565b5b5b5050505050565b50505050565b60006125888473ffffffffffffffffffffffffffffffffffffffff16612ba8565b156126e1578373ffffffffffffffffffffffffffffffffffffffff1663150b7a026125b1611abd565b8786866040518563ffffffff1660e01b81526004016125d394939291906140cf565b6020604051808303816000875af192505050801561260f57506040513d601f19601f8201168201806040525081019061260c9190614130565b60015b612691573d806000811461263f576040519150601f19603f3d011682016040523d82523d6000602084013e612644565b606091505b506000815103612689576040517f08c379a000000000000000000000000000000000000000000000000000000000815260040161268090613f99565b60405180910390fd5b805181602001fd5b63150b7a0260e01b7bffffffffffffffffffffffffffffffffffffffffffffffffffffffff1916817bffffffffffffffffffffffffffffffffffffffffffffffffffffffff1916149150506126e6565b600190505b949350505050565b600080600090507a184f03e93ff9f4daa797ed6e38ed64bf6a1f010000000000000000831061274c577a184f03e93ff9f4daa797ed6e38ed64bf6a1f010000000000000000838161274257612741613fb9565b5b0492506040810190505b6d04ee2d6d415b85acef81000000008310612789576d04ee2d6d415b85acef8100000000838161277f5761277e613fb9565b5b0492506020810190505b662386f26fc1000083106127b857662386f26fc1000083816127ae576127ad613fb9565b5b0492506010810190505b6305f5e10083106127e1576305f5e10083816127d7576127d6613fb9565b5b0492506008810190505b61271083106128065761271083816127fc576127fb613fb9565b5b0492506004810190505b60648310612829576064838161281f5761281e613fb9565b5b0492506002810190505b600a8310612838576001810190505b80915050919050565b61284b8383612bcb565b6128586000848484612567565b612897576040517f08c379a000000000000000000000000000000000000000000000000000000000815260040161288e90613f99565b60405180910390fd5b505050565b50505050565b6008805490506009600083815260200190815260200160002081905550600881908060018154018082558091505060019003906000526020600020016000909190919091505550565b600060016128f884610f60565b612902919061415d565b90506000600760008481526020019081526020016000205490508181146129e7576000600660008673ffffffffffffffffffffffffffffffffffffffff1673ffffffffffffffffffffffffffffffffffffffff168152602001908152602001600020600084815260200190815260200160002054905080600660008773ffffffffffffffffffffffffffffffffffffffff1673ffffffffffffffffffffffffffffffffffffffff168152602001908152602001600020600084815260200190815260200160002081905550816007600083815260200190815260200160002081905550505b6007600084815260200190815260200160002060009055600660008573ffffffffffffffffffffffffffffffffffffffff1673ffffffffffffffffffffffffffffffffffffffff16815260200190815260200160002060008381526020019081526020016000206000905550505050565b60006001600880549050612a6c919061415d565b9050600060096000848152602001908152602001600020549050600060088381548110612a9c57612a9b6138d4565b5b906000526020600020015490508060088381548110612abe57612abd6138d4565b5b906000526020600020018190555081600960008381526020019081526020016000208190555060096000858152602001908152602001600020600090556008805480612b0d57612b0c614191565b5b6001900381819060005260206000200160009055905550505050565b6000612b3483610f60565b905081600660008573ffffffffffffffffffffffffffffffffffffffff1673ffffffffffffffffffffffffffffffffffffffff168152602001908152602001600020600083815260200190815260200160002081905550806007600084815260200190815260200160002081905550505050565b6000808273ffffffffffffffffffffffffffffffffffffffff163b119050919050565b600073ffffffffffffffffffffffffffffffffffffffff168273ffffffffffffffffffffffffffffffffffffffff1603612c3a576040517f08c379a0000000000000000000000000000000000000000000000000000000008152600401612c319061420c565b60405180910390fd5b612c43816123c2565b15612c83576040517f08c379a0000000000000000000000000000000000000000000000000000000008152600401612c7a90614278565b60405180910390fd5b612c91600083836001612403565b612c9a816123c2565b15612cda576040517f08c379a0000000000000000000000000000000000000000000000000000000008152600401612cd190614278565b60405180910390fd5b6001600360008473ffffffffffffffffffffffffffffffffffffffff1673ffffffffffffffffffffffffffffffffffffffff16815260200190815260200160002060008282540192505081905550816002600083815260200190815260200160002060006101000a81548173ffffffffffffffffffffffffffffffffffffffff021916908373ffffffffffffffffffffffffffffffffffffffff160217905550808273ffffffffffffffffffffffffffffffffffffffff16600073ffffffffffffffffffffffffffffffffffffffff167fddf252ad1be2c89b69c2b068fc378daa952ba7f163c4a11628f55a4df523b3ef60405160405180910390a4612de4600083836001612561565b5050565b6000604051905090565b600080fd5b600080fd5b60007fffffffff0000000000000000000000000000000000000000000000000000000082169050919050565b612e3181612dfc565b8114612e3c57600080fd5b50565b600081359050612e4e81612e28565b92915050565b600060208284031215612e6a57612e69612df2565b5b6000612e7884828501612e3f565b91505092915050565b60008115159050919050565b612e9681612e81565b82525050565b6000602082019050612eb16000830184612e8d565b92915050565b600081519050919050565b600082825260208201905092915050565b60005b83811015612ef1578082015181840152602081019050612ed6565b60008484015250505050565b6000601f19601f8301169050919050565b6000612f1982612eb7565b612f238185612ec2565b9350612f33818560208601612ed3565b612f3c81612efd565b840191505092915050565b60006020820190508181036000830152612f618184612f0e565b905092915050565b600061ffff82169050919050565b612f8081612f69565b82525050565b6000602082019050612f9b6000830184612f77565b92915050565b6000819050919050565b612fb481612fa1565b8114612fbf57600080fd5b50565b600081359050612fd181612fab565b92915050565b600060208284031215612fed57612fec612df2565b5b6000612ffb84828501612fc2565b91505092915050565b600073ffffffffffffffffffffffffffffffffffffffff82169050919050565b600061302f82613004565b9050919050565b61303f81613024565b82525050565b600060208201905061305a6000830184613036565b92915050565b61306981613024565b811461307457600080fd5b50565b60008135905061308681613060565b92915050565b600080604083850312156130a3576130a2612df2565b5b60006130b185828601613077565b92505060206130c285828601612fc2565b9150509250929050565b6130d581612fa1565b82525050565b60006020820190506130f060008301846130cc565b92915050565b60008060006060848603121561310f5761310e612df2565b5b600061311d86828701613077565b935050602061312e86828701613077565b925050604061313f86828701612fc2565b9150509250925092565b600080fd5b7f4e487b7100000000000000000000000000000000000000000000000000000000600052604160045260246000fd5b61318682612efd565b810181811067ffffffffffffffff821117156131a5576131a461314e565b5b80604052505050565b60006131b8612de8565b90506131c4828261317d565b919050565b600067ffffffffffffffff8211156131e4576131e361314e565b5b602082029050602081019050919050565b600080fd5b600061320d613208846131c9565b6131ae565b905080838252602082019050602084028301858111156132305761322f6131f5565b5b835b8181101561325957806132458882613077565b845260208401935050602081019050613232565b5050509392505050565b600082601f83011261327857613277613149565b5b81356132888482602086016131fa565b91505092915050565b6000602082840312156132a7576132a6612df2565b5b600082013567ffffffffffffffff8111156132c5576132c4612df7565b5b6132d184828501613263565b91505092915050565b600063ffffffff82169050919050565b6132f3816132da565b82525050565b600060208201905061330e60008301846132ea565b92915050565b60006020828403121561332a57613329612df2565b5b600061333884828501613077565b91505092915050565b61334a81612e81565b811461335557600080fd5b50565b60008135905061336781613341565b92915050565b6000806040838503121561338457613383612df2565b5b600061339285828601613077565b92505060206133a385828601613358565b9150509250929050565b600080fd5b600067ffffffffffffffff8211156133cd576133cc61314e565b5b6133d682612efd565b9050602081019050919050565b82818337600083830152505050565b6000613405613400846133b2565b6131ae565b905082815260208101848484011115613421576134206133ad565b5b61342c8482856133e3565b509392505050565b600082601f83011261344957613448613149565b5b81356134598482602086016133f2565b91505092915050565b6000806000806080858703121561347c5761347b612df2565b5b600061348a87828801613077565b945050602061349b87828801613077565b93505060406134ac87828801612fc2565b925050606085013567ffffffffffffffff8111156134cd576134cc612df7565b5b6134d987828801613434565b91505092959194509250565b600060ff82169050919050565b6134fb816134e5565b82525050565b600060208201905061351660008301846134f2565b92915050565b6000806040838503121561353357613532612df2565b5b600061354185828601613077565b925050602061355285828601613077565b9150509250929050565b7f4e487b7100000000000000000000000000000000000000000000000000000000600052602260045260246000fd5b600060028204905060018216806135a357607f821691505b6020821081036135b6576135b561355c565b5b50919050565b7f4552433732313a20617070726f76616c20746f2063757272656e74206f776e6560008201527f7200000000000000000000000000000000000000000000000000000000000000602082015250565b6000613618602183612ec2565b9150613623826135bc565b604082019050919050565b600060208201905081810360008301526136478161360b565b9050919050565b7f4552433732313a20617070726f76652063616c6c6572206973206e6f7420746f60008201527f6b656e206f776e6572206f7220617070726f76656420666f7220616c6c000000602082015250565b60006136aa603d83612ec2565b91506136b58261364e565b604082019050919050565b600060208201905081810360008301526136d98161369d565b9050919050565b7f4552433732313a2063616c6c6572206973206e6f7420746f6b656e206f776e6560008201527f72206f7220617070726f76656400000000000000000000000000000000000000602082015250565b600061373c602d83612ec2565b9150613747826136e0565b604082019050919050565b6000602082019050818103600083015261376b8161372f565b9050919050565b7f455243373231456e756d657261626c653a206f776e657220696e646578206f7560008201527f74206f6620626f756e6473000000000000000000000000000000000000000000602082015250565b60006137ce602b83612ec2565b91506137d982613772565b604082019050919050565b600060208201905081810360008301526137fd816137c1565b9050919050565b7f4e487b7100000000000000000000000000000000000000000000000000000000600052601160045260246000fd5b600061383e826134e5565b9150613849836134e5565b9250828201905060ff81111561386257613861613804565b5b92915050565b7f57686974656c69737465642048617320526561636820697473206d6178000000600082015250565b600061389e601d83612ec2565b91506138a982613868565b602082019050919050565b600060208201905081810360008301526138cd81613891565b9050919050565b7f4e487b7100000000000000000000000000000000000000000000000000000000600052603260045260246000fd5b600061390e826134e5565b915060ff820361392157613920613804565b5b600182019050919050565b600061393782612fa1565b91507fffffffffffffffffffffffffffffffffffffffffffffffffffffffffffffffff820361396957613968613804565b5b600182019050919050565b7f455243373231456e756d657261626c653a20676c6f62616c20696e646578206f60008201527f7574206f6620626f756e64730000000000000000000000000000000000000000602082015250565b60006139d0602c83612ec2565b91506139db82613974565b604082019050919050565b600060208201905081810360008301526139ff816139c3565b9050919050565b7f4552433732313a20696e76616c696420746f6b656e2049440000000000000000600082015250565b6000613a3c601883612ec2565b9150613a4782613a06565b602082019050919050565b60006020820190508181036000830152613a6b81613a2f565b9050919050565b7f4552433732313a2061646472657373207a65726f206973206e6f74206120766160008201527f6c6964206f776e65720000000000000000000000000000000000000000000000602082015250565b6000613ace602983612ec2565b9150613ad982613a72565b604082019050919050565b60006020820190508181036000830152613afd81613ac1565b9050919050565b600081519050613b1381613341565b92915050565b600060208284031215613b2f57613b2e612df2565b5b6000613b3d84828501613b04565b91505092915050565b600081905092915050565b6000613b5c82612eb7565b613b668185613b46565b9350613b76818560208601612ed3565b80840191505092915050565b6000613b8e8285613b51565b9150613b9a8284613b51565b91508190509392505050565b7f63616e206f6e6c792072656d6f76652032302061646472657373000000000000600082015250565b6000613bdc601a83612ec2565b9150613be782613ba6565b602082019050919050565b60006020820190508181036000830152613c0b81613bcf565b9050919050565b6000613c1d826134e5565b915060008203613c3057613c2f613804565b5b600182039050919050565b6000613c4682612f69565b915061ffff8203613c5a57613c59613804565b5b600182019050919050565b6000613c7082612fa1565b9150613c7b83612fa1565b9250828201905080821115613c9357613c92613804565b5b92915050565b7f4f776e61626c653a206e6577206f776e657220697320746865207a65726f206160008201527f6464726573730000000000000000000000000000000000000000000000000000602082015250565b6000613cf5602683612ec2565b9150613d0082613c99565b604082019050919050565b60006020820190508181036000830152613d2481613ce8565b9050919050565b7f4f776e61626c653a2063616c6c6572206973206e6f7420746865206f776e6572600082015250565b6000613d61602083612ec2565b9150613d6c82613d2b565b602082019050919050565b60006020820190508181036000830152613d9081613d54565b9050919050565b7f4552433732313a207472616e736665722066726f6d20696e636f72726563742060008201527f6f776e6572000000000000000000000000000000000000000000000000000000602082015250565b6000613df3602583612ec2565b9150613dfe82613d97565b604082019050919050565b60006020820190508181036000830152613e2281613de6565b9050919050565b7f4552433732313a207472616e7366657220746f20746865207a65726f2061646460008201527f7265737300000000000000000000000000000000000000000000000000000000602082015250565b6000613e85602483612ec2565b9150613e9082613e29565b604082019050919050565b60006020820190508181036000830152613eb481613e78565b9050919050565b7f4552433732313a20617070726f766520746f2063616c6c657200000000000000600082015250565b6000613ef1601983612ec2565b9150613efc82613ebb565b602082019050919050565b60006020820190508181036000830152613f2081613ee4565b9050919050565b7f4552433732313a207472616e7366657220746f206e6f6e20455243373231526560008201527f63656976657220696d706c656d656e7465720000000000000000000000000000602082015250565b6000613f83603283612ec2565b9150613f8e82613f27565b604082019050919050565b60006020820190508181036000830152613fb281613f76565b9050919050565b7f4e487b7100000000000000000000000000000000000000000000000000000000600052601260045260246000fd5b7f455243373231456e756d657261626c653a20636f6e736563757469766520747260008201527f616e7366657273206e6f7420737570706f727465640000000000000000000000602082015250565b6000614044603583612ec2565b915061404f82613fe8565b604082019050919050565b6000602082019050818103600083015261407381614037565b9050919050565b600081519050919050565b600082825260208201905092915050565b60006140a18261407a565b6140ab8185614085565b93506140bb818560208601612ed3565b6140c481612efd565b840191505092915050565b60006080820190506140e46000830187613036565b6140f16020830186613036565b6140fe60408301856130cc565b81810360608301526141108184614096565b905095945050505050565b60008151905061412a81612e28565b92915050565b60006020828403121561414657614145612df2565b5b60006141548482850161411b565b91505092915050565b600061416882612fa1565b915061417383612fa1565b925082820390508181111561418b5761418a613804565b5b92915050565b7f4e487b7100000000000000000000000000000000000000000000000000000000600052603160045260246000fd5b7f4552433732313a206d696e7420746f20746865207a65726f2061646472657373600082015250565b60006141f6602083612ec2565b9150614201826141c0565b602082019050919050565b60006020820190508181036000830152614225816141e9565b9050919050565b7f4552433732313a20746f6b656e20616c7265616479206d696e74656400000000600082015250565b6000614262601c83612ec2565b915061426d8261422c565b602082019050919050565b6000602082019050818103600083015261429181614255565b905091905056fea264697066735822122094475886210ba161ab4d11d3d12607c7746b5f078a1048cb2a5e6b8f1232aba064736f6c6343000812003360806040523480156200001157600080fd5b506040518060400160405280601181526020017f444343536f756c626f756e64546f6b656e0000000000000000000000000000008152506040518060400160405280600481526020017f244453540000000000000000000000000000000000000000000000000000000081525081600090816200008f919062000412565b508060019081620000a1919062000412565b505050620000c4620000b8620000ca60201b60201c565b620000d260201b60201c565b620004f9565b600033905090565b6000600660009054906101000a900473ffffffffffffffffffffffffffffffffffffffff16905081600660006101000a81548173ffffffffffffffffffffffffffffffffffffffff021916908373ffffffffffffffffffffffffffffffffffffffff1602179055508173ffffffffffffffffffffffffffffffffffffffff168173ffffffffffffffffffffffffffffffffffffffff167f8be0079c531659141344cd1fd0a4f28419497f9722a3daafe3b4186f6b6457e060405160405180910390a35050565b600081519050919050565b7f4e487b7100000000000000000000000000000000000000000000000000000000600052604160045260246000fd5b7f4e487b7100000000000000000000000000000000000000000000000000000000600052602260045260246000fd5b600060028204905060018216806200021a57607f821691505b60208210810362000230576200022f620001d2565b5b50919050565b60008190508160005260206000209050919050565b60006020601f8301049050919050565b600082821b905092915050565b6000600883026200029a7fffffffffffffffffffffffffffffffffffffffffffffffffffffffffffffffff826200025b565b620002a686836200025b565b95508019841693508086168417925050509392505050565b6000819050919050565b6000819050919050565b6000620002f3620002ed620002e784620002be565b620002c8565b620002be565b9050919050565b6000819050919050565b6200030f83620002d2565b620003276200031e82620002fa565b84845462000268565b825550505050565b600090565b6200033e6200032f565b6200034b81848462000304565b505050565b5b8181101562000373576200036760008262000334565b60018101905062000351565b5050565b601f821115620003c2576200038c8162000236565b62000397846200024b565b81016020851015620003a7578190505b620003bf620003b6856200024b565b83018262000350565b50505b505050565b600082821c905092915050565b6000620003e760001984600802620003c7565b1980831691505092915050565b6000620004028383620003d4565b9150826002028217905092915050565b6200041d8262000198565b67ffffffffffffffff811115620004395762000438620001a3565b5b62000445825462000201565b6200045282828562000377565b600060209050601f8311600181146200048a576000841562000475578287015190505b620004818582620003f4565b865550620004f1565b601f1984166200049a8662000236565b60005b82811015620004c4578489015182556001820191506020850194506020810190506200049d565b86831015620004e45784890151620004e0601f891682620003d4565b8355505b6001600288020188555050505b505050505050565b61216380620005096000396000f3fe608060405234801561001057600080fd5b50600436106101215760003560e01c806370a08231116100ad578063b88d4fde11610071578063b88d4fde14610306578063c87b56dd14610322578063e077a03814610352578063e985e9c514610382578063f2fde38b146103b257610121565b806370a0823114610274578063715018a6146102a45780638da5cb5b146102ae57806395d89b41146102cc578063a22cb465146102ea57610121565b806323b872dd116100f457806323b872dd146101c057806340d097c3146101dc57806342842e0e146101f85780634ada8fcc146102145780636352211e1461024457610121565b806301ffc9a71461012657806306fdde0314610156578063081812fc14610174578063095ea7b3146101a4575b600080fd5b610140600480360381019061013b919061156a565b6103ce565b60405161014d91906115b2565b60405180910390f35b61015e6104b0565b60405161016b919061165d565b60405180910390f35b61018e600480360381019061018991906116b5565b610542565b60405161019b9190611723565b60405180910390f35b6101be60048036038101906101b9919061176a565b610588565b005b6101da60048036038101906101d591906117aa565b61058c565b005b6101f660048036038101906101f191906117fd565b610591565b005b610212600480360381019061020d91906117aa565b6107aa565b005b61022e600480360381019061022991906117fd565b6107af565b60405161023b91906115b2565b60405180910390f35b61025e600480360381019061025991906116b5565b610805565b60405161026b9190611723565b60405180910390f35b61028e600480360381019061028991906117fd565b61088b565b60405161029b9190611839565b60405180910390f35b6102ac610942565b005b6102b6610956565b6040516102c39190611723565b60405180910390f35b6102d4610980565b6040516102e1919061165d565b60405180910390f35b61030460048036038101906102ff9190611880565b610a12565b005b610320600480360381019061031b91906119f5565b610a16565b005b61033c600480360381019061033791906116b5565b610a1c565b604051610349919061165d565b60405180910390f35b61036c600480360381019061036791906117fd565b610a84565b60405161037991906115b2565b60405180910390f35b61039c60048036038101906103979190611a78565b610ae4565b6040516103a991906115b2565b60405180910390f35b6103cc60048036038101906103c791906117fd565b610b78565b005b60007f80ac58cd000000000000000000000000000000000000000000000000000000007bffffffffffffffffffffffffffffffffffffffffffffffffffffffff1916827bffffffffffffffffffffffffffffffffffffffffffffffffffffffff1916148061049957507f5b5e139f000000000000000000000000000000000000000000000000000000007bffffffffffffffffffffffffffffffffffffffffffffffffffffffff1916827bffffffffffffffffffffffffffffffffffffffffffffffffffffffff1916145b806104a957506104a882610bfb565b5b9050919050565b6060600080546104bf90611ae7565b80601f01602080910402602001604051908101604052809291908181526020018280546104eb90611ae7565b80156105385780601f1061050d57610100808354040283529160200191610538565b820191906000526020600020905b81548152906001019060200180831161051b57829003601f168201915b5050505050905090565b600061054d82610c65565b6004600083815260200190815260200160002060009054906101000a900473ffffffffffffffffffffffffffffffffffffffff169050919050565b5050565b505050565b610599610cb0565b600073ffffffffffffffffffffffffffffffffffffffff168173ffffffffffffffffffffffffffffffffffffffff16036105d257600080fd5b600860008273ffffffffffffffffffffffffffffffffffffffff1673ffffffffffffffffffffffffffffffffffffffff16815260200190815260200160002060009054906101000a900460ff1661065e576040517f08c379a000000000000000000000000000000000000000000000000000000000815260040161065590611b64565b60405180910390fd5b60006106698261088b565b1180156106bb57508073ffffffffffffffffffffffffffffffffffffffff166106a3600660149054906101000a900460ff1660ff16610805565b73ffffffffffffffffffffffffffffffffffffffff16145b156106fb576040517f08c379a00000000000000000000000000000000000000000000000000000000081526004016106f290611bd0565b60405180910390fd5b6006601481819054906101000a900460ff168092919061071a90611c2c565b91906101000a81548160ff021916908360ff160217905550506001600760008373ffffffffffffffffffffffffffffffffffffffff1673ffffffffffffffffffffffffffffffffffffffff16815260200190815260200160002060006101000a81548160ff0219169083151502179055506107a781600660149054906101000a900460ff1660ff16610d2e565b50565b505050565b6000600760008373ffffffffffffffffffffffffffffffffffffffff1673ffffffffffffffffffffffffffffffffffffffff16815260200190815260200160002060009054906101000a900460ff169050919050565b60008061081183610d4c565b9050600073ffffffffffffffffffffffffffffffffffffffff168173ffffffffffffffffffffffffffffffffffffffff1603610882576040517f08c379a000000000000000000000000000000000000000000000000000000000815260040161087990611ca1565b60405180910390fd5b80915050919050565b60008073ffffffffffffffffffffffffffffffffffffffff168273ffffffffffffffffffffffffffffffffffffffff16036108fb576040517f08c379a00000000000000000000000000000000000000000000000000000000081526004016108f290611d33565b60405180910390fd5b600360008373ffffffffffffffffffffffffffffffffffffffff1673ffffffffffffffffffffffffffffffffffffffff168152602001908152602001600020549050919050565b61094a610cb0565b6109546000610d89565b565b6000600660009054906101000a900473ffffffffffffffffffffffffffffffffffffffff16905090565b60606001805461098f90611ae7565b80601f01602080910402602001604051908101604052809291908181526020018280546109bb90611ae7565b8015610a085780601f106109dd57610100808354040283529160200191610a08565b820191906000526020600020905b8154815290600101906020018083116109eb57829003601f168201915b5050505050905090565b5050565b50505050565b6060610a2782610c65565b6000610a31610e4f565b90506000815111610a515760405180602001604052806000815250610a7c565b80610a5b84610e66565b604051602001610a6c929190611d8f565b6040516020818303038152906040525b915050919050565b60006001600860008473ffffffffffffffffffffffffffffffffffffffff1673ffffffffffffffffffffffffffffffffffffffff16815260200190815260200160002060006101000a81548160ff02191690831515021790559050919050565b6000600560008473ffffffffffffffffffffffffffffffffffffffff1673ffffffffffffffffffffffffffffffffffffffff16815260200190815260200160002060008373ffffffffffffffffffffffffffffffffffffffff1673ffffffffffffffffffffffffffffffffffffffff16815260200190815260200160002060009054906101000a900460ff16905092915050565b610b80610cb0565b600073ffffffffffffffffffffffffffffffffffffffff168173ffffffffffffffffffffffffffffffffffffffff1603610bef576040517f08c379a0000000000000000000000000000000000000000000000000000000008152600401610be690611e25565b60405180910390fd5b610bf881610d89565b50565b60007f01ffc9a7000000000000000000000000000000000000000000000000000000007bffffffffffffffffffffffffffffffffffffffffffffffffffffffff1916827bffffffffffffffffffffffffffffffffffffffffffffffffffffffff1916149050919050565b610c6e81610f34565b610cad576040517f08c379a0000000000000000000000000000000000000000000000000000000008152600401610ca490611ca1565b60405180910390fd5b50565b610cb8610f75565b73ffffffffffffffffffffffffffffffffffffffff16610cd6610956565b73ffffffffffffffffffffffffffffffffffffffff1614610d2c576040517f08c379a0000000000000000000000000000000000000000000000000000000008152600401610d2390611e91565b60405180910390fd5b565b610d48828260405180602001604052806000815250610f7d565b5050565b60006002600083815260200190815260200160002060009054906101000a900473ffffffffffffffffffffffffffffffffffffffff169050919050565b6000600660009054906101000a900473ffffffffffffffffffffffffffffffffffffffff16905081600660006101000a81548173ffffffffffffffffffffffffffffffffffffffff021916908373ffffffffffffffffffffffffffffffffffffffff1602179055508173ffffffffffffffffffffffffffffffffffffffff168173ffffffffffffffffffffffffffffffffffffffff167f8be0079c531659141344cd1fd0a4f28419497f9722a3daafe3b4186f6b6457e060405160405180910390a35050565b606060405180602001604052806000815250905090565b606060006001610e7584610fd8565b01905060008167ffffffffffffffff811115610e9457610e936118ca565b5b6040519080825280601f01601f191660200182016040528015610ec65781602001600182028036833780820191505090505b509050600082602001820190505b600115610f29578080600190039150507f3031323334353637383961626364656600000000000000000000000000000000600a86061a8153600a8581610f1d57610f1c611eb1565b5b04945060008503610ed4575b819350505050919050565b60008073ffffffffffffffffffffffffffffffffffffffff16610f5683610d4c565b73ffffffffffffffffffffffffffffffffffffffff1614159050919050565b600033905090565b610f87838361112b565b610f946000848484611348565b610fd3576040517f08c379a0000000000000000000000000000000000000000000000000000000008152600401610fca90611f52565b60405180910390fd5b505050565b600080600090507a184f03e93ff9f4daa797ed6e38ed64bf6a1f0100000000000000008310611036577a184f03e93ff9f4daa797ed6e38ed64bf6a1f010000000000000000838161102c5761102b611eb1565b5b0492506040810190505b6d04ee2d6d415b85acef81000000008310611073576d04ee2d6d415b85acef8100000000838161106957611068611eb1565b5b0492506020810190505b662386f26fc1000083106110a257662386f26fc10000838161109857611097611eb1565b5b0492506010810190505b6305f5e10083106110cb576305f5e10083816110c1576110c0611eb1565b5b0492506008810190505b61271083106110f05761271083816110e6576110e5611eb1565b5b0492506004810190505b60648310611113576064838161110957611108611eb1565b5b0492506002810190505b600a8310611122576001810190505b80915050919050565b600073ffffffffffffffffffffffffffffffffffffffff168273ffffffffffffffffffffffffffffffffffffffff160361119a576040517f08c379a000000000000000000000000000000000000000000000000000000000815260040161119190611fbe565b60405180910390fd5b6111a381610f34565b156111e3576040517f08c379a00000000000000000000000000000000000000000000000000000000081526004016111da9061202a565b60405180910390fd5b6111f16000838360016114cf565b6111fa81610f34565b1561123a576040517f08c379a00000000000000000000000000000000000000000000000000000000081526004016112319061202a565b60405180910390fd5b6001600360008473ffffffffffffffffffffffffffffffffffffffff1673ffffffffffffffffffffffffffffffffffffffff16815260200190815260200160002060008282540192505081905550816002600083815260200190815260200160002060006101000a81548173ffffffffffffffffffffffffffffffffffffffff021916908373ffffffffffffffffffffffffffffffffffffffff160217905550808273ffffffffffffffffffffffffffffffffffffffff16600073ffffffffffffffffffffffffffffffffffffffff167fddf252ad1be2c89b69c2b068fc378daa952ba7f163c4a11628f55a4df523b3ef60405160405180910390a46113446000838360016114d5565b5050565b60006113698473ffffffffffffffffffffffffffffffffffffffff166114db565b156114c2578373ffffffffffffffffffffffffffffffffffffffff1663150b7a02611392610f75565b8786866040518563ffffffff1660e01b81526004016113b4949392919061209f565b6020604051808303816000875af19250505080156113f057506040513d601f19601f820116820180604052508101906113ed9190612100565b60015b611472573d8060008114611420576040519150601f19603f3d011682016040523d82523d6000602084013e611425565b606091505b50600081510361146a576040517f08c379a000000000000000000000000000000000000000000000000000000000815260040161146190611f52565b60405180910390fd5b805181602001fd5b63150b7a0260e01b7bffffffffffffffffffffffffffffffffffffffffffffffffffffffff1916817bffffffffffffffffffffffffffffffffffffffffffffffffffffffff1916149150506114c7565b600190505b949350505050565b50505050565b50505050565b6000808273ffffffffffffffffffffffffffffffffffffffff163b119050919050565b6000604051905090565b600080fd5b600080fd5b60007fffffffff0000000000000000000000000000000000000000000000000000000082169050919050565b61154781611512565b811461155257600080fd5b50565b6000813590506115648161153e565b92915050565b6000602082840312156115805761157f611508565b5b600061158e84828501611555565b91505092915050565b60008115159050919050565b6115ac81611597565b82525050565b60006020820190506115c760008301846115a3565b92915050565b600081519050919050565b600082825260208201905092915050565b60005b838110156116075780820151818401526020810190506115ec565b60008484015250505050565b6000601f19601f8301169050919050565b600061162f826115cd565b61163981856115d8565b93506116498185602086016115e9565b61165281611613565b840191505092915050565b600060208201905081810360008301526116778184611624565b905092915050565b6000819050919050565b6116928161167f565b811461169d57600080fd5b50565b6000813590506116af81611689565b92915050565b6000602082840312156116cb576116ca611508565b5b60006116d9848285016116a0565b91505092915050565b600073ffffffffffffffffffffffffffffffffffffffff82169050919050565b600061170d826116e2565b9050919050565b61171d81611702565b82525050565b60006020820190506117386000830184611714565b92915050565b61174781611702565b811461175257600080fd5b50565b6000813590506117648161173e565b92915050565b6000806040838503121561178157611780611508565b5b600061178f85828601611755565b92505060206117a0858286016116a0565b9150509250929050565b6000806000606084860312156117c3576117c2611508565b5b60006117d186828701611755565b93505060206117e286828701611755565b92505060406117f3868287016116a0565b9150509250925092565b60006020828403121561181357611812611508565b5b600061182184828501611755565b91505092915050565b6118338161167f565b82525050565b600060208201905061184e600083018461182a565b92915050565b61185d81611597565b811461186857600080fd5b50565b60008135905061187a81611854565b92915050565b6000806040838503121561189757611896611508565b5b60006118a585828601611755565b92505060206118b68582860161186b565b9150509250929050565b600080fd5b600080fd5b7f4e487b7100000000000000000000000000000000000000000000000000000000600052604160045260246000fd5b61190282611613565b810181811067ffffffffffffffff82111715611921576119206118ca565b5b80604052505050565b60006119346114fe565b905061194082826118f9565b919050565b600067ffffffffffffffff8211156119605761195f6118ca565b5b61196982611613565b9050602081019050919050565b82818337600083830152505050565b600061199861199384611945565b61192a565b9050828152602081018484840111156119b4576119b36118c5565b5b6119bf848285611976565b509392505050565b600082601f8301126119dc576119db6118c0565b5b81356119ec848260208601611985565b91505092915050565b60008060008060808587031215611a0f57611a0e611508565b5b6000611a1d87828801611755565b9450506020611a2e87828801611755565b9350506040611a3f878288016116a0565b925050606085013567ffffffffffffffff811115611a6057611a5f61150d565b5b611a6c878288016119c7565b91505092959194509250565b60008060408385031215611a8f57611a8e611508565b5b6000611a9d85828601611755565b9250506020611aae85828601611755565b9150509250929050565b7f4e487b7100000000000000000000000000000000000000000000000000000000600052602260045260246000fd5b60006002820490506001821680611aff57607f821691505b602082108103611b1257611b11611ab8565b5b50919050565b7f4163636573732044656e69656400000000000000000000000000000000000000600082015250565b6000611b4e600d836115d8565b9150611b5982611b18565b602082019050919050565b60006020820190508181036000830152611b7d81611b41565b9050919050565b7f546f6b656e2063616e6e6f74206265206d696e74656420616761696e00000000600082015250565b6000611bba601c836115d8565b9150611bc582611b84565b602082019050919050565b60006020820190508181036000830152611be981611bad565b9050919050565b7f4e487b7100000000000000000000000000000000000000000000000000000000600052601160045260246000fd5b600060ff82169050919050565b6000611c3782611c1f565b915060ff8203611c4a57611c49611bf0565b5b600182019050919050565b7f4552433732313a20696e76616c696420746f6b656e2049440000000000000000600082015250565b6000611c8b6018836115d8565b9150611c9682611c55565b602082019050919050565b60006020820190508181036000830152611cba81611c7e565b9050919050565b7f4552433732313a2061646472657373207a65726f206973206e6f74206120766160008201527f6c6964206f776e65720000000000000000000000000000000000000000000000602082015250565b6000611d1d6029836115d8565b9150611d2882611cc1565b604082019050919050565b60006020820190508181036000830152611d4c81611d10565b9050919050565b600081905092915050565b6000611d69826115cd565b611d738185611d53565b9350611d838185602086016115e9565b80840191505092915050565b6000611d9b8285611d5e565b9150611da78284611d5e565b91508190509392505050565b7f4f776e61626c653a206e6577206f776e657220697320746865207a65726f206160008201527f6464726573730000000000000000000000000000000000000000000000000000602082015250565b6000611e0f6026836115d8565b9150611e1a82611db3565b604082019050919050565b60006020820190508181036000830152611e3e81611e02565b9050919050565b7f4f776e61626c653a2063616c6c6572206973206e6f7420746865206f776e6572600082015250565b6000611e7b6020836115d8565b9150611e8682611e45565b602082019050919050565b60006020820190508181036000830152611eaa81611e6e565b9050919050565b7f4e487b7100000000000000000000000000000000000000000000000000000000600052601260045260246000fd5b7f4552433732313a207472616e7366657220746f206e6f6e20455243373231526560008201527f63656976657220696d706c656d656e7465720000000000000000000000000000602082015250565b6000611f3c6032836115d8565b9150611f4782611ee0565b604082019050919050565b60006020820190508181036000830152611f6b81611f2f565b9050919050565b7f4552433732313a206d696e7420746f20746865207a65726f2061646472657373600082015250565b6000611fa86020836115d8565b9150611fb382611f72565b602082019050919050565b60006020820190508181036000830152611fd781611f9b565b9050919050565b7f4552433732313a20746f6b656e20616c7265616479206d696e74656400000000600082015250565b6000612014601c836115d8565b915061201f82611fde565b602082019050919050565b6000602082019050818103600083015261204381612007565b9050919050565b600081519050919050565b600082825260208201905092915050565b60006120718261204a565b61207b8185612055565b935061208b8185602086016115e9565b61209481611613565b840191505092915050565b60006080820190506120b46000830187611714565b6120c16020830186611714565b6120ce604083018561182a565b81810360608301526120e08184612066565b905095945050505050565b6000815190506120fa8161153e565b92915050565b60006020828403121561211657612115611508565b5b6000612124848285016120eb565b9150509291505056fea2646970667358221220852cd6f54c9a76e8624d9c2a674f7f04a8cb532053f12c55ecb7bac39fb6eaef64736f6c63430008120033",
  "devdoc": {
    "events": {
      "Approval(address,address,uint256)": {
        "details": "Emitted when `owner` enables `approved` to manage the `tokenId` token."
      },
      "ApprovalForAll(address,address,bool)": {
        "details": "Emitted when `owner` enables or disables (`approved`) `operator` to manage all of its assets."
      },
      "Transfer(address,address,uint256)": {
        "details": "Emitted when `tokenId` token is transferred from `from` to `to`."
      }
    },
    "kind": "dev",
    "methods": {
      "approve(address,uint256)": {
        "details": "See {IERC721-approve}."
      },
      "balanceOf(address)": {
        "details": "See {IERC721-balanceOf}."
      },
      "buyTicket()": {
        "details": "This function is used to buy tickets for a Drake concert"
      },
      "constructor": {
        "params": {
          "_startTime": "set the start time of the ticket sale"
        }
      },
      "getApproved(uint256)": {
        "details": "See {IERC721-getApproved}."
      },
      "getEndTime()": {
        "details": "returns the end time of purchase"
      },
      "getMaxSoulNBoundCounter()": {
        "details": "returns the count of each soulbount received"
      },
      "getMaxSoulNBoundTicket()": {
        "details": "returns the Maximum of soulbounds"
      },
      "getMaxTicketAmount()": {
        "details": "returns the maximum amount of ticket that can be purchased"
      },
      "getPreSaleCounter()": {
        "details": "returns the count of each presale acquired"
      },
      "getPresaleMaxAmount()": {
        "details": "returns the maximum presale ticket sale"
      },
      "getTicketPrice()": {
        "details": "returns the amount of ticket price"
      },
      "getWhiteListedCount()": {
        "details": "returns all whitelisted addresses"
      },
      "isApprovedForAll(address,address)": {
        "details": "See {IERC721-isApprovedForAll}."
      },
      "isWhiteListed(address)": {
        "details": "checks if an address is whitelisted or not",
        "params": {
          "_address": "address to be checked"
        }
      },
      "killContract()": {
        "details": "kills the contract purchase are done, and transfer the remaining balance to the contract owner"
      },
      "name()": {
        "details": "See {IERC721Metadata-name}."
      },
      "owner()": {
        "details": "Returns the address of the current owner."
      },
      "ownerOf(uint256)": {
        "details": "See {IERC721-ownerOf}."
      },
      "removeWhiteListedAddress(address[])": {
        "details": "Removes Whitelisted Addresses",
        "params": {
          "addresses": "Addresses to be removed from the whitelist"
        }
      },
      "renounceOwnership()": {
        "details": "Leaves the contract without owner. It will not be possible to call `onlyOwner` functions anymore. Can only be called by the current owner. NOTE: Renouncing ownership will leave the contract without an owner, thereby removing any functionality that is only available to the owner."
      },
      "safeTransferFrom(address,address,uint256)": {
        "details": "See {IERC721-safeTransferFrom}."
      },
      "safeTransferFrom(address,address,uint256,bytes)": {
        "details": "See {IERC721-safeTransferFrom}."
      },
      "setApprovalForAll(address,bool)": {
        "details": "See {IERC721-setApprovalForAll}."
      },
      "supportsInterface(bytes4)": {
        "details": "See {IERC165-supportsInterface}."
      },
      "symbol()": {
        "details": "See {IERC721Metadata-symbol}."
      },
      "tokenByIndex(uint256)": {
        "details": "See {IERC721Enumerable-tokenByIndex}."
      },
      "tokenOfOwnerByIndex(address,uint256)": {
        "details": "See {IERC721Enumerable-tokenOfOwnerByIndex}."
      },
      "tokenURI(uint256)": {
        "details": "See {IERC721Metadata-tokenURI}."
      },
      "totalSupply()": {
        "details": "See {IERC721Enumerable-totalSupply}."
      },
      "transferFrom(address,address,uint256)": {
        "details": "See {IERC721-transferFrom}."
      },
      "transferOwnership(address)": {
        "details": "Transfers ownership of the contract to a new account (`newOwner`). Can only be called by the current owner."
      },
      "whiteListAddress(address[])": {
        "details": "Whitelist Addresses for presale",
        "params": {
          "addresses": "Addresses to be whitelisted for Pre-sale"
        }
      }
    },
    "version": 1
  },
  "userdoc": {
    "kind": "user",
    "methods": {},
    "version": 1
  },
  "storageLayout": {
    "storage": [
      {
        "astId": 138,
        "contract": "contracts/DrakeConcertContract.sol:DrakeConcertContract",
        "label": "_name",
        "offset": 0,
        "slot": "0",
        "type": "t_string_storage"
      },
      {
        "astId": 140,
        "contract": "contracts/DrakeConcertContract.sol:DrakeConcertContract",
        "label": "_symbol",
        "offset": 0,
        "slot": "1",
        "type": "t_string_storage"
      },
      {
        "astId": 144,
        "contract": "contracts/DrakeConcertContract.sol:DrakeConcertContract",
        "label": "_owners",
        "offset": 0,
        "slot": "2",
        "type": "t_mapping(t_uint256,t_address)"
      },
      {
        "astId": 148,
        "contract": "contracts/DrakeConcertContract.sol:DrakeConcertContract",
        "label": "_balances",
        "offset": 0,
        "slot": "3",
        "type": "t_mapping(t_address,t_uint256)"
      },
      {
        "astId": 152,
        "contract": "contracts/DrakeConcertContract.sol:DrakeConcertContract",
        "label": "_tokenApprovals",
        "offset": 0,
        "slot": "4",
        "type": "t_mapping(t_uint256,t_address)"
      },
      {
        "astId": 158,
        "contract": "contracts/DrakeConcertContract.sol:DrakeConcertContract",
        "label": "_operatorApprovals",
        "offset": 0,
        "slot": "5",
        "type": "t_mapping(t_address,t_mapping(t_address,t_bool))"
      },
      {
        "astId": 1188,
        "contract": "contracts/DrakeConcertContract.sol:DrakeConcertContract",
        "label": "_ownedTokens",
        "offset": 0,
        "slot": "6",
        "type": "t_mapping(t_address,t_mapping(t_uint256,t_uint256))"
      },
      {
        "astId": 1192,
        "contract": "contracts/DrakeConcertContract.sol:DrakeConcertContract",
        "label": "_ownedTokensIndex",
        "offset": 0,
        "slot": "7",
        "type": "t_mapping(t_uint256,t_uint256)"
      },
      {
        "astId": 1195,
        "contract": "contracts/DrakeConcertContract.sol:DrakeConcertContract",
        "label": "_allTokens",
        "offset": 0,
        "slot": "8",
        "type": "t_array(t_uint256)dyn_storage"
      },
      {
        "astId": 1199,
        "contract": "contracts/DrakeConcertContract.sol:DrakeConcertContract",
        "label": "_allTokensIndex",
        "offset": 0,
        "slot": "9",
        "type": "t_mapping(t_uint256,t_uint256)"
      },
      {
        "astId": 7,
        "contract": "contracts/DrakeConcertContract.sol:DrakeConcertContract",
        "label": "_owner",
        "offset": 0,
        "slot": "10",
        "type": "t_address"
      },
      {
        "astId": 3040,
        "contract": "contracts/DrakeConcertContract.sol:DrakeConcertContract",
        "label": "startTime",
        "offset": 0,
        "slot": "11",
        "type": "t_uint256"
      },
      {
        "astId": 3042,
        "contract": "contracts/DrakeConcertContract.sol:DrakeConcertContract",
        "label": "endTime",
        "offset": 0,
        "slot": "12",
        "type": "t_uint256"
      },
      {
        "astId": 3050,
        "contract": "contracts/DrakeConcertContract.sol:DrakeConcertContract",
        "label": "preSaleCount",
        "offset": 0,
        "slot": "13",
        "type": "t_uint16"
      },
      {
        "astId": 3055,
        "contract": "contracts/DrakeConcertContract.sol:DrakeConcertContract",
        "label": "soulboundCount",
        "offset": 2,
        "slot": "13",
        "type": "t_uint16"
      },
      {
        "astId": 3060,
        "contract": "contracts/DrakeConcertContract.sol:DrakeConcertContract",
        "label": "whiteListedCounter",
        "offset": 4,
        "slot": "13",
        "type": "t_uint8"
      },
      {
        "astId": 3063,
        "contract": "contracts/DrakeConcertContract.sol:DrakeConcertContract",
        "label": "sContract",
        "offset": 5,
        "slot": "13",
        "type": "t_contract(SoulboundToken)3630"
      },
      {
        "astId": 3067,
        "contract": "contracts/DrakeConcertContract.sol:DrakeConcertContract",
        "label": "whiteListed",
        "offset": 0,
        "slot": "14",
        "type": "t_mapping(t_address,t_bool)"
      }
    ],
    "types": {
      "t_address": {
        "encoding": "inplace",
        "label": "address",
        "numberOfBytes": "20"
      },
      "t_array(t_uint256)dyn_storage": {
        "base": "t_uint256",
        "encoding": "dynamic_array",
        "label": "uint256[]",
        "numberOfBytes": "32"
      },
      "t_bool": {
        "encoding": "inplace",
        "label": "bool",
        "numberOfBytes": "1"
      },
      "t_contract(SoulboundToken)3630": {
        "encoding": "inplace",
        "label": "contract SoulboundToken",
        "numberOfBytes": "20"
      },
      "t_mapping(t_address,t_bool)": {
        "encoding": "mapping",
        "key": "t_address",
        "label": "mapping(address => bool)",
        "numberOfBytes": "32",
        "value": "t_bool"
      },
      "t_mapping(t_address,t_mapping(t_address,t_bool))": {
        "encoding": "mapping",
        "key": "t_address",
        "label": "mapping(address => mapping(address => bool))",
        "numberOfBytes": "32",
        "value": "t_mapping(t_address,t_bool)"
      },
      "t_mapping(t_address,t_mapping(t_uint256,t_uint256))": {
        "encoding": "mapping",
        "key": "t_address",
        "label": "mapping(address => mapping(uint256 => uint256))",
        "numberOfBytes": "32",
        "value": "t_mapping(t_uint256,t_uint256)"
      },
      "t_mapping(t_address,t_uint256)": {
        "encoding": "mapping",
        "key": "t_address",
        "label": "mapping(address => uint256)",
        "numberOfBytes": "32",
        "value": "t_uint256"
      },
      "t_mapping(t_uint256,t_address)": {
        "encoding": "mapping",
        "key": "t_uint256",
        "label": "mapping(uint256 => address)",
        "numberOfBytes": "32",
        "value": "t_address"
      },
      "t_mapping(t_uint256,t_uint256)": {
        "encoding": "mapping",
        "key": "t_uint256",
        "label": "mapping(uint256 => uint256)",
        "numberOfBytes": "32",
        "value": "t_uint256"
      },
      "t_string_storage": {
        "encoding": "bytes",
        "label": "string",
        "numberOfBytes": "32"
      },
      "t_uint16": {
        "encoding": "inplace",
        "label": "uint16",
        "numberOfBytes": "2"
      },
      "t_uint256": {
        "encoding": "inplace",
        "label": "uint256",
        "numberOfBytes": "32"
      },
      "t_uint8": {
        "encoding": "inplace",
        "label": "uint8",
        "numberOfBytes": "1"
      }
    }
  }
}