{
  "address": "0xe7f1725E7734CE288F8367e1Bb143E90bb3F0512",
  "abi": [
    {
      "inputs": [
        {
          "internalType": "uint256",
          "name": "_startTime",
          "type": "uint256"
        }
      ],
      "stateMutability": "nonpayable",
      "type": "constructor"
    },
    {
      "inputs": [],
      "name": "DrakeConcertContract_addrCannotBeZeroAddress",
      "type": "error"
    },
    {
      "inputs": [],
      "name": "DrakeConcertContract_inAccuratePrice",
      "type": "error"
    },
    {
      "inputs": [],
      "name": "DrakeConcertContract_notWhiteListed",
      "type": "error"
    },
    {
      "inputs": [],
      "name": "DrakeConcertContract_saleHasNotEnded",
      "type": "error"
    },
    {
      "inputs": [],
      "name": "DrakeConcertContract_saleHasNotStarted",
      "type": "error"
    },
    {
      "inputs": [],
      "name": "DrakeConcertContract_salesHasEnded",
      "type": "error"
    },
    {
      "anonymous": false,
      "inputs": [
        {
          "indexed": true,
          "internalType": "address",
          "name": "owner",
          "type": "address"
        },
        {
          "indexed": true,
          "internalType": "address",
          "name": "approved",
          "type": "address"
        },
        {
          "indexed": true,
          "internalType": "uint256",
          "name": "tokenId",
          "type": "uint256"
        }
      ],
      "name": "Approval",
      "type": "event"
    },
    {
      "anonymous": false,
      "inputs": [
        {
          "indexed": true,
          "internalType": "address",
          "name": "owner",
          "type": "address"
        },
        {
          "indexed": true,
          "internalType": "address",
          "name": "operator",
          "type": "address"
        },
        {
          "indexed": false,
          "internalType": "bool",
          "name": "approved",
          "type": "bool"
        }
      ],
      "name": "ApprovalForAll",
      "type": "event"
    },
    {
      "anonymous": false,
      "inputs": [
        {
          "indexed": true,
          "internalType": "address",
          "name": "previousOwner",
          "type": "address"
        },
        {
          "indexed": true,
          "internalType": "address",
          "name": "newOwner",
          "type": "address"
        }
      ],
      "name": "OwnershipTransferred",
      "type": "event"
    },
    {
      "anonymous": false,
      "inputs": [
        {
          "indexed": true,
          "internalType": "address",
          "name": "buyersAddress",
          "type": "address"
        },
        {
          "indexed": true,
          "internalType": "uint256",
          "name": "ticketId",
          "type": "uint256"
        }
      ],
      "name": "SoulboundTicket",
      "type": "event"
    },
    {
      "anonymous": false,
      "inputs": [
        {
          "indexed": true,
          "internalType": "address",
          "name": "buyersAddress",
          "type": "address"
        },
        {
          "indexed": true,
          "internalType": "uint256",
          "name": "ticketId",
          "type": "uint256"
        }
      ],
      "name": "TicketBought",
      "type": "event"
    },
    {
      "anonymous": false,
      "inputs": [
        {
          "indexed": true,
          "internalType": "address",
          "name": "from",
          "type": "address"
        },
        {
          "indexed": true,
          "internalType": "address",
          "name": "to",
          "type": "address"
        },
        {
          "indexed": true,
          "internalType": "uint256",
          "name": "tokenId",
          "type": "uint256"
        }
      ],
      "name": "Transfer",
      "type": "event"
    },
    {
      "inputs": [
        {
          "internalType": "address",
          "name": "to",
          "type": "address"
        },
        {
          "internalType": "uint256",
          "name": "tokenId",
          "type": "uint256"
        }
      ],
      "name": "approve",
      "outputs": [],
      "stateMutability": "nonpayable",
      "type": "function"
    },
    {
      "inputs": [
        {
          "internalType": "address",
          "name": "owner",
          "type": "address"
        }
      ],
      "name": "balanceOf",
      "outputs": [
        {
          "internalType": "uint256",
          "name": "",
          "type": "uint256"
        }
      ],
      "stateMutability": "view",
      "type": "function"
    },
    {
      "inputs": [],
      "name": "buyTicket",
      "outputs": [],
      "stateMutability": "payable",
      "type": "function"
    },
    {
      "inputs": [
        {
          "internalType": "uint256",
          "name": "tokenId",
          "type": "uint256"
        }
      ],
      "name": "getApproved",
      "outputs": [
        {
          "internalType": "address",
          "name": "",
          "type": "address"
        }
      ],
      "stateMutability": "view",
      "type": "function"
    },
    {
      "inputs": [],
      "name": "getContractBalance",
      "outputs": [
        {
          "internalType": "uint256",
          "name": "",
          "type": "uint256"
        }
      ],
      "stateMutability": "view",
      "type": "function"
    },
    {
      "inputs": [],
      "name": "getContractOwner",
      "outputs": [
        {
          "internalType": "address",
          "name": "",
          "type": "address"
        }
      ],
      "stateMutability": "view",
      "type": "function"
    },
    {
      "inputs": [],
      "name": "getEndTime",
      "outputs": [
        {
          "internalType": "uint256",
          "name": "",
          "type": "uint256"
        }
      ],
      "stateMutability": "view",
      "type": "function"
    },
    {
      "inputs": [],
      "name": "getMaxSoulNBoundCounter",
      "outputs": [
        {
          "internalType": "uint16",
          "name": "",
          "type": "uint16"
        }
      ],
      "stateMutability": "view",
      "type": "function"
    },
    {
      "inputs": [],
      "name": "getMaxSoulNBoundTicket",
      "outputs": [
        {
          "internalType": "uint16",
          "name": "",
          "type": "uint16"
        }
      ],
      "stateMutability": "pure",
      "type": "function"
    },
    {
      "inputs": [],
      "name": "getMaxTicketAmount",
      "outputs": [
        {
          "internalType": "uint32",
          "name": "",
          "type": "uint32"
        }
      ],
      "stateMutability": "pure",
      "type": "function"
    },
    {
      "inputs": [],
      "name": "getPreSaleCounter",
      "outputs": [
        {
          "internalType": "uint16",
          "name": "",
          "type": "uint16"
        }
      ],
      "stateMutability": "view",
      "type": "function"
    },
    {
      "inputs": [],
      "name": "getPresaleMaxAmount",
      "outputs": [
        {
          "internalType": "uint16",
          "name": "",
          "type": "uint16"
        }
      ],
      "stateMutability": "pure",
      "type": "function"
    },
    {
      "inputs": [],
      "name": "getTicketPrice",
      "outputs": [
        {
          "internalType": "uint256",
          "name": "",
          "type": "uint256"
        }
      ],
      "stateMutability": "pure",
      "type": "function"
    },
    {
      "inputs": [],
      "name": "getWhiteListedCount",
      "outputs": [
        {
          "internalType": "uint8",
          "name": "",
          "type": "uint8"
        }
      ],
      "stateMutability": "view",
      "type": "function"
    },
    {
      "inputs": [
        {
          "internalType": "address",
          "name": "owner",
          "type": "address"
        }
      ],
      "name": "hasSoulBoundToken",
      "outputs": [
        {
          "internalType": "bool",
          "name": "",
          "type": "bool"
        }
      ],
      "stateMutability": "view",
      "type": "function"
    },
    {
      "inputs": [
        {
          "internalType": "address",
          "name": "owner",
          "type": "address"
        },
        {
          "internalType": "address",
          "name": "operator",
          "type": "address"
        }
      ],
      "name": "isApprovedForAll",
      "outputs": [
        {
          "internalType": "bool",
          "name": "",
          "type": "bool"
        }
      ],
      "stateMutability": "view",
      "type": "function"
    },
    {
      "inputs": [
        {
          "internalType": "address",
          "name": "_address",
          "type": "address"
        }
      ],
      "name": "isWhiteListed",
      "outputs": [
        {
          "internalType": "bool",
          "name": "",
          "type": "bool"
        }
      ],
      "stateMutability": "view",
      "type": "function"
    },
    {
      "inputs": [],
      "name": "killContract",
      "outputs": [],
      "stateMutability": "nonpayable",
      "type": "function"
    },
    {
      "inputs": [],
      "name": "name",
      "outputs": [
        {
          "internalType": "string",
          "name": "",
          "type": "string"
        }
      ],
      "stateMutability": "view",
      "type": "function"
    },
    {
      "inputs": [],
      "name": "owner",
      "outputs": [
        {
          "internalType": "address",
          "name": "",
          "type": "address"
        }
      ],
      "stateMutability": "view",
      "type": "function"
    },
    {
      "inputs": [
        {
          "internalType": "uint256",
          "name": "tokenId",
          "type": "uint256"
        }
      ],
      "name": "ownerOf",
      "outputs": [
        {
          "internalType": "address",
          "name": "",
          "type": "address"
        }
      ],
      "stateMutability": "view",
      "type": "function"
    },
    {
      "inputs": [
        {
          "internalType": "address[]",
          "name": "addresses",
          "type": "address[]"
        }
      ],
      "name": "removeWhiteListedAddress",
      "outputs": [],
      "stateMutability": "nonpayable",
      "type": "function"
    },
    {
      "inputs": [],
      "name": "renounceOwnership",
      "outputs": [],
      "stateMutability": "nonpayable",
      "type": "function"
    },
    {
      "inputs": [
        {
          "internalType": "address",
          "name": "from",
          "type": "address"
        },
        {
          "internalType": "address",
          "name": "to",
          "type": "address"
        },
        {
          "internalType": "uint256",
          "name": "tokenId",
          "type": "uint256"
        }
      ],
      "name": "safeTransferFrom",
      "outputs": [],
      "stateMutability": "nonpayable",
      "type": "function"
    },
    {
      "inputs": [
        {
          "internalType": "address",
          "name": "from",
          "type": "address"
        },
        {
          "internalType": "address",
          "name": "to",
          "type": "address"
        },
        {
          "internalType": "uint256",
          "name": "tokenId",
          "type": "uint256"
        },
        {
          "internalType": "bytes",
          "name": "data",
          "type": "bytes"
        }
      ],
      "name": "safeTransferFrom",
      "outputs": [],
      "stateMutability": "nonpayable",
      "type": "function"
    },
    {
      "inputs": [
        {
          "internalType": "address",
          "name": "operator",
          "type": "address"
        },
        {
          "internalType": "bool",
          "name": "approved",
          "type": "bool"
        }
      ],
      "name": "setApprovalForAll",
      "outputs": [],
      "stateMutability": "nonpayable",
      "type": "function"
    },
    {
      "inputs": [
        {
          "internalType": "bytes4",
          "name": "interfaceId",
          "type": "bytes4"
        }
      ],
      "name": "supportsInterface",
      "outputs": [
        {
          "internalType": "bool",
          "name": "",
          "type": "bool"
        }
      ],
      "stateMutability": "view",
      "type": "function"
    },
    {
      "inputs": [],
      "name": "symbol",
      "outputs": [
        {
          "internalType": "string",
          "name": "",
          "type": "string"
        }
      ],
      "stateMutability": "view",
      "type": "function"
    },
    {
      "inputs": [
        {
          "internalType": "uint256",
          "name": "index",
          "type": "uint256"
        }
      ],
      "name": "tokenByIndex",
      "outputs": [
        {
          "internalType": "uint256",
          "name": "",
          "type": "uint256"
        }
      ],
      "stateMutability": "view",
      "type": "function"
    },
    {
      "inputs": [
        {
          "internalType": "address",
          "name": "owner",
          "type": "address"
        },
        {
          "internalType": "uint256",
          "name": "index",
          "type": "uint256"
        }
      ],
      "name": "tokenOfOwnerByIndex",
      "outputs": [
        {
          "internalType": "uint256",
          "name": "",
          "type": "uint256"
        }
      ],
      "stateMutability": "view",
      "type": "function"
    },
    {
      "inputs": [
        {
          "internalType": "uint256",
          "name": "tokenId",
          "type": "uint256"
        }
      ],
      "name": "tokenURI",
      "outputs": [
        {
          "internalType": "string",
          "name": "",
          "type": "string"
        }
      ],
      "stateMutability": "view",
      "type": "function"
    },
    {
      "inputs": [],
      "name": "totalSupply",
      "outputs": [
        {
          "internalType": "uint256",
          "name": "",
          "type": "uint256"
        }
      ],
      "stateMutability": "view",
      "type": "function"
    },
    {
      "inputs": [
        {
          "internalType": "address",
          "name": "from",
          "type": "address"
        },
        {
          "internalType": "address",
          "name": "to",
          "type": "address"
        },
        {
          "internalType": "uint256",
          "name": "tokenId",
          "type": "uint256"
        }
      ],
      "name": "transferFrom",
      "outputs": [],
      "stateMutability": "nonpayable",
      "type": "function"
    },
    {
      "inputs": [
        {
          "internalType": "address",
          "name": "newOwner",
          "type": "address"
        }
      ],
      "name": "transferOwnership",
      "outputs": [],
      "stateMutability": "nonpayable",
      "type": "function"
    },
    {
      "inputs": [
        {
          "internalType": "address[]",
          "name": "addresses",
          "type": "address[]"
        }
      ],
      "name": "whiteListAddress",
      "outputs": [],
      "stateMutability": "nonpayable",
      "type": "function"
    },
    {
      "inputs": [],
      "name": "whiteListedCounter",
      "outputs": [
        {
          "internalType": "uint8",
          "name": "",
          "type": "uint8"
        }
      ],
      "stateMutability": "view",
      "type": "function"
    }
  ],
  "transactionHash": "0x64c21a0994f51c5c3b3707bdbf05d3377866a351f4aacbe128fd0b76596a4496",
  "args": [
    1684245824
  ],
  "numDeployments": 1,
  "solcInputHash": "9bd59ff53479dc584e5e00783057ffa5",
  "bytecode": "0x60806040523480156200001157600080fd5b5060405162007074380380620070748339818101604052810190620000379190620002d7565b6040518060400160405280601481526020017f4472616b65436f6e63657274436f6e74726163740000000000000000000000008152506040518060400160405280600481526020017f24444343000000000000000000000000000000000000000000000000000000008152508160009081620000b4919062000579565b508060019081620000c6919062000579565b505050620000e9620000dd620001bb60201b60201c565b620001c360201b60201c565b33600b60006101000a81548173ffffffffffffffffffffffffffffffffffffffff021916908373ffffffffffffffffffffffffffffffffffffffff160217905550604051620001389062000289565b604051809103906000f08015801562000155573d6000803e3d6000fd5b50600e60056101000a81548173ffffffffffffffffffffffffffffffffffffffff021916908373ffffffffffffffffffffffffffffffffffffffff16021790555080600c81905550620d2f0081620001ae91906200068f565b600d8190555050620006ca565b600033905090565b6000600a60009054906101000a900473ffffffffffffffffffffffffffffffffffffffff16905081600a60006101000a81548173ffffffffffffffffffffffffffffffffffffffff021916908373ffffffffffffffffffffffffffffffffffffffff1602179055508173ffffffffffffffffffffffffffffffffffffffff168173ffffffffffffffffffffffffffffffffffffffff167f8be0079c531659141344cd1fd0a4f28419497f9722a3daafe3b4186f6b6457e060405160405180910390a35050565b61266c8062004a0883390190565b600080fd5b6000819050919050565b620002b1816200029c565b8114620002bd57600080fd5b50565b600081519050620002d181620002a6565b92915050565b600060208284031215620002f057620002ef62000297565b5b60006200030084828501620002c0565b91505092915050565b600081519050919050565b7f4e487b7100000000000000000000000000000000000000000000000000000000600052604160045260246000fd5b7f4e487b7100000000000000000000000000000000000000000000000000000000600052602260045260246000fd5b600060028204905060018216806200038b57607f821691505b602082108103620003a157620003a062000343565b5b50919050565b60008190508160005260206000209050919050565b60006020601f8301049050919050565b600082821b905092915050565b6000600883026200040b7fffffffffffffffffffffffffffffffffffffffffffffffffffffffffffffffff82620003cc565b620004178683620003cc565b95508019841693508086168417925050509392505050565b6000819050919050565b60006200045a620004546200044e846200029c565b6200042f565b6200029c565b9050919050565b6000819050919050565b620004768362000439565b6200048e620004858262000461565b848454620003d9565b825550505050565b600090565b620004a562000496565b620004b28184846200046b565b505050565b5b81811015620004da57620004ce6000826200049b565b600181019050620004b8565b5050565b601f8211156200052957620004f381620003a7565b620004fe84620003bc565b810160208510156200050e578190505b620005266200051d85620003bc565b830182620004b7565b50505b505050565b600082821c905092915050565b60006200054e600019846008026200052e565b1980831691505092915050565b60006200056983836200053b565b9150826002028217905092915050565b620005848262000309565b67ffffffffffffffff811115620005a0576200059f62000314565b5b620005ac825462000372565b620005b9828285620004de565b600060209050601f831160018114620005f15760008415620005dc578287015190505b620005e885826200055b565b86555062000658565b601f1984166200060186620003a7565b60005b828110156200062b5784890151825560018201915060208501945060208101905062000604565b868310156200064b578489015162000647601f8916826200053b565b8355505b6001600288020188555050505b505050505050565b7f4e487b7100000000000000000000000000000000000000000000000000000000600052601160045260246000fd5b60006200069c826200029c565b9150620006a9836200029c565b9250828201905080821115620006c457620006c362000660565b5b92915050565b61432e80620006da6000396000f3fe60806040526004361061020f5760003560e01c80636f9fb98a11610118578063c08c096b116100a0578063e985e9c51161006f578063e985e9c5146107b5578063edca914c146107f2578063f1a489e2146107fc578063f2fde38b14610827578063f64cf50d146108505761020f565b8063c08c096b146106f9578063c338968714610724578063c87b56dd1461074f578063ce05bd0b1461078c5761020f565b80638da5cb5b116100e75780638da5cb5b1461061457806395d89b411461063f578063a22cb4651461066a578063a557d3bc14610693578063b88d4fde146106d05761020f565b80636f9fb98a1461056a57806370a0823114610595578063715018a6146105d257806387bb7ae0146105e95761020f565b8063409eb08e1161019b5780634e41cfdb1161016a5780634e41cfdb1461045f5780634f6ccce7146104885780636352211e146104c5578063635a881c146105025780636f9170f61461052d5761020f565b8063409eb08e146103b557806342842e0e146103e0578063439f5ac214610409578063442890d5146104345761020f565b8063095ea7b3116101e2578063095ea7b3146102e457806318160ddd1461030d5780631c02708d1461033857806323b872dd1461034f5780632f745c59146103785761020f565b806301ffc9a71461021457806306fdde03146102515780630743f9671461027c578063081812fc146102a7575b600080fd5b34801561022057600080fd5b5061023b60048036038101906102369190612eb4565b61087b565b6040516102489190612efc565b60405180910390f35b34801561025d57600080fd5b506102666108f5565b6040516102739190612fa7565b60405180910390f35b34801561028857600080fd5b50610291610987565b60405161029e9190612fe6565b60405180910390f35b3480156102b357600080fd5b506102ce60048036038101906102c99190613037565b61099f565b6040516102db91906130a5565b60405180910390f35b3480156102f057600080fd5b5061030b600480360381019061030691906130ec565b6109e5565b005b34801561031957600080fd5b50610322610afc565b60405161032f919061313b565b60405180910390f35b34801561034457600080fd5b5061034d610b09565b005b34801561035b57600080fd5b5061037660048036038101906103719190613156565b610b87565b005b34801561038457600080fd5b5061039f600480360381019061039a91906130ec565b610be7565b6040516103ac919061313b565b60405180910390f35b3480156103c157600080fd5b506103ca610c8c565b6040516103d79190612fe6565b60405180910390f35b3480156103ec57600080fd5b5061040760048036038101906104029190613156565b610ca4565b005b34801561041557600080fd5b5061041e610cc4565b60405161042b919061313b565b60405180910390f35b34801561044057600080fd5b50610449610cce565b60405161045691906130a5565b60405180910390f35b34801561046b57600080fd5b50610486600480360381019061048191906132f1565b610cf8565b005b34801561049457600080fd5b506104af60048036038101906104aa9190613037565b610e61565b6040516104bc919061313b565b60405180910390f35b3480156104d157600080fd5b506104ec60048036038101906104e79190613037565b610ed2565b6040516104f991906130a5565b60405180910390f35b34801561050e57600080fd5b50610517610f58565b6040516105249190613359565b60405180910390f35b34801561053957600080fd5b50610554600480360381019061054f9190613374565b610f62565b6040516105619190612efc565b60405180910390f35b34801561057657600080fd5b5061057f610fb8565b60405161058c919061313b565b60405180910390f35b3480156105a157600080fd5b506105bc60048036038101906105b79190613374565b610fc0565b6040516105c9919061313b565b60405180910390f35b3480156105de57600080fd5b506105e7611077565b005b3480156105f557600080fd5b506105fe61108b565b60405161060b919061313b565b60405180910390f35b34801561062057600080fd5b5061062961109b565b60405161063691906130a5565b60405180910390f35b34801561064b57600080fd5b506106546110c5565b6040516106619190612fa7565b60405180910390f35b34801561067657600080fd5b50610691600480360381019061068c91906133cd565b611157565b005b34801561069f57600080fd5b506106ba60048036038101906106b59190613374565b61116d565b6040516106c79190612efc565b60405180910390f35b3480156106dc57600080fd5b506106f760048036038101906106f291906134c2565b611212565b005b34801561070557600080fd5b5061070e611274565b60405161071b9190613561565b60405180910390f35b34801561073057600080fd5b5061073961128b565b6040516107469190612fe6565b60405180910390f35b34801561075b57600080fd5b5061077660048036038101906107719190613037565b611294565b6040516107839190612fa7565b60405180910390f35b34801561079857600080fd5b506107b360048036038101906107ae91906132f1565b6112fc565b005b3480156107c157600080fd5b506107dc60048036038101906107d7919061357c565b61149d565b6040516107e99190612efc565b60405180910390f35b6107fa611531565b005b34801561080857600080fd5b50610811611951565b60405161081e9190612fe6565b60405180910390f35b34801561083357600080fd5b5061084e60048036038101906108499190613374565b61195a565b005b34801561085c57600080fd5b506108656119dd565b6040516108729190613561565b60405180910390f35b60007f780e9d63000000000000000000000000000000000000000000000000000000007bffffffffffffffffffffffffffffffffffffffffffffffffffffffff1916827bffffffffffffffffffffffffffffffffffffffffffffffffffffffff191614806108ee57506108ed826119f0565b5b9050919050565b606060008054610904906135eb565b80601f0160208091040260200160405190810160405280929190818152602001828054610930906135eb565b801561097d5780601f106109525761010080835404028352916020019161097d565b820191906000526020600020905b81548152906001019060200180831161096057829003601f168201915b5050505050905090565b6000600e60029054906101000a900461ffff16905090565b60006109aa82611ad2565b6004600083815260200190815260200160002060009054906101000a900473ffffffffffffffffffffffffffffffffffffffff169050919050565b60006109f082610ed2565b90508073ffffffffffffffffffffffffffffffffffffffff168373ffffffffffffffffffffffffffffffffffffffff1603610a60576040517f08c379a0000000000000000000000000000000000000000000000000000000008152600401610a579061368e565b60405180910390fd5b8073ffffffffffffffffffffffffffffffffffffffff16610a7f611b1d565b73ffffffffffffffffffffffffffffffffffffffff161480610aae5750610aad81610aa8611b1d565b61149d565b5b610aed576040517f08c379a0000000000000000000000000000000000000000000000000000000008152600401610ae490613720565b60405180910390fd5b610af78383611b25565b505050565b6000600880549050905090565b610b11611bde565b600d5442108015610b3057506103e863ffffffff16610b2e610afc565b105b15610b67576040517fb1d45db000000000000000000000000000000000000000000000000000000000815260040160405180910390fd5b610b6f61109b565b73ffffffffffffffffffffffffffffffffffffffff16ff5b610b98610b92611b1d565b82611c5c565b610bd7576040517f08c379a0000000000000000000000000000000000000000000000000000000008152600401610bce906137b2565b60405180910390fd5b610be2838383611cf1565b505050565b6000610bf283610fc0565b8210610c33576040517f08c379a0000000000000000000000000000000000000000000000000000000008152600401610c2a90613844565b60405180910390fd5b600660008473ffffffffffffffffffffffffffffffffffffffff1673ffffffffffffffffffffffffffffffffffffffff168152602001908152602001600020600083815260200190815260200160002054905092915050565b6000600e60009054906101000a900461ffff16905090565b610cbf83838360405180602001604052806000815250611212565b505050565b6000600d54905090565b6000600b60009054906101000a900473ffffffffffffffffffffffffffffffffffffffff16905090565b610d00611bde565b60008151905060c861ffff1681600e60049054906101000a900460ff16610d279190613893565b60ff161115610d6b576040517f08c379a0000000000000000000000000000000000000000000000000000000008152600401610d6290613914565b60405180910390fd5b60005b8251811015610e5c57610d9a838281518110610d8d57610d8c613934565b5b6020026020010151610f62565b610e49576001600f6000858481518110610db757610db6613934565b5b602002602001015173ffffffffffffffffffffffffffffffffffffffff1673ffffffffffffffffffffffffffffffffffffffff16815260200190815260200160002060006101000a81548160ff021916908315150217905550600e600481819054906101000a900460ff1680929190610e2f90613963565b91906101000a81548160ff021916908360ff160217905550505b8080610e549061398c565b915050610d6e565b505050565b6000610e6b610afc565b8210610eac576040517f08c379a0000000000000000000000000000000000000000000000000000000008152600401610ea390613a46565b60405180910390fd5b60088281548110610ec057610ebf613934565b5b90600052602060002001549050919050565b600080610ede83611fea565b9050600073ffffffffffffffffffffffffffffffffffffffff168173ffffffffffffffffffffffffffffffffffffffff1603610f4f576040517f08c379a0000000000000000000000000000000000000000000000000000000008152600401610f4690613ab2565b60405180910390fd5b80915050919050565b60006103e8905090565b6000600f60008373ffffffffffffffffffffffffffffffffffffffff1673ffffffffffffffffffffffffffffffffffffffff16815260200190815260200160002060009054906101000a900460ff169050919050565b600047905090565b60008073ffffffffffffffffffffffffffffffffffffffff168273ffffffffffffffffffffffffffffffffffffffff1603611030576040517f08c379a000000000000000000000000000000000000000000000000000000000815260040161102790613b44565b60405180910390fd5b600360008373ffffffffffffffffffffffffffffffffffffffff1673ffffffffffffffffffffffffffffffffffffffff168152602001908152602001600020549050919050565b61107f611bde565b6110896000612027565b565b6000670de0b6b3a7640000905090565b6000600a60009054906101000a900473ffffffffffffffffffffffffffffffffffffffff16905090565b6060600180546110d4906135eb565b80601f0160208091040260200160405190810160405280929190818152602001828054611100906135eb565b801561114d5780601f106111225761010080835404028352916020019161114d565b820191906000526020600020905b81548152906001019060200180831161113057829003601f168201915b5050505050905090565b611169611162611b1d565b83836120ed565b5050565b6000600e60059054906101000a900473ffffffffffffffffffffffffffffffffffffffff1673ffffffffffffffffffffffffffffffffffffffff16634ada8fcc836040518263ffffffff1660e01b81526004016111ca91906130a5565b602060405180830381865afa1580156111e7573d6000803e3d6000fd5b505050506040513d601f19601f8201168201806040525081019061120b9190613b79565b9050919050565b61122361121d611b1d565b83611c5c565b611262576040517f08c379a0000000000000000000000000000000000000000000000000000000008152600401611259906137b2565b60405180910390fd5b61126e84848484612259565b50505050565b6000600e60049054906101000a900460ff16905090565b600060c8905090565b606061129f82611ad2565b60006112a96122b5565b905060008151116112c957604051806020016040528060008152506112f4565b806112d3846122cc565b6040516020016112e4929190613be2565b6040516020818303038152906040525b915050919050565b611304611bde565b600081519050600e60049054906101000a900460ff1660ff168160ff161115611362576040517f08c379a000000000000000000000000000000000000000000000000000000000815260040161135990613c52565b60405180910390fd5b60005b825181101561149857600f600084838151811061138557611384613934565b5b602002602001015173ffffffffffffffffffffffffffffffffffffffff1673ffffffffffffffffffffffffffffffffffffffff16815260200190815260200160002060009054906101000a900460ff1615611485576000600f60008584815181106113f3576113f2613934565b5b602002602001015173ffffffffffffffffffffffffffffffffffffffff1673ffffffffffffffffffffffffffffffffffffffff16815260200190815260200160002060006101000a81548160ff021916908315150217905550600e600481819054906101000a900460ff168092919061146b90613c72565b91906101000a81548160ff021916908360ff160217905550505b80806114909061398c565b915050611365565b505050565b6000600560008473ffffffffffffffffffffffffffffffffffffffff1673ffffffffffffffffffffffffffffffffffffffff16815260200190815260200160002060008373ffffffffffffffffffffffffffffffffffffffff1673ffffffffffffffffffffffffffffffffffffffff16815260200190815260200160002060009054906101000a900460ff16905092915050565b600073ffffffffffffffffffffffffffffffffffffffff163373ffffffffffffffffffffffffffffffffffffffff1603611597576040517f0623993300000000000000000000000000000000000000000000000000000000815260040160405180910390fd5b670de0b6b3a764000034146115d8576040517f64bf7c6400000000000000000000000000000000000000000000000000000000815260040160405180910390fd5b600d544210611613576040517fa4d6e94500000000000000000000000000000000000000000000000000000000815260040160405180910390fd5b6103e863ffffffff16611624610afc565b0361165b576040517ff8a94fc000000000000000000000000000000000000000000000000000000000815260040160405180910390fd5b60c861ffff16600e60009054906101000a900461ffff1661ffff16101561173b57600f60003373ffffffffffffffffffffffffffffffffffffffff1673ffffffffffffffffffffffffffffffffffffffff16815260200190815260200160002060009054906101000a900460ff166116ff576040517f336382e000000000000000000000000000000000000000000000000000000000815260040160405180910390fd5b600e600081819054906101000a900461ffff168092919061171f90613c9b565b91906101000a81548161ffff021916908361ffff160217905550505b601461ffff16600e60029054906101000a900461ffff1661ffff1610801561176e5750601461ffff1661176c610afc565b105b156118db57600e600281819054906101000a900461ffff168092919061179390613c9b565b91906101000a81548161ffff021916908361ffff16021790555050600e60059054906101000a900473ffffffffffffffffffffffffffffffffffffffff1673ffffffffffffffffffffffffffffffffffffffff1663e077a038336040518263ffffffff1660e01b815260040161180991906130a5565b6020604051808303816000875af1158015611828573d6000803e3d6000fd5b505050506040513d601f19601f8201168201806040525081019061184c9190613b79565b50600e60059054906101000a900473ffffffffffffffffffffffffffffffffffffffff1673ffffffffffffffffffffffffffffffffffffffff166340d097c3336040518263ffffffff1660e01b81526004016118a891906130a5565b600060405180830381600087803b1580156118c257600080fd5b505af11580156118d6573d6000803e3d6000fd5b505050505b6118f83360016118e9610afc565b6118f39190613cc5565b61239a565b6001611902610afc565b61190c9190613cc5565b3373ffffffffffffffffffffffffffffffffffffffff167f985d112c54c7518a49841fc37640d9ded60112ea7370ca9129c8ed33c3607bc760405160405180910390a3565b60006014905090565b611962611bde565b600073ffffffffffffffffffffffffffffffffffffffff168173ffffffffffffffffffffffffffffffffffffffff16036119d1576040517f08c379a00000000000000000000000000000000000000000000000000000000081526004016119c890613d6b565b60405180910390fd5b6119da81612027565b50565b600e60049054906101000a900460ff1681565b60007f80ac58cd000000000000000000000000000000000000000000000000000000007bffffffffffffffffffffffffffffffffffffffffffffffffffffffff1916827bffffffffffffffffffffffffffffffffffffffffffffffffffffffff19161480611abb57507f5b5e139f000000000000000000000000000000000000000000000000000000007bffffffffffffffffffffffffffffffffffffffffffffffffffffffff1916827bffffffffffffffffffffffffffffffffffffffffffffffffffffffff1916145b80611acb5750611aca826123b8565b5b9050919050565b611adb81612422565b611b1a576040517f08c379a0000000000000000000000000000000000000000000000000000000008152600401611b1190613ab2565b60405180910390fd5b50565b600033905090565b816004600083815260200190815260200160002060006101000a81548173ffffffffffffffffffffffffffffffffffffffff021916908373ffffffffffffffffffffffffffffffffffffffff160217905550808273ffffffffffffffffffffffffffffffffffffffff16611b9883610ed2565b73ffffffffffffffffffffffffffffffffffffffff167f8c5be1e5ebec7d5bd14f71427d1e84f3dd0314c0f7b2291e5b200ac8c7c3b92560405160405180910390a45050565b611be6611b1d565b73ffffffffffffffffffffffffffffffffffffffff16611c0461109b565b73ffffffffffffffffffffffffffffffffffffffff1614611c5a576040517f08c379a0000000000000000000000000000000000000000000000000000000008152600401611c5190613dd7565b60405180910390fd5b565b600080611c6883610ed2565b90508073ffffffffffffffffffffffffffffffffffffffff168473ffffffffffffffffffffffffffffffffffffffff161480611caa5750611ca9818561149d565b5b80611ce857508373ffffffffffffffffffffffffffffffffffffffff16611cd08461099f565b73ffffffffffffffffffffffffffffffffffffffff16145b91505092915050565b8273ffffffffffffffffffffffffffffffffffffffff16611d1182610ed2565b73ffffffffffffffffffffffffffffffffffffffff1614611d67576040517f08c379a0000000000000000000000000000000000000000000000000000000008152600401611d5e90613e69565b60405180910390fd5b600073ffffffffffffffffffffffffffffffffffffffff168273ffffffffffffffffffffffffffffffffffffffff1603611dd6576040517f08c379a0000000000000000000000000000000000000000000000000000000008152600401611dcd90613efb565b60405180910390fd5b611de38383836001612463565b8273ffffffffffffffffffffffffffffffffffffffff16611e0382610ed2565b73ffffffffffffffffffffffffffffffffffffffff1614611e59576040517f08c379a0000000000000000000000000000000000000000000000000000000008152600401611e5090613e69565b60405180910390fd5b6004600082815260200190815260200160002060006101000a81549073ffffffffffffffffffffffffffffffffffffffff02191690556001600360008573ffffffffffffffffffffffffffffffffffffffff1673ffffffffffffffffffffffffffffffffffffffff168152602001908152602001600020600082825403925050819055506001600360008473ffffffffffffffffffffffffffffffffffffffff1673ffffffffffffffffffffffffffffffffffffffff16815260200190815260200160002060008282540192505081905550816002600083815260200190815260200160002060006101000a81548173ffffffffffffffffffffffffffffffffffffffff021916908373ffffffffffffffffffffffffffffffffffffffff160217905550808273ffffffffffffffffffffffffffffffffffffffff168473ffffffffffffffffffffffffffffffffffffffff167fddf252ad1be2c89b69c2b068fc378daa952ba7f163c4a11628f55a4df523b3ef60405160405180910390a4611fe583838360016125c1565b505050565b60006002600083815260200190815260200160002060009054906101000a900473ffffffffffffffffffffffffffffffffffffffff169050919050565b6000600a60009054906101000a900473ffffffffffffffffffffffffffffffffffffffff16905081600a60006101000a81548173ffffffffffffffffffffffffffffffffffffffff021916908373ffffffffffffffffffffffffffffffffffffffff1602179055508173ffffffffffffffffffffffffffffffffffffffff168173ffffffffffffffffffffffffffffffffffffffff167f8be0079c531659141344cd1fd0a4f28419497f9722a3daafe3b4186f6b6457e060405160405180910390a35050565b8173ffffffffffffffffffffffffffffffffffffffff168373ffffffffffffffffffffffffffffffffffffffff160361215b576040517f08c379a000000000000000000000000000000000000000000000000000000000815260040161215290613f67565b60405180910390fd5b80600560008573ffffffffffffffffffffffffffffffffffffffff1673ffffffffffffffffffffffffffffffffffffffff16815260200190815260200160002060008473ffffffffffffffffffffffffffffffffffffffff1673ffffffffffffffffffffffffffffffffffffffff16815260200190815260200160002060006101000a81548160ff0219169083151502179055508173ffffffffffffffffffffffffffffffffffffffff168373ffffffffffffffffffffffffffffffffffffffff167f17307eab39ab6107e8899845ad3d59bd9653f200f220920489ca2b5937696c318360405161224c9190612efc565b60405180910390a3505050565b612264848484611cf1565b612270848484846125c7565b6122af576040517f08c379a00000000000000000000000000000000000000000000000000000000081526004016122a690613ff9565b60405180910390fd5b50505050565b606060405180602001604052806000815250905090565b6060600060016122db8461274e565b01905060008167ffffffffffffffff8111156122fa576122f96131ae565b5b6040519080825280601f01601f19166020018201604052801561232c5781602001600182028036833780820191505090505b509050600082602001820190505b60011561238f578080600190039150507f3031323334353637383961626364656600000000000000000000000000000000600a86061a8153600a858161238357612382614019565b5b0494506000850361233a575b819350505050919050565b6123b48282604051806020016040528060008152506128a1565b5050565b60007f01ffc9a7000000000000000000000000000000000000000000000000000000007bffffffffffffffffffffffffffffffffffffffffffffffffffffffff1916827bffffffffffffffffffffffffffffffffffffffffffffffffffffffff1916149050919050565b60008073ffffffffffffffffffffffffffffffffffffffff1661244483611fea565b73ffffffffffffffffffffffffffffffffffffffff1614159050919050565b61246f848484846128fc565b60018111156124b3576040517f08c379a00000000000000000000000000000000000000000000000000000000081526004016124aa906140ba565b60405180910390fd5b6000829050600073ffffffffffffffffffffffffffffffffffffffff168573ffffffffffffffffffffffffffffffffffffffff16036124fa576124f581612902565b612539565b8373ffffffffffffffffffffffffffffffffffffffff168573ffffffffffffffffffffffffffffffffffffffff161461253857612537858261294b565b5b5b600073ffffffffffffffffffffffffffffffffffffffff168473ffffffffffffffffffffffffffffffffffffffff160361257b5761257681612ab8565b6125ba565b8473ffffffffffffffffffffffffffffffffffffffff168473ffffffffffffffffffffffffffffffffffffffff16146125b9576125b88482612b89565b5b5b5050505050565b50505050565b60006125e88473ffffffffffffffffffffffffffffffffffffffff16612c08565b15612741578373ffffffffffffffffffffffffffffffffffffffff1663150b7a02612611611b1d565b8786866040518563ffffffff1660e01b8152600401612633949392919061412f565b6020604051808303816000875af192505050801561266f57506040513d601f19601f8201168201806040525081019061266c9190614190565b60015b6126f1573d806000811461269f576040519150601f19603f3d011682016040523d82523d6000602084013e6126a4565b606091505b5060008151036126e9576040517f08c379a00000000000000000000000000000000000000000000000000000000081526004016126e090613ff9565b60405180910390fd5b805181602001fd5b63150b7a0260e01b7bffffffffffffffffffffffffffffffffffffffffffffffffffffffff1916817bffffffffffffffffffffffffffffffffffffffffffffffffffffffff191614915050612746565b600190505b949350505050565b600080600090507a184f03e93ff9f4daa797ed6e38ed64bf6a1f01000000000000000083106127ac577a184f03e93ff9f4daa797ed6e38ed64bf6a1f01000000000000000083816127a2576127a1614019565b5b0492506040810190505b6d04ee2d6d415b85acef810000000083106127e9576d04ee2d6d415b85acef810000000083816127df576127de614019565b5b0492506020810190505b662386f26fc10000831061281857662386f26fc10000838161280e5761280d614019565b5b0492506010810190505b6305f5e1008310612841576305f5e100838161283757612836614019565b5b0492506008810190505b612710831061286657612710838161285c5761285b614019565b5b0492506004810190505b60648310612889576064838161287f5761287e614019565b5b0492506002810190505b600a8310612898576001810190505b80915050919050565b6128ab8383612c2b565b6128b860008484846125c7565b6128f7576040517f08c379a00000000000000000000000000000000000000000000000000000000081526004016128ee90613ff9565b60405180910390fd5b505050565b50505050565b6008805490506009600083815260200190815260200160002081905550600881908060018154018082558091505060019003906000526020600020016000909190919091505550565b6000600161295884610fc0565b61296291906141bd565b9050600060076000848152602001908152602001600020549050818114612a47576000600660008673ffffffffffffffffffffffffffffffffffffffff1673ffffffffffffffffffffffffffffffffffffffff168152602001908152602001600020600084815260200190815260200160002054905080600660008773ffffffffffffffffffffffffffffffffffffffff1673ffffffffffffffffffffffffffffffffffffffff168152602001908152602001600020600084815260200190815260200160002081905550816007600083815260200190815260200160002081905550505b6007600084815260200190815260200160002060009055600660008573ffffffffffffffffffffffffffffffffffffffff1673ffffffffffffffffffffffffffffffffffffffff16815260200190815260200160002060008381526020019081526020016000206000905550505050565b60006001600880549050612acc91906141bd565b9050600060096000848152602001908152602001600020549050600060088381548110612afc57612afb613934565b5b906000526020600020015490508060088381548110612b1e57612b1d613934565b5b906000526020600020018190555081600960008381526020019081526020016000208190555060096000858152602001908152602001600020600090556008805480612b6d57612b6c6141f1565b5b6001900381819060005260206000200160009055905550505050565b6000612b9483610fc0565b905081600660008573ffffffffffffffffffffffffffffffffffffffff1673ffffffffffffffffffffffffffffffffffffffff168152602001908152602001600020600083815260200190815260200160002081905550806007600084815260200190815260200160002081905550505050565b6000808273ffffffffffffffffffffffffffffffffffffffff163b119050919050565b600073ffffffffffffffffffffffffffffffffffffffff168273ffffffffffffffffffffffffffffffffffffffff1603612c9a576040517f08c379a0000000000000000000000000000000000000000000000000000000008152600401612c919061426c565b60405180910390fd5b612ca381612422565b15612ce3576040517f08c379a0000000000000000000000000000000000000000000000000000000008152600401612cda906142d8565b60405180910390fd5b612cf1600083836001612463565b612cfa81612422565b15612d3a576040517f08c379a0000000000000000000000000000000000000000000000000000000008152600401612d31906142d8565b60405180910390fd5b6001600360008473ffffffffffffffffffffffffffffffffffffffff1673ffffffffffffffffffffffffffffffffffffffff16815260200190815260200160002060008282540192505081905550816002600083815260200190815260200160002060006101000a81548173ffffffffffffffffffffffffffffffffffffffff021916908373ffffffffffffffffffffffffffffffffffffffff160217905550808273ffffffffffffffffffffffffffffffffffffffff16600073ffffffffffffffffffffffffffffffffffffffff167fddf252ad1be2c89b69c2b068fc378daa952ba7f163c4a11628f55a4df523b3ef60405160405180910390a4612e446000838360016125c1565b5050565b6000604051905090565b600080fd5b600080fd5b60007fffffffff0000000000000000000000000000000000000000000000000000000082169050919050565b612e9181612e5c565b8114612e9c57600080fd5b50565b600081359050612eae81612e88565b92915050565b600060208284031215612eca57612ec9612e52565b5b6000612ed884828501612e9f565b91505092915050565b60008115159050919050565b612ef681612ee1565b82525050565b6000602082019050612f116000830184612eed565b92915050565b600081519050919050565b600082825260208201905092915050565b60005b83811015612f51578082015181840152602081019050612f36565b60008484015250505050565b6000601f19601f8301169050919050565b6000612f7982612f17565b612f838185612f22565b9350612f93818560208601612f33565b612f9c81612f5d565b840191505092915050565b60006020820190508181036000830152612fc18184612f6e565b905092915050565b600061ffff82169050919050565b612fe081612fc9565b82525050565b6000602082019050612ffb6000830184612fd7565b92915050565b6000819050919050565b61301481613001565b811461301f57600080fd5b50565b6000813590506130318161300b565b92915050565b60006020828403121561304d5761304c612e52565b5b600061305b84828501613022565b91505092915050565b600073ffffffffffffffffffffffffffffffffffffffff82169050919050565b600061308f82613064565b9050919050565b61309f81613084565b82525050565b60006020820190506130ba6000830184613096565b92915050565b6130c981613084565b81146130d457600080fd5b50565b6000813590506130e6816130c0565b92915050565b6000806040838503121561310357613102612e52565b5b6000613111858286016130d7565b925050602061312285828601613022565b9150509250929050565b61313581613001565b82525050565b6000602082019050613150600083018461312c565b92915050565b60008060006060848603121561316f5761316e612e52565b5b600061317d868287016130d7565b935050602061318e868287016130d7565b925050604061319f86828701613022565b9150509250925092565b600080fd5b7f4e487b7100000000000000000000000000000000000000000000000000000000600052604160045260246000fd5b6131e682612f5d565b810181811067ffffffffffffffff82111715613205576132046131ae565b5b80604052505050565b6000613218612e48565b905061322482826131dd565b919050565b600067ffffffffffffffff821115613244576132436131ae565b5b602082029050602081019050919050565b600080fd5b600061326d61326884613229565b61320e565b905080838252602082019050602084028301858111156132905761328f613255565b5b835b818110156132b957806132a588826130d7565b845260208401935050602081019050613292565b5050509392505050565b600082601f8301126132d8576132d76131a9565b5b81356132e884826020860161325a565b91505092915050565b60006020828403121561330757613306612e52565b5b600082013567ffffffffffffffff81111561332557613324612e57565b5b613331848285016132c3565b91505092915050565b600063ffffffff82169050919050565b6133538161333a565b82525050565b600060208201905061336e600083018461334a565b92915050565b60006020828403121561338a57613389612e52565b5b6000613398848285016130d7565b91505092915050565b6133aa81612ee1565b81146133b557600080fd5b50565b6000813590506133c7816133a1565b92915050565b600080604083850312156133e4576133e3612e52565b5b60006133f2858286016130d7565b9250506020613403858286016133b8565b9150509250929050565b600080fd5b600067ffffffffffffffff82111561342d5761342c6131ae565b5b61343682612f5d565b9050602081019050919050565b82818337600083830152505050565b600061346561346084613412565b61320e565b9050828152602081018484840111156134815761348061340d565b5b61348c848285613443565b509392505050565b600082601f8301126134a9576134a86131a9565b5b81356134b9848260208601613452565b91505092915050565b600080600080608085870312156134dc576134db612e52565b5b60006134ea878288016130d7565b94505060206134fb878288016130d7565b935050604061350c87828801613022565b925050606085013567ffffffffffffffff81111561352d5761352c612e57565b5b61353987828801613494565b91505092959194509250565b600060ff82169050919050565b61355b81613545565b82525050565b60006020820190506135766000830184613552565b92915050565b6000806040838503121561359357613592612e52565b5b60006135a1858286016130d7565b92505060206135b2858286016130d7565b9150509250929050565b7f4e487b7100000000000000000000000000000000000000000000000000000000600052602260045260246000fd5b6000600282049050600182168061360357607f821691505b602082108103613616576136156135bc565b5b50919050565b7f4552433732313a20617070726f76616c20746f2063757272656e74206f776e6560008201527f7200000000000000000000000000000000000000000000000000000000000000602082015250565b6000613678602183612f22565b91506136838261361c565b604082019050919050565b600060208201905081810360008301526136a78161366b565b9050919050565b7f4552433732313a20617070726f76652063616c6c6572206973206e6f7420746f60008201527f6b656e206f776e6572206f7220617070726f76656420666f7220616c6c000000602082015250565b600061370a603d83612f22565b9150613715826136ae565b604082019050919050565b60006020820190508181036000830152613739816136fd565b9050919050565b7f4552433732313a2063616c6c6572206973206e6f7420746f6b656e206f776e6560008201527f72206f7220617070726f76656400000000000000000000000000000000000000602082015250565b600061379c602d83612f22565b91506137a782613740565b604082019050919050565b600060208201905081810360008301526137cb8161378f565b9050919050565b7f455243373231456e756d657261626c653a206f776e657220696e646578206f7560008201527f74206f6620626f756e6473000000000000000000000000000000000000000000602082015250565b600061382e602b83612f22565b9150613839826137d2565b604082019050919050565b6000602082019050818103600083015261385d81613821565b9050919050565b7f4e487b7100000000000000000000000000000000000000000000000000000000600052601160045260246000fd5b600061389e82613545565b91506138a983613545565b9250828201905060ff8111156138c2576138c1613864565b5b92915050565b7f57686974656c69737465642048617320526561636820697473206d6178000000600082015250565b60006138fe601d83612f22565b9150613909826138c8565b602082019050919050565b6000602082019050818103600083015261392d816138f1565b9050919050565b7f4e487b7100000000000000000000000000000000000000000000000000000000600052603260045260246000fd5b600061396e82613545565b915060ff820361398157613980613864565b5b600182019050919050565b600061399782613001565b91507fffffffffffffffffffffffffffffffffffffffffffffffffffffffffffffffff82036139c9576139c8613864565b5b600182019050919050565b7f455243373231456e756d657261626c653a20676c6f62616c20696e646578206f60008201527f7574206f6620626f756e64730000000000000000000000000000000000000000602082015250565b6000613a30602c83612f22565b9150613a3b826139d4565b604082019050919050565b60006020820190508181036000830152613a5f81613a23565b9050919050565b7f4552433732313a20696e76616c696420746f6b656e2049440000000000000000600082015250565b6000613a9c601883612f22565b9150613aa782613a66565b602082019050919050565b60006020820190508181036000830152613acb81613a8f565b9050919050565b7f4552433732313a2061646472657373207a65726f206973206e6f74206120766160008201527f6c6964206f776e65720000000000000000000000000000000000000000000000602082015250565b6000613b2e602983612f22565b9150613b3982613ad2565b604082019050919050565b60006020820190508181036000830152613b5d81613b21565b9050919050565b600081519050613b73816133a1565b92915050565b600060208284031215613b8f57613b8e612e52565b5b6000613b9d84828501613b64565b91505092915050565b600081905092915050565b6000613bbc82612f17565b613bc68185613ba6565b9350613bd6818560208601612f33565b80840191505092915050565b6000613bee8285613bb1565b9150613bfa8284613bb1565b91508190509392505050565b7f63616e206f6e6c792072656d6f76652032302061646472657373000000000000600082015250565b6000613c3c601a83612f22565b9150613c4782613c06565b602082019050919050565b60006020820190508181036000830152613c6b81613c2f565b9050919050565b6000613c7d82613545565b915060008203613c9057613c8f613864565b5b600182039050919050565b6000613ca682612fc9565b915061ffff8203613cba57613cb9613864565b5b600182019050919050565b6000613cd082613001565b9150613cdb83613001565b9250828201905080821115613cf357613cf2613864565b5b92915050565b7f4f776e61626c653a206e6577206f776e657220697320746865207a65726f206160008201527f6464726573730000000000000000000000000000000000000000000000000000602082015250565b6000613d55602683612f22565b9150613d6082613cf9565b604082019050919050565b60006020820190508181036000830152613d8481613d48565b9050919050565b7f4f776e61626c653a2063616c6c6572206973206e6f7420746865206f776e6572600082015250565b6000613dc1602083612f22565b9150613dcc82613d8b565b602082019050919050565b60006020820190508181036000830152613df081613db4565b9050919050565b7f4552433732313a207472616e736665722066726f6d20696e636f72726563742060008201527f6f776e6572000000000000000000000000000000000000000000000000000000602082015250565b6000613e53602583612f22565b9150613e5e82613df7565b604082019050919050565b60006020820190508181036000830152613e8281613e46565b9050919050565b7f4552433732313a207472616e7366657220746f20746865207a65726f2061646460008201527f7265737300000000000000000000000000000000000000000000000000000000602082015250565b6000613ee5602483612f22565b9150613ef082613e89565b604082019050919050565b60006020820190508181036000830152613f1481613ed8565b9050919050565b7f4552433732313a20617070726f766520746f2063616c6c657200000000000000600082015250565b6000613f51601983612f22565b9150613f5c82613f1b565b602082019050919050565b60006020820190508181036000830152613f8081613f44565b9050919050565b7f4552433732313a207472616e7366657220746f206e6f6e20455243373231526560008201527f63656976657220696d706c656d656e7465720000000000000000000000000000602082015250565b6000613fe3603283612f22565b9150613fee82613f87565b604082019050919050565b6000602082019050818103600083015261401281613fd6565b9050919050565b7f4e487b7100000000000000000000000000000000000000000000000000000000600052601260045260246000fd5b7f455243373231456e756d657261626c653a20636f6e736563757469766520747260008201527f616e7366657273206e6f7420737570706f727465640000000000000000000000602082015250565b60006140a4603583612f22565b91506140af82614048565b604082019050919050565b600060208201905081810360008301526140d381614097565b9050919050565b600081519050919050565b600082825260208201905092915050565b6000614101826140da565b61410b81856140e5565b935061411b818560208601612f33565b61412481612f5d565b840191505092915050565b60006080820190506141446000830187613096565b6141516020830186613096565b61415e604083018561312c565b818103606083015261417081846140f6565b905095945050505050565b60008151905061418a81612e88565b92915050565b6000602082840312156141a6576141a5612e52565b5b60006141b48482850161417b565b91505092915050565b60006141c882613001565b91506141d383613001565b92508282039050818111156141eb576141ea613864565b5b92915050565b7f4e487b7100000000000000000000000000000000000000000000000000000000600052603160045260246000fd5b7f4552433732313a206d696e7420746f20746865207a65726f2061646472657373600082015250565b6000614256602083612f22565b915061426182614220565b602082019050919050565b6000602082019050818103600083015261428581614249565b9050919050565b7f4552433732313a20746f6b656e20616c7265616479206d696e74656400000000600082015250565b60006142c2601c83612f22565b91506142cd8261428c565b602082019050919050565b600060208201905081810360008301526142f1816142b5565b905091905056fea2646970667358221220b8d79ec2164708549e520f99b1560a5d9aaa5f9622e0d39314fad5688d62284164736f6c6343000812003360806040523480156200001157600080fd5b506040518060400160405280601181526020017f444343536f756c626f756e64546f6b656e0000000000000000000000000000008152506040518060400160405280600481526020017f244453540000000000000000000000000000000000000000000000000000000081525081600090816200008f919062000412565b508060019081620000a1919062000412565b505050620000c4620000b8620000ca60201b60201c565b620000d260201b60201c565b620004f9565b600033905090565b6000600660009054906101000a900473ffffffffffffffffffffffffffffffffffffffff16905081600660006101000a81548173ffffffffffffffffffffffffffffffffffffffff021916908373ffffffffffffffffffffffffffffffffffffffff1602179055508173ffffffffffffffffffffffffffffffffffffffff168173ffffffffffffffffffffffffffffffffffffffff167f8be0079c531659141344cd1fd0a4f28419497f9722a3daafe3b4186f6b6457e060405160405180910390a35050565b600081519050919050565b7f4e487b7100000000000000000000000000000000000000000000000000000000600052604160045260246000fd5b7f4e487b7100000000000000000000000000000000000000000000000000000000600052602260045260246000fd5b600060028204905060018216806200021a57607f821691505b60208210810362000230576200022f620001d2565b5b50919050565b60008190508160005260206000209050919050565b60006020601f8301049050919050565b600082821b905092915050565b6000600883026200029a7fffffffffffffffffffffffffffffffffffffffffffffffffffffffffffffffff826200025b565b620002a686836200025b565b95508019841693508086168417925050509392505050565b6000819050919050565b6000819050919050565b6000620002f3620002ed620002e784620002be565b620002c8565b620002be565b9050919050565b6000819050919050565b6200030f83620002d2565b620003276200031e82620002fa565b84845462000268565b825550505050565b600090565b6200033e6200032f565b6200034b81848462000304565b505050565b5b8181101562000373576200036760008262000334565b60018101905062000351565b5050565b601f821115620003c2576200038c8162000236565b62000397846200024b565b81016020851015620003a7578190505b620003bf620003b6856200024b565b83018262000350565b50505b505050565b600082821c905092915050565b6000620003e760001984600802620003c7565b1980831691505092915050565b6000620004028383620003d4565b9150826002028217905092915050565b6200041d8262000198565b67ffffffffffffffff811115620004395762000438620001a3565b5b62000445825462000201565b6200045282828562000377565b600060209050601f8311600181146200048a576000841562000475578287015190505b620004818582620003f4565b865550620004f1565b601f1984166200049a8662000236565b60005b82811015620004c4578489015182556001820191506020850194506020810190506200049d565b86831015620004e45784890151620004e0601f891682620003d4565b8355505b6001600288020188555050505b505050505050565b61216380620005096000396000f3fe608060405234801561001057600080fd5b50600436106101215760003560e01c806370a08231116100ad578063b88d4fde11610071578063b88d4fde14610306578063c87b56dd14610322578063e077a03814610352578063e985e9c514610382578063f2fde38b146103b257610121565b806370a0823114610274578063715018a6146102a45780638da5cb5b146102ae57806395d89b41146102cc578063a22cb465146102ea57610121565b806323b872dd116100f457806323b872dd146101c057806340d097c3146101dc57806342842e0e146101f85780634ada8fcc146102145780636352211e1461024457610121565b806301ffc9a71461012657806306fdde0314610156578063081812fc14610174578063095ea7b3146101a4575b600080fd5b610140600480360381019061013b919061156a565b6103ce565b60405161014d91906115b2565b60405180910390f35b61015e6104b0565b60405161016b919061165d565b60405180910390f35b61018e600480360381019061018991906116b5565b610542565b60405161019b9190611723565b60405180910390f35b6101be60048036038101906101b9919061176a565b610588565b005b6101da60048036038101906101d591906117aa565b61058c565b005b6101f660048036038101906101f191906117fd565b610591565b005b610212600480360381019061020d91906117aa565b6107aa565b005b61022e600480360381019061022991906117fd565b6107af565b60405161023b91906115b2565b60405180910390f35b61025e600480360381019061025991906116b5565b610805565b60405161026b9190611723565b60405180910390f35b61028e600480360381019061028991906117fd565b61088b565b60405161029b9190611839565b60405180910390f35b6102ac610942565b005b6102b6610956565b6040516102c39190611723565b60405180910390f35b6102d4610980565b6040516102e1919061165d565b60405180910390f35b61030460048036038101906102ff9190611880565b610a12565b005b610320600480360381019061031b91906119f5565b610a16565b005b61033c600480360381019061033791906116b5565b610a1c565b604051610349919061165d565b60405180910390f35b61036c600480360381019061036791906117fd565b610a84565b60405161037991906115b2565b60405180910390f35b61039c60048036038101906103979190611a78565b610ae4565b6040516103a991906115b2565b60405180910390f35b6103cc60048036038101906103c791906117fd565b610b78565b005b60007f80ac58cd000000000000000000000000000000000000000000000000000000007bffffffffffffffffffffffffffffffffffffffffffffffffffffffff1916827bffffffffffffffffffffffffffffffffffffffffffffffffffffffff1916148061049957507f5b5e139f000000000000000000000000000000000000000000000000000000007bffffffffffffffffffffffffffffffffffffffffffffffffffffffff1916827bffffffffffffffffffffffffffffffffffffffffffffffffffffffff1916145b806104a957506104a882610bfb565b5b9050919050565b6060600080546104bf90611ae7565b80601f01602080910402602001604051908101604052809291908181526020018280546104eb90611ae7565b80156105385780601f1061050d57610100808354040283529160200191610538565b820191906000526020600020905b81548152906001019060200180831161051b57829003601f168201915b5050505050905090565b600061054d82610c65565b6004600083815260200190815260200160002060009054906101000a900473ffffffffffffffffffffffffffffffffffffffff169050919050565b5050565b505050565b610599610cb0565b600073ffffffffffffffffffffffffffffffffffffffff168173ffffffffffffffffffffffffffffffffffffffff16036105d257600080fd5b600860008273ffffffffffffffffffffffffffffffffffffffff1673ffffffffffffffffffffffffffffffffffffffff16815260200190815260200160002060009054906101000a900460ff1661065e576040517f08c379a000000000000000000000000000000000000000000000000000000000815260040161065590611b64565b60405180910390fd5b60006106698261088b565b1180156106bb57508073ffffffffffffffffffffffffffffffffffffffff166106a3600660149054906101000a900460ff1660ff16610805565b73ffffffffffffffffffffffffffffffffffffffff16145b156106fb576040517f08c379a00000000000000000000000000000000000000000000000000000000081526004016106f290611bd0565b60405180910390fd5b6006601481819054906101000a900460ff168092919061071a90611c2c565b91906101000a81548160ff021916908360ff160217905550506001600760008373ffffffffffffffffffffffffffffffffffffffff1673ffffffffffffffffffffffffffffffffffffffff16815260200190815260200160002060006101000a81548160ff0219169083151502179055506107a781600660149054906101000a900460ff1660ff16610d2e565b50565b505050565b6000600760008373ffffffffffffffffffffffffffffffffffffffff1673ffffffffffffffffffffffffffffffffffffffff16815260200190815260200160002060009054906101000a900460ff169050919050565b60008061081183610d4c565b9050600073ffffffffffffffffffffffffffffffffffffffff168173ffffffffffffffffffffffffffffffffffffffff1603610882576040517f08c379a000000000000000000000000000000000000000000000000000000000815260040161087990611ca1565b60405180910390fd5b80915050919050565b60008073ffffffffffffffffffffffffffffffffffffffff168273ffffffffffffffffffffffffffffffffffffffff16036108fb576040517f08c379a00000000000000000000000000000000000000000000000000000000081526004016108f290611d33565b60405180910390fd5b600360008373ffffffffffffffffffffffffffffffffffffffff1673ffffffffffffffffffffffffffffffffffffffff168152602001908152602001600020549050919050565b61094a610cb0565b6109546000610d89565b565b6000600660009054906101000a900473ffffffffffffffffffffffffffffffffffffffff16905090565b60606001805461098f90611ae7565b80601f01602080910402602001604051908101604052809291908181526020018280546109bb90611ae7565b8015610a085780601f106109dd57610100808354040283529160200191610a08565b820191906000526020600020905b8154815290600101906020018083116109eb57829003601f168201915b5050505050905090565b5050565b50505050565b6060610a2782610c65565b6000610a31610e4f565b90506000815111610a515760405180602001604052806000815250610a7c565b80610a5b84610e66565b604051602001610a6c929190611d8f565b6040516020818303038152906040525b915050919050565b60006001600860008473ffffffffffffffffffffffffffffffffffffffff1673ffffffffffffffffffffffffffffffffffffffff16815260200190815260200160002060006101000a81548160ff02191690831515021790559050919050565b6000600560008473ffffffffffffffffffffffffffffffffffffffff1673ffffffffffffffffffffffffffffffffffffffff16815260200190815260200160002060008373ffffffffffffffffffffffffffffffffffffffff1673ffffffffffffffffffffffffffffffffffffffff16815260200190815260200160002060009054906101000a900460ff16905092915050565b610b80610cb0565b600073ffffffffffffffffffffffffffffffffffffffff168173ffffffffffffffffffffffffffffffffffffffff1603610bef576040517f08c379a0000000000000000000000000000000000000000000000000000000008152600401610be690611e25565b60405180910390fd5b610bf881610d89565b50565b60007f01ffc9a7000000000000000000000000000000000000000000000000000000007bffffffffffffffffffffffffffffffffffffffffffffffffffffffff1916827bffffffffffffffffffffffffffffffffffffffffffffffffffffffff1916149050919050565b610c6e81610f34565b610cad576040517f08c379a0000000000000000000000000000000000000000000000000000000008152600401610ca490611ca1565b60405180910390fd5b50565b610cb8610f75565b73ffffffffffffffffffffffffffffffffffffffff16610cd6610956565b73ffffffffffffffffffffffffffffffffffffffff1614610d2c576040517f08c379a0000000000000000000000000000000000000000000000000000000008152600401610d2390611e91565b60405180910390fd5b565b610d48828260405180602001604052806000815250610f7d565b5050565b60006002600083815260200190815260200160002060009054906101000a900473ffffffffffffffffffffffffffffffffffffffff169050919050565b6000600660009054906101000a900473ffffffffffffffffffffffffffffffffffffffff16905081600660006101000a81548173ffffffffffffffffffffffffffffffffffffffff021916908373ffffffffffffffffffffffffffffffffffffffff1602179055508173ffffffffffffffffffffffffffffffffffffffff168173ffffffffffffffffffffffffffffffffffffffff167f8be0079c531659141344cd1fd0a4f28419497f9722a3daafe3b4186f6b6457e060405160405180910390a35050565b606060405180602001604052806000815250905090565b606060006001610e7584610fd8565b01905060008167ffffffffffffffff811115610e9457610e936118ca565b5b6040519080825280601f01601f191660200182016040528015610ec65781602001600182028036833780820191505090505b509050600082602001820190505b600115610f29578080600190039150507f3031323334353637383961626364656600000000000000000000000000000000600a86061a8153600a8581610f1d57610f1c611eb1565b5b04945060008503610ed4575b819350505050919050565b60008073ffffffffffffffffffffffffffffffffffffffff16610f5683610d4c565b73ffffffffffffffffffffffffffffffffffffffff1614159050919050565b600033905090565b610f87838361112b565b610f946000848484611348565b610fd3576040517f08c379a0000000000000000000000000000000000000000000000000000000008152600401610fca90611f52565b60405180910390fd5b505050565b600080600090507a184f03e93ff9f4daa797ed6e38ed64bf6a1f0100000000000000008310611036577a184f03e93ff9f4daa797ed6e38ed64bf6a1f010000000000000000838161102c5761102b611eb1565b5b0492506040810190505b6d04ee2d6d415b85acef81000000008310611073576d04ee2d6d415b85acef8100000000838161106957611068611eb1565b5b0492506020810190505b662386f26fc1000083106110a257662386f26fc10000838161109857611097611eb1565b5b0492506010810190505b6305f5e10083106110cb576305f5e10083816110c1576110c0611eb1565b5b0492506008810190505b61271083106110f05761271083816110e6576110e5611eb1565b5b0492506004810190505b60648310611113576064838161110957611108611eb1565b5b0492506002810190505b600a8310611122576001810190505b80915050919050565b600073ffffffffffffffffffffffffffffffffffffffff168273ffffffffffffffffffffffffffffffffffffffff160361119a576040517f08c379a000000000000000000000000000000000000000000000000000000000815260040161119190611fbe565b60405180910390fd5b6111a381610f34565b156111e3576040517f08c379a00000000000000000000000000000000000000000000000000000000081526004016111da9061202a565b60405180910390fd5b6111f16000838360016114cf565b6111fa81610f34565b1561123a576040517f08c379a00000000000000000000000000000000000000000000000000000000081526004016112319061202a565b60405180910390fd5b6001600360008473ffffffffffffffffffffffffffffffffffffffff1673ffffffffffffffffffffffffffffffffffffffff16815260200190815260200160002060008282540192505081905550816002600083815260200190815260200160002060006101000a81548173ffffffffffffffffffffffffffffffffffffffff021916908373ffffffffffffffffffffffffffffffffffffffff160217905550808273ffffffffffffffffffffffffffffffffffffffff16600073ffffffffffffffffffffffffffffffffffffffff167fddf252ad1be2c89b69c2b068fc378daa952ba7f163c4a11628f55a4df523b3ef60405160405180910390a46113446000838360016114d5565b5050565b60006113698473ffffffffffffffffffffffffffffffffffffffff166114db565b156114c2578373ffffffffffffffffffffffffffffffffffffffff1663150b7a02611392610f75565b8786866040518563ffffffff1660e01b81526004016113b4949392919061209f565b6020604051808303816000875af19250505080156113f057506040513d601f19601f820116820180604052508101906113ed9190612100565b60015b611472573d8060008114611420576040519150601f19603f3d011682016040523d82523d6000602084013e611425565b606091505b50600081510361146a576040517f08c379a000000000000000000000000000000000000000000000000000000000815260040161146190611f52565b60405180910390fd5b805181602001fd5b63150b7a0260e01b7bffffffffffffffffffffffffffffffffffffffffffffffffffffffff1916817bffffffffffffffffffffffffffffffffffffffffffffffffffffffff1916149150506114c7565b600190505b949350505050565b50505050565b50505050565b6000808273ffffffffffffffffffffffffffffffffffffffff163b119050919050565b6000604051905090565b600080fd5b600080fd5b60007fffffffff0000000000000000000000000000000000000000000000000000000082169050919050565b61154781611512565b811461155257600080fd5b50565b6000813590506115648161153e565b92915050565b6000602082840312156115805761157f611508565b5b600061158e84828501611555565b91505092915050565b60008115159050919050565b6115ac81611597565b82525050565b60006020820190506115c760008301846115a3565b92915050565b600081519050919050565b600082825260208201905092915050565b60005b838110156116075780820151818401526020810190506115ec565b60008484015250505050565b6000601f19601f8301169050919050565b600061162f826115cd565b61163981856115d8565b93506116498185602086016115e9565b61165281611613565b840191505092915050565b600060208201905081810360008301526116778184611624565b905092915050565b6000819050919050565b6116928161167f565b811461169d57600080fd5b50565b6000813590506116af81611689565b92915050565b6000602082840312156116cb576116ca611508565b5b60006116d9848285016116a0565b91505092915050565b600073ffffffffffffffffffffffffffffffffffffffff82169050919050565b600061170d826116e2565b9050919050565b61171d81611702565b82525050565b60006020820190506117386000830184611714565b92915050565b61174781611702565b811461175257600080fd5b50565b6000813590506117648161173e565b92915050565b6000806040838503121561178157611780611508565b5b600061178f85828601611755565b92505060206117a0858286016116a0565b9150509250929050565b6000806000606084860312156117c3576117c2611508565b5b60006117d186828701611755565b93505060206117e286828701611755565b92505060406117f3868287016116a0565b9150509250925092565b60006020828403121561181357611812611508565b5b600061182184828501611755565b91505092915050565b6118338161167f565b82525050565b600060208201905061184e600083018461182a565b92915050565b61185d81611597565b811461186857600080fd5b50565b60008135905061187a81611854565b92915050565b6000806040838503121561189757611896611508565b5b60006118a585828601611755565b92505060206118b68582860161186b565b9150509250929050565b600080fd5b600080fd5b7f4e487b7100000000000000000000000000000000000000000000000000000000600052604160045260246000fd5b61190282611613565b810181811067ffffffffffffffff82111715611921576119206118ca565b5b80604052505050565b60006119346114fe565b905061194082826118f9565b919050565b600067ffffffffffffffff8211156119605761195f6118ca565b5b61196982611613565b9050602081019050919050565b82818337600083830152505050565b600061199861199384611945565b61192a565b9050828152602081018484840111156119b4576119b36118c5565b5b6119bf848285611976565b509392505050565b600082601f8301126119dc576119db6118c0565b5b81356119ec848260208601611985565b91505092915050565b60008060008060808587031215611a0f57611a0e611508565b5b6000611a1d87828801611755565b9450506020611a2e87828801611755565b9350506040611a3f878288016116a0565b925050606085013567ffffffffffffffff811115611a6057611a5f61150d565b5b611a6c878288016119c7565b91505092959194509250565b60008060408385031215611a8f57611a8e611508565b5b6000611a9d85828601611755565b9250506020611aae85828601611755565b9150509250929050565b7f4e487b7100000000000000000000000000000000000000000000000000000000600052602260045260246000fd5b60006002820490506001821680611aff57607f821691505b602082108103611b1257611b11611ab8565b5b50919050565b7f4163636573732044656e69656400000000000000000000000000000000000000600082015250565b6000611b4e600d836115d8565b9150611b5982611b18565b602082019050919050565b60006020820190508181036000830152611b7d81611b41565b9050919050565b7f546f6b656e2063616e6e6f74206265206d696e74656420616761696e00000000600082015250565b6000611bba601c836115d8565b9150611bc582611b84565b602082019050919050565b60006020820190508181036000830152611be981611bad565b9050919050565b7f4e487b7100000000000000000000000000000000000000000000000000000000600052601160045260246000fd5b600060ff82169050919050565b6000611c3782611c1f565b915060ff8203611c4a57611c49611bf0565b5b600182019050919050565b7f4552433732313a20696e76616c696420746f6b656e2049440000000000000000600082015250565b6000611c8b6018836115d8565b9150611c9682611c55565b602082019050919050565b60006020820190508181036000830152611cba81611c7e565b9050919050565b7f4552433732313a2061646472657373207a65726f206973206e6f74206120766160008201527f6c6964206f776e65720000000000000000000000000000000000000000000000602082015250565b6000611d1d6029836115d8565b9150611d2882611cc1565b604082019050919050565b60006020820190508181036000830152611d4c81611d10565b9050919050565b600081905092915050565b6000611d69826115cd565b611d738185611d53565b9350611d838185602086016115e9565b80840191505092915050565b6000611d9b8285611d5e565b9150611da78284611d5e565b91508190509392505050565b7f4f776e61626c653a206e6577206f776e657220697320746865207a65726f206160008201527f6464726573730000000000000000000000000000000000000000000000000000602082015250565b6000611e0f6026836115d8565b9150611e1a82611db3565b604082019050919050565b60006020820190508181036000830152611e3e81611e02565b9050919050565b7f4f776e61626c653a2063616c6c6572206973206e6f7420746865206f776e6572600082015250565b6000611e7b6020836115d8565b9150611e8682611e45565b602082019050919050565b60006020820190508181036000830152611eaa81611e6e565b9050919050565b7f4e487b7100000000000000000000000000000000000000000000000000000000600052601260045260246000fd5b7f4552433732313a207472616e7366657220746f206e6f6e20455243373231526560008201527f63656976657220696d706c656d656e7465720000000000000000000000000000602082015250565b6000611f3c6032836115d8565b9150611f4782611ee0565b604082019050919050565b60006020820190508181036000830152611f6b81611f2f565b9050919050565b7f4552433732313a206d696e7420746f20746865207a65726f2061646472657373600082015250565b6000611fa86020836115d8565b9150611fb382611f72565b602082019050919050565b60006020820190508181036000830152611fd781611f9b565b9050919050565b7f4552433732313a20746f6b656e20616c7265616479206d696e74656400000000600082015250565b6000612014601c836115d8565b915061201f82611fde565b602082019050919050565b6000602082019050818103600083015261204381612007565b9050919050565b600081519050919050565b600082825260208201905092915050565b60006120718261204a565b61207b8185612055565b935061208b8185602086016115e9565b61209481611613565b840191505092915050565b60006080820190506120b46000830187611714565b6120c16020830186611714565b6120ce604083018561182a565b81810360608301526120e08184612066565b905095945050505050565b6000815190506120fa8161153e565b92915050565b60006020828403121561211657612115611508565b5b6000612124848285016120eb565b9150509291505056fea2646970667358221220852cd6f54c9a76e8624d9c2a674f7f04a8cb532053f12c55ecb7bac39fb6eaef64736f6c63430008120033",
  "devdoc": {
    "events": {
      "Approval(address,address,uint256)": {
        "details": "Emitted when `owner` enables `approved` to manage the `tokenId` token."
      },
      "ApprovalForAll(address,address,bool)": {
        "details": "Emitted when `owner` enables or disables (`approved`) `operator` to manage all of its assets."
      },
      "Transfer(address,address,uint256)": {
        "details": "Emitted when `tokenId` token is transferred from `from` to `to`."
      }
    },
    "kind": "dev",
    "methods": {
      "approve(address,uint256)": {
        "details": "See {IERC721-approve}."
      },
      "balanceOf(address)": {
        "details": "See {IERC721-balanceOf}."
      },
      "buyTicket()": {
        "details": "This function is used to buy tickets for a Drake concert"
      },
      "constructor": {
        "params": {
          "_startTime": "set the start time of the ticket sale"
        }
      },
      "getApproved(uint256)": {
        "details": "See {IERC721-getApproved}."
      },
      "getEndTime()": {
        "details": "returns the end time of purchase"
      },
      "getMaxSoulNBoundCounter()": {
        "details": "returns the count of each soulbount received"
      },
      "getMaxSoulNBoundTicket()": {
        "details": "returns the Maximum of soulbounds"
      },
      "getMaxTicketAmount()": {
        "details": "returns the maximum amount of ticket that can be purchased"
      },
      "getPreSaleCounter()": {
        "details": "returns the count of each presale acquired"
      },
      "getPresaleMaxAmount()": {
        "details": "returns the maximum presale ticket sale"
      },
      "getTicketPrice()": {
        "details": "returns the amount of ticket price"
      },
      "getWhiteListedCount()": {
        "details": "returns all whitelisted addresses"
      },
      "isApprovedForAll(address,address)": {
        "details": "See {IERC721-isApprovedForAll}."
      },
      "isWhiteListed(address)": {
        "details": "checks if an address is whitelisted or not",
        "params": {
          "_address": "address to be checked"
        }
      },
      "killContract()": {
        "details": "kills the contract purchase are done, and transfer the remaining balance to the contract owner"
      },
      "name()": {
        "details": "See {IERC721Metadata-name}."
      },
      "owner()": {
        "details": "Returns the address of the current owner."
      },
      "ownerOf(uint256)": {
        "details": "See {IERC721-ownerOf}."
      },
      "removeWhiteListedAddress(address[])": {
        "details": "Removes Whitelisted Addresses",
        "params": {
          "addresses": "Addresses to be removed from the whitelist"
        }
      },
      "renounceOwnership()": {
        "details": "Leaves the contract without owner. It will not be possible to call `onlyOwner` functions anymore. Can only be called by the current owner. NOTE: Renouncing ownership will leave the contract without an owner, thereby removing any functionality that is only available to the owner."
      },
      "safeTransferFrom(address,address,uint256)": {
        "details": "See {IERC721-safeTransferFrom}."
      },
      "safeTransferFrom(address,address,uint256,bytes)": {
        "details": "See {IERC721-safeTransferFrom}."
      },
      "setApprovalForAll(address,bool)": {
        "details": "See {IERC721-setApprovalForAll}."
      },
      "supportsInterface(bytes4)": {
        "details": "See {IERC165-supportsInterface}."
      },
      "symbol()": {
        "details": "See {IERC721Metadata-symbol}."
      },
      "tokenByIndex(uint256)": {
        "details": "See {IERC721Enumerable-tokenByIndex}."
      },
      "tokenOfOwnerByIndex(address,uint256)": {
        "details": "See {IERC721Enumerable-tokenOfOwnerByIndex}."
      },
      "tokenURI(uint256)": {
        "details": "See {IERC721Metadata-tokenURI}."
      },
      "totalSupply()": {
        "details": "See {IERC721Enumerable-totalSupply}."
      },
      "transferFrom(address,address,uint256)": {
        "details": "See {IERC721-transferFrom}."
      },
      "transferOwnership(address)": {
        "details": "Transfers ownership of the contract to a new account (`newOwner`). Can only be called by the current owner."
      },
      "whiteListAddress(address[])": {
        "details": "Whitelist Addresses for presale",
        "params": {
          "addresses": "Addresses to be whitelisted for Pre-sale"
        }
      }
    },
    "version": 1
  },
  "userdoc": {
    "kind": "user",
    "methods": {},
    "version": 1
  },
  "storageLayout": {
    "storage": [
      {
        "astId": 138,
        "contract": "contracts/DrakeConcertContract.sol:DrakeConcertContract",
        "label": "_name",
        "offset": 0,
        "slot": "0",
        "type": "t_string_storage"
      },
      {
        "astId": 140,
        "contract": "contracts/DrakeConcertContract.sol:DrakeConcertContract",
        "label": "_symbol",
        "offset": 0,
        "slot": "1",
        "type": "t_string_storage"
      },
      {
        "astId": 144,
        "contract": "contracts/DrakeConcertContract.sol:DrakeConcertContract",
        "label": "_owners",
        "offset": 0,
        "slot": "2",
        "type": "t_mapping(t_uint256,t_address)"
      },
      {
        "astId": 148,
        "contract": "contracts/DrakeConcertContract.sol:DrakeConcertContract",
        "label": "_balances",
        "offset": 0,
        "slot": "3",
        "type": "t_mapping(t_address,t_uint256)"
      },
      {
        "astId": 152,
        "contract": "contracts/DrakeConcertContract.sol:DrakeConcertContract",
        "label": "_tokenApprovals",
        "offset": 0,
        "slot": "4",
        "type": "t_mapping(t_uint256,t_address)"
      },
      {
        "astId": 158,
        "contract": "contracts/DrakeConcertContract.sol:DrakeConcertContract",
        "label": "_operatorApprovals",
        "offset": 0,
        "slot": "5",
        "type": "t_mapping(t_address,t_mapping(t_address,t_bool))"
      },
      {
        "astId": 1188,
        "contract": "contracts/DrakeConcertContract.sol:DrakeConcertContract",
        "label": "_ownedTokens",
        "offset": 0,
        "slot": "6",
        "type": "t_mapping(t_address,t_mapping(t_uint256,t_uint256))"
      },
      {
        "astId": 1192,
        "contract": "contracts/DrakeConcertContract.sol:DrakeConcertContract",
        "label": "_ownedTokensIndex",
        "offset": 0,
        "slot": "7",
        "type": "t_mapping(t_uint256,t_uint256)"
      },
      {
        "astId": 1195,
        "contract": "contracts/DrakeConcertContract.sol:DrakeConcertContract",
        "label": "_allTokens",
        "offset": 0,
        "slot": "8",
        "type": "t_array(t_uint256)dyn_storage"
      },
      {
        "astId": 1199,
        "contract": "contracts/DrakeConcertContract.sol:DrakeConcertContract",
        "label": "_allTokensIndex",
        "offset": 0,
        "slot": "9",
        "type": "t_mapping(t_uint256,t_uint256)"
      },
      {
        "astId": 7,
        "contract": "contracts/DrakeConcertContract.sol:DrakeConcertContract",
        "label": "_owner",
        "offset": 0,
        "slot": "10",
        "type": "t_address"
      },
      {
        "astId": 3040,
        "contract": "contracts/DrakeConcertContract.sol:DrakeConcertContract",
        "label": "contractOwner",
        "offset": 0,
        "slot": "11",
        "type": "t_address"
      },
      {
        "astId": 3042,
        "contract": "contracts/DrakeConcertContract.sol:DrakeConcertContract",
        "label": "startTime",
        "offset": 0,
        "slot": "12",
        "type": "t_uint256"
      },
      {
        "astId": 3044,
        "contract": "contracts/DrakeConcertContract.sol:DrakeConcertContract",
        "label": "endTime",
        "offset": 0,
        "slot": "13",
        "type": "t_uint256"
      },
      {
        "astId": 3052,
        "contract": "contracts/DrakeConcertContract.sol:DrakeConcertContract",
        "label": "preSaleCount",
        "offset": 0,
        "slot": "14",
        "type": "t_uint16"
      },
      {
        "astId": 3057,
        "contract": "contracts/DrakeConcertContract.sol:DrakeConcertContract",
        "label": "soulboundCount",
        "offset": 2,
        "slot": "14",
        "type": "t_uint16"
      },
      {
        "astId": 3062,
        "contract": "contracts/DrakeConcertContract.sol:DrakeConcertContract",
        "label": "whiteListedCounter",
        "offset": 4,
        "slot": "14",
        "type": "t_uint8"
      },
      {
        "astId": 3065,
        "contract": "contracts/DrakeConcertContract.sol:DrakeConcertContract",
        "label": "sContract",
        "offset": 5,
        "slot": "14",
        "type": "t_contract(SoulboundToken)3645"
      },
      {
        "astId": 3069,
        "contract": "contracts/DrakeConcertContract.sol:DrakeConcertContract",
        "label": "whiteListed",
        "offset": 0,
        "slot": "15",
        "type": "t_mapping(t_address,t_bool)"
      }
    ],
    "types": {
      "t_address": {
        "encoding": "inplace",
        "label": "address",
        "numberOfBytes": "20"
      },
      "t_array(t_uint256)dyn_storage": {
        "base": "t_uint256",
        "encoding": "dynamic_array",
        "label": "uint256[]",
        "numberOfBytes": "32"
      },
      "t_bool": {
        "encoding": "inplace",
        "label": "bool",
        "numberOfBytes": "1"
      },
      "t_contract(SoulboundToken)3645": {
        "encoding": "inplace",
        "label": "contract SoulboundToken",
        "numberOfBytes": "20"
      },
      "t_mapping(t_address,t_bool)": {
        "encoding": "mapping",
        "key": "t_address",
        "label": "mapping(address => bool)",
        "numberOfBytes": "32",
        "value": "t_bool"
      },
      "t_mapping(t_address,t_mapping(t_address,t_bool))": {
        "encoding": "mapping",
        "key": "t_address",
        "label": "mapping(address => mapping(address => bool))",
        "numberOfBytes": "32",
        "value": "t_mapping(t_address,t_bool)"
      },
      "t_mapping(t_address,t_mapping(t_uint256,t_uint256))": {
        "encoding": "mapping",
        "key": "t_address",
        "label": "mapping(address => mapping(uint256 => uint256))",
        "numberOfBytes": "32",
        "value": "t_mapping(t_uint256,t_uint256)"
      },
      "t_mapping(t_address,t_uint256)": {
        "encoding": "mapping",
        "key": "t_address",
        "label": "mapping(address => uint256)",
        "numberOfBytes": "32",
        "value": "t_uint256"
      },
      "t_mapping(t_uint256,t_address)": {
        "encoding": "mapping",
        "key": "t_uint256",
        "label": "mapping(uint256 => address)",
        "numberOfBytes": "32",
        "value": "t_address"
      },
      "t_mapping(t_uint256,t_uint256)": {
        "encoding": "mapping",
        "key": "t_uint256",
        "label": "mapping(uint256 => uint256)",
        "numberOfBytes": "32",
        "value": "t_uint256"
      },
      "t_string_storage": {
        "encoding": "bytes",
        "label": "string",
        "numberOfBytes": "32"
      },
      "t_uint16": {
        "encoding": "inplace",
        "label": "uint16",
        "numberOfBytes": "2"
      },
      "t_uint256": {
        "encoding": "inplace",
        "label": "uint256",
        "numberOfBytes": "32"
      },
      "t_uint8": {
        "encoding": "inplace",
        "label": "uint8",
        "numberOfBytes": "1"
      }
    }
  }
}